:100000000C94250D0C94560D0C94560D0C94560D15
:100010000C94560D0C94560D0C94560D0C94560DD4
:100020000C94560D0C94560D0C94560D0C94560DC4
:100030000C94560D0C942B490C94560D0C94560DA3
:100040000C94560D0C946B410C94560D0C94560D5B
:100050000C94560D0C94560D0C944D4C0C94104B66
:100060000C94560D0C94E31B0C94560D0C94560DE9
:100070000C94560D0C94560D0C94560D0C94560D74
:100080000C94560D0C94560D0C94560D0C94560D64
:100090000C94560D0C94560D0C94560D0C94560D54
:1000A0000C94560D0C94560D0C94560D0C94560D44
:1000B0000C94560D0C94560D0C94560D0C94560D34
:1000C0000C94560D0C94560D0C94560D0C94560D24
:1000D0000C94560D0C94560D0C94560D0C94560D14
:1000E0000C94560D7548784867486B487148AF487E
:1000F0007C48804886488A488E48944898489C485E
:10010000AF48A248A648AA482C4A314A364A404A33
:100110004A4AC34A544A5C4A644A6E4A784A824A06
:10012000914A9B4AC34AA54AAF4AB94AFF4C034D7C
:100130002C4D304D124D1D4DE94C084AD73B3BCE5E
:10014000016E84BCBFFDC12F3D6C74319ABD5683D6
:100150003DDA3D00C77F11BED9E4BB4C3E916BAA8E
:10016000AABE000000803F05A84CCDB2D44EB938DD
:1001700036A9020C50B9918688083CA6AAAA2ABEC4
:10018000000000803F004E414E494E495459494EAF
:1001900046CDCCCC3D0AD7233C17B7D13877CC2BF2
:1001A000329595E6241FB14F0A000020410000C897
:1001B0004200401C4620BCBE4CCA1B0E5AAEC59D18
:1001C00074434F4D4D554E49434154494F4E0044A1
:1001D000525952554E004552524F525300494E46C5
:1001E0004F004543484F0047322F47332062616438
:1001F00020706172616D65746572730A00256973A0
:100200000025696D20256973002569682025696DC1
:100210002025697300256964202569682025696D9A
:10022000202569730025697920256964202569687E
:100230002025696D20256973005072696E742074E1
:10024000696D653A200050726F746563746564204F
:1002500050696E0A00E201DD01D601CF01C1016FD4
:1002600066660044454255473A004B494C4C45446C
:100270002E20004D3131332053006F6B0050533A24
:10028000300A0050533A310A004361703A454D45F7
:100290005247454E43595F5041525345523A300AF6
:1002A000004361703A434153455F4C494748545FAE
:1002B0004252494748544E4553533A300A0043612D
:1002C000703A544F47474C455F4C49474854533A5E
:1002D000300A004361703A534F4654574152455FCC
:1002E000504F5745523A310A004361703A4C4556D7
:1002F000454C494E475F444154413A300A004361FE
:10030000703A5A5F50524F42453A300A004361708A
:100310003A4155544F4C4556454C3A300A004361DA
:10032000703A5052494E545F4A4F423A310A0043A4
:1003300061703A50524F47524553533A300A004386
:1003400061703A4155544F5245504F52545F544595
:100350004D503A310A004361703A454550524F4D75
:100360003A310A004649524D574152455F4E414D80
:10037000453A4D61726C696E20312E312E342E312A
:100380002E3620284769746875622920534F5552CC
:1003900043455F434F44455F55524C3A687474700F
:1003A000733A2F2F6769746875622E636F6D2F4DD6
:1003B000616B6572476561722F6D336669726D7727
:1003C0006172652050524F544F434F4C5F56455217
:1003D00053494F4E3A312E30204D414348494E4506
:1003E0005F545950453A4D3320496E646570656ECF
:1003F00064656E74204475616C20455854525544B0
:1004000045525F434F554E543A3220555549443A70
:1004100063656465326132662D343161322D343763
:1004200034382D396231322D6335356336326633D7
:10043000363766660A002F2F200053657474696E84
:10044000672054726176656C20416363656C6572E8
:100450006174696F6E3A200053657474696E672029
:100460005265747261637420416363656C65726187
:1004700074696F6E3A200053657474696E6720501A
:1004800072696E7420416363656C65726174696F33
:100490006E3A200053657474696E67205072696EFD
:1004A0007420616E642054726176656C20416363D0
:1004B000656C65726174696F6E3A2000205A002085
:1004C0005900580020204D61783A2000205A002021
:1004D0005900580020204D696E3A20004F6E2000D0
:1004E0004F666600536F667420656E6473746F7038
:1004F000733A2000486F74656E64206F666673659A
:1005000074733A00000125301D0C1824311C0BFFB8
:10051000232F1BFF1EFF0403080602FF222B1A4194
:1005200042212A193F4003380906360706371F17AC
:100530001628294527444320643A0020693A0020C0
:10054000703A0043290A0061626C656420286D6975
:100550006E2074656D702000436F6C642065787444
:100560007275646573206172652000F628A6C1006B
:1005700000000000005243546F6F206661722066D5
:10058000726F6D207265666572656E636520706F4F
:10059000696E740A00486F74656E64206F666673D6
:1005A0006574733A004E6F2063617365206C6967F0
:1005B00068740A004572726F723A00556E6B6E6F06
:1005C000776E20636F6D6D616E643A202200205A51
:1005D0003A0020593A0020583A00656E6473746FEF
:1005E0007073206869743A20006563686F3A00652B
:1005F0006E7175657565696E672022004B494C4CBC
:1006000045442E20005072696E7465722073746FB9
:10061000707065642064756520746F206572726FF8
:1006200072732E2046697820746865206572726F37
:100630007220616E6420757365204D3939392074DC
:100640006F20726573746172742E202854656D700A
:100650006572617475726520697320726573657463
:100660002E2053657420697420616674657220724F
:10067000657374617274696E67290A004E6F204C4D
:10068000696E65204E756D626572207769746820A9
:10069000636865636B73756D2C204C617374204CBB
:1006A000696E653A20004E6F20436865636B737511
:1006B0006D2077697468206C696E65206E756D6257
:1006C00065722C204C617374204C696E653A200071
:1006D000636865636B73756D206D69736D617463B9
:1006E000682C204C617374204C696E653A20004C74
:1006F000696E65204E756D626572206973206E6F3C
:1007000074204C617374204C696E65204E756D6267
:1007100065722B312C204C617374204C696E653AE4
:1007200020004D3131300020496E76616C696420C3
:1007300065787472756465722000F628A6C10000A1
:100740000000000070C1E13A4D4300007D4300000D
:100750005243202F002040002042403A0020403ADF
:100760000020573A0020573A005072696E74657243
:100770002068616C7465642E206B696C6C2829207C
:1007800063616C6C6564210A002020506C616E6EA0
:10079000657242756666657242797465733A2000C7
:1007A0002046726565204D656D6F72793A20004371
:1007B0006F6D70696C65643A204A756C2020312039
:1007C000323032320A00207C20417574686F723AF0
:1007D000204D47207C53636F74742C204A6F7368DC
:1007E0002C204B796C652C2044617669640A0032B8
:1007F0003031372D30372D30342031323A3030001F
:10080000204C61737420557064617465643A2000F3
:10081000312E312E342E312E360A004D61726C6924
:100820006E0020536F667477617265205265736540
:10083000740A00205761746368646F67205265739F
:1008400065740A002042726F776E206F75742052B3
:10085000657365740A002045787465726E616C205A
:1008600052657365740A00506F77657255700A009F
:1008700073746172740A000000484200004842002C
:10088000008041000000005761726E696E673A2077
:10089000486F6D696E672042756D70204469766996
:1008A000736F72203C20310A0004040600004040AF
:1008B00000004040000000400000624300007D4313
:1008C00000006143FFFF012066697273740A005AD9
:1008D0000059005800486F6D6520004163746976C7
:1008E000652045787472756465723A20004E6F20F9
:1008F0006D6F7665206F6E20746F6F6C6368616ECC
:1009000067650A004572726F722077726974696E4A
:100910006720746F20454550524F4D210A004532E3
:100920003A200045313A200045303A20005A3A201A
:1009300000593A2000583A20004D53312C4D533283
:100940002050696E730A004B642000236465666959
:100950006E65202044454641554C545F004B69204C
:100960000023646566696E65202044454641554C08
:10097000545F004B70200023646566696E6520201B
:1009800044454641554C545F0050494420417574DC
:100990006F74756E652066696E6973686564212081
:1009A00050757420746865206C617374204B702CD2
:1009B000204B6920616E64204B6420636F6E7374FA
:1009C000616E74732066726F6D2062656C6F772044
:1009D000696E746F20436F6E6669677572617469C2
:1009E0006F6E2E680A00504944204175746F74750B
:1009F0006E65206661696C6564212074696D656F40
:100A000075740A00504944204175746F74756E65A1
:100A1000206661696C6564212054656D7065726142
:100A20007475726520746F6F20686967680A0020AA
:100A30004B643A2000204B693A2000204B703A204A
:100A4000000A20436C617373696320504944200A93
:100A5000002054753A2000204B753A2000206D612B
:100A6000783A2000206D696E3A200020643A200018
:100A700020626961733A20000606FFFFFF00000252
:100A800002026265640A002C2073797374656D201C
:100A900073746F7070656421204865617465725F5E
:100AA00049443A200048656174696E67206661694F
:100AB0006C65640048656174696E67206661696C85
:100AC00065640048656174696E67206661696C657C
:100AD000640048656174696E67206661696C65646D
:100AE00000205A3A0020593A0020436F756E742056
:100AF000583A0020453A00205A3A0020593A005806
:100B00003A0020633A0020643A0020693A002070DD
:100B10003A00526573656E643A20006F6B00207472
:100B20006F6F206C6F6E6720657874727573696F74
:100B30006E2070726576656E7465640A0020636F5E
:100B40006C6420657874727573696F6E207072655D
:100B500076656E7465640A00627573793A20706117
:100B60007573656420666F7220696E7075740A0013
:100B7000627573793A2070617573656420666F726F
:100B800020757365720A00627573793A2070726F0E
:100B900063657373696E670A004B494C4C45442E7C
:100BA00020004B494C4C2063617573656420627969
:100BB00020746F6F206D75636820696E616374695E
:100BC00076652074696D65202D2063757272656E7F
:100BD0007420636F6D6D616E643A200048617264C9
:100BE000636F6465642044656661756C7420536549
:100BF0007474696E6773204C6F616465640A00B039
:100C0000040000B00400000A000000D0070000004B
:100C1000009643000096430000A0410000F04133DD
:100C200033A0423333A042CDEC7B4400C0EB4320E1
:100C3000440020490020204D333034205000204C07
:100C40000020430020440020490020204D33303153
:100C5000205000204C002043002044002049002068
:100C6000500020204D33303120450050494420733E
:100C7000657474696E67733A0A00205A002059003F
:100C800020580020204D323138205400486F7465C0
:100C90006E64206F6666736574733A0A00205A00AA
:100CA00020590020204D323036205800486F6D65A5
:100CB000206F66667365743A0A00204500205A006A
:100CC00020590020580020420020540020204D329E
:100CD0003035205300416476616E6365643A205379
:100CE0003C6D696E5F66656564726174653E205433
:100CF0003C6D696E5F74726176656C5F6665656494
:100D0000726174653E20423C6D696E5F7365676D0C
:100D1000656E745F74696D655F6D733E20583C6DE0
:100D200061785F78795F6A65726B3E205A3C6D61CD
:100D3000785F7A5F6A65726B3E20453C6D61785FD3
:100D4000655F6A65726B3E0A0020540020520020E5
:100D5000204D323034205000416363656C65726110
:100D600074696F6E2028756E6974732F7332293A17
:100D700020503C7072696E745F616363656C3E20E5
:100D8000523C726574726163745F616363656C3E4B
:100D900020543C74726176656C5F616363656C3E80
:100DA0000A00204500205A0020590020204D3230F2
:100DB000312058004D6178696D756D204163636520
:100DC0006C65726174696F6E2028756E6974732F1B
:100DD0007332293A0A00204500205A002059002089
:100DE000204D3230332058004D6178696D756D208B
:100DF0006665656472617465732028756E697473C5
:100E00002F73293A0A00204500205A00205900205B
:100E1000204D39322058005374657073207065720C
:100E200020756E69743A0A0020204D32303020441B
:100E3000300A0020204D3230302054312044002030
:100E4000204D3230302044002044697361626C656B
:100E5000640A0046696C616D656E74207365747414
:100E6000696E67733A002020473231202020203BF2
:100E700020556E69747320696E206D6D0A007A5F6B
:100E80006D61783A2000795F6D696E3A2000785F75
:100E90006D61783A2000785F6D696E3A2000526586
:100EA000706F7274696E6720656E6473746F702002
:100EB0007374617475730A0024F4D43050C38E20A7
:100EC000C2A24017828B7011127A910D816CD90ADF
:100ED000A861E108C7586607615143061E4B5D05CE
:100EE000C145A7041A411104093D98037139310322
:100EF0004036DB0265339102D4305402802E1D024D
:100F0000632CEE01752AC501B028A00110278101CC
:100F10008F2564012B244B01E0223401AC211F01F9
:100F20008D200D01801FFC00841EED00971DDF0049
:100F3000B81CD200E61BC600201BBC00641AB2001D
:100F4000B219A8000A19A0006A189900D1179100D7
:100F500040178B00B516840031167E00B31579005A
:100F60003A157300C7146F0058146A00EE13660038
:100F70008813630025135E00C7125B006C125700D4
:100F800015125400C111510070114F0021114B0076
:100F9000D61049008D104700461044000210420050
:100FA000C00F4000800F3E00420F3C00060F3B0088
:100FB000CB0E3800930E37005C0E3500270E340040
:100FC000F30D3200C10D3100900D3000600D2E0088
:100FD000320D2D00050D2C00D90C2B00AE0C290074
:100FE000850C29005C0C2700350C27000E0C260010
:100FF000E80B2400C40B2400A00B23007D0B23006E
:101000005A0B2100390B2100180B2000F80A1F0091
:10101000D90A1E00BB0A1E009D0A1D00800A1D0081
:10102000630A1C00470A1B002C0A1B00110A1A0045
:10103000F7091A00DD091900C4091900AB091900E4
:10104000920917007B091800630917004C09160064
:1010500036091600200916000A091500F5081500C2
:10106000E0081400CC081400B8081400A408140008
:10107000900813007D0812006B0813005808120036
:10108000460812003408110023081100120811004C
:1010900001081100F0071000E0071000D007100051
:1010A000C0071000B0070F00A107100091070E0045
:1010B00083070F0074070F0065070E0057070E0027
:1010C00049070E003B070D002E070E0020070D00FC
:1010D00013070D0006070D00F9060C00ED060D00C4
:1010E000E0060C00D4060C00C8060C00BC060C0080
:1010F000B0060C00A4060B0099060C008D060B0030
:1011000082060B0077060B006C060B0061060A00D6
:1011100057060B004C060A0042060A0038060A0071
:101120002E060A0024060A001A060A001006090004
:1011300007060A00FD050900F4050900EB05090092
:10114000E2050900D9050900D0050900C705090015
:10115000BE050900B5050800AD050800A505090094
:101160009C050800940508008C050800840508000B
:101170007C050800740508006C050700650508007B
:101180005D050700560508004E05070047050700E6
:101190004005080038050700310507002A0507004B
:1011A000230507001C050600160507000F050700AC
:1011B0000805060002050700FB040600F504070009
:1011C000EE040600E8040600E2040700DB04060063
:1011D000D5040600CF040600C9040600C3040600B7
:1011E000BD040600B7040600B1040500AC04060007
:1011F000A6040600A00405009B0406009504050053
:10120000900406008A040500850405008004060099
:101210007A04050075040500700405006B040500E0
:1012200066040500610405005C0405005704050020
:10123000520405004D040500480405004304050060
:101240003E0404003A04050035040500300404009F
:101250002C04050027040400230405001E040400D8
:101260001A04040016040500110404000D0404000F
:10127000090405000404040000040400FC03040045
:10128000F8030400F4030400F0030400EC0304007A
:10129000E8030400E4030400E0030400DC030400AA
:1012A000D8030400D4030400D0030400CC030400DA
:1012B000C8030300C503030024F404D9201BC40C95
:1012C0005C0E9804C4095F0265077101F405F9001A
:1012D000FB04B30048048700C103690058035500AC
:1012E00003034500BE023A008402310053022A0083
:1012F0002902250004022000E4011C00C801190095
:10130000AF0117009801140084011300710110004F
:101310006101100051010E0043010D0036010B0068
:101320002B010B0020010B00150109000C01090025
:1013300003010800FB000800F3000800EB000700B1
:10134000E4000600DE000600D8000600D200060019
:10135000CC000500C7000500C2000500BD00040068
:10136000B9000400B5000400B1000400AD000400A1
:10137000A9000400A5000300A20003009F000400D0
:101380009B000300980003009500020093000300F7
:10139000900003008D0002008B0003008800020013
:1013A0008600020084000300810002007F0002002A
:1013B0007D0002007B00020079000200770001003E
:1013C0007600020074000200720001007100020049
:1013D0006F0002006D0001006C0002006A00010055
:1013E000690002006700010066000100650001005D
:1013F0006400020062000100610001006000010061
:101400005F0002005D0001005C0001005B00010064
:101410005A00010059000100580001005700010066
:101420005600010055000100540001005300000067
:101430005300010052000100510001005000010062
:101440004F0001004E0000004E0001004D00010061
:101450004C0001004B0000004B0001004A0001005D
:101460004900010048000000480001004700010059
:101470004600000046000100450000004500010054
:10148000440001004300000043000100420000004E
:101490004200010041000000410001004000010045
:1014A0003F0000003F0001003E0000003E00010040
:1014B0003D0000003D0001003C0000003C00000039
:1014C0003C0001003B0000003B0001003A0000002E
:1014D0003A00010039000000390001003800000026
:1014E000380000003800010037000000370001001C
:1014F0003600000036000000360001003500000014
:101500003500000035000100340000003400000008
:1015100034000100330000003300000033000100FC
:1015200032000000320000003200010031000000F3
:1015300031000000310001003000000030000000E8
:10154000300001002F0000002F0000002F000000DD
:101550002F0001002E0000002E0000002E000100D0
:101560002D0000002D0000002D0000002D000100C6
:101570002C0000002C0000002C0000002C000100BA
:101580002B0000002B0000002B0000002B000100AE
:101590002A0000002A0000002A0000002A000100A2
:1015A0002900000029000000290000002900000097
:1015B0002900010028000000280000002800000089
:1015C000280000002800010027000000270000007C
:1015D000270000002700000027000100260000006F
:1015E0002600000026000000260000002600010062
:1015F0002500000025000000250000002500000057
:101600002500000025000100240000002400000047
:10161000240000002400000024000100230000003A
:10162000230000002300000023000000230000002E
:10163000230000002300010022000000220000001F
:101640002200000022000000220000002200010011
:101650002100000021000000210000002100000006
:1016600021000000210000002100010020000000F6
:1016700020000000200000002000000020000000EA
:101680002000000020000000200001001F000000DA
:101690001F0000001F0000001F0000001F000000CE
:1016A0001F0000001F0001001E0000001E000000BF
:1016B0001E0000001E00000070012C019001270197
:1016C000B0012201C0011D01F00118011002130137
:1016D00030020E016002090190020401C002FF0005
:1016E0000003FA004003F5008003F000D003EB0094
:1016F0002004E6007004E100E004DC004005D700AF
:10170000C005D2004006CD00D006C8008007C30047
:101710003008BE00F008B900C009B400B00AAF003C
:10172000B00BAA00D00CA500000EA000500F9B002B
:10173000C01096005012910000148C00C015870054
:10174000B0178200B0197D00D01B7800001E730016
:1017500040206E0090226900F024640040275F0062
:1017600090295A00E02B5500102E500020304B00DD
:1017700010324600E033410090353C00103737000E
:1017800070383200A0392D00B03A2800A03B230069
:10179000603C1E00103D1900903D1400103E0F00EB
:1017A000703E0A00C03E0500003F0000403FFBFFC6
:1017B000803FF6FFC03FF1FF4572723A204D494E1F
:1017C00054454D5020424544004572723A204D49DF
:1017D0004E54454D50004D494E54454D5020747265
:1017E00069676765726564004572723A204D4158B9
:1017F00054454D5020424544004572723A204D41B7
:101800005854454D50004D415854454D5020747228
:101810006967676572656400000021002400270085
:101820002A002D00300033000101000004010701EF
:101830000A0100002200250028002B002E003100A4
:10184000340002010000050108010B010000200026
:101850002300260029002C002F0032000001000088
:101860000301060109010505050507050808080823
:10187000020202020A0A0808040404040101010128
:101880000101010103030303030303030407070723
:101890000C0C0C0C0C0C0C0C0202020206060606C8
:1018A000060606060B0B0B0B0B0B0B0B0102102095
:1018B0002008081020401020408002010201080486
:1018C000020101020408102040808040201008041A
:1018D0000201800402018040201008040201080473
:1018E00002010102040810204080010204081020B7
:1018F000408000000A0B02090C0D0E0807030401CA
:1019000000000000000000000000000000000000D7
:1019100000000000000000000000000000001211A4
:1019200010000000000000000000000000000000A7
:10193000000000000000000002290A002062797403
:1019400065733B20637263200053657474696E672E
:10195000732053746F726564202800202863616CC3
:1019600063756C6174656429210A0020213D2000A3
:10197000454550524F4D20435243206D69736D6170
:10198000746368202D202873746F726564292000A9
:10199000290A002062797465733B2063726320001A
:1019A0002073746F7265642073657474696E6773F5
:1019B00020726574726965766564202800204D6127
:1019C000726C696E3D563339290A002845455052DC
:1019D0004F4D3D00454550524F4D2076657273691D
:1019E0006F6E206D69736D61746368200020746F81
:1019F0006F206C6F6E6720657874727573696F6E97
:101A00002070726576656E7465640A0020636F6C81
:101A10006420657874727573696F6E207072657674
:101A2000656E7465640A00544845524D414C20521D
:101A3000554E4157415900546865726D616C205292
:101A4000756E6177617900009F8111241FBECFEF11
:101A5000D1E2DEBFCDBF00E00CBF13E0A0E0B2E0FA
:101A6000E8E8FAE101E00BBF02C007900D92AA3648
:101A7000B107D9F72EE0AAE6B3E001C01D92A6395E
:101A8000B207E1F71DE0C5E2DDE000E006C0219706
:101A90000109802FFE010E940B8DC432D10780E026
:101AA0000807A9F70E94A56D0C94428D0C940000C4
:101AB0008FB7F89490914B0820914A08921759F0EB
:101AC000E92FF0E0E653F84F208130E09F5F9F77E9
:101AD00090934B0802C02FEF3FEF8FBFC9010895CD
:101AE000FF920F931F93CF93DF93FC0120812B3341
:101AF00019F1D0912306D430F8F4F62EBC01C09130
:101B00004A060C2F10E0F0E6CF9FC00111248B573E
:101B10009B4F0E942D8DF801EE54F94FF082CF5F5C
:101B2000C43018F4C0934A0602C010924A06DF5F20
:101B3000D093230681E001C080E0DF91CF911F9117
:101B40000F91FF9008952F923F924F925F926F9264
:101B50007F928F929F92AF92BF92CF92DF92EF923D
:101B6000FF920F931F93CF93DF9300D000D0CDB798
:101B7000DEB79A8389830E94044BE981FA81C6808B
:101B8000D780E084F184C114D104E104F10409F0A8
:101B9000ACC22485222309F469C3328521502487ED
:101BA00021E0230F22874585241301C01286E98195
:101BB000FA8124E0329FE00DF11D1124C684D78400
:101BC000E088F188E981FA81C282D382E482F582D9
:101BD000DC01CB018C0D9D1DA11DB11D868397835A
:101BE000A087B18784819581892B09F43FC3FFB712
:101BF000FD83F894E981FA81228033802101612CF0
:101C0000712C0481158180916402833121F08F3F12
:101C100009F068C205C0E8E3F9E124912E83DAC037
:101C200083E180936402E8E3F9E184918E838F3F3E
:101C300009F458C2823009F469C030F5882309F4E8
:101C40004CC0813009F0C6C0109280001092810013
:101C50008091810088608093810080918100816003
:101C600080938100E9E7F8E1E491F0E0EE0FFF1FD7
:101C7000EE5CF74E85919491EFEBF8E1E491E093FF
:101C80003206E1E0EE8330C19E81943009F482C0D7
:101C900008F460C0953009F09DC0109220011092A8
:101CA000210180912101886080932101809121018F
:101CB000816080932101E9E7F8E1E491F0E0EE0F23
:101CC000FF1FEE5CF74E85919491EFEBF8E1E49104
:101CD000E0932F0695E09E8307C114BC15BC84B524
:101CE000826084BD85B5816085BDE9E7F8E1E49156
:101CF000F0E0EE0FFF1FEE5CF74E85919491EFEB55
:101D0000F8E1E491E09333061E82ABC21092B0007A
:101D10001092B1008091B00082608093B0008091F9
:101D2000B10081608093B100E9E7F8E1E491F0E06F
:101D3000EE0FFF1FEE5CF74E859194919093E00DAE
:101D40008093DF0DEFEBF8E1E491E093E10DF2E039
:101D5000FE8387C2109290001092910080919100B2
:101D600088608093910080919100816080939100C0
:101D7000E9E7F8E1E491F0E0EE0FFF1FEE5CF74ECB
:101D800085919491EFEBF8E1E491E093310623E043
:101D90002E83AAC01092A0001092A1008091A100F1
:101DA00088608093A1008091A10081608093A10050
:101DB000E9E7F8E1E491F0E0EE0FFF1FEE5CF74E8B
:101DC00085919491EFEBF8E1E491E093300684E0A3
:101DD0008E838AC0EE81E7FD85C161E083E10E94C8
:101DE000C9498E818D7F09F083C04801A12CB12C97
:101DF00060E072E18AE790E0A50194010E94EF8C17
:101E000029833A834B835C8369017A01F1E0CF1A1D
:101E1000D108E108F1082FEFC216D104E104F10462
:101E200009F008F44EC060E472E48FE090E0A50190
:101E300094010E94EF8C69017A0181E0C81AD108EF
:101E4000E108F1089E81923009F5EFEFCE16D1043A
:101E5000E104F10409F008F4CBC160E970ED83E01E
:101E600090E0A50194010E94EF8C69017A01F1E0F4
:101E7000CF1AD108E108F1082FEFC216D104E1040E
:101E8000F10411F008F041C183E027C08FEFC816BC
:101E9000D104E104F104B9F0B0F068E478EE81E037
:101EA00090E0A50194010E94EF8C69017A0191E014
:101EB000C91AD108E108F108EE81EE2309F49AC1AC
:101EC00063C181E001C082E09E81911106C095B599
:101ED000987F892B85BD7AC085E09091B100987F6D
:101EE000892B8093B10072C061E083E10E94C949EF
:101EF0004801A12CB12C60E072E18AE790E0A501D5
:101F000094010E94EF8C69017A01E1E0CE1AD108B8
:101F1000E108F108C114D104F1E0EF06F10488F002
:101F200068E478EE81E090E0A50194010E94EF8CD6
:101F300069017A0181E0C81AD108E108F10883E05B
:101F400001C081E09E81913071F490918100987F71
:101F5000892B80938100452846284728D9F52FEF03
:101F60003FEFA90168C0EE81E33071F490919100D8
:101F7000987F892B8093910045284628472851F562
:101F80002FEF3FEFA90179C0FE81F43071F49091F9
:101F9000A100987F892B8093A100452846284728D7
:101FA000C9F42FEF3FEFA9017AC02E81253071F4DB
:101FB00090912101987F892B809321014528462803
:101FC000472841F42FEF3FEFA9017BC04528462861
:101FD000472869F0D801AA0FBB1F91010E94F4891C
:101FE00028EE33E040E050E00E94C88903C02FEFA4
:101FF0003FEFA9018E81823081F12CF4882361F0BA
:102000008130C9F06FC09E81943009F448C0ACF1B2
:10201000953009F456C066C0C7BC2093440630937F
:102020004506409346065093470680916E008260B5
:1020300080936E0057C0D0928900C0928800209390
:1020400040063093410640934206509343068091E8
:102050006F00826080936F0045C0C092B3002093F0
:10206000E20D3093E30D4093E40D5093E50D809124
:10207000700082608093700035C0D0929900C09249
:10208000980020933C0630933D0640933E065093C3
:102090003F068091710082608093710023C0D092CE
:1020A000A900C092A80020933806309339064093C7
:1020B0003A0650933B0680917200826080937200D2
:1020C00011C0D0922901C092280120933406309388
:1020D0003506409336065093370680917300826030
:1020E00080937300ED81EFBFC1C0DC01CB018C197F
:1020F0009D09AE09BF09B7FDB9C05A98E981FA81B7
:102100001682178210861186B1C068E478EE81E0ED
:1021100090E0A50194010E94EF8C69017A01F1E041
:10212000CF1AD108E108F1082FEFC216D104E1045B
:10213000F10441F138F164E274EF80E090E0A50130
:1021400094010E94EF8C69017A01F1E0CF1AD10865
:10215000E108F1082FEFC216D104E104F10409F0FF
:1021600008F4BACE62E17AE780E090E0A50194013C
:102170000E94EF8C69017A0181E0C81AD108E10858
:10218000F10819C084E0A9CE2FEFC216D104E104F2
:10219000F10409F008F463C062E17AE780E090E0BE
:1021A000A50194010E94EF8C69017A01F1E0CF1A38
:1021B000D108E108F1082FEFC216D104E104F104BF
:1021C000A9F0A0F089819A81AB81BC812AE0B59504
:1021D000A795979587952A95D1F76C017D01F1E038
:1021E000CF1AD108E108F10887E077CE86E075CEF6
:1021F00082E073CEEFEFCE16D104E104F10469F171
:1022000060F162E17AE780E090E0A50194010E942C
:10221000EF8C69017A0181E0C81AD108E108F10860
:102220009FEFC916D104E104F104A9F0A0F089815F
:102230009A81AB81BC813AE0B595A7959795879532
:102240003A95D1F76C017D01E1E0CE1AD108E108A1
:10225000F10885E03CCE84E03ACE83E038CE84E0DD
:1022600033CE61E083E10E94C949BFCD26960FB607
:10227000F894DEBF0FBECDBFDF91CF911F910F91BC
:10228000FF90EF90DF90CF90BF90AF909F908F9096
:102290007F906F905F904F903F902F90089580E1D6
:1022A000EEE1FEE0ADE0BEE001900D928A95E1F72F
:1022B000089580E1EDE0FEE0AEE1BEE001900D9218
:1022C0008A95E1F708954F925F926F927F928F9275
:1022D0009F92AF92BF92CF92DF92EF92FF920F93B5
:1022E0001F93CF93DF938C01EC01CC0FDD1FCC0F3C
:1022F000DD1FFE01E459F74F20E030E0A9016081C5
:102300007181828193810E94048AFE01E455FC4F11
:1023100020813181428153810E94048A6B017C01BA
:10232000C65BDB4F688379838A839B83012B09F02B
:1023300099C08090630490906404A0906504B0906C
:10234000660420E030E04CE753E4C501B4010E948C
:102350002A8C181634F0812C912C8CE7A82E83E45B
:10236000B82E80911D0E8823A9F020E030E040EBCC
:1023700051E4C701B6010E94048A60932D02709354
:102380002E0280932F0290933002A7019601C5017F
:10239000B4015EC08091790490917A04EAE3F7E099
:1023A000029709F03DC02591359145915491C7019F
:1023B000B6010E94048A60932D0270932E028093CE
:1023C0002F0290933002C6E4D7E0FE01459055906D
:1023D000659074902091390230913A0240913B020D
:1023E00050913C02C501B4010E94038AB62E072F0A
:1023F000182FA92EA30192010E942A8C18164CF4C2
:10240000FE0185919591A591B491B82E092F1A2FAF
:10241000AB2EA70196016B2D702F812F9A2D18C01E
:102420002591359145915491C701B6010E94048AC6
:1024300060932D0270932E0280932F0290933002AE
:10244000E6E4F7E02591359145915491C701B60135
:102450000E94048A609321027093220280932302D7
:1024600090932402DF91CF911F910F91FF90EF90F5
:10247000DF90CF90BF90AF909F908F907F906F90A4
:102480005F904F9008958F929F92AF92BF92EF927C
:10249000FF920F931F93CF93DF938C014A015B014F
:1024A000EC01CC0FDD1FCC0FDD1FCE01825E914F02
:1024B0007C01C459D74F288139814A815B81C5018C
:1024C000B4010E94038AF701208131814281538146
:1024D0000E94048AF70160837183828393838882D8
:1024E0009982AA82BB82C801DF91CF911F910F917F
:1024F000FF90EF90BF90AF909F908F90E4CECF92DF
:10250000DF92EF92FF92892B31F4FF90EF90DF90F2
:10251000CF900C940F21C0906304D0906404E0909D
:102520006504F090660420E030E0A901C701B6011F
:102530000E942A8C181634F0C12CD12C8CE7E82E7E
:1025400083E4F82E20914A0430914B0440914C04CE
:1025500050914D04C701B6010E94048AFF90EF908C
:10256000DF90CF9008950F931F93CF93DF938C014B
:10257000FC01EA5AFB4F81E08083E801CC0FDD1FAC
:10258000CC0FDD1FFE01E455FC4F10821182128238
:102590001382C80198DE012BB1F480911D0E8130A9
:1025A00039F02091790430917A042230310559F4C0
:1025B00090E0A5DF60931E0E70931F0E8093200E97
:1025C0009093210E17C0FE01E559FA4F25913591E0
:1025D000459154918E01025E114FC65BDB4F6881BD
:1025E00079818A819B810E94048AF80160837183CA
:1025F00082839383DF91CF911F910F9108952AE2F7
:102600003EE046E25EE062E27EE08EE19EE00C9417
:10261000B86C8F929F92AF92BF92CF92DF92EF925F
:10262000FF920F931F93CF93DF934A015B017901D0
:10263000EC01CC0FDD1FCC0FDD1FCE01825E914F70
:102640006C01FC011082118212821382D8DFF60124
:1026500080829182A282B382C0901D0E20E030E081
:10266000A901B801C7010E94DA8581110CC0FE01E1
:10267000E958F74F4591559165917491342F252F65
:10268000962F872F04C0302F212F9E2D8F2DE32EC4
:10269000F22E092F182F2AE23EE046E25EE062E2C7
:1026A0007EE08EE19EE00E9493580E94614110926C
:1026B0002106DF91CF911F910F91FF90EF90DF9056
:1026C000CF90BF90AF909F908F90089580912604F7
:1026D00090912704009731F04AE050E060E070E00C
:1026E0000C942E8360E070E0CB010895EFDF97FD3E
:1026F0000AC0ECDF6F3F71058105910509F02CF4EC
:10270000E5DF862F089580E008958FEF089580918A
:10271000260490912704892B31F0E8DF91E08111A4
:1027200003C090E001C091E0892F08950F931F939B
:10273000CF938091260490912704009711F1FC011A
:102740008F01C1912C2F2F7DA9F0C53411F0C53612
:10275000B9F7F801108260E070E080912604909152
:1027600027040E94DB81F801C083562F472F382FA2
:10277000292F0BC060E070E0CF911F910F910C9456
:10278000DB8150E040E030E020E0652F742F832FA4
:10279000922FCF911F910F91089581548A3150F556
:1027A000482F50E0FA0193E0F595E7959A95E1F707
:1027B000EC57FC4F208130E0877002C0359527959B
:1027C0008A95E2F7822F817020FF15C0FA01E65941
:1027D000FC4F9081992339F020917B0430917C0447
:1027E000290F311D02C020E030E0309327042093F0
:1027F0002604089580E00895D0DF882341F081E029
:102800002091260430912704232B09F480E00895B9
:10281000CF92DF92EF92FF920F931F93CF93DF93AC
:1028200080E8E82E82E0F82E0DE01EE0CEE1DEE04A
:102830009DE7C92E94E0D92EF70181917F01ADDF8C
:102840008823D9F073DF9B01AC01F60180818111EF
:1028500004C080918104882329F0688179818A816C
:102860009B8103C060E070E0CB010E94048AF80104
:10287000608371838283938309C088819981AA814F
:10288000BB81F80180839183A283B3830C5F1F4FC8
:102890002496FFEFCF1ADF0A84E8E81682E0F806F4
:1028A00059F686E4A9DF8823B9F040DF20E030E064
:1028B000A9010E942A8C18167CF438DF20E030E051
:1028C00040E752E40E94E08A60936E0270936F02C8
:1028D0008093700290937102DF91CF911F910F91BD
:1028E000FF90EF90DF90CF9008950E94044B60938B
:1028F00088037093890380938A0390938B030895D0
:102900009091C00095FFFCCF8093C6000895BF92C0
:10291000CF92DF92EF92FF920F931F93CF93DF93AB
:10292000CDB7DEB76E970FB6F894DEBF0FBECDBF42
:1029300060914806709149066115710551F14DE1AC
:1029400050E0CE0101967C010E9483851E8EF70126
:102950008F010E191F09B190BB2021F19AE0B91225
:10296000F7CF20C0B7018FEE95E00E94A26B82E204
:10297000C7DF8AE0C5DFBB2051F10F5F1F4F809199
:10298000480690914906080F191F109349060093B5
:10299000480681E02091480630914906232BD1F466
:1029A00080E018C0F701E00FF11F108260E0C7015E
:1029B00097D8882371F3E9EEF5E084916F019FEFDA
:1029C000C91AD90A882371F29BDFF601F6CF00E01D
:1029D00010E0DBCF6E960FB6F894DEBF0FBECDBF12
:1029E000DF91CF911F910F91FF90EF90DF90CF90EB
:1029F000BF9008958F929F92AF92BF92EF92FF92F5
:102A00000F931F93CF93DF93CDB7DEB7A0970FB689
:102A1000F894DEBF0FBECDBF61157105810591052C
:102A200089F100E0842E912CA12CB12C102FEE24E2
:102A3000E394F12CEC0EFD1EE00EF11C07FDFA9460
:102A4000A50194010E94C889F7016083B901CA01F8
:102A50000F5F611571058105910541F71F3F21F158
:102A6000E1E0F0E0EC0FFD1FE10FF11D17FDFA951D
:102A700080818A3010F097E301C090E3890F40DF36
:102A80001150ECCF80E3A0960FB6F894DEBF0FBED6
:102A9000CDBFDF91CF911F910F91FF90EF90BF902D
:102AA000AF909F908F902CCFA0960FB6F894DEBF7A
:102AB0000FBECDBFDF91CF911F910F91FF90EF908F
:102AC000BF90AF909F908F900895EF92FF920F93D9
:102AD0001F93CF93DF937C0184E58EDED82F88236C
:102AE00021F104DEC82F8230E4F0E9EEF5E08491B4
:102AF0008F010F5F1F4F882319F002DFF801F7CF16
:102B00008DE4FEDEB70180E090E04AE073DF6C2FD9
:102B1000CC0F770B87E297E00E94896B8AE0F0DEAA
:102B200008C080934904D0E004C080911D0E8093BA
:102B300049048D2FDF91CF911F910F91FF90EF905E
:102B40000895CF92DF92EF92FF926B017C0197FF85
:102B50000AC08DE2D5DEF094E094D094C094C11CFC
:102B6000D11CE11CF11C4AE0C701B601FF90EF90B7
:102B7000DF90CF903FCFFF920F931F93CF93DF93C0
:102B8000F82E092F162FE4EBF5E08491EF01219642
:102B9000882319F0B5DEFE01F8CFEF2DF02F8491D8
:102BA000EF012196882319F0ABDEFE01F8CF60918A
:102BB000BC037091BD038091BE039091BF03C1DF40
:102BC0008AE09EDE11110E943E351092B0061092EE
:102BD000AF06DF91CF911F910F91FF900895CF9293
:102BE000DF92EF92FF920F931F93CF93DF93809129
:102BF0002306843008F02DC12FB7F89480914A083D
:102C000090914B082FBF891B8F7709F422C10E9436
:102C1000580D2091AF063091B0068A3019F08D30F2
:102C200009F0E6C01092B1062115310501F3F90152
:102C3000E15BF94F10821092B0061092AF062FE4BC
:102C400036E0E90188812F5F3F4F8032D1F38E3427
:102C500011F48E0102C000E010E06AE270E0CE01E3
:102C60000E94198D7C010115110509F470C062E202
:102C700077E0CE010E9492856C01892B49F06EE4C9
:102C800070E0CE0104960E94198D009709F08C0126
:102C90004AE050E060E070E0C80101960E942E8397
:102CA00060934B0670934C0680934D0690934E06AE
:102CB0000091BC031091BD032091BE033091BF036E
:102CC0000F5F1F4F2F4F3F4F60177107820793070A
:102CD00031F0CD2821F461E08FEE96E03DC0E114A3
:102CE000F10401F180E010E0FE01E80FF11D908198
:102CF0009A3219F08F5F1927F7CF4AE050E060E071
:102D000070E0C70101960E942E83012F10E020E0A1
:102D100030E0601771078207930741F061E080EDB2
:102D200096E01AC061E086EA96E016C080914B06F4
:102D300090914C06A0914D06B0914E068093BC0335
:102D40009093BD03A093BE03B093BF030EC0892B25
:102D500061F060E08CE796E0DF91CF911F910F91D9
:102D6000FF90EF90DF90CF9006CF80913D028111D0
:102D70001CC067E470E0CE010E94198D0097A9F095
:102D80004AE050E060E070E001960E942E836430DB
:102D9000710558F4E5E0F6E084918F010F5F1F4F55
:102DA000882319F0ADDDF801F7CF63EE72E0CE01B4
:102DB0000E94248D892B11F410923E0268EE72E07D
:102DC000CE010E94248D892B21F48CEF95E00E9486
:102DD00063246DEE72E0CE010E94248D892B11F4E4
:102DE0000E94923561E08FE496E00E94700DFFCE64
:102DF0002F3531050CF0FBCE8C35B1F42FB7F8949C
:102E000080914A0890914B082FBF891B8F7709F456
:102E1000EECE0E94580D9091B1069111E8CE20910E
:102E2000AF063091B00609C08B3319F491E090934E
:102E3000B1069091B1069111DACEA9014F5F5F4FB3
:102E40005093B0064093AF06F901E15BF94F8083E0
:102E5000CECEDF91CF911F910F91FF90EF90DF9039
:102E6000CF9008958F929F92AF92BF92CF92DF92B0
:102E7000EF92FF92CF936B017C01B42E20E030E003
:102E8000A9010E94DA8587FF06C08DE239DDF7FAD5
:102E9000F094F7F8F094C0E060E070E080E09FE329
:102EA000CB1541F02DEC3CEC4CEC5DE30E943F86F1
:102EB000CF5FF6CF9B01AC01C701B6010E94048A27
:102EC0006B017C010E944D8B4B015C014AE092DD5D
:102ED000CC2379F1C501B4010E94DE859B01AC01D0
:102EE000C701B6010E94038A6B017C018EE208DDF6
:102EF00020E030E040E251E4C701B6010E943F8685
:102F00004B015C010E94488B6B01770FEE08FF08B4
:102F1000C701B60116DEC701B6010E94E0859B011C
:102F2000AC01C501B4010E94038A6B017C01C15050
:102F3000F9F6CF91FF90EF90DF90CF90BF90AF90D8
:102F40009F908F900895EF92FF920F931F93CF93CE
:102F50007C018B01C42F80E2D3DCCF3F11F084E5EC
:102F600001C082E4CDDCC7FD03C080E38C0FC8DC68
:102F70008AE3C6DCF701608171818281938142E03E
:102F800071DFF801408151816281738182E597E0B0
:102F9000CF911F910F91FF90EF900C946C6BCF929B
:102FA000DF92EF92FF920F931F93CF93DF93CDB7F2
:102FB000DEB728970FB6F894DEBF0FBECDBF0091E5
:102FC000490410E0F801EE0FFF1FE854FC4F608148
:102FD0007181072E000C880B990B0E94E0856D8390
:102FE0007E838F839887000F111F000F111FF80138
:102FF000EF53F24F80819181A281B38189839A83BB
:10300000AB83BC834EEFBE016B5F7F4FCE01019659
:103010009ADF6091C0037091C103072E000C880BEA
:10302000990B0E94E0856D837E838F8398878091C2
:10303000CF0D9091D00DA091D10DB091D20D89837B
:103040009A83AB83BC834FEFBE016B5F7F4FCE0192
:10305000019679DF28EBC22E23E0D22E31ECE32E4D
:103060003DE0F32E10E0F601619171916F01072EA2
:10307000000C880B990B0E94E0856D837E838F8303
:103080009887F70181919191A191B1917F018983F5
:103090009A83AB83BC83412FBE016B5F7F4FCE0110
:1030A000019651DF1F5F1230F1F6EDE5F7E08491F4
:1030B0008F010F5F1F4F882319F022DCF801F7CF33
:1030C000E0914904F0E0E452F24F608170E080E06A
:1030D00090E037DDE8E5F7E084918F010F5F1F4F47
:1030E000882319F00DDCF801F7CF6091DB0D70E05B
:1030F00080E090E026DD60E070E085E597E00E94EA
:10310000896B8AE3FDDB6091DC0D70E080E090E08C
:1031100018DD61E070E085E597E00E94896B8AE345
:10312000EFDB6091DD0D70E080E090E00ADD289635
:103130000FB6F894DEBF0FBECDBFDF91CF911F91C8
:103140000F91FF90EF90DF90CF9008952F923F92D4
:103150004F925F926F927F928F929F92AF92BF92A7
:10316000CF92DF92EF92FF920F931F93CF93DF9353
:10317000CDB7DEB72F970FB6F894DEBF0FBECDBF29
:103180008091840483FD4AC183E536DB8887811101
:1031900005C082E531DB882309F440C1C7DA0E940B
:1031A000488B6739710514F066E970E07093C103CC
:1031B0006093C0030E945C4EB9DA20E030E040EA40
:1031C00050E40E942A8C181614F40E946A6681E06A
:1031D00080933E02109283041092820480911D0E0F
:1031E00080934904412C512C32011C821D821E8285
:1031F0001F821B8219862CE32A873CE13B8746E429
:103200004C8710E000E050E859838FEB8A83812CD3
:10321000912C54016091C0037091C103072E000CE2
:10322000880B990B0E94E0857B018F879D879B010E
:10323000AC01612F702F89819A810E94DA858823E1
:1032400081F12091CF0D3091D00D4091D10D509151
:10325000D20D9885B7018F8591110EC09D850E9472
:10326000DA85881F8827881F8B831E2D0F2DAF8539
:10327000A983BD85BA8315C09D850E94DA8587FF25
:1032800009C080913E0281E090E090938304809396
:103290008204C4C01E2D0F2D2F8529833D853A83BE
:1032A0001B820E94044B6B017C01DC01CB012C8151
:1032B0003D814E815F81821B930BA40BB50BB7FD43
:1032C00037C0D701C60188519C4FAF4FBF4F8C8389
:1032D0009D83AE83BF8363DEE5E6F7E08491DF0183
:1032E0001196BE87AD87882321F00ADBED85FE8528
:1032F000F5CF81149104A104B104B1F0D501C4014A
:103300008053984FAF4FBF4FBC01CD016C197D0961
:103310008E099F0928EE33E040E050E00E94C88902
:10332000CA01B9010EDC02C08FE3EADA8AE0E8DA0A
:103330000E94FA31DADA2090CF0D3090D00DB091A2
:10334000D10DBF872091D20D2D8791014B2F5D8527
:10335000612F702F89819A810E94038A9F7781143F
:103360009104A104B10449F420E030E040E050E4CD
:103370000E94DA8587FF0BC008C020E030E040E4FF
:1033800050E40E942A8C181614F4460157013B8120
:10339000332361F1411451046104710441F0D701F8
:1033A000C60184199509A609B709B7FD1FC0910187
:1033B0004F855D8569857A858B859C850E94038A0A
:1033C00020E030E040EC5FE30E94DA8587FD59CFD2
:1033D0002601370140E6440E4AEE541E611C711C62
:1033E00029863A865F855B878D858C8780913E0232
:1033F000882309F446CF81149104A104B10409F48F
:1034000009CF90EDC91A97E0D90AE108F108C81868
:10341000D908EA08FB08F7FE34CFFCCE2F960FB68A
:10342000F894DEBF0FBECDBFDF91CF911F910F91FA
:10343000FF90EF90DF90CF90BF90AF909F908F90D4
:103440007F906F905F904F903F902F9008952F92B4
:103450003F924F925F926F927F928F929F92AF9224
:10346000BF92CF92DF92EF92FF920F931F93CF9371
:10347000DF93CDB7DEB72F970FB6F894DEBF0FBE40
:10348000CDBF8DE690E021DB811184C18091840461
:1034900083FD80C183E5B0D9382E811105C082E556
:1034A000ABD9882309F476C141D90E94488B6B01BE
:1034B0007C017A83698380914904E82FF0E0EE0F64
:1034C000FF1FE854FC4FD182C0820E94A74E80911A
:1034D000790490917A040297C1F480914904811192
:1034E00014C029813A81232B39F0609177047091BF
:1034F00078046C0D7D1D02C060E070E07093BB032A
:103500006093BA0381E00E94A74E10D920E030E01A
:103510004AEA52E40E94DA8518161CF00E946E6591
:1035200002C00E946A660E942D6C81E080933E0278
:10353000109283041092820419821A821B821C82C8
:103540001D821E821F821886512C19863CE33A8701
:103550004CE14B8756E45C8710E000E040E8742EB5
:103560005FEB652E812C912C5401E0904904F12CE5
:10357000F701EE0FFF1FE854FC4F60817181072EA9
:10358000000C880B990B0E94E0856B018F879D874B
:103590009B01AC01612F702F872D962D0E94DA853B
:1035A000882369F1F701EE0FFF1FEE0FFF1FEF53A6
:1035B000F24F2081318142815381B6018F859D85F3
:1035C00031100BC00E94DA85582E551C5524551C0D
:1035D0001C2D0D2D7F846D8412C00E94DA8587FF1B
:1035E00009C080913E0281E090E090938304809333
:1035F0008204D0C01C2D0D2D7F846D84512C0E941F
:10360000044B6B017C01DC01CB012D813E814F819C
:103610005885821B930BA40BB50BB7FD37C0D701A0
:10362000C60188519C4FAF4FBF4F8D839E83AF83A0
:10363000B887B5DCE1E6F7E08491DF011196BE873B
:10364000AD87882321F05CD9ED85FE85F5CF811407
:103650009104A104B104B1F0D501C4018053984F85
:10366000AF4FBF4FBC01CD016C197D098E099F0979
:1036700028EE33E040E050E00E94C889CA01B90159
:1036800060DA02C08FE33CD98AE03AD90E94FA316D
:103690002CD9E0914904B4E0EB9FF0011124EF53E1
:1036A000F24F408021812F8732813D872380242D56
:1036B0003F854D85522D612F702F872D962D0E94AD
:1036C000038A9F7781149104A104B10449F420E096
:1036D00030E040E850E40E94DA8587FF0BC008C064
:1036E00020E030E040E450E40E942A8C181614F4E4
:1036F000460157015520B1F189819A81AB81BC8186
:10370000892B8A2B8B2B61F0D701C60129813A8145
:103710004B815C81821B930BA40BB50BB7FD22C0C0
:10372000242D3F854D85522D69857A858B859C8515
:103730000E94038A20E030E040EC5FE30E94DA85DB
:1037400087FD4FCFD701C601805A9541AF4FBF4F7C
:1037500089839A83AB83BC8349869F859A87AD858D
:10376000AB872C8680913E02882309F43ACF8114DE
:103770009104A104B10409F4F8CEB0EDCB1AB7E07E
:10378000DB0AE108F108C818D908EA08FB08F7FEC7
:1037900028CFEBCE2F960FB6F894DEBF0FBECDBF6D
:1037A000DF91CF911F910F91FF90EF90DF90CF901D
:1037B000BF90AF909F908F907F906F905F904F9051
:1037C0003F902F9008951F920F920FB60F921124E1
:1037D0000BB60F922F933F938F939F93EF93FF938B
:1037E0002091C6009FB7F894E0914A0881E08E0FBF
:1037F0008F7730914B08831731F0F0E0E653F84FA4
:10380000208380934A089FBFFF91EF919F918F91F2
:103810003F912F910F900BBE0F900FBE0F901F90F6
:103820001895AF92BF92CF92DF92EF92FF920F93D3
:103830001F93CF93DF931F92CDB7DEB77C016B014F
:103840008A0159018091060E811118C0F70180810B
:1038500091810E94A3898983F60181936F01BE0142
:103860006F5F7F4FC5010E940967F70180819181D9
:103870000196918380830150110941F70F90DF91E8
:10388000CF911F910F91FF90EF90DF90CF90BF905D
:10389000AF9008957F928F929F92AF92BF92CF92F6
:1038A000DF92EF92FF920F931F93CF93DF931F92BC
:1038B000CDB7DEB7E091060EE11149C059017C0198
:1038C0008B016B01C40ED51E0C151D0509F43FC0FC
:1038D000F70180809180F80171908F017982C40195
:1038E0000E94A389781631F1672DC4010E94AB892B
:1038F000C4010E94A38999818917E1F0E9EEF5E0FE
:1039000084918F010F5F1F4F882321F00E94801444
:10391000F801F6CFE4E0F9E084918F010F5F1F4FCB
:10392000882321F00E948014F801F6CF81E0809373
:10393000060E0DC0BE016F5F7F4FC5010E94096773
:10394000F70180819181019691838083BDCF0F9093
:10395000DF91CF911F910F91FF90EF90DF90CF906B
:10396000BF90AF909F908F907F9008950E945D6C64
:103970000E947B6D109244041092450410924604FC
:10398000109247040E94692F80E090E00E9463112A
:1039900081E090E00E94631182E090E00C9463115A
:1039A0002F923F924F925F926F927F928F929F924F
:1039B000AF92BF92CF92DF92EF92FF920F931F933D
:1039C000CF93DF93CDB7DEB728970FB6F894DEBF5D
:1039D0000FBECDBF782ED42EB52EA62E972E822EBA
:1039E00020E030E0A9016D2D7B2D8A2D992D0E94BC
:1039F0002A8C18166CF0D0906E02B0906F02A090D6
:103A000070029090710255E545E535E023E404C06D
:103A10005D2D4B2D3A2D292D852F942FA32FB22FBD
:103A200080936E0290936F02A0937002B093710224
:103A300080911D0E871509F4D0C1811070C060906F
:103A4000560481E068260091570408271091580415
:103A50001827611004C0011102C009F462C0E9EE28
:103A6000F5E084917F019FEFE91AF90A811103C003
:103A7000E5EDF8E004C00E948014F701F2CF8491D4
:103A80007F019FEFE91AF90A882321F00E94801430
:103A9000F701F5CF662069F0E3EDF8E084917F014E
:103AA0009FEFE91AF90A882321F00E948014F70198
:103AB000F5CF002369F0E1EDF8E084917F019FEFFD
:103AC000E91AF90A882321F00E948014F701F5CF42
:103AD000112319F0EFECF8E003C0E7ECF8E00DC0BB
:103AE00084918F010F5F1F4F8823B9F30E948014C8
:103AF000F801F6CF0E948014F80184918F010F5FC6
:103B00001F4F8111F7CFEDEEF8E084918F010F5F29
:103B10001F4F882321F00E948014F801F6CF8824DB
:103B200083940E944F1180911D0E90E00E947F129D
:103B300069837A838B839C832091790430917A0402
:103B40002130310509F060C020913D02222309F4A3
:103B50005BC00091590410915A0420915B0430918C
:103B60005C04012B022B032B69F420911E0E309173
:103B70001F0E4091200E5091210E0E94DA8588235D
:103B800009F442C02AE037ED43E25CE36091260E7F
:103B90007091270E8091280E9091290E0E94048A20
:103BA0006D837E838F8398872090290230902A022C
:103BB00040902B0250902C02A20191010E942A8C6D
:103BC000181624F42D823E824F825886612CC090B4
:103BD0001D0E81E0681609F4A7C1E0901204F09070
:103BE0001304009114041091150492E02AE23EE0BF
:103BF000691232C146E25EE062E27EE0CE010196E9
:103C00000E9493580E94614100911D0E10E0E72C24
:103C1000F12CF801EE0FFF1FEE0FFF1FE959FB4FCC
:103C2000D701AA0FBB1FAA0FBB1FA959BB4F2D91CC
:103C30003D914D915C9160817181828193810E945F
:103C4000038A9B01AC016091220E7091230E80913A
:103C5000240E9091250E0E94038A6093220E709389
:103C6000230E8093240E9093250E000F111F000F3A
:103C7000111FF801E159FB4FD701AA0FBB1FAA0F73
:103C8000BB1FA159BB4F2D913D914D915C9160811E
:103C90007181828193810E94038A9B01AC016091B2
:103CA000260E7091270E8091280E9091290E0E9469
:103CB000038A6093260E7093270E8093280E9093AC
:103CC000290E70921D0E80E090E00E94B312809148
:103CD000790490917A048130910509F041C080E126
:103CE000EEE1FEE0ACE8B3E001900D928A95E1F7D9
:103CF0002AE037ED43E25CE3609194037091950311
:103D000080919603909197030E94048A6093940394
:103D100070939503809396039093970320902902C4
:103D200030902A0240902B0250902C02A201910167
:103D30000E942A8C181644F4209294033092950322
:103D4000409296035092970381E080935E04109214
:103D5000590410925A0410925B0410925C0435C00E
:103D6000009709F08AC020904A0430904B0440909C
:103D70004C0450904D04A201910160910002709199
:103D8000010280910202909103020E94048A6093D2
:103D90001E0E70931F0E8093200E9093210EA20191
:103DA000910160910D0E70910E0E80910F0E909109
:103DB000100E0E94038A60930002709301028093A8
:103DC000020290930302882483940E94FF128110C0
:103DD00004C080913D0281114DC00E9461418D2D32
:103DE0009B2DAA2DB92D80936E0290936F02A09304
:103DF0007002B093710270921D0EE9EEF5E08491AD
:103E00008F010F5F1F4F882321F00E948014F8015B
:103E1000F6CF60911D0E70E08BED98E00E94896BEB
:103E20008AE00E94801428960FB6F894DEBF0FBE79
:103E3000CDBFDF91CF911F910F91FF90EF90DF9059
:103E4000CF90BF90AF909F908F907F906F905F903A
:103E50004F903F902F900895AE014B5F5F4F62E20D
:103E60007EE0611077C08EE19EE00E949358662448
:103E70006394ADCE0E94BA2FB0CF029709F051C023
:103E800080911D0E91E0811190E090935E0481116C
:103E900011C0209100023091010240910202509124
:103EA000030260914A0470914B0480914C049091FC
:103EB0004D0410C02091390230913A0240913B02EA
:103EC00050913C0260910D0E70910E0E80910F0E7C
:103ED0009091100E0E94048A60931E0E70931F0E24
:103EE0008093200E9093210E20914A0430914B0430
:103EF00040914C0450914D0460910D0E70910E0E46
:103F000080910F0E9091100E0E94038A6093000220
:103F100070930102809302029093030210925D0459
:103F200052CF0E94FF1259CFE0900A04F0900B0488
:103F300000910C0410910D042AE23EE0AE014B5FAB
:103F40005F4F62E27EE0CE0101960E94935882E0CC
:103F5000682E3DCECE0101960E949358639437CED1
:103F6000CF92DF92EF92FF92CF93DF93EC01C0905C
:103F70002D02D0902E02E0902F02F0903002A70187
:103F80009601688179818A819B810E94DA8587FF09
:103F900004C0C882D982EA82FB82C0903102D090EC
:103FA0003202E0903302F0903402A70196016C8156
:103FB0007D818E819F810E94DA8587FF04C0CC823B
:103FC000DD82EE82FF82C0903502D0903602E09012
:103FD0003702F0903802A7019601688579858A85B5
:103FE0009B850E94DA8587FF04C0C886D986EA8649
:103FF000FB86C0902102D0902202E0902302F09034
:104000002402A7019601688179818A819B810E949F
:104010002A8C181624F4C882D982EA82FB82C090C6
:104020002502D0902602E0902702F0902802A701F6
:1040300096016C817D818E819F810E942A8C181649
:1040400024F4CC82DD82EE82FF82C0902902D090DF
:104050002A02E0902B02F0902C02A70196016885BD
:1040600079858A859B850E942A8C181624F4C88637
:10407000D986EA86FB86DF91CF91FF90EF90DF90A3
:10408000CF9008954F925F926F927F928F929F92FE
:10409000AF92BF92EF92FF920F931F93CF93DF9354
:1040A000EC01009739F480911D0E81110BC06FEF68
:1040B0007FEF0AC0FC01EC53F74F6491062E000C11
:1040C000770B02C061E070E07E01EE0CFF1CEE0C8D
:1040D000FF1CF701E854F74F85909590A590B49098
:1040E000072E000C880B990B0E94E0852B013C01E8
:1040F00020E030E040EC5FE3C501B4010E943F8660
:10410000A30192010E943F86AB01BC0100E010E0D8
:104110009801CE010E940913F701E455F74F25914C
:10412000359145915491C301B2010E943F864B01E4
:104130005C0120E030E0A9010E94DA85882309F4BF
:104140004BC000E010E09801B501A4017058CE0109
:104150000E940913FE01E755F74F649161111BC0DE
:10416000E9EEF5E084913F019FEF691A790A88230F
:1041700021F00E948014F301F5CFE7E8F8E0849184
:104180003F019FEF691A790A882321F00E94801469
:10419000F301F5CF6AE0F701E958F74F45905590E4
:1041A0006590749070E080E090E00E94E0859B0153
:1041B000AC01C301B2010E94E08A2B013C01A501C0
:1041C0009401C501B4010E94048AAB01BC019301B2
:1041D0008201CE010E940913CE010E94B3120E94F7
:1041E000FF12D701A35FB14FF701E25EF14F4081AB
:1041F0005181628173814D935D936D937C9313978D
:10420000DF91CF911F910F91FF90EF90BF90AF90F2
:104210009F908F907F906F905F904F900895EBE606
:10422000F5E0659175918591949120914A043091C2
:104230004B0440914C0450914D040C94048A089511
:10424000CF92DF92EF92FF920F931F93CF93DF9362
:1042500000D01F92CDB7DEB79D9AA59882E08093DB
:10426000C0001092C50080E18093C4008091C1001D
:1042700080618093C1008091C10088608093C100FB
:104280008091C10080688093C100E0E7F8E08491EC
:104290008F010F5F1F4F882321F00E948014F801C7
:1042A000F6CFE9EEF5E084918F010F5F1F4F882371
:1042B00021F00E948014F801F6CF14B710FF0DC052
:1042C000E7E6F8E084917F012FEFE21AF20A8823F3
:1042D00021F00E948014F701F5CF11FF0DC0E6E533
:1042E000F8E084917F013FEFE31AF30A882321F07D
:1042F0000E948014F701F5CF12FF0DC0E4E4F8E04E
:1043000084917F019FEFE91AF90A882321F00E9426
:104310008014F701F5CF13FF0DC0E3E3F8E08491BB
:104320007F012FEFE21AF20A882321F00E94801405
:10433000F701F5CF15FF0CC0E2E2F8E084918F01A0
:104340000F5F1F4F882321F00E948014F801F6CFE1
:1043500014BEEBE1F8E084918F010F5F1F4F8823BB
:1043600021F00E948014F801F6CF80E20E948014B0
:10437000E0E1F8E084918F010F5F1F4F882321F067
:104380000E948014F801F6CF8AE00E948014E9EEC2
:10439000F5E084918F010F5F1F4F882321F00E9469
:1043A0008014F801F6CFE0E0F8E084918F010F5F10
:1043B0001F4F882321F00E948014F801F6CFEFEE02
:1043C000F7E084918F010F5F1F4F882321F00E9437
:1043D0008014F801F6CFE6ECF7E084918F010F5FCF
:1043E0001F4F882321F00E948014F801F6CFEFEAD6
:1043F000F7E084918F010F5F1F4F882321F00E9407
:104400008014F801F6CFE9EEF5E084918F010F5F9B
:104410001F4F882321F00E948014F801F6CF80916D
:10442000900E9091910E8E010F5F1F4F009721F417
:10443000C80186599E4004C0F801E81BF90BCF0162
:104440009A83898369817A8180EA97E00E94896BE7
:1044500060E175E089E897E00E94896B8AE00E943C
:10446000801481E08093B2068093B3068093B406F3
:104470008093B5060E9412508CE0ECE6F8E0AEE1C5
:10448000BEE001900D928A95E1F70E94FF128091A3
:1044900051029091520290935402809353021092D1
:1044A00044041092450410924604109247048091EF
:1044B00001018064809301018091010180618093FA
:1044C00001016D9A809101018062809301016C9AD3
:1044D00087ED80937A0010927E0010927D0080918B
:1044E0007E00816080937E0080917E008260809358
:1044F0007E0080917E00846080937E008091010127
:1045000088608093010180E888BD80916E0084609E
:1045100080936E006AEF70E080E090E00E94CC4AE9
:1045200085E090E09093B8068093B70660E08091B4
:104530005C0290915D020E945A4B20E030E040EA1C
:1045400050E40E94DA8587FF0AC080915C02909156
:104550005D02409790935D0280935C02E7CF81E318
:1045600091E0909352028093510260E08091D60DC9
:104570009091D70D0E945A4B20E030E848E953E46F
:104580000E942A8C181654F48091D60D9091D70D64
:1045900040969093D70D8093D60DE7CF85E090E0BD
:1045A0009093BA068093B90661E080915E02909183
:1045B0005F020E945A4B20E030E040EA50E40E9443
:1045C000DA8587FF0AC080915E0290915F02409772
:1045D00090935F0280935E02E7CF81E391E0909336
:1045E00054028093530261E08091D80D9091D90DCF
:1045F0000E945A4B20E030E848E953E40E942A8C9C
:10460000181654F48091D80D9091D90D409690933E
:10461000D90D8093D80DE7CF80915A0290915B021B
:104620000E94464F20E030E040EA50E40E94DA85E4
:1046300087FF0AC080915A0290915B024097909345
:104640005B0280935A02E8CF8091D40D9091D50DF2
:104650000E94464F20E030E046E153E40E942A8C5D
:10466000181654F48091D40D9091D50D40969093E6
:10467000D50D8093D40DE8CF98E288E10FB6F89479
:10468000A895809360000FBE90936000FFB6F894E9
:104690008091B606811127C0EBE9F8E18491E1EE43
:1046A000F8E19491E82FF0E0EE0FFF1FE85EF74E7F
:1046B000A591B491EC91E92321F461E085E30E9496
:1046C000FD4861E085E30E94C9498CB580618CBDDD
:1046D0008CB580648CBD61E084E30E94C94961E0CF
:1046E00083E30E94C9498091B6068F5F8093B60626
:1046F000FFBE579A24E8C22E22E0D22EF12CF601FA
:1047000061916F0170E08F2D0E94EE40F394F5E00F
:10471000FF12F5CF999A989A3D9A80910A0180628A
:1047200080930A01809107018068809307019A9A1B
:104730008091070180648093070180910701806266
:104740008093070180910701886080930701809121
:104750000701806180930701809107018260809347
:104760000701809107018460809307013D9A809141
:104770000A01806280930A0199E8C92E92E0D92E3D
:10478000F12CF60161916F018F2D0E94492FF39456
:10479000F5E0FF12F6CF80910A01826080930A0152
:1047A000099A80910A01816080930A0180910A012F
:1047B000846080930A0180910A01806480930A01D9
:1047C00080910A01806880930A01099A0F9A179ACA
:1047D000089A109A0E9A169A0D9A159A0C9A149A8B
:1047E0000B9A139A089A109A26982E9A25982D9A21
:1047F0000A98129A3F98479A3E9A4698389A409853
:10480000179A109A399A4198169A3A9A4298159A94
:104810003B9A4398149A3C9A4498139A3E9A469825
:10482000809180008C7F8093800080918100877EC2
:10483000886080938100809180008F7380938000D6
:1048400080918100887F82608093810080E090E485
:1048500090938900809388001092850010928400C4
:1048600080916F00826080936F0081E080930602E8
:1048700078940E94836A83E992E09C838B8388EC1E
:10488000E82EF12CFA82E982BE016D5F7F4FC801EC
:104890000E94D5668AEB92E09C838B83FA82E98240
:1048A000BE016D5F7F4FC8010E94D5660F900F90CB
:1048B0000F900F90DF91CF911F910F91FF90EF908C
:1048C000DF90CF900895E4EBF5E08491EF0121961D
:1048D000882321F00E948014FE01F7CFE9E6F7E07B
:1048E0008491EF012196882321F00E948014FE011B
:1048F000F7CF0E94FD4E0E94642F2FEF8BE49DE1C5
:10490000215080409040E1F700C00000F8942FEF64
:1049100084E39CE0215080409040E1F700C000001B
:104920000E94FD4E9D98A895FECF7F928F929F92F8
:10493000AF92BF92CF92DF92EF92FF920F931F93AD
:10494000CF93DF9320E030E048E452E46091C10D62
:104950007091C20D8091C30D9091C40D0E942A8C5C
:1049600018164CF4EDE7FAE0E491C1E001C0CC0F79
:10497000EA95EAF701C0C0E020E030E048E452E404
:104980006091C50D7091C60D8091C70D9091C80DB5
:104990000E942A8C181654F4EEE7FAE0E49181E0C4
:1049A00090E001C0880FEA95EAF7C82B88E7C82E87
:1049B0008AE0D82E9DE7E92E9AE0F92E05E0912CA9
:1049C000D0E0AA24A394B12CF6017490F70184904E
:1049D00077FC25C0892D90E0082C02C0959587951D
:1049E0000A94E2F780FD1BC0CE01082C02C0959509
:1049F00087950A94E2F780FD02C010E001C016EE30
:104A0000612F872D0E94FD48612F70E0872D0E9445
:104A1000054AC50101C0880F8A94EAF7982A015017
:104A2000FFEFCF1ADF0A8FEFE81AF80A0111CCCF97
:104A3000DF91CF911F910F91FF90EF90DF90CF907A
:104A4000BF90AF909F908F907F900895DF92EF92EC
:104A5000FF920F931F93CF93DF93F82ED62EE72E5E
:104A60008A0180913D02882309F439C0E4EBF5E026
:104A70008491EF012196882321F00E948014FE0189
:104A8000F7CFED2DFE2D8491EF012196882321F0A3
:104A90000E948014FE01F7CFE7E8FAE08491EF016D
:104AA0002196882321F00E948014FE01F7CFF7FCA5
:104AB0000BC06F2DFF0C770B880B990B0E94A11573
:104AC0008AE00E9480140BC0E2E8FAE08491EF01D2
:104AD0002196882321F00E948014FE01F7CF809157
:104AE000BB06811107C010923D0281E08093BB0696
:104AF000C801E9DEDF91CF911F910F91FF90EF90F8
:104B0000DF900C94FD4E2F923F924F925F926F92E6
:104B10007F928F929F92AF92BF92CF92DF92EF924D
:104B2000FF920F931F93CF93DF93CDB7DEB7A99773
:104B30000FB6F894DEBF0FBECDBF8091DA0D8111A4
:104B400019C0A9960FB6F894DEBF0FBECDBFDF9196
:104B5000CF911F910F91FF90EF90DF90CF90BF907A
:104B6000AF909F908F907F906F905F904F903F900D
:104B70002F9008950E94E04F0E94044B6F8F78A3FE
:104B800089A39AA328EB33E03A832983A1EC2A2E48
:104B9000ADE03A2E4EEB57E05E834D8387EB96E017
:104BA0009E8F8D8FACEDBDE0BC8FAB8FE1E5F2E069
:104BB000FA87E9872AE937E0388F2F8B4CEA57E0EC
:104BC0005E8B4D8B82E997E09A8F898FA4EAB7E0DC
:104BD000BC8BAB8BECE9F7E0FA8BE98B812C912C49
:104BE00019A618A6F8A5FBA3A981BA816D917C919D
:104BF000072E000C880B990B0E94E085F1012081A3
:104C0000318142815381FDE2AF2EB12CC8A4D9A4D9
:104C10007B018C01B4016E53784F8D819E810E947F
:104C20008765D1014D905D906D907C90ED8DFE8DEE
:104C300061917191FE8FED8F072E000C880B990BFF
:104C40000E94E0859B01AC01C301B2010E942A8C45
:104C5000181694F4A985BA856D917C91072E000CE5
:104C6000880B990B0E94E0859B01AC01C301B20146
:104C70000E94DA8587FDD4C160E0AB8DBC8D6D9359
:104C8000BC8FAB8FF401EB54F24F80819181A281F4
:104C9000B3810097A105B10539F12F8D38A149A144
:104CA0005AA1281B390B4A0B5B0B57FD1DC0E8A509
:104CB000F9A5EE0FFF1FE354F24F6081718180E090
:104CC00090E00E94DE859B01AC01D1016D917D9148
:104CD0008D919C910E94DA8587FF9EC143EC5AE03A
:104CE00062ED7AE08BA1B2DEE8A5F9A53196F9A7CD
:104CF000E8A729813A812E5F3F4F3A83298334E028
:104D0000230E311C44E0840E911C8D819E810296FD
:104D10009E838D83A985BA851296BA87A987EF8964
:104D2000F88D3196F88FEF8B2D893E892C5F3F4FA0
:104D30003E8B2D8B498D5A8D4C5F5F4F5A8F498F1B
:104D40008B899C8904969C8B8B8BA989BA89149634
:104D5000BA8BA98BE8A5F9A5329709F043CF8091CA
:104D6000BA079091BB07A091BC07B091BD072F8DEA
:104D700038A149A15AA1281B390B4A0B5B0B57FDDF
:104D800011C0D3DD8F8D98A1A9A1BAA18C53964FE4
:104D9000AF4FBF4F8093BA079093BB07A093BC0758
:104DA000B093BD078091C90D9091CA0DA091CB0D14
:104DB000B091CC0D0097A105B10531F12F8D38A12F
:104DC00049A15AA1281B390B4A0B5B0B57FD1CC08C
:104DD0006091CD0D7091CE0D80E090E00E94DE8557
:104DE0009B01AC016091CF0D7091D00D8091D10DE0
:104DF0009091D20D0E94DA8587FF05C245EA5AE0FC
:104E000064EB7AE08FEF22DE6091C0037091C10302
:104E1000072E000C880B990B0E94E0852091CF0D86
:104E20003091D00D4091D10D5091D20DE6E9AE2ECA
:104E3000B12CCC24CA94DC2C7B018C0164EB77E090
:104E400088EB97E00E948765C090CF0DD090D00D81
:104E5000E090D10DF090D20D20E030E040EA50E437
:104E6000C701B6010E942A8C87FDD2C020E030E045
:104E700046E153E4C701B6010E94DA8518160CF426
:104E8000C7C06091C0037091C103072E000C880B4E
:104E9000990B0E94E085A70196010E94038A4B01AD
:104EA0005C0120911B0230911C0240911D02509127
:104EB0001E020E943F866D837E838F839887209198
:104EC000C4063091C5064091C6065091C706C5017B
:104ED000B4010E94048A69837A838B839C836093E4
:104EE000C4067093C5068093C6069093C7062091AA
:104EF0001702309118024091190250911A020E9433
:104F00003F8669877A878B879C872CEC3CEC4CEC3E
:104F10005EE36091130270911402809115029091EA
:104F200016020E943F862B013C012091C006309161
:104F3000C1064091C2065091C306C701B6010E9446
:104F4000038A9B01AC01C301B2010E943F862B0181
:104F50003C012AE939E949E15FE36091BC067091BF
:104F6000BD068091BE069091BF060E943F869B01C0
:104F7000AC01C301B2010E94048A2B013C01609381
:104F8000BC067093BD068093BE069093BF06C09288
:104F9000C006D092C106E092C206F092C3062985EF
:104FA0003A854B855C856D817E818F8198850E94D5
:104FB000048AA30192010E94038A6B017C0120E014
:104FC00030E04FE753E40E942A8C20E030E0A90152
:104FD00018160CF01BC1C501B4010E942A8C1816CA
:104FE00084F4A501940169817A818B819C810E945E
:104FF000038A6093C4067093C5068093C606909397
:10500000C706C12CD12C9FE7E92E93E4F92E04C1E9
:1050100060E06093DB0D95CD88A50E94A74E64CE1D
:10502000E981FA8100811181B801012E000C880B01
:10503000990B0E94E085A30192010E94038A6B01F3
:105040007C01AD89BE896D937D938D939C9313975D
:1050500020ED3CEC4CE45DE360914D0270914E021A
:1050600080914F02909150020E943F866D877E870B
:105070008F87988BEB89FC89208131814281538114
:10508000C301B2010E94038A9B01AC016D857E853C
:105090008F8598890E943F866D877E878F87988B42
:1050A00023E333E343E75FE3A989BA896D917D91F7
:1050B0008D919C910E943F869B01AC016D857E8500
:1050C0008F8598890E94048A6D877E878F87988B49
:1050D000E989FA896083718382839383AB89BC8970
:1050E0004D925D926D927C92139720E030E040E209
:1050F00051E4C701B6010E942A8C18160CF49DC019
:1051000020E030E040E251ECC701B6010E94DA85B0
:1051100087FD8EC0012B09F48BC0AF89B88D8C91AF
:105120008111A8C0E98DFA8D408051806280738022
:105130002091490230914A0240914B0250914C0219
:10514000C701B6010E943F866CA37DA38EA39FA3D7
:10515000A3019201C701B6010E94048AA98DBA8DEC
:105160006D937D938D939C9313972091450230917D
:10517000460240914702509148020E943F862CA16E
:105180003DA14EA15FA10E94048A2D853E854F85D9
:1051900058890E94038A6B017C0180911D0E90E06A
:1051A000E8A5F9A5E817F90709F49FC020E030E069
:1051B0004FE753E4C701B6010E942A8C18160CF081
:1051C00049C0AD89BE89CD90DD90ED90FC9020E086
:1051D00030E0A901C701B6010E942A8C18168CF490
:1051E000A7019601E98DFA8D608171818281938199
:1051F0000E94038AA98DBA8D6D937D938D939C93A4
:1052000013976FE73ACD0E945C4EFECDC701B60101
:105210000E94DA8587FD3CC020E030E040E450E4A5
:10522000C501B4010E942A8C18166CF46FE7F1CE08
:10523000E1E0AF89B88DEC931FCD21E0EF89F88DC7
:1052400020836FE71ACDC701B6010E94488B759580
:105250006795DFCE20E030E0A901C701B6010E94CA
:10526000DA8587FD22C0C701B6010E94488B75957B
:10527000679503CDA98DBA8D1D921D921D921C922A
:105280001397EF89F88D1082412C512C320150CFA9
:1052900020E030E0A901C501B4010E94DA8587FD54
:1052A00098C0C12CD12C7601B7CFED89FE89C08082
:1052B000D180E280F38020E030E0A901C701B6018F
:1052C0000E94DA8587FFD8CCA7019601A98DBA8DF7
:1052D0006D917D918D919C910E94038AE98DFA8D4B
:1052E0006083718382839383C7CC8FB7F8940091D6
:1052F000A8031091A9032091AA033091AB038FBF9B
:1053000040914404509145046091460470914704D3
:10531000A0909007B090910740175107620773075C
:105320000CF068C0C501880F991F880F991FFC01F8
:10533000E853F94FD901C801841B950BA60BB70B95
:1053400080839183A283B383009344041093450424
:105350002093460430934704C5010196909391072A
:105360008093900720914302309144028217930763
:1053700034F0109291071092900780E090E0880F2F
:10538000991F880F991FFC01E853F94F60817181C3
:10539000828193810E94E08520911106309112064E
:1053A00040911306509114060E943F8620913F02BF
:1053B0003091400240914102509142020E943F864A
:1053C0009B01AC01C701B6010E94048A6B017C01FC
:1053D000EDCEA501940169817A818B819C810E9427
:1053E000038A6093C4067093C5068093C6069093A3
:1053F000C70657CFF501EE0FFF1FEE0FFF1FE85353
:10540000F94F1082118212821382A6CF2F923F92FF
:105410004F925F926F927F928F929F92AF92BF92C4
:10542000CF92DF92EF92FF920F931F93CF93DF9370
:10543000CDB7DEB7E6970FB6F894DEBF0FBECDBF8F
:1054400069A37AA38BA39CA35E834D833AAB29AB5C
:105450000BAB0E94044B698B7A8B8B8B9C8BDC0192
:10546000CB018C53964FAF4FBF4F8093BA079093A9
:10547000BB07A093BC07B093BD078D819E810196A9
:10548000039748F126EF32E03A832983A981BA8154
:105490008D91BA83A983882319F00E948014F6CFD6
:1054A0008AE0E6960FB6F894DEBF0FBECDBFDF915F
:1054B000CF911F910F91FF90EF90DF90CF90BF9011
:1054C000AF909F908F907F906F905F904F903F90A4
:1054D0002F900C948014EFE1F3E0FA83E983A98123
:1054E000BA818D91BA83A983882319F00E94801410
:1054F000F6CF8AE00E9480140E94FD4EED81FE816D
:105500008FE7319619F48093DB0D05C0ED81FE81A4
:10551000E452F24F808381E080933E0289899A8928
:10552000AB89BC898B879C87AD87BE878FA398A7E3
:10553000A9A7BAA71D8E90E49E8FACE1AF8FB6E409
:10554000B8A3198E1A8E1B8E1C8E812C912C54019F
:105550008D8A9E8AAF8AB88E750164013FE7432E1B
:10556000512C612C712C2FE730E040E050E02F836C
:10557000388749875A871BA61CA61DA61EA631E0A0
:105580003CAB188A1F86212C312C00E010E04D81A5
:105590005E814452524F58AB4FA78D819E81880F38
:1055A000991F880F991FDC01AF53B24FBEA3ADA363
:1055B00080913E02882309F4FDC10E94044B698357
:1055C0007A838B839C838091DA0D882309F4C5C08C
:1055D0000E94E04FED81FE81319661F0ADA1BEA148
:1055E0002C9011963C90119712960C91129713964D
:1055F0001C9108C02090CF0D3090D00D0091D10D9E
:105600001091D20D9101A801698D7A8D8B8D9C8DA1
:105610000E94DA8587FF04C0298E3A8E0B8F1C8F7B
:105620009101A8016D8D7E8D8F8D98A10E942A8C8D
:10563000181624F42D8E3E8E0F8F18A38091BA0772
:105640009091BB07A091BC07B091BD0729813A8119
:105650004B815C81281B390B4A0B5B0B57FD11C03A
:1056600064D989819A81AB81BC818C53964FAF4FAD
:10567000BF4F8093BA079093BB07A093BC07B0932A
:10568000BD073CA929A1332309F44AC03AA14BA183
:105690005CA1B101C8010E942A8C18160CF05DC0F3
:1056A00049815A816B817C818B859C85AD85BE85C6
:1056B000481B590B6A0B7B0BDB01CA0188589341CD
:1056C000A109B109B7FD49C08F819885A985BA851F
:1056D00084199509A609B709ED81FE81B595A795AD
:1056E00097958795319619F48093DB0D03C0EFA54C
:1056F000F8A980834BA75CA76DA77EA7F9A1F98FB6
:105700002AA12A8F3BA13B8F4CA14C8F89819A8182
:10571000AB81BC818FA398A7A9A7BAA71CAA1DC05B
:105720003AA14BA15CA1B101C8010E94DA8587FFB3
:1057300014C089819A81AB81BC812FA138A549A56C
:105740005AA5821B930BA40BB50BAC01BD014858A5
:1057500053416109710977FF4BC120E030E040EA15
:1057600051E469A17AA18BA19CA10E94048A9B01AA
:10577000AC01B101C8010E942A8C181684F4E4E03F
:10578000FAE08491AF014F5F5F4F5A8349838823CA
:1057900009F48DC20E948014E981FA81F2CF80E37E
:1057A00098EFAFEFBFEF29893A894B895C89821B5B
:1057B000930BA40BB50B29813A814B815C81820F3D
:1057C000931FA41FB51FB7FD0DC00E94CF178AE01D
:1057D0000E94801489819A81AB81BC81898B9A8BCC
:1057E000AB8BBC8B89819A81AB81BC81880F991F5F
:1057F000AA1FBB1F2FA138A549A55AA5821B930B31
:10580000A40BB50B2B853C854D855E85821B930BC8
:10581000A40BB50B81389F44A241B10580F0E6EEA0
:10582000F9E08491AF014F5F5F4F5A83498388232A
:1058300009F43DC20E948014E981FA81F2CF8F857C
:105840009889A9A9BAA9A817B9070CF0B1CEE9E8B7
:10585000F9E084919F012F5F3F4F3A83298388238A
:1058600029F00E948014E981FA81F3CF4D815E8195
:105870004F3F5F4F29F0A5E6B3E0BA83A98304C088
:10588000E2EFF2E0FA83E98369817A8187E799E0C0
:105890000E94A26BB701A60183E799E00E946C6B9E
:1058A0008AE00E94801469817A8181E699E00E94F1
:1058B000A26B4D895E896F89788D8DE599E00E9494
:1058C0006C6B8AE00E94801469817A818BE499E094
:1058D0000E94A26BB501A40187E499E00E946C6B61
:1058E0008AE00E948014FBA9FF2309F4E0C12D8106
:1058F0003E812F3F3F4F59F5C0921B02D0921C02B0
:10590000E0921D02F0921E022CEA35EC47E25EE3C3
:105910006D897E898F89988D0E943F8660931702DA
:10592000709318028093190290931A022CEA35ECB6
:1059300047E25EE3C501B4010E94E08A609313026E
:105940007093140280931502909316022AC0C0929D
:105950004902D0924A02E0924B02F0924C022CEAA9
:1059600035EC47E25EE36D897E898F89988D0E94D0
:105970003F8660934502709346028093470290935E
:1059800048022CEA35EC47E25EE3C501B4010E940F
:10599000E08A60934D0270934E0280934F02909381
:1059A0005002109244041092450410924604109242
:1059B00047047DC180913E02811179C1E6960FB600
:1059C000F894DEBF0FBECDBFDF91CF911F910F9135
:1059D000FF90EF90DF90CF90BF90AF909F908F900F
:1059E0007F906F905F904F903F902F900C94FD4E62
:1059F0004F855889141615060CF029C12BA53CA516
:105A00004DA55EA5280F391F4A1F5B1F2B873C87BA
:105A10004D875E872BA53CA54DA55EA5281B390BA0
:105A20004A0B5B0BC301B2010E94B9892B853C85EF
:105A30004D855E850E94EF8C4F80588469847A84FE
:105A4000420E531E641E751E34E143165104610458
:105A500071040CF14CEE44165104610471043CF4E1
:105A600050E8451651046104710434F422C05BEE21
:105A7000452E512C612C712C4F82588669867A866E
:105A80008EEF90E0A0E0B0E084199509A609B7096F
:105A90002C013D0112C024E130E040E050E02F83B2
:105AA000388749875A8744E1442E512C612C712C48
:105AB00004C04F82588669867A86E0E7FAE08491CE
:105AC000AF014F5F5F4F5EAB4DAB882329F00E9463
:105AD0008014EDA9FEA9F3CF6F81788589859A8519
