:100000000C94D7160C9408170C9408170C94081726
:100010000C9408170C9408170C9408170C940817E4
:100020000C9408170C9408170C9408170C940817D4
:100030000C9408170C9472410C9408170C94081730
:100040000C9408170C942E230C9408170C94081782
:100050000C9408170C9408170C9418450C94B94389
:100060000C9408170C9439220C9408170C94081758
:100070000C9408170C9408170C9408170C94081784
:100080000C9440A70C9408170C9408170C940817AC
:100090000C9408170C9408170C9408170C94081764
:1000A0000C9408170C9408170C94042C0C94081743
:1000B0000C9408170C9408170C9408170C94D62B62
:1000C0000C9408170C9408170C9408170C94081734
:1000D0000C9408170C9408170C9408170C94081724
:1000E0000C940817BC40BF40AE40B240B840F64048
:1000F000C340C740CD40D140D540DB40DF40E34066
:10010000F640E940ED40F140734278427D4287423B
:1001100091420A439B42A342AB42B542BF42C9420D
:10012000D842E2420A43EC42F6420043CA45CE4579
:10013000F745FB45DD45E845B445084AD73B3BCE8E
:10014000016E84BCBFFDC12F3D6C74319ABD5683D6
:100150003DDA3D00C77F11BED9E4BB4C3E916BAA8E
:10016000AABE000000803F05A84CCDB2D44EB938DD
:1001700036A9020C50B9918688083CA6AAAA2ABEC4
:10018000000000803F004E414E494E495459494EAF
:1001900046CDCCCC3D0AD7233C17B7D13877CC2BF2
:1001A000329595E6241FB14F0A000020410000C897
:1001B0004200401C4620BCBE4CCA1B0E5AAEC59D18
:1001C000744C4556454C494E4700434F4D4D554E96
:1001D00049434154494F4E0044525952554E0045EF
:1001E00052524F525300494E464F004543484F002C
:1001F00047322F47332062616420706172616D6500
:10020000746572730A00205A3A200020593A20007F
:1002100042656420583A2000205B3031355D2D5B0B
:1002200031315D4D65736820706F696E7420636154
:100230006E6E6F74206265207265736F6C76656494
:100240000A002569730025696D20256973002569F9
:10025000682025696D20256973002569642025695A
:10026000682025696D202569730025697920256935
:1002700064202569682025696D2025697300507206
:10028000696E742074696D653A200050726F7465F0
:10029000637465642050696E0A00EB01E601DF01BA
:1002A000D801CA01C1016F66660044454255473A0C
:1002B000004B494C4C45442E20004D3131332053E6
:1002C000006F6B0050533A300A0050533A310A0025
:1002D0004361703A454D455247454E43595F504141
:1002E000525345523A300A004361703A43415345F4
:1002F0005F4C494748545F4252494748544E455322
:10030000533A300A004361703A544F47474C455FB7
:100310004C49474854533A300A004361703A534FAE
:100320004654574152455F504F5745523A310A00A3
:100330004361703A4C4556454C494E475F444154E1
:10034000413A310A004361703A5A5F50524F424578
:100350003A310A004361703A4155544F4C45564575
:100360004C3A310A004361703A5052494E545F4A48
:100370004F423A310A004361703A50524F4752455A
:1003800053533A300A004361703A4155544F524535
:10039000504F52545F54454D503A310A00436170FA
:1003A0003A454550524F4D3A310A004649524D5751
:1003B0004152455F4E414D453A4D61726C696E2028
:1003C000312E312E362E312E312028476974687532
:1003D000622920534F555243455F434F44455F5573
:1003E000524C3A68747470733A2F2F676974687549
:1003F000622E636F6D2F4D616B6572476561722F61
:100400006D336669726D776172652050524F544F3B
:10041000434F4C5F56455253494F4E3A312E302090
:100420004D414348494E455F545950453A4D33205C
:100430004475616C204578747275646572205265EC
:100440007620315F30303020455854525544455263
:100450005F434F554E543A3220555549443A6365EF
:100460006465326132662D343161322D343734386F
:100470002D396231322D6335356336326633363786
:1004800066660A002F2F200053657474696E67201A
:1004900054726176656C20416363656C657261744A
:1004A000696F6E3A200053657474696E67205265F7
:1004B000747261637420416363656C657261746911
:1004C0006F6E3A200053657474696E6720507269CC
:1004D0006E7420416363656C65726174696F6E3A16
:1004E000200053657474696E67205072696E7420C1
:1004F000616E642054726176656C20416363656C43
:1005000065726174696F6E3A2000205A00205900AC
:10051000580020204D61783A2000205A00205900D0
:10052000580020204D696E3A20004F6E20004F6623
:100530006600536F667420656E6473746F70733AEF
:100540002000000125301D0C1824311C0BFF232F27
:100550001B051EFF0403080602FF222B1A4142213D
:100560002A193F4003380906360706371F17162891
:100570002945274443206F7574206F662072616E91
:1005800067650A00536572766F20003A2000205399
:100590006572766F200020643A0020693A0020706E
:1005A0003A0043290A0061626C656420286D696E17
:1005B0002074656D702000436F6C642065787472E0
:1005C00075646573206172652000205B3031355D94
:1005D0002D5B31315D4D65736820706F696E7420DD
:1005E00063616E6E6F74206265207265736F6C76E6
:1005F00065640A004D34323120696E636F72726532
:10060000637420706172616D6574657220757361C9
:1006100067650A00F628A6C1000078C10000000046
:10062000546F6F206661722066726F6D207265660E
:100630006572656E636520706F696E740A003A209A
:10064000005761726E696E673A205B3030335D2D02
:100650005B31315D2050726F6265204F6666736555
:1006600074284D38353129206F7574206F662072DB
:10067000616E6765202E0A007A5F6D696E3A2020F0
:100680002D33207A5F6D61783A2020300A005A209D
:100690004F666673657420004E6F2063617365203A
:1006A0006C696768740A003C3C3C2067636F646552
:1006B0005F540A00203A2041465445520A00202047
:1006C00063757272656E745F706F736974696F6E53
:1006D0003D0043757272656E7420546F6F6C20001C
:1006E000203A204245464F52450A00202063757249
:1006F00072656E745F706F736974696F6E3D003EF2
:100700003E3E2067636F64655F542800556E6B6ED4
:100710006F776E20636F6D6D616E643A20220020EA
:100720005A3A0020593A0020583A00656E647374B2
:100730006F7073206869743A20002C20002C200010
:10074000203A2073796E635F706C616E5F706F73B7
:100750006974696F6E0A00202063757272656E7429
:100760005F706F736974696F6E3D00656E7175655A
:100770007565696E672022004B494C4C45442E201C
:10078000004572726F723A205B3031345D2D5B31FF
:10079000315D5072696E7465722073746F7070652C
:1007A000642064756520746F206572726F72732E99
:1007B0002046697820746865206572726F722061C6
:1007C0006E6420757365204D39393920746F20723D
:1007D0006573746172742E202854656D7065726142
:1007E000747572652069732072657365742E205369
:1007F0006574206974206166746572207265737413
:10080000617274696E67290A004E6F204C696E65CB
:10081000204E756D62657220776974682063686523
:10082000636B73756D2C204C617374204C696E651D
:100830003A20004E6F20436865636B73756D2077B7
:10084000697468206C696E65206E756D6265722CC6
:10085000204C617374204C696E653A2000636865B2
:10086000636B73756D206D69736D617463682C20A3
:100870004C617374204C696E653A20004C696E655A
:10088000204E756D626572206973206E6F74204C06
:10089000617374204C696E65204E756D6265722BB4
:1008A000312C204C617374204C696E653A20004DE8
:1008B0003131300020205B3031325D2D5B31315DD4
:1008C000496E76616C6964206578747275646572CE
:1008D0002000F628A6C1000078C10000000000003A
:1008E0004D4300006843000054430A20736F667450
:1008F0005F656E6473746F705F6D6178203D20007A
:100900000A20736F66745F656E6473746F705F6DD9
:10091000696E203D20000A20706F736974696F6EE4
:100920005F7368696674203D200020617869733ABE
:100930000A20686F6D655F6F6666736574203D2081
:1009400000466F7220003C3C3C207365745F617808
:1009500069735F69735F61745F686F6D65280020FC
:100960003A200A00202063757272656E745F706FA2
:10097000736974696F6E3D005D203D20003E206804
:100980006F6D655F6F66667365745B003E207A709D
:10099000726F62655F7A6F6666736574203D2000D2
:1009A0002A2A2A205A20484F4D4544205749544866
:1009B0002050524F424520285A5F4D494E5F5052B9
:1009C0004F42455F555345535F5A5F4D494E5F4512
:1009D0004E4453544F505F50494E29202A2A2A0A28
:1009E000003E3E3E207365745F617869735F697392
:1009F0005F61745F686F6D65280024F4D43050C364
:100A00008E20C2A24017828B7011127A910D816CD8
:100A1000D90AA861E108C7586607615143061E4B11
:100A20005D05C145A7041A411104093D98037139B8
:100A300031034036DB0265339102D4305402802EFC
:100A40001D02632CEE01752AC501B028A0011027F4
:100A500081018F2564012B244B01E0223401AC215C
:100A60001F018D200D01801FFC00841EED00971DCD
:100A7000DF00B81CD200E61BC600201BBC00641AB5
:100A8000B200B219A8000A19A0006A189900D1177B
:100A9000910040178B00B516840031167E00B31507
:100AA00079003A157300C7146F0058146A00EE13EA
:100AB00066008813630025135E00C7125B006C128A
:100AC000570015125400C111510070114F0021112F
:100AD0004B00D61049008D1047004610440002100C
:100AE0004200C00F4000800F3E00420F3C00060F46
:100AF0003B00CB0E3800930E37005C0E3500270EFE
:100B00003400F30D3200C10D3100900D3000600D46
:100B10002E00320D2D00050D2C00D90C2B00AE0C33
:100B20002900850C29005C0C2700350C27000E0CD1
:100B30002600E80B2400C40B2400A00B23007D0B2F
:100B400023005A0B2100390B2100180B2000F80A52
:100B50001F00D90A1E00BB0A1E009D0A1D00800A44
:100B60001D00630A1C00470A1B002C0A1B00110A07
:100B70001A00F7091A00DD091900C4091900AB09A8
:100B80001900920917007B091800630917004C0926
:100B9000160036091600200916000A091500F50886
:100BA0001500E0081400CC081400B8081400A408CC
:100BB0001400900813007D0812006B0813005808F9
:100BC0001200460812003408110023081100120810
:100BD000110001081100F0071000E0071000D00715
:100BE0001000C0071000B0070F00A1071000910708
:100BF0000E0083070F0074070F0065070E005707EC
:100C00000E0049070E003B070D002E070E002007BF
:100C10000D0013070D0006070D00F9060C00ED0688
:100C20000D00E0060C00D4060C00C8060C00BC0643
:100C30000C00B0060C00A4060B0099060C008D06F3
:100C40000B0082060B0077060B006C060B0061069A
:100C50000A0057060B004C060A0042060A00380636
:100C60000A002E060A0024060A001A060A001006C8
:100C7000090007060A00FD050900F4050900EB0557
:100C80000900E2050900D9050900D0050900C705DA
:100C90000900BE050900B5050800AD050800A50559
:100CA00009009C050800940508008C0508008405CF
:100CB00008007C050800740508006C050700650540
:100CC00008005D050700560508004E0507004705AA
:100CD00007004005080038050700310507002A0510
:100CE0000700230507001C050600160507000F0571
:100CF00007000805060002050700FB040600F504CE
:100D00000700EE040600E8040600E2040700DB0426
:100D10000600D5040600CF040600C9040600C3047B
:100D20000600BD040600B7040600B1040500AC04CB
:100D30000600A6040600A00405009B040600950416
:100D40000500900406008A0405008504050080045F
:100D500006007A04050075040500700405006B04A4
:100D6000050066040500610405005C0405005704E5
:100D70000500520405004D04050048040500430425
:100D800005003E0404003A04050035040500300463
:100D900004002C04050027040400230405001E049D
:100DA00004001A04040016040500110404000D04D4
:100DB0000400090405000404040000040400FC030A
:100DC0000400F8030400F4030400F0030400EC033F
:100DD0000400E8030400E4030400E0030400DC036F
:100DE0000400D8030400D4030400D0030400CC039F
:100DF0000400C8030300C503030024F404D9201B26
:100E0000C40C5C0E9804C4095F0265077101F40507
:100E1000F900FB04B30048048700C10369005803CC
:100E2000550003034500BE023A008402310053021C
:100E30002A002902250004022000E4011C00C80148
:100E40001900AF011700980114008401130071010B
:100E500010006101100051010E0043010D00360128
:100E60000B002B010B0020010B00150109000C01E8
:100E7000090003010800FB000800F3000800EB0074
:100E80000700E4000600DE000600D8000600D200DD
:100E90000600CC000500C7000500C2000500BD002B
:100EA0000400B9000400B5000400B1000400AD0066
:100EB0000400A9000400A5000300A20003009F0095
:100EC00004009B00030098000300950002009300BB
:100ED0000300900003008D0002008B0003008800D7
:100EE00002008600020084000300810002007F00EF
:100EF00002007D0002007B00020079000200770002
:100F0000010076000200740002007200010071000E
:100F100002006F0002006D0001006C0002006A0018
:100F20000100690002006700010066000100650021
:100F30000100640002006200010061000100600025
:100F400001005F0002005D0001005C0001005B0029
:100F500001005A000100590001005800010057002B
:100F6000010056000100550001005400010053002B
:100F70000000530001005200010051000100500028
:100F800001004F0001004E0000004E0001004D0026
:100F900001004C0001004B0000004B0001004A0022
:100FA000010049000100480000004800010047001E
:100FB0000100460000004600010045000000450019
:100FC0000100440001004300000043000100420012
:100FD000000042000100410000004100010040000B
:100FE00001003F0000003F0001003E0000003E0005
:100FF00001003D0000003D0001003C0000003C00FD
:1010000000003C0001003B0000003B0001003A00F2
:1010100000003A00010039000000390001003800EA
:1010200000003800000038000100370000003700E1
:1010300001003600000036000000360001003500D7
:1010400000003500000035000100340000003400CD
:1010500000003400010033000000330000003300C2
:1010600001003200000032000000320001003100B7
:1010700000003100000031000100300000003000AD
:101080000000300001002F0000002F0000002F00A2
:1010900000002F0001002E0000002E0000002E0096
:1010A00001002D0000002D0000002D0000002D008B
:1010B00001002C0000002C0000002C0000002C007F
:1010C00001002B0000002B0000002B0000002B0073
:1010D00001002A0000002A0000002A0000002A0067
:1010E000010029000000290000002900000029005B
:1010F000000029000100280000002800000028004E
:101100000000280000002800010027000000270040
:101110000000270000002700000027000100260033
:101120000000260000002600000026000000260027
:10113000010025000000250000002500000025001A
:10114000000025000000250001002400000024000C
:1011500000002400000024000000240001002300FF
:1011600000002300000023000000230000002300F3
:1011700000002300000023000100220000002200E4
:1011800000002200000022000000220000002200D7
:1011900001002100000021000000210000002100CA
:1011A00000002100000021000000210001002000BB
:1011B00000002000000020000000200000002000AF
:1011C00000002000000020000000200001001F009F
:1011D00000001F0000001F0000001F0000001F0093
:1011E00000001F0000001F0001001E0000001E0084
:1011F00000001E0000001E0000002020506C616EE8
:101200006E657242756666657242797465733A20DE
:10121000002046726565204D656D6F72793A200039
:10122000436F6D70696C65643A204A756C2020319B
:1012300020323032320A00207C20417574686F728F
:101240003A204D47207C4A6F73682C204B796C659F
:101250002C2044617669642C2053616D0A00323081
:1012600031372D31302D31302031323A30300020BD
:101270004C61737420557064617465643A20003168
:101280002E312E362E312E310A004D61726C696E70
:1012900000205B3031315D2D5B315D20536F667412
:1012A000776172652052657365740A00205B303186
:1012B000305D2D5B31315D205761746368646F6709
:1012C0002052657365740A00205B3030395D2D5BF8
:1012D00031315D2042726F776E206F7574205265D8
:1012E0007365740A00205B3030385D2D5B31315DF1
:1012F0002045787465726E616C2052657365740A5E
:1013000000506F77657255700A0073746172740AC9
:1013100000000048420000484200008041000000F8
:10132000005761726E696E673A20486F6D696E672B
:101330002042756D702044697669736F72203C207D
:10134000310A000404060000404000004040000054
:1013500000401FC5614300807743000054433C3C7C
:101360003C20686F6D65617869732800203A203EE3
:10137000204146544552207365745F617869735FFC
:1013800069735F61745F686F6D650A002020637523
:101390007272656E745F706F736974696F6E3D0011
:1013A000486F6D65203220536C6F773A0A004D6F9D
:1013B000766520417761793A0A00486F6D65203182
:1013C00020466173743A0A00FFFFFF3E3E3E2068EC
:1013D0006F6D65617869732800205B3031365D2D53
:1013E0005B31315D4572726F722077726974696E1C
:1013F0006720746F20454550524F4D210A002057F9
:101400003A0020573A00205A3A0020593A00204327
:101410006F756E7420583A0020453A00205A3A0001
:1014200020593A00583A00486F74656E64206F6620
:1014300066736574733A0020633A0020643A0020B2
:10144000693A0020703A004F66660A00466164659A
:10145000204865696768742000426564204C6576A1
:10146000656C696E6720004661696C656420746F05
:1014700020656E61626C6520426564204C6576650E
:101480006C696E670A00486F74656E64206F6666EB
:10149000736574733A005374616E646172642044BE
:1014A0006576696174696F6E3A20002052616E67DB
:1014B000653A2000204D61783A2000204D696E3A4F
:1014C00020004D65616E3A200046696E697368655B
:1014D00064210A002072616E67653A2000206D6108
:1014E000783A2000206D696E3A2000207369676D9C
:1014F000613A2000206D65616E3A20003A207A3A08
:101500002000206F662000205A002059002058003B
:10151000476F696E6720746F3A00436C6F636B7737
:101520006973650A00436F756E7465722D002044FF
:101530006972656374696F6E3A2000202020616EC5
:10154000676C653A20005374617274696E6720722B
:1015500061646975733A2000506F736974696F6EC6
:10156000696E67207468652070726F62652E2E2E1A
:101570000A003F4E756D626572206F66206C65676C
:101580007320696E206D6F76656D656E74206E6F69
:101590007420706C61757369626C652028302D3120
:1015A00035292E0A00590058003F53616D706C6553
:1015B0002073697A65206E6F7420706C6175736931
:1015C000626C652028342D3530292E0A004D3438C0
:1015D000205A2D50726F626520526570656174618A
:1015E00062696C69747920546573740A003F2856E7
:1015F000296572626F7365206C6576656C2069730E
:1016000020696D706C61757369626C652028302D7E
:1016100034292E0A00202F002040002042403A00AA
:1016200020403A0070012C0190012701B0012201F5
:10163000C0011D01F00118011002130130020E015A
:101640006002090190020401C002FF000003FA00D9
:101650004003F5008003F000D003EB002004E60017
:101660007004E100E004DC004005D700C005D200B2
:101670004006CD00D006C8008007C3003008BE0079
:10168000F008B900C009B400B00AAF00B00BAA005E
:10169000D00CA500000EA000500F9B00C0109600BB
:1016A0005012910000148C00C0158700B017820002
:1016B000B0197D00D01B7800001E730040206E0022
:1016C00090226900F024640040275F0090295A00AE
:1016D000E02B5500102E500020304B0010324600F9
:1016E000E033410090353C0010373700703832004D
:1016F000A0392D00B03A2800A03B2300603C1E001A
:10170000103D1900903D1400103E0F00703E0A007D
:10171000C03E0500003F0000403FFBFF803FF6FF5A
:10172000C03FF1FF4572723A204D494E54454D502D
:1017300020424544004572723A204D494E54454D71
:101740005000205B3032345D2D5B31315D204D49DE
:101750004E54454D50207472696767657265640028
:101760004572723A204D415854454D5020424544EF
:10177000004572723A204D415854454D5000205B4F
:101780003032335D2D5B31315D204D415854454D34
:1017900050207472696767657265640000002100FB
:1017A000240027002A002D00300033000101000032
:1017B000040107010A0100002200250028002B0077
:1017C0002E003100340002010000050108010B0168
:1017D000000020002300260029002C002F003200EA
:1017E00000010000030106010901050505050705C3
:1017F00008080808020202020A0A0808040404048D
:1018000001010101010101010303030303030303B8
:10181000040707070C0C0C0C0C0C0C0C0202020247
:1018200006060606060606060B0B0B0B0B0B0B0B30
:1018300001021020200808102040102040800201E2
:1018400002010804020101020408102040808040C7
:1018500020100804020180040201804020100804C6
:101860000201080402010102040810204080010264
:1018700004081020408000000A0B02090C0D0E081D
:101880000703040100000000000000000000000049
:101890000000000000000000000000000000000048
:1018A0000000121110000000000000000000000005
:1018B000000000000000000000000000024163740E
:1018C000697665206578747275646572206E6F74D0
:1018D00020300A00536574206578747275646572EF
:1018E0005F6475706C69636174696F6E5F656E616A
:1018F000626C65640A436C65617220616374697629
:10190000655F65787472756465725F7061726B652E
:10191000640A00202E2E2E204C696E6520746F20E4
:10192000580053657420706C616E6E6572205800AB
:10193000436C656172206163746976655F65787474
:1019400072756465725F7061726B65640A005761DD
:10195000726E696E673A205B3030355D2D5B3232D6
:101960005D2043616E6E6F74204578747275646596
:10197000206E6F7265207468616E206D6D00576116
:10198000726E696E673A205B3030355D2D5B3132A7
:101990005D204C656E677468792045787472757344
:1019A000696F6E2050726576656E7465640A0020FA
:1019B000746F6F206C6F6E672065787472757369D1
:1019C0006F6E2070726576656E7465640A0057618B
:1019D000726E696E673A205B3030345D2D5B333355
:1019E0005D20486561742075702065787472756437
:1019F0006572206F7220757365204D3330320A0096
:101A00005761726E696E673A205B3030345D2D5BD2
:101A100032335D2043616E6E6F7420457874727549
:101A2000646520756E6465722043005761726E694B
:101A30006E673A205B3030345D2D5B31335D20437F
:101A40006F6C6420457874727573696F6E20507284
:101A50006576656E7465640A0020636F6C6420654A
:101A60007874727573696F6E2070726576656E74C6
:101A700065640A00627573793A20706175736564F4
:101A800020666F7220696E7075740A0062757379D2
:101A90003A2070617573656420666F722075736596
:101AA000720A00627573793A2070726F636573739E
:101AB000696E670A004B494C4C45442E2000205B60
:101AC0003031395D4B494C4C20636175736564203E
:101AD000627920746F6F206D75636820696E616331
:101AE000746976652074696D65202D206375727246
:101AF000656E7420636F6D6D616E643A200045728F
:101B0000726F723A205B3031335D2D5B31315D5045
:101B100072696E7465722068616C7465642E206BE6
:101B2000696C6C28292063616C6C656421205468A1
:101B300065207072696E746572206973206E6F77AC
:101B4000206F66666C696E6520616E642077696CD3
:101B50006C206E6F7420726573706F6E6420756E8A
:101B600074696C207265737461727465642E200AE6
:101B7000003C3C3C20646F5F626C6F636B696E6716
:101B80005F6D6F76655F746F0A003E3E3E20646F46
:101B90005F626C6F636B696E675F6D6F76655F74B4
:101BA0006F00203A2073657475705F666F725F65B1
:101BB0006E6473746F705F6F725F70726F62655F77
:101BC0006D6F76650A00202063757272656E745FB2
:101BD000706F736974696F6E3D00203A20636C65A5
:101BE000616E5F75705F61667465725F656E647368
:101BF000746F705F6F725F70726F62655F6D6F762A
:101C0000650A00202063757272656E745F706F7371
:101C10006974696F6E3D007365745F626C746F7593
:101C200063685F6465706C6F79656428004B494C2C
:101C30004C45442E20004572726F723A205B303062
:101C4000325D2D5B31315D2050726F6265204465DD
:101C5000706C6F796D656E74204572726F723A2088
:101C6000506C65617365207265737461727420795C
:101C70006F7572207072696E7465722E0A006572DB
:101C8000726F7220646574656374656420626C2091
:101C9000746F756368207365745F626C746F7563CD
:101CA000685F6465706C6F79656400205B30313704
:101CB0005D53544F502063616C6C656420626563B2
:101CC00061757365206F6620424C546F75636820A0
:101CD0006572726F72202D20726573746172742048
:101CE00077697468204D3939390A004572726F720C
:101CF000204465746563746564206F6E20424C20D7
:101D0000546F7563682C20726574657374696E67AF
:101D10002070726F6265004572726F722044657444
:101D20006563746564206F6E20424C20546F756348
:101D3000682C20726574657374696E672070726FA9
:101D4000626500646F5F70726F62655F7261697374
:101D50006528006465706C6F793A2000203A207322
:101D600065745F70726F62655F6465706C6F7965D2
:101D7000640A00202063757272656E745F706F7301
:101D80006974696F6E3D00203A203C3C3C20646FD2
:101D90005F70726F62655F6D6F76650A0020206309
:101DA000757272656E745F706F736974696F6E3D82
:101DB00000203A203E3E3E20646F5F70726F626585
:101DC0005F6D6F76650A00202063757272656E74B0
:101DD0005F706F736974696F6E3D007265736574CF
:101DE0005F6265645F6C6576656C0A002028646FCD
:101DF0006E65290A004578747261706F6C61746554
:101E0000205B004E414E005D5D3B004E414E005D4B
:101E100020202C5B004E414E005D20202C5B0020DA
:101E20003D205B5B0042696C696E656172204C65A8
:101E300076656C696E6720477269643A0A0057617B
:101E4000726E696E673A205B3031325D2D5B3131E5
:101E50005D20496E76616C696420457874727564A2
:101E600065720A00416374697665204578747275FD
:101E70006465723A2000203A204D6F7665206261D9
:101E8000636B0A00202064657374696E6174696F06
:101E90006E3D00203A2053796E632041667465726E
:101EA00020546F6F6C6368616E67650A0020206361
:101EB000757272656E745F706F736974696F6E3D71
:101EC00000203A204E6577206578747275646572DB
:101ED00020287061726B6564290A00202063757286
:101EE00072656E745F706F736974696F6E3D0041E7
:101EF00063746976652065787472756465722070A4
:101F000061726B65643A2000436C6561722065788C
:101F10007472756465725F6475706C69636174690D
:101F20006F6E5F656E61626C65640A005365742054
:101F3000696E6163746976655F65787472756465EE
:101F4000725F785F706F733D00203A207377697419
:101F5000636820782063617272696167650A002096
:101F60002063757272656E745F706F736974696FE8
:101F70006E3D006465737420782072617720006480
:101F800065737420782000696E61637469766520DA
:101F900078206C6F676963616C2000696E6163749F
:101FA00069766520782000416374697665206578DC
:101FB000747275646572207061726B65643A20009A
:101FC0004D6F64652000203A204E65772045787477
:101FD00072756465720A00202063757272656E7492
:101FE0005F706F736974696F6E3D00646573742010
:101FF000782072617720006465737420782000690E
:102000006E6163746976652078206C6F67696361BF
:102010006C2000696E6163746976652078200041E8
:102020006374697665206578747275646572207072
:1020300061726B65643A200062696C696E206F742E
:10204000686572200062696C696E206375727265E2
:102050006E742000203A2063757272656E740A00F7
:10206000202063757272656E745F706F7369746936
:102070006F6E3D004C6F77657220746F20004D6F5E
:1020800076655820746F2000526169736520746F03
:1020900020004458435F46554C4C5F434F4E5452CA
:1020A0004F4C5F4D4F44450A004458435F415554DF
:1020B0004F5F5041524B5F4D4F44450A00445843D7
:1020C0005F4455504C49434154494F4E5F4D4F4436
:1020D000450A004475616C20582043617272696141
:1020E0006765204D6F646520004475616C20582041
:1020F00043617272696167652020656E61626C651B
:10210000640A004E6F206D6F7665206F6E20746FCD
:102110006F6C6368616E67650A00696E61637469FC
:1021200076652065787472756465722078206973AD
:102130003A20202000203A2061637469766520658A
:10214000787475646572206973206174200A0020B8
:102150002063757272656E745F706F736974696FF6
:102160006E3D00616374697665206578747275648C
:102170006572206265666F72652069733A2020205F
:1021800000706572666F726D20746F6F6C2063688B
:10219000616E676520746F202000526573656E6400
:1021A0003A20006F6B0048617264636F646564205D
:1021B00044656661756C742053657474696E6773E9
:1021C000204C6F616465640A00B0040000B0040034
:1021D000000A000000D007000000009643000096AF
:1021E000430000A0410000F0413333A0423333A04C
:1021F00042CDEC7B4400C0EB4320204D38353120EC
:102200005A005A2D50726F6265204F66667365746E
:1022100020286D6D293A0A00204400204900202022
:102220004D333034205000204C0020430020440027
:1022300020490020204D333031205000204C002018
:10224000430020440020490020500020204D33301E
:10225000312045005049442073657474696E67737A
:102260003A0A00205A0020204D34323020530041D9
:1022700075746F20426564204C6576656C696E6785
:102280003A0A00205A0020590020580020204D32E0
:102290003138205400486F74656E64206F66667331
:1022A0006574733A0A00205A0020590020204D32EC
:1022B0003036205800486F6D65206F666673657410
:1022C0003A0A00204500205A0020590020580020DA
:1022D000420020540020204D32303520530041640C
:1022E00076616E6365643A20533C6D696E5F666526
:1022F0006564726174653E20543C6D696E5F7472F2
:102300006176656C5F66656564726174653E2042E6
:102310003C6D696E5F7365676D656E745F74696D42
:10232000655F6D733E20583C6D61785F78795F6AB8
:1023300065726B3E205A3C6D61785F7A5F6A6572A8
:102340006B3E20453C6D61785F655F6A65726B3EF0
:102350000A0020540020520020204D3230342050FA
:1023600000416363656C65726174696F6E202875E6
:102370006E6974732F7332293A20503C7072696E03
:10238000745F616363656C3E20523C726574726178
:1023900063745F616363656C3E20543C7472617664
:1023A000656C5F616363656C3E0A00204500205ADE
:1023B0000020590020204D3230312058004D6178E6
:1023C000696D756D20416363656C65726174696FD9
:1023D0006E2028756E6974732F7332293A0A0020B3
:1023E0004500205A0020590020204D32303320581B
:1023F000004D6178696D756D206665656472617404
:1024000065732028756E6974732F73293A0A00204A
:102410004500205A0020590020204D393220580014
:1024200053746570732070657220756E69743A0A12
:102430000020204D3230302044300A0020204D3220
:10244000303020543120440020204D3230302044A0
:10245000002044697361626C65640A0046696C61BE
:102460006D656E742073657474696E67733A0020CD
:1024700020473231202020203B20556E6974732084
:10248000696E206D6D0A003C3C3C20646F5F686F94
:102490006D696E675F6D6F766528002C20002C20BB
:1024A000003E3E3E20646F5F686F6D696E675F6DD2
:1024B0006F7665280041424C2041646A7573746DE3
:1024C000656E74205A002028656E61626C6564290F
:1024D0000A00202864697361626C6564290A0042FD
:1024E000494C494E454152004175746F2042656424
:1024F000204C6576656C696E673A2000204E6F7AD5
:102500007A6C65290A0020262041626F76650020DA
:10251000262053616D65205A2061730020262042D9
:10252000656C6F77002D43656E74657200202852CC
:102530006967687400205A3A0020593A0050726F57
:102540006265204F666673657420583A00424C54A9
:102550004F5543480A0050726F62653A200043614C
:102560007274657369616E0A004D616368696E65B6
:1025700020547970653A200020706F736974696F18
:102580006E206F7574206F662072616E67652E0A0B
:10259000003F50726F626520003C3C3C2067636FD7
:1025A00064655F4732390A0020636F727265637435
:1025B0006564205A3A0047323920756E636F727233
:1025C0006563746564205A3A00203A203E20707298
:1025D0006F62696E6720636F6D706C6574650A0069
:1025E000202063757272656E745F706F73697469B1
:1025F0006F6E3D0052756E6E696E6720696E204485
:1026000052592D52554E206D6F64650A004732397C
:10261000204175746F20426564204C6576656C6955
:102620006E670A0028422961636B00284629726F91
:102630006E74002852296967687400284C29656601
:1026400074003F2856296572626F7365206C657649
:10265000656C20697320696D706C61757369626C5B
:10266000652028302D34292E0A00426164205A202A
:1026700076616C75650A004E6F2062696C696E65E3
:10268000617220677269640A00203A203E3E3E2053
:1026900067636F64655F4732390A00202063757293
:1026A00072656E745F706F736974696F6E3D002937
:1026B0000A002062797465733B20637263200053C3
:1026C000657474696E67732053746F726564202833
:1026D00000202863616C63756C6174656429210A4C
:1026E0000020213D2000454550524F4D204352438C
:1026F000206D69736D61746368202D202873746F79
:10270000726564292000290A002062797465733B90
:102710002063726320002073746F72656420736598
:102720007474696E67732072657472696576656426
:10273000202800204D61726C696E3D563431290AA3
:102740000028454550524F4D3D00454550524F4D94
:102750002076657273696F6E206D69736D61746345
:1027600068200020746F6F206C6F6E67206578742E
:10277000727573696F6E2070726576656E746564CC
:102780000A0020636F6C6420657874727573696FDA
:102790006E2070726576656E7465640A003C3C3C20
:1027A000205A5F534146455F484F4D494E470A0006
:1027B0005A2070726F6265206F75742E2062656496
:1027C0000A00203A20626C6F636B206D6F76652083
:1027D000616674657220756E7061726B0A002020EC
:1027E00064657374696E6174696F6E3D00203A2090
:1027F0005A5F534146455F484F4D494E473A0A009C
:10280000202064657374696E6174696F6E3D004861
:102810006F6D696E672077697468205A2070726FD7
:1028200062652C20636865636B20616E64206D6F48
:10283000766520746F6F6C310A005A5F53414645CC
:102840005F484F4D494E47203E3E3E0A0057617259
:102850006E696E673A205B3030365D2D5B31315DDD
:102860002043616E6E6F7420486F6D65205A20772B
:1028700069746820756E6B6F6E776E20582F592EB5
:1028800020506C6561736520686F6D6520582F5905
:102890002066697273742E0A00473238205A204627
:1028A0006F7262696464656E0A00466F72636520C8
:1028B00054300A003C3C3C2067636F64655F4732DC
:1028C000380A0047323920503300543000203A2073
:1028D0003E2028686F6D655F616C6C207C7C206891
:1028E0006F6D655A29203E2066696E616C0A002072
:1028F0002063757272656E745F706F736974696F4F
:102900006E3D00203A203E20686F6D65590A002018
:102910002063757272656E745F706F736974696F2E
:102920006E3D00203A203E20686F6D65580A0020F9
:102930002063757272656E745F706F736974696F0E
:102940006E3D006368616E6765696E6720696E61E0
:1029500063746976655F65787472756465725F78B3
:102960005F706F7320696E20686F6D696E670052CB
:1029700061697365205A20286265666F72652068F8
:102980006F6D696E672920746F20005261697365ED
:10299000205A20286265666F726520686F6D696EC7
:1029A000672920746F200063757272656E745F70A2
:1029B0006F736974696F6E5B5A5F415849535D204C
:1029C0000064657374696E6174696F6E20003E20E7
:1029D000656E6473746F70732E656E61626C6528CA
:1029E00074727565290A003E3E3E2067636F646518
:1029F0005F4732380A004B64200023646566696EC5
:102A000065202044454641554C545F004B692000E9
:102A100023646566696E65202044454641554C54E3
:102A20005F004B70200023646566696E652020445A
:102A3000454641554C545F00504944204175746FE0
:102A400074756E652066696E6973686564212050CF
:102A5000757420746865206C617374204B702C2031
:102A60004B6920616E64204B6420636F6E737461E8
:102A70006E74732066726F6D2062656C6F7720696B
:102A80006E746F20436F6E66696775726174696FEB
:102A90006E2E680A00504944204175746F74756E3B
:102AA00065206661696C6564212074696D656F7568
:102AB000740A00504944204175746F74756E652026
:102AC0006661696C6564212054656D70657261741E
:102AD00075726520746F6F20686967680A00204B03
:102AE000643A2000204B693A2000204B703A2000C5
:102AF0000A20436C617373696320504944200A00C3
:102B00002054753A2000204B753A2000206D6178E2
:102B10003A2000206D696E3A200020643A2000209F
:102B2000626961733A20000606FFFFFF000002029F
:102B3000026265640A002C2073797374656D2073DA
:102B4000746F7070656421204865617465725F49B7
:102B5000443A200048656174696E67206661696C5B
:102B6000656400205B3032315D2D5B31315D204882
:102B7000656174696E67206661696C6564202D20EB
:102B8000706C6561736520636F6E7461637420732C
:102B90007570706F72740048656174696E67206645
:102BA00061696C656400205B3032315D2D5B3131D1
:102BB0005D2048656174696E67206661696C656453
:102BC000202D20706C6561736520636F6E74616386
:102BD0007420737570706F72740045323A2000452E
:102BE000313A200045303A20005A3A2000593A2024
:102BF00000583A20004D53312C4D53322050696E0D
:102C0000730A002044697363726570616E63793A78
:102C100000326E642050726F6265205A3A00203A8A
:102C2000203C3C3C2072756E5F7A5F70726F62650B
:102C30000A00202063757272656E745F706F73692D
:102C400074696F6E3D003173742050726F6265203D
:102C50005A3A00203A203E3E3E2072756E5F7A5FFF
:102C600070726F62650A00202063757272656E74FF
:102C70005F706F736974696F6E3D005761726E6942
:102C80006E673A205B3030375D2D5B31315D20500F
:102C9000726F6265204661696C757265200A00502A
:102CA000726F62696E67206661696C65640A0045CF
:102CB00072726F723A003C3C3C2070726F62655FCA
:102CC00070740A00205A3A200020593A20004265C8
:102CD0006420583A2000203A200A002020637572B0
:102CE00072656E745F706F736974696F6E3D0073A7
:102CF000746F77290A002C20002C20003E3E3E20D5
:102D000070726F62655F70742800206669727374F8
:102D10000A005A0059005800486F6D65200065632D
:102D2000686F3A00544845524D414C2052554E412F
:102D300057415900205B3032325D2D5B31315D20CF
:102D4000546865726D616C2052756E61776179208F
:102D50002D20706C6561736520636F6E74616374A0
:102D600020737570706F7274007A5F6D61783A20AD
:102D7000007A5F6D696E3A2000795F6D696E3A2066
:102D800000785F6D61783A2000785F6D696E3A2057
:102D9000005265706F7274696E6720656E6473743B
:102DA0006F70207374617475730A00003FC1112441
:102DB0001FBECFEFD1E2DEBFCDBF00E00CBF13E0FE
:102DC000A0E0B2E0E0EAFBE901E00BBF02C007903F
:102DD0000D92A03EB107D9F720E1A0EEB3E001C00B
:102DE0001D92AC3BB207E1F716E1C7EDD6E100E07A
:102DF00006C021970109802FFE010E9497CDC63D94
:102E0000D10780E00807A9F70E941EAA0C94CECD36
:102E10000C9400008FB7F8949091550D2091540DAB
:102E2000921759F0E92FF0E0EC52F34F208130E097
:102E30009F5F9F779093550D02C02FEF3FEF8FBF9D
:102E4000C9010895FF920F931F93CF93DF93FC0165
:102E500020812B3319F1D0918606D430F8F4F62E68
:102E6000BC01C091A5060C2F10E0F0E6CF9FC00179
:102E7000112488519B4F0E94B9CDF801ED5BF34FAF
:102E8000F082CF5FC43018F4C093A50602C0109240
:102E9000A506DF5FD093860681E001C080E0DF9168
:102EA000CF911F910F91FF9008952F923F924F92D3
:102EB0005F926F927F928F929F92AF92BF92CF92CA
:102EC000DF92EF92FF920F931F93CF93DF9300D087
:102ED00000D0CDB7DEB79A8389830E94AD43E981E4
:102EE000FA81C680D780E084F184C114D104E10462
:102EF000F10409F0ACC22485222309F469C33285A8
:102F00002150248721E0230F22874585241301C007
:102F10001286E981FA8124E0329FE00DF11D11242F
:102F2000C684D784E088F188E981FA81C282D3829D
:102F3000E482F582DC01CB018C0D9D1DA11DB11D2C
:102F400086839783A087B18784819581892B09F433
:102F50003FC3FFB7FD83F894E981FA812280338073
:102F60002101612C712C048115818091250283310E
:102F700021F08F3F09F068C205C0ECEBF8E1249125
:102F80002E83DAC083E180932502ECEBF8E1849193
:102F90008E838F3F09F458C2823009F469C030F53E
:102FA000882309F44CC0813009F0C6C0109280001B
:102FB00010928100809181008860809381008091CF
:102FC0008100816080938100EDEFF7E1E491F0E012
:102FD000EE0FFF1FEA54F84E85919491E3E4F8E177
:102FE000E491E0938F06E1E0EE8330C19E8194305E
:102FF00009F482C008F460C0953009F09DC01092B9
:10300000200110922101809121018860809321018B
:1030100080912101816080932101EDEFF7E1E4913E
:10302000F0E0EE0FFF1FEA54F84E85919491E3E42F
:10303000F8E1E491E0938C0695E09E8307C114BC0F
:1030400015BC84B5826084BD85B5816085BDEDEF1A
:10305000F7E1E491F0E0EE0FFF1FEA54F84E85919E
:103060009491E3E4F8E1E491E09390061E82ABC210
:103070001092B0001092B1008091B00082608093F5
:10308000B0008091B10081608093B100EDEFF7E175
:10309000E491F0E0EE0FFF1FEA54F84E8591949111
:1030A0009093800C80937F0CE3E4F8E1E491E0934B
:1030B000810CF2E0FE8387C2109290001092910082
:1030C000809191008860809391008091910081604F
:1030D00080939100EDEFF7E1E491F0E0EE0FFF1F38
:1030E000EA54F84E85919491E3E4F8E1E491E09399
:1030F0008E0623E02E83AAC01092A0001092A10099
:103100008091A10088608093A1008091A1008160DE
:103110008093A100EDEFF7E1E491F0E0EE0FFF1FE7
:10312000EA54F84E85919491E3E4F8E1E491E09358
:103130008D0684E08E838AC0EE81E7FD85C161E063
:1031400083E10E9410428E818D7F09F083C0480187
:10315000A12CB12C60E072E18AE790E0A501940116
:103160000E9460CA29833A834B835C8369017A0198
:10317000F1E0CF1AD108E108F1082FEFC216D1040F
:10318000E104F10409F008F44EC060E472E48FE059
:1031900090E0A50194010E9460CA69017A0181E072
:1031A000C81AD108E108F1089E81923009F5EFEFC5
:1031B000CE16D104E104F10409F008F4CBC160E9B2
:1031C00070ED83E090E0A50194010E9460CA69015E
:1031D0007A01F1E0CF1AD108E108F1082FEFC21609
:1031E000D104E104F10411F008F041C183E027C0EB
:1031F0008FEFC816D104E104F104B9F0B0F068E42F
:1032000078EE81E090E0A50194010E9460CA690116
:103210007A0191E0C91AD108E108F108EE81EE23A4
:1032200009F49AC163C181E001C082E09E819111DD
:1032300006C095B5987F892B85BD7AC085E09091B1
:10324000B100987F892B8093B10072C061E083E167
:103250000E9410424801A12CB12C60E072E18AE783
:1032600090E0A50194010E9460CA69017A01E1E041
:10327000CE1AD108E108F108C114D104F1E0EF063B
:10328000F10488F068E478EE81E090E0A501940113
:103290000E9460CA69017A0181E0C81AD108E10878
:1032A000F10883E001C081E09E81913071F490913A
:1032B0008100987F892B80938100452846284728E4
:1032C000D9F52FEF3FEFA90168C0EE81E33071F42B
:1032D00090919100987F892B8093910045284628F2
:1032E000472851F52FEF3FEFA90179C0FE81F43057
:1032F00071F49091A100987F892B8093A1004528BB
:1033000046284728C9F42FEF3FEFA9017AC02E8144
:10331000253071F490912101987F892B80932101B0
:1033200045284628472841F42FEF3FEFA9017BC0ED
:1033300045284628472869F0D801AA0FBB1F9101EC
:103340000E948CCA28EE33E040E050E00E943ECA62
:1033500003C02FEF3FEFA9018E81823081F12CF461
:10336000882361F08130C9F06FC09E81943009F4E8
:1033700048C0ACF1953009F456C066C0C7BC209374
:10338000A1063093A2064093A3065093A406809111
:103390006E00826080936E0057C0D0928900C09208
:1033A000880020939D0630939E0640939F0650937D
:1033B000A00680916F00826080936F0045C0C0922C
:1033C000B3002093820C3093830C4093840C509371
:1033D000850C8091700082608093700035C0D0921F
:1033E0009900C09298002093990630939A064093D2
:1033F0009B0650939C0680917100826080937100BF
:1034000023C0D092A900C092A800209395063093C3
:1034100096064093970650939806809172008260BA
:103420008093720011C0D0922901C092280120938C
:1034300091063093920640939306509394068091A0
:103440007300826080937300ED81EFBFC1C0DC0127
:10345000CB018C199D09AE09BF09B7FDB9C05A98B7
:10346000E981FA811682178210861186B1C068E45C
:1034700078EE81E090E0A50194010E9460CA6901A4
:103480007A01F1E0CF1AD108E108F1082FEFC21656
:10349000D104E104F10441F138F164E274EF80E019
:1034A00090E0A50194010E9460CA69017A01F1E0EF
:1034B000CF1AD108E108F1082FEFC216D104E104B8
:1034C000F10409F008F4BACE62E17AE780E090E016
:1034D000A50194010E9460CA69017A0181E0C81ABD
:1034E000D108E108F10819C084E0A9CE2FEFC21677
:1034F000D104E104F10409F008F463C062E17AE761
:1035000080E090E0A50194010E9460CA69017A01FF
:10351000F1E0CF1AD108E108F1082FEFC216D1046B
:10352000E104F104A9F0A0F089819A81AB81BC810A
:103530002AE0B595A795979587952A95D1F76C01BF
:103540007D01F1E0CF1AD108E108F10887E077CEDC
:1035500086E075CE82E073CEEFEFCE16D104E104A3
:10356000F10469F160F162E17AE780E090E0A501A1
:1035700094010E9460CA69017A0181E0C81AD108E9
:10358000E108F1089FEFC916D104E104F104A9F0A4
:10359000A0F089819A81AB81BC813AE0B595A7956D
:1035A000979587953A95D1F76C017D01E1E0CE1AA8
:1035B000D108E108F10885E03CCE84E03ACE83E012
:1035C00038CE84E033CE61E083E10E941042BFCD6B
:1035D00026960FB6F894DEBF0FBECDBFDF91CF9118
:1035E0001F910F91FF90EF90DF90CF90BF90AF9021
:1035F0009F908F907F906F905F904F903F902F9013
:103600000895CF92DF92EF92FF92892B31F4FF90D1
:10361000EF90DF90CF900C94FE2EC0908E0DD09046
:103620008F0DE090900DF090910D20E030E0A90119
:10363000C701B6010E94C2CC181634F0C12CD12C9F
:103640008CE7E82E83E4F82E2091850F3091860FC9
:103650004091870F5091880FC701B6010E949CCA04
:10366000FF90EF90DF90CF9008958091A304909108
:10367000A404009731F04AE050E060E070E00C9460
:10368000A4C360E070E0CB010895EFDF97FD0AC0AE
:10369000ECDF6F3F71058105910509F02CF4E5DF42
:1036A000862F089580E008958FEF08958091A304F8
:1036B0009091A404892B31F0E8DF91E0811103C0DF
:1036C00090E001C091E0892F08950F931F93CF934D
:1036D0008091A3049091A404009711F1FC018F0143
:1036E000C1912C2F2F7DA9F0C53411F0C536B9F743
:1036F000F801108260E070E08091A3049091A4042E
:103700000E9451C2F801C083562F472F382F292F0E
:103710000BC060E070E0CF911F910F910C9451C2EB
:1037200050E040E030E020E0652F742F832F922F8F
:10373000CF911F910F91089581548A3150F5482FF0
:1037400050E0FA0193E0F595E7959A95E1F7E65098
:10375000FC4F208130E0877002C0359527958A950F
:10376000E2F7822F817020FF15C0FA01E052FC4F72
:103770009081992339F02091DF043091E004290FE2
:10378000311D02C020E030E03093A4042093A30454
:10379000089580E00895D0DF882341F081E02091F2
:1037A000A3043091A404232B09F480E008950E941F
:1037B000AD436093FE037093FF03809300049093E6
:1037C000010408959091C00095FFFCCF8093C6003E
:1037D00008952F923F924F925F926F927F928F92B5
:1037E0009F92AF92BF92CF92DF92EF92FF920F9390
:1037F0001F93CF93DF938C01EC01CC0FDD1FCC0F17
:10380000DD1FFE01EE55F24F20E030E0A90160819E
:103810007181828193810E949CCAFE01EE5EFB4F02
:1038200020813181428153810E949CCA6B017C01BD
:10383000FE01EB57F04F6083718382839383011500
:10384000110509F095C080908E0D90908F0DA0907D
:10385000900DB090910D20E030E04CE753E4C501AD
:10386000B4010E94C2CC181634F0812C912C9CE734
:10387000A92E93E4B92E80913B0E8823A9F020E075
:1038800030E048EB51E4C701B6010E949CCA609346
:10389000D3047093D4048093D5049093D604A701E5
:1038A0009601C501B4015AC0809128049091290461
:1038B000E2EDF8E0029709F039C025913591459184
:1038C0005491C701B6010E949CCA6093D3047093BF
:1038D000D4048093D5049093D6048EED282E88E0EE
:1038E000382EF101459055906590749020912602F4
:1038F000309127024091280250912902C501B4015C
:103900000E949BCA4B015C01A30192010E94C2CCA0
:1039100018163CF4F10185919591A591B4914C0153
:103920005D01A7019601B401C50118C0259135912B
:1039300045915491C701B6010E949CCA6093D3047B
:103940007093D4048093D5049093D604EEEDF8E000
:103950002591359145915491C701B6010E949CCAA9
:10396000609308027093090280930A0290930B02FD
:103970008091A10F85FF47C0F801EB59FD4F608191
:1039800081E499E00E94C0A7FE01EE55F24F40810C
:103990005181628173818AE299E00E948AA7FE01C7
:1039A000EE5EFB4F408151816281738186E199E037
:1039B0000E948AA7FE01ED52FB4F40815181628136
:1039C000738180E099E00E948AA7C85FDD4F48813B
:1039D00059816A817B818AEE98E00E948AA78AE0F9
:1039E000DF91CF911F910F91FF90EF90DF90CF90DB
:1039F000BF90AF909F908F907F906F905F904F900F
:103A00003F902F90DFCEDF91CF911F910F91FF90CC
:103A1000EF90DF90CF90BF90AF909F908F907F906E
:103A20006F905F904F903F902F9008958F929F924C
:103A3000AF92BF92EF92FF920F931F93CF93DF93BA
:103A40008C014A015B01EC01CC0FDD1FCC0FDD1FA7
:103A5000CE018F56904F7C01CE55D24F28813981AF
:103A60004A815B81C501B4010E949BCAF701208194
:103A70003181428153810E949CCAF7016083718326
:103A80008283938388829982AA82BB82C801DF9154
:103A9000CF911F910F91FF90EF90BF90AF909F90AB
:103AA0008F9097CEBF92CF92DF92EF92FF920F93BB
:103AB0001F93CF93DF93CDB7DEB76E970FB6F89411
:103AC000DEBF0FBECDBF6091120E7091130E611557
:103AD000710551F14DE150E0CE0101967C010E944B
:103AE000F9C51E8EF7018F010E191F09B190BB2079
:103AF00021F19AE0B912F7CF20C0B7018BE697E029
:103B00000E94D4A782E25EDE8AE05CDEBB2051F137
:103B10000F5F1F4F8091120E9091130E080F191F07
:103B20001093130E0093120E81E02091120E30912B
:103B3000130E232BD1F480E018C0F701E00FF11F22
:103B4000108260E0C7017ED9882371F3EEE1FDE2C7
:103B500084916F019FEFC91AD90A882371F232DE6E
:103B6000F601F6CF00E010E0DBCF6E960FB6F894CA
:103B7000DEBF0FBECDBFDF91CF911F910F91FF90A0
:103B8000EF90DF90CF90BF9008958F929F92AF9269
:103B9000BF92EF92FF920F931F93CF93DF93CDB716
:103BA000DEB7A0970FB6F894DEBF0FBECDBF61158C
:103BB00071058105910589F100E0842E912CA12CDD
:103BC000B12C102FEE24E394F12CEC0EFD1EE00E30
:103BD000F11C07FDFA94A50194010E943ECAF70169
:103BE0006083B901CA010F5F6115710581059105F7
:103BF00041F71F3F21F1E1E0F0E0EC0FFD1FE10F85
:103C0000F11D17FDFA9580818A3010F097E301C00D
:103C100090E3890FD7DD1150ECCF80E3A0960FB66B
:103C2000F894DEBF0FBECDBFDF91CF911F910F91F2
:103C3000FF90EF90BF90AF909F908F90C3CDA096D4
:103C40000FB6F894DEBF0FBECDBFDF91CF911F91AD
:103C50000F91FF90EF90BF90AF909F908F9008953D
:103C6000EF92FF920F931F93CF93DF937C0184E534
:103C700092DDD82F882321F108DDC82F8230E4F0AF
:103C8000EEE1FDE284918F010F5F1F4F882319F051
:103C900099DDF801F7CF8DE495DDB70180E090E084
:103CA0004AE073DF6C2FCC0F770B84EB98E00E9417
:103CB000A7A78AE087DD08C08093D204D0E004C0C3
:103CC00080913B0E8093D2048D2FDF91CF911F9175
:103CD0000F91FF90EF900895CF92DF92EF92FF92B5
:103CE0006B017C0197FF0AC08DE26CDDF094E094DB
:103CF000D094C094C11CD11CE11CF11C4AE0C70146
:103D0000B601FF90EF90DF90CF903FCFFF920F93DF
:103D10001F93CF93DF93F82E092F162FEFEAFCE2C3
:103D20008491EF012196882319F04CDDFE01F8CF34
:103D3000EF2DF02F8491EF012196882319F042DDB9
:103D4000FE01F8CF60912E0470912F048091300411
:103D500090913104C1DF8AE035DD11110E94D75BFB
:103D600010920B0710920A07DF91CF911F910F91CC
:103D7000FF900895CF92DF92EF92FF920F931F93DF
:103D8000CF93DF9380918606843008F01EC142D81D
:103D90009C0197FD1AC1982FC0910A07D0910B077B
:103DA0008A3019F09D3009F0E4C010920C0720977A
:103DB00049F3C655D94F188210920B0710920A0783
:103DC0002AEA36E0E90188812F5F3F4F8032D1F344
:103DD0008E3411F48E0102C000E010E06AE270E05F
:103DE000CE010E94A5CD7C010115110509F470C01A
:103DF0006FEA78E0CE010E9408C66C01892B49F079
:103E00006EE470E0CE0104960E94A5CD009709F003
:103E10008C014AE050E060E070E0C80101960E9429
:103E2000A4C36093A6067093A7068093A8069093F8
:103E3000A90600912E0410912F0420913004309196
:103E400031040F5F1F4F2F4F3F4F601771078207DD
:103E5000930731F0CD2821F461E08CE798E03DC074
:103E6000E114F10401F180E010E0FE01E80FF11D22
:103E700090819A3219F08F5F1927F7CF4AE050E00E
:103E800060E070E0C70101960E94A4C3012F10E01A
:103E900020E030E0601771078207930741F061E08E
:103EA0008DE598E01AC061E083E398E016C0809148
:103EB000A6069091A706A091A806B091A9068093A6
:103EC0002E0490932F04A0933004B09331040EC0BD
:103ED000892B61F060E089E098E0DF91CF911F913C
:103EE0000F91FF90EF90DF90CF9010CF8091140250
:103EF00081111CC067E470E0CE010E94A5CD00973F
:103F0000A9F04AE050E060E070E001960E94A4C38E
:103F10006430710558F4E1E8F7E084918F010F5F98
:103F20001F4F882319F04EDCF801F7CF6AED72E0DD
:103F3000CE010E94B0CD892B11F4109215026FEDC5
:103F400072E0CE010E94B0CD892B21F488E797E082
:103F50000E944F4C64EE72E0CE010E94B0CD892BDE
:103F600011F40E945A3461E08AEA96E00E94221716
:103F700009CFCF35D1050CF005CF9C3599F40E94BF
:103F80000A1797FDFFCE20910C072111FBCE9E0151
:103F90002F5F3F4F30930B0720930A07C655D94F29
:103FA0008883F0CE9B3319F481E080930C078091D5
:103FB0000C078111E7CECE01019690930B078093F9
:103FC0000A07C655D94F2883DDCEDF91CF911F91C7
:103FD0000F91FF90EF90DF90CF9008958F929F9276
:103FE000AF92BF92CF92DF92EF92FF92CF936B018D
:103FF0007C01B42E20E030E0A9010E9450C687FF6A
:1040000006C08DE2DFDBF7FAF094F7F8F094C0E039
:1040100060E070E080E09FE3CB1541F02DEC3CECDC
:104020004CEC5DE30E94B5C6CF5FF6CF9B01AC01BF
:10403000C701B6010E949CCA6B017C010E94E5CBBE
:104040004B015C014AE0A1DDCC2379F1C501B4014B
:104050000E9454C69B01AC01C701B6010E949BCAD5
:104060006B017C018EE2AEDB20E030E040E251E407
:10407000C701B6010E94B5C64B015C010E94E0CBAE
:104080006B01770FEE08FF08C701B60125DEC701F7
:10409000B6010E9456C69B01AC01C501B4010E9445
:1040A0009BCA6B017C01C150F9F6CF91FF90EF9054
:1040B000DF90CF90BF90AF909F908F9008954F92D8
:1040C0005F926F927F928F929F92AF92BF92CF92A8
:1040D000DF92EF92FF920F931F93CF93DF9300D065
:1040E00000D0CDB7DEB74B0129013A01E982FA824F
:1040F0000B831C83FC0184919F012F5F3F4F3E8304
:104100002D83882321F05EDBED81FE81F4CF88E2F0
:1041100059DB42E0C301B20161DF49815A816B8101
:104120007C818DE397E00E948AA7B601A5018AE30E
:1041300097E00E948AA789E245DB8114910449F047
:10414000F40184913FEF831A930A8823D1F03ADB7C
:10415000F7CF8AE026960FB6F894DEBF0FBECDBF2C
:10416000DF91CF911F910F91FF90EF90DF90CF9053
:10417000BF90AF909F908F907F906F905F904F9087
:1041800021CB26960FB6F894DEBF0FBECDBFDF91D0
:10419000CF911F910F91FF90EF90DF90CF90BF9044
:1041A000AF909F908F907F906F905F904F90089509
:1041B000AF92BF92CF92DF92EF92FF920F931F9335
:1041C000FA01A084B184C284D384E480F58006819E
:1041D0001781208131814281538171DF1F910F91BD
:1041E000FF90EF90DF90CF90BF90AF900895CF9267
:1041F000DF92EF92FF920F931F93CF93DF93EC0127
:104200008091A10F85FF0CC0FE01EB59FD4F60812D
:1042100081EE99E00E94C0A789E2D4DA8AE0D2DA7E
:1042200081E0FE01E653F04F8083FE01E15FF14F34
:1042300080838E01000F111F000F111FF801EE5E29
:10424000FB4F1082118212821382CE01C2DAF090EB
:10425000A10F209731F580913B0E813031F0809194
:104260002804909129040297E1F4F5FE0DC0C9EEEF
:10427000D2E08991882311F0A5DAFBCF8AE0A2DA97
:1042800089E2A0DA8AE09EDA80913B0E90E0B9D90B
:104290006093910F7093920F8093930F9093940F6C
:1042A00083C0F801EC5EF94F259135914591549109
:1042B000C8018F56904F6C01F801EB57F04F6081A9
:1042C0007181828193810E949CCAF601608371830F
:1042D00082839383C230D105B1F52091C60F30910E
:1042E000C70F4091C80F5091C90F6091990F7091FD
:1042F0009A0F80919B0F90919C0F0E949BCA609394
:10430000990F70939A0F80939B0F90939C0FF5FEDB
:104310004BC0E0EAF9E084917F019FEFE91AF90AC6
:10432000882319F04FDAF701F6CF4091C60F50916C
:10433000C70F6091C80F7091C90F8CE899E00E9477
:104340008AA78AE03FDA8091A10F85FF2DC0CB5963
:10435000DD4FC8816C2F8DE799E00E94C0A7F8015E
:10436000EE55F24F408151816281738188E799E077
:104370000E948AA78AE026DA41E95FE06FE579E0EA
:1043800084E699E015DF6C2F86E499E00E94C0A7CF
:1043900089E218DA8AE0DF91CF911F910F91FF90A7
:1043A000EF90DF90CF900ECADF91CF911F910F91C8
:1043B000FF90EF90DF90CF9008950F931F93CF93CE
:1043C000DF93CDB7DEB72C970FB6F894DEBF0FBEE4
:1043D000CDBF8091A10F85FF07C041E95FE060E498
:1043E00077E087E597E0E4DE8091990F90919A0F4E
:1043F000A0919B0FB0919C0F4091950F5091960FFB
:104400006091970F7091980F0091910F1091920FFA
:104410002091930F3091940F09831A832B833C834F
:104420004D835E836F83788789879A87AB87BC8744
:10443000AE01475F5F4FBE016B5F7F4FCE010196BC
:104440000E9401882DE93FE0AE01475F5F4FBE014A
:104450006B5F7F4FCE0101960E94EAA82C960FB6A3
:10446000F894DEBF0FBECDBFDF91CF911F910F91AA
:1044700008951F920F920FB60F9211240BB60F9250
:104480002F938F939F93EF93FF93E091540D81E0CF
:104490008E0F8F779091C6002091550D821731F0C5
:1044A000F0E0EC52F34F90838093540DFF91EF9125
:1044B0009F918F912F910F900BBE0F900FBE0F9079
:1044C0001F90189590911D0C80913A0E90FF1EC080
:1044D000882349F09FB7F89480910B018D7F8093DA
:1044E0000B019FBF07C0E091830FF091840F818182
:1044F000882311F0119A08C09FB7F89480910B019E
:104500008D7F80930B019FBF8FEF1DC0882349F0E3
:104510009FB7F89480910B01826080930B019FBF3D
:1045200007C0E091830FF091840F8181882311F0FF
:10453000119808C09FB7F89480910B018260809316
:104540000B019FBF81E08093160280911D0C9FB7E5
:1045500081FF09C0F89480910B01816080930B0169
:104560009FBF8FEF08C0F89480910B018E7F8093DE
:104570000B019FBF81E08093170280911D0C9FB7B4
:1045800082FF09C0F89480910B01846080930B0135
:104590009FBF8FEF08C0F89480910B018B7F8093B1
:1045A0000B019FBF81E08093180290911D0C8091B8
:1045B0003A0E93FF22C0882351F09FB7F894809160
:1045C0000B018F7B80930B019FBF9FB70DC0E091C4
:1045D000830FF091840F81819FB7811105C0F894FA
:1045E00080910B018F7B04C0F89480910B018F7731
:1045F00080930B019FBF8FEF21C0882351F09FB79D
:10460000F89480910B01806480930B019FBF9FB74A
:104610000DC0E091830FF091840F81819FB78111CC
:1046200005C0F89480910B01806404C0F8948091D7
:104630000B01806880930B019FBF81E0809319027A
:1046400008959091F40F8091F50F981731F08091B3
:10465000F50F8F5F8F708093F50F08951F920F9263
:104660000FB60F9211240BB60F92BF92CF92DF922A
:10467000EF92FF920F931F932F933F934F935F936C
:104680006F937F938F939F93AF93BF93EF93FF931A
:10469000CF93DF9300D000D0CDB7DEB780916E000E
:1046A0008B7F80936E0080916F008D7F80936F0071
:1046B0007894C0903F0CD090400CE090410CF0906A
:1046C000420CC114D104E104F10409F442C0809108
:1046D000390E811104C08091200C8823D1F10E94F1
:1046E00018A5F9EBCF16FBE0DF06E104F10488F032
:1046F00008EBC01A0BE0D00AE108F108C0923F0CA9
:10470000D092400CE092410CF092420C88EB9BE07E
:1047100009C0C60110923F0C1092400C1092410C3F
:104720001092420C90938900809388002091880019
:1047300030918900809184009091850040962817DF
:10474000390708F063C080918400909185004096FD
:1047500013C080911E0C90911F0C009709F48BC020
:10476000019790931F0C80931E0C1092840F10924F
:10477000830F67DF88EC90E0909389008093880036
:1047800045C089819A810E94819E24E630E0809113
:10479000390E882309F4D1C4C901293BBBE03B078A
:1047A00008F009C690938900809388008091310CAD
:1047B0009091320CA091330CB091340C820F931F66
:1047C000A11DB11D8093310C9093320CA093330C3A
:1047D000B093340C2091880030918900809184003E
:1047E0009091850040962817390748F480918400FD
:1047F0009091850040969093890080938800BB201B
:1048000029F01092840F1092830F1BDFF89480918F
:104810007E0C882321F080916E008B7F03C08091F5
:104820006E00846080936E0080916F008260809340
:104830006F0026960FB6F894DEBF0FBECDBFDF9196
:10484000CF91FF91EF91BF91AF919F918F917F9108
:104850006F915F914F913F912F911F910F91FF9019
:10486000EF90DF90CF90BF900F900BBE0F900FBED8
:104870000F901F901895E091830FF091840F30975F
:1048800009F097C19091F40F8091F50F981759F0A6
:10489000E091F50F11E5E19FF0011124E35FF84F7E
:1048A000808188608083F093840FE093830F30973A
:1048B00009F47CC152A180911D0C418158130AC09A
:1048C000242F30E080911A02082E000C990B281733
:1048D000390729F050931D0C40931A02F3DD109212
:1048E0003B0C10923C0C10923D0C10923E0CE0914F
:1048F000830FF091840F87A990AD81342CE9920742
:1049000028F481323EE4930748F002C080E49CE939
:10491000969587959695879524E007C0813147E263
:10492000940730F09695879522E020933A0C08C0C2
:1049300021E020933A0C8032910510F480E290E05F
:104940008C01005211091A830983011528E012070E
:10495000E8F0E12FFF27EE0FFF1FEE0FFF1FCF0143
:104960008650924FFC01329645915491AA27059F9B
:104970009001049F210D3A1F06942A1F3A1F11240B
:10498000FC0185919491821B930B22C089819A81AD
:10499000969587958C7F8650964FFC012591349192
:1049A000FC0132964591549169817A81677077272D
:1049B000649FC001659F900D749F900D112443E08A
:1049C000969587954A95E1F7A901481B590BCA01AD
:1049D0008436910580F407E113E0D8018D918D01B3
:1049E000882319F00E94E21BF8CF89819A810E94E6
:1049F000819E84E690E09093390C8093380C8091EE
:104A00003A0C8093370CE091830FF091840F83ADC3
:104A100094AD9093360C8093350C8134BCE99B07A0
:104A200028F48132EEE49E0748F002C080E49CE95D
:104A3000969587959695879524E007C08131F7E292
:104A40009F0730F09695879522E020933A0C08C096
:104A500021E020933A0C8032910510F480E290E03E
:104A60008C01005211091A830983011528E01207ED
:104A7000E8F0E12FFF27EE0FFF1FEE0FFF1FCF0122
:104A80008650924FFC01329645915491AA27059F7A
:104A90009001049F210D3A1F06942A1F3A1F1124EA
:104AA000FC0185919491821B930B22C089819A818C
:104AB000969587958C7F8650964FFC012591349171
:104AC000FC0132964591549169817A81677077270C
:104AD000649FC001659F900D749F900D112463E049
:104AE000969587956A95E1F7A901481B590BCA016C
:104AF0008436910580F407E113E0D8018D918D0192
:104B0000882319F00E94E21BF8CF89819A810E94C4
:104B1000819E84E690E0AC0160E070E04093310C4F
:104B20005093320C6093330C7093340C9093890043
:104B300080938800E091830FF091840F828993899C
:104B4000A489B589B695A79597958795B095A095B1
:104B5000909581959F4FAF4FBF4F80932D0C9093B1
:104B60002E0CA0932F0CB093300C8093290C9093B3
:104B70002A0CA0932B0CB0932C0C8093250C9093B3
:104B8000260CA093270CB093280C8093210C9093B3
:104B9000220CA093230CB093240C10927F0F109240
:104BA000800F1092810F1092820F03C080ED97E06A
:104BB000E3CD8091390E8111FBC38091200C8111CE
:104BC000F7C320913A0C222309F4CDC1E091830F61
:104BD000F091840F42815381648175818091210C11
:104BE0009091220CA091230CB091240C840F951F5E
:104BF000A61FB71F8093210C9093220CA093230C27
:104C0000B093240C181619061A061B0664F480913A
:104C10003A0E882311F0409A03C08181882311F055
:104C2000469A01C0409AE091830FF091840F46812B
:104C30005781608571858091250C9091260CA091FB
:104C4000270CB091280C840F951FA61FB71F8093C7
:104C5000250C9093260CA093270CB093280C1816C3
:104C600019061A061B060CF4419AE091830FF09185
:104C7000840F42855385648575858091290C9091B8
:104C80002A0CA0912B0CB0912C0C840F951FA61F01
:104C9000B71F8093290C90932A0CA0932B0CB093F0
:104CA0002C0C181619061A061B060CF4429AE091F1
:104CB000830FF091840F46855785608971898091B3
:104CC0002D0C90912E0CA0912F0CB091300C840FD4
:104CD000951FA61FB71F80932D0C90932E0CA093A9
:104CE0002F0CB093300C181619061A061B0664F424
:104CF00080913A0E882311F0439A05C08181811179
:104D000002C0439A01C0449A8091210C9091220CD8
:104D1000A091230CB091240C181619061A061B0634
:104D2000DCF5E091830FF091840F42895389648907
:104D30007589841B950BA60BB70B8093210C909360
:104D4000220CA093230CB093240C80911602409166
:104D50000204509103046091040470910504082E2C
:104D6000000C990BAA0BBB0B840F951FA61FB71F36
:104D70008093020490930304A0930404B093050469
:104D800080913A0E882311F0409803C081818823D6
:104D900011F0469801C040988091250C9091260C06
:104DA000A091270CB091280C181619061A061B069C
:104DB00084F5E091830FF091840F428953896489CF
:104DC0007589841B950BA60BB70B8093250C9093CC
:104DD000260CA093270CB093280C809117024091C9
:104DE0000604509107046091080470910904082E8C
:104DF000000C990BAA0BBB0B840F951FA61FB71FA6
:104E00008093060490930704A0930804B0930904C8
:104E100041988091290C90912A0CA0912B0CB09173
:104E20002C0C181619061A061B0684F5E091830F40
:104E3000F091840F4289538964897589841B950B8D
:104E4000A60BB70B8093290C90932A0CA0932B0CE4
:104E5000B0932C0C8091180240910A0450910B04DD
:104E600060910C0470910D04082E000C990BAA0B94
:104E7000BB0B840F951FA61FB71F80930A04909346
:104E80000B04A0930C04B0930D04429880912D0C58
:104E900090912E0CA0912F0CB091300C1816190681
:104EA0001A061B06DCF5E091830FF091840F42890E
:104EB000538964897589841B950BA60BB70B809366
:104EC0002D0C90932E0CA0932F0CB093300C80914E
:104ED000190240910E0450910F04609110047091DA
:104EE0001104082E000C990BAA0BBB0B840F951F05
:104EF000A61FB71F80930E0490930F04A093100475
:104F0000B093110480913A0E882311F0439805C0A4
:104F10008181811102C0439801C0449880917F0F24
:104F20009091800FA091810FB091820F0196A11DE9
:104F3000B11D80937F0F9093800FA093810FB0934A
:104F4000820F2150E091830FF091840F42895389A1
:104F50006489758984179507A607B70708F433CEC7
:104F6000BB24B39401C0B12CE091830FF091840F66
:104F700080917F0F9091800FA091810FB091820F4F
:104F800046895789608D718D481759076A077B07D5
:104F900008F4D9C04091310C5091320C6091330C1F
:104FA0007091340C068D178D20A131A1AA27419F45
:104FB000B12D529FC001629F900D619F800D911D88
:104FC000429FB00D811D9A1F519FB00D811D9A1FE8
:104FD000609FB00D811D9A1F509FB10D8A1F9A1FAF
:104FE000B6958A1F9A1F349F800D911D359F900D95
:104FF000112423AD34AD820F931F9093360C809310
:10500000350C47A950AD61AD72ADA0E0B0E04817D6
:1050100059076A077B0720F45093360C4093350CF0
:10502000E091350CF091360CFA83E983E1340CE918
:10503000F00720F4E132FE4478F004C020E43CE9BB
:105040003A83298349815A815695479556954795C4
:105050005A83498384E00BC089819A818131A7E218
:105060009A0740F0969587959A83898382E080938A
:105070003A0C0BC081E080933A0CE981FA81B09739
:1050800020F400E210E01A83098309811A8100529A
:1050900011091A830983011528E01207E8F0E12FAE
:1050A000FF27EE0FFF1FEE0FFF1FCF018650924F1D
:1050B000FC01329625913491AA27039FA001029FFB
:1050C000410D5A1F06944A1F5A1F1124FC012591B5
:1050D0003491241B350B20C089819A819695879540
:1050E0008C7F8650964FFC0125913491FC013296BD
:1050F0004591549169817A8167707727649FC001D7
:10510000659F900D749F900D1124B3E0969587953F
:10511000BA95E1F7281B390B2436310508F037CB57
:10512000F7E1EF2EF3E0FF2ED7018D917D0188236B
:1051300009F427CB0E94E21BF7CF8091200C81114C
:105140002BCBC9012FCB80917F0F9091800FA09125
:10515000810FB091820F428D538D648D758D4817EC
:1051600059076A077B0708F0F0C000913B0C1091CB
:105170003C0C20913D0C30913E0C09831A832B830B
:105180003C83468D578D60A171A1AA27059FB12D43
:10519000169F7001269FF00C259FE00CF11C069FC6
:1051A000B00DE11CFA1E159FB00DE11CFA1E249FE4
:1051B000B00DE11CFA1E149FB10DEA1EFA1EB69541
:1051C000EA1EFA1E709FE00CF11C719FF00C112476
:1051D0008091350C9091360CFF96E816F90680F414
:1051E0008E199F0940815181628173816C01E12C8C
:1051F000F12CC416D506E606F70620F4CA0102C053
:105200008081918181341CE9910728F481322EE458
:10521000920748F002C080E49CE9969587959695A0
:10522000879524E007C0813137E2930730F09695E7
:10523000879522E020933A0C08C021E020933A0C95
:105240008032910510F480E290E08C010052110947
:105250001E830D83011528E01207E8F0E12FFF27D8
:10526000EE0FFF1FEE0FFF1FCF018650924FFC0184
:10527000329625913491AA27039FA001029F410DE8
:105280005A1F06944A1F5A1F1124FC01259134917C
:10529000241B350B20C08D819E81969587958C7F30
:1052A0008650964FFC0125913491FC013296459130
:1052B00054916D817E8167707727649FC001659FDF
:1052C000900D749F900D112443E0969587954A9513
:1052D000E1F7281B390B2436310590F487E1E82EDD
:1052E00083E0F82ED7018D917D01882319F00E946B
:1052F000E21BF8CF8D819E810E94819E24E630E0E2
:105300008091390E811104C08091200C882339F0DE
:10531000C901293BBBE03B0708F068C001C0C901D7
:10532000909389008093880089819A81AB81BC81A8
:10533000820F931FA11DB11D80933B0C90933C0CD9
:10534000A0933D0CB0933E0C45CA2091380C30918F
:10535000390C8091390E811104C08091200C882372
:10536000F1F0293BEBE03E07D0F0C90168EB7BE0B0
:105370000E9470CD883E43E0940708F052C08854E4
:10538000944FA901481B590B60E070E040933F0C1B
:105390005093400C6093410C7093420C9C013093ED
:1053A0008900209388008091370C80933A0C12CAB0
:1053B0000E9418A506CC68EB7BE00E9470CD883E69
:1053C00003E0900780F48854944FA901481B590BBF
:1053D00060E070E040933F0C5093400C6093410CB0
:1053E0007093420CDFC988EB9BE0EFCF68EB7BE06A
:1053F0000E9470CD883E13E0910780F48854944F4A
:10540000A901481B590B60E070E040933F0C50939A
:10541000400C6093410C7093420C82CF88EB9BE070
:10542000EFCF88EB9BE0ADCF8F929F92AF92BF9270
:10543000CF92DF92EF92FF92FC01828128E532E069
:105440006901C81AD10887FDD394CC0CDD1CCC0CA3
:10545000DD1C0D2C000CEE08FF08818128E830E0EF
:105460004901881A910887FD9394880C991C880C2F
:10547000991C092C000CAA08BB0880818F3FC1F041
:1054800090E0FC01EE0FFF1F8E0F9F1FFC01EA5002
:10549000F04F2181328143E0220F331F4A95E1F71B
:1054A00054E0369527955A95E1F72E5F3F4F02C09D
:1054B00020E030E02F5F3F4FC901330FAA0BBB0B39
:1054C0009C01AD01281939094A095B09A4EBB0E038
:1054D0000E947CCAA7019601281939094A095B096B
:1054E0000E9460CAC901FF90EF90DF90CF90BF90FB
:1054F000AF909F908F900895CF93DF93EC01288118
:10550000243208F05BC030E01616170664F4F90187
:10551000EE0FFF1FE20FF31FEA50F04F6F73908101
:10552000907C692B6083F901EE0FFF1F2E0F3F1F48
:10553000F901EA50F04F808161E08F730E941042C0
:1055400019821A8288816CE00E9464CD9CE0899F58
:10555000B001112440E050E09B01240F351FF901F8
:10556000EE0FFF1F2E0F3F1FF901EA50F04F908101
:1055700096FD16C04F5F5F4F4C30510569F78111A2
:105580001FC01092900082E08093910010929500CD
:1055900010929400C19A8091710082608093710092
:1055A0008881E82FF0E09F01220F331FE20FF31FE5
:1055B000EA50F04F9081906490831FC08FEF1DC020
:1055C000813069F41092A00082E08093A1001092D3
:1055D000A5001092A40089BB80937200E1CF8230B5
:1055E000F9F610922001809321011092250110926A
:1055F00024018ABB80937300D3CFDF91CF910895AC
:105600004F925F926F927F928F929F92AF92BF92D2
:10561000EF92FF920F931F93CF93DF9300D000D0B0
:10562000CDB7DEB78C017B0186E0E9E6F2E0DE0172
:10563000119601900D928A95E1F760E070E0C80143
:105640005BDF87FD9EC080E2E81682E0F8060CF082
:1056500043C0F801828128E532E0281B310987FD2B
:105660003395220F331F220F331F2901330F660892
:105670007708818128E830E04901881A910887FD80
:105680009394880C991C880C991C092C000CAA086E
:10569000BB08F7FC0BC0B701653B710514F064EB68
:1056A00070E0072E000C880B990B03C060E070E0DF
:1056B000CB01A3019201281939094A095B090E940B
:1056C0002FCA24EB30E040E050E00E9460CA820E16
:1056D000931EA41EB51E7401F8012081243278F5B2
:1056E000318188E890E0831B910937FD9395880FFD
:1056F000991F880F991FE816F90684F0F801328186
:1057000088E592E0831B910937FD9395880F991FD7
:10571000880F991FE816F9060CF4C70102974FB7D6
:10572000F89430E0F901EE0FFF1F2E0F3F1FF90133
:10573000EA50F04F880F991F928381834FBFF80181
:105740008081FE013196E80FF11DE80FF11D6081A7
:10575000718180E090E026960FB6F894DEBF0FBE10
:10576000CDBFDF91CF911F910F91FF90EF90BF9030
:10577000AF909F908F907F906F905F904F900C9420
:10578000754326960FB6F894DEBF0FBECDBFDF91EE
:10579000CF911F910F91FF90EF90BF90AF909F908E
:1057A0008F907F906F905F904F9008951F920F920F
:1057B0000FB60F9211240BB60F922F933F934F9376
:1057C0005F936F937F938F939F93AF93BF93EF9369
:1057D000FF9348E251E064E271E082E090E00E94D1
:1057E00079A6FF91EF91BF91AF919F918F917F919A
:1057F0006F915F914F913F912F910F900BBE0F9042
:105800000FBE0F901F9018951F920F920FB60F9218
:1058100011240BB60F922F933F934F935F936F9387
:105820007F938F939F93AF93BF93EF93FF9348EA38
:1058300050E064EA70E081E090E00E9479A6FF9178
:10584000EF91BF91AF919F918F917F916F915F91F8
:105850004F913F912F910F900BBE0F900FBE0F9065
:105860001F901895AF92BF92CF92DF92EF92FF9266
:105870000F931F93CF93DF931F92CDB7DEB77C01B9
:105880006B018A0159018091F60D811118C0F70151
:10589000808191810E9419CA8983F60181936F01E9
:1058A000BE016F5F7F4FC5010E94F98DF7018081B6
:1058B00091810196918380830150110941F70F90E6
:1058C000DF91CF911F910F91FF90EF90DF90CF90DC
:1058D000BF90AF9008957F928F929F92AF92BF92A8
:1058E000CF92DF92EF92FF920F931F93CF93DF93AC
:1058F0001F92CDB7DEB7E091F60DE11149C0590115
:105900007C018B016B01C40ED51E0C151D0509F41D
:105910003FC0F70180809180F80171908F017982FA
:10592000C4010E9419CA781631F1672DC4010E9482
:1059300021CAC4010E9419CA99818917E1F0EEE1D8
:10594000FDE284918F010F5F1F4F882321F00E9499
:10595000E21BF801F6CFE9EDF3E184918F010F5FCF
:105960001F4F882321F00E94E21BF801F6CF81E04F
:105970008093F60D0DC0BE016F5F7F4FC5010E9481
:10598000F98DF70180819181019691838083BDCF4C
:105990000F90DF91CF911F910F91FF90EF90DF90CB
:1059A000CF90BF90AF909F908F907F9008950E946E
:1059B0008FA80E94ADA91092C1041092C204109247
:1059C000C3041092C4040E947E4C80E090E00E94C8
:1059D000E91B81E090E00E94E91B82E090E00E94D8
:1059E000E91B6091FB0D7091FC0D8091FD0D909174
:1059F000FE0D0E94E4540E9496A00C945D6A4F92A2
:105A00005F926F927F928F929F92AF92BF92EF922E
:105A1000FF920F931F93CF93DF93EC018091A10F1F
:105A200085FF0EC0FE01EB59FD4F60818BEC93E1C9
:105A30000E94C0A789E20E94E21B8AE00E94E21B4A
:105A4000209739F480913B0E811113C00FEF1FEFA7
:105A500012C0FE01E853FC4E0491002E000C110B05
:105A6000C230D10541F481E00E948958882319F0A1
:105A700024C101E010E08091A10F85FF0DC0EAEB89
:105A8000F3E184917F019FEFE91AF90A882321F05D
:105A90000E94E21BF701F5CF7E01EE0CFF1CEE0C1D
:105AA000FF1CF701EE5AFC4E45905590659074909E
:105AB000B801110F880B990B0E9456C64B015C016F
:105AC00020E030E040EC5FE3C301B2010E94B5C6C4
:105AD000A50194010E94B5C6AB01BC0100E010E035
