:100000000C94E30C0C94140D0C94140D0C94140D1E
:100010000C94140D0C94140D0C94140D0C94140DDC
:100020000C94140D0C94140D0C94140D0C94140DCC
:100030000C94140D0C944C590C94140D0C94140D38
:100040000C94140D0C94B4150C94140D0C94140D04
:100050000C94140D0C94140D0C94155C0C94315BE1
:100060000C94140D0C94B02E0C94140D0C94140DCF
:100070000C94140D0C94140D0C94140D0C94140D7C
:100080000C94140D0C94140D0C94140D0C94140D6C
:100090000C94140D0C94140D0C94140D0C94140D5C
:1000A0000C94140D0C94140D0C94140D0C94140D4C
:1000B0000C94140D0C94140D0C94140D0C94140D3C
:1000C0000C94140D0C94140D0C94140D0C94140D2C
:1000D0000C94140D0C94140D0C94140D0C94140D1C
:1000E0000C94140D9658995888588C589258D0589A
:1000F0009D58A158A758AB58AF58B558B958BD58D6
:10010000D058C358C758CB584D5A525A575A615AAB
:100110006B5AE45A755A7D5A855A8F5A995AA35A7E
:10012000B25ABC5AE45AC65AD05ADA5A084AD73B8D
:100130003BCE016E84BCBFFDC12F3D6C74319ABDB6
:1001400056833DDA3D00C77F11BED9E4BB4C3E91DA
:100150006BAAAABE000000803F05A84CCDB2D44EC9
:10016000B93836A9020C50B9918688083CA6AAAACB
:100170002ABE000000803F004E414E494E4954596E
:10018000494E46CDCCCC3D0AD7233C17B7D1387762
:10019000CC2B329595E6241FB14F0A000020410078
:1001A00000C84200401C4620BCBE4CCA1B0E5AAEC2
:1001B000C59D74434F4D4D554E49434154494F4E93
:1001C0000044525952554E004552524F5253004925
:1001D0004E464F004543484F0047322F4733206279
:1001E000616420706172616D65746572730A0025C7
:1001F00069730025696D20256973002569682025CC
:10020000696D2025697300256964202569682025AA
:10021000696D202569730025697920256964202589
:1002200069682025696D20256973005072696E74B4
:100230002074696D653A200050726F74656374654F
:10024000642050696E0A00D401CF01C801C101B316
:10025000016F66660044454255473A004B494C4C95
:1002600045442E20004D3131332053006F6B002068
:10027000573A0050533A300A0050533A310A00437B
:1002800061703A454D455247454E43595F50415282
:100290005345523A300A004361703A434153455F37
:1002A0004C494748545F4252494748544E4553537E
:1002B0003A300A004361703A544F47474C455F4C0F
:1002C00049474854533A300A004361703A534F4605
:1002D00054574152455F504F5745523A310A0043F7
:1002E00061703A4C4556454C494E475F4441544134
:1002F0003A300A004361703A5A5F50524F42453AD1
:10030000300A004361703A4155544F4C4556454CB4
:100310003A300A004361703A5052494E545F4A4F96
:10032000423A310A004361703A50524F47524553A6
:10033000533A300A004361703A4155544F52455088
:100340004F52545F54454D503A310A004361703A60
:10035000454550524F4D3A310A004649524D57419A
:1003600052455F4E414D453A4D61726C696E203188
:100370002E312E342E312E3620284769746875624E
:100380002920534F555243455F434F44455F5552D3
:100390004C3A68747470733A2F2F67697468756289
:1003A0002E636F6D2F4D616B6572476561722F6DA6
:1003B000336669726D776172652050524F544F43B6
:1003C0004F4C5F56455253494F4E3A312E30204DD7
:1003D000414348494E455F545950453A4D332053A7
:1003E000696E676C65204578747275646572204526
:1003F000585452554445525F434F554E543A31205C
:10040000555549443A63656465326132662D34312D
:1004100061322D343734382D396231322D63353520
:100420006336326633363766660A002F2F20007A2D
:100430005F6D61783A2000795F6D696E3A200078CF
:100440005F6D696E3A20005265706F7274696E67F5
:1004500020656E6473746F70207374617475730AB1
:100460000053657474696E672054726176656C2000
:10047000416363656C65726174696F6E3A20005305
:10048000657474696E67205265747261637420418B
:100490006363656C65726174696F6E3A20005365C1
:1004A0007474696E67205072696E7420416363656D
:1004B0006C65726174696F6E3A200053657474697B
:1004C0006E67205072696E7420616E642054726190
:1004D00076656C20416363656C65726174696F6EEB
:1004E0003A2000205A00205900580020204D617801
:1004F0003A2000205A00205900580020204D696EF3
:100500003A20004F6E20004F666600536F667420DD
:10051000656E6473746F70733A2000000125301D9E
:100520000CFF24311C0BFF232F1BFF1EFF040308AD
:100530000602FF222B1A41420338090636282945B4
:1005400027444320643A0020693A0020703A00436F
:10055000290A0061626C656420286D696E207465EB
:100560006D702000436F6C642065787472756465EB
:1005700073206172652000000080C0000000000050
:10058000005243546F6F206661722066726F6D2057
:100590007265666572656E636520706F696E740A58
:1005A000004175746F0020452F443D004164766121
:1005B0006E6365204B3D004E6F2063617365206C58
:1005C000696768740A004572726F723A0041637419
:1005D0006976652045787472756465723A200055B5
:1005E0006E6B6E6F776E20636F6D6D616E643A2017
:1005F0002200205A3A0020593A0020583A00656EED
:100600006473746F7073206869743A20006563685E
:100610006F3A00627573793A207061757365642072
:10062000666F7220696E7075740A00627573793A2C
:100630002070617573656420666F722075736572D2
:100640000A00627573793A2070726F63657373691B
:100650006E670A004B494C4C45442E20004B494CD8
:100660004C2063617573656420627920746F6F201C
:100670006D75636820696E6163746976652074695D
:100680006D65202D2063757272656E7420636F6DC9
:100690006D616E643A20005072696E7465722068F4
:1006A000616C7465642E206B696C6C282920636111
:1006B0006C6C6564210A002020506C616E6E65725E
:1006C00042756666657242797465733A2000204609
:1006D000726565204D656D6F72793A2000436F6DCC
:1006E00070696C65643A204A756C20203120323084
:1006F00032320A00207C20417574686F723A204DB6
:1007000047207C53636F74742C204A6F73682C20CD
:100710004B796C652C2044617669640A0032303173
:10072000372D30372D30342031323A303000204CE4
:1007300061737420557064617465643A2000312ED1
:10074000312E342E312E360A004D61726C696E00E6
:1007500020536F6674776172652052657365740A01
:1007600000205761746368646F6720526573657415
:100770000A002042726F776E206F75742052657385
:1007800065740A002045787465726E616C2052654C
:100790007365740A00506F77657255700A00737440
:1007A0006172740A00000048420000484200008064
:1007B00041000000005761726E696E673A20486F11
:1007C0006D696E672042756D702044697669736F3C
:1007D00072203C20310A0004040600004040000062
:1007E0004040000000400000604300007D430000E6
:1007F0006143FFFF014572726F72207772697469FD
:100800006E6720746F20454550524F4D210A0024D9
:10081000F4D43050C38E20C2A24017828B701112C4
:100820007A910D816CD90AA861E108C75866076101
:100830005143061E4B5D05C145A7041A4111040929
:100840003D9803713931034036DB0265339102D4A0
:10085000305402802E1D02632CEE01752AC501B0B2
:1008600028A001102781018F2564012B244B01E072
:10087000223401AC211F018D200D01801FFC00845A
:100880001EED00971DDF00B81CD200E61BC600203D
:100890001BBC00641AB200B219A8000A19A0006AB1
:1008A000189900D117910040178B00B516840031BC
:1008B000167E00B31579003A157300C7146F0058FF
:1008C000146A00EE1366008813630025135E00C7E8
:1008D000125B006C12570015125400C111510070C8
:1008E000114F0021114B00D61049008D10470046D2
:1008F00010440002104200C00F4000800F3E004232
:100900000F3C00060F3B00CB0E3800930E37005C07
:100910000E3500270E3400F30D3200C10D3100906A
:100920000D3000600D2E00320D2D00050D2C00D96C
:100930000C2B00AE0C2900850C29005C0C2700351F
:100940000C27000E0C2600E80B2400C40B2400A08A
:100950000B23007D0B23005A0B2100390B210018BB
:100960000B2000F80A1F00D90A1E00BB0A1E009DBA
:100970000A1D00800A1D00630A1C00470A1B002C88
:100980000A1B00110A1A00F7091A00DD091900C430
:10099000091900AB091900920917007B09180063B7
:1009A0000917004C09160036091600200916000A1E
:1009B000091500F5081500E0081400CC081400B86B
:1009C000081400A4081400900813007D0812006B9E
:1009D00008130058081200460812003408110023BA
:1009E0000811001208110001081100F0071000E0C2
:1009F000071000D0071000C0071000B0070F00A1BB
:100A000007100091070E0083070F0074070F0065A1
:100A1000070E0057070E0049070E003B070D002E7A
:100A2000070E0020070D0013070D0006070D00F943
:100A3000060C00ED060D00E0060C00D4060C00C804
:100A4000060C00BC060C00B0060C00A4060B0099B6
:100A5000060C008D060B0082060B0077060B006C5F
:100A6000060B0061060A0057060B004C060A0042FE
:100A7000060A0038060A002E060A0024060A001A92
:100A8000060A001006090007060A00FD050900F421
:100A9000050900EB050900E2050900D9050900D0A8
:100AA000050900C7050900BE050900B5050800AD28
:100AB000050800A50509009C050800940508008CA0
:100AC000050800840508007C050800740508006C12
:100AD000050700650508005D050700560508004E7E
:100AE00005070047050700400508003805070031E5
:100AF0000507002A050700230507001C0506001648
:100B00000507000F0507000805060002050700FBA2
:100B1000040600F5040700EE040600E8040600E2FF
:100B2000040700DB040600D5040600CF040600C954
:100B3000040600C3040600BD040600B7040600B1A5
:100B4000040500AC040600A6040600A00405009BF2
:100B500004060095040500900406008A040500853B
:100B6000040500800406007A040500750405007081
:100B70000405006B04050066040500610405005CC3
:100B800004050057040500520405004D0405004803
:100B9000040500430405003E0404003A0405003542
:100BA000040500300404002C04050027040400237D
:100BB0000405001E0404001A0404001604050011B4
:100BC0000404000D040400090405000404040000EA
:100BD000040400FC030400F8030400F4030400F020
:100BE000030400EC030400E8030400E4030400E051
:100BF000030400DC030400D8030400D4030400D081
:100C0000030400CC030400C8030300C5030300244D
:100C1000F404D9201BC40C5C0E9804C4095F02655F
:100C2000077101F405F900FB04B30048048700C113
:100C30000369005803550003034500BE023A0084CF
:100C400002310053022A002902250004022000E498
:100C5000011C00C8011900AF01170098011400849D
:100C6000011300710110006101100051010E0043D9
:100C7000010D0036010B002B010B0020010B0015AC
:100C80000109000C01090003010800FB000800F342
:100C9000000800EB000700E4000600DE000600D8B4
:100CA000000600D2000600CC000500C7000500C207
:100CB000000500BD000400B9000400B5000400B147
:100CC000000400AD000400A9000400A5000300A278
:100CD0000003009F0004009B0003009800030095A0
:100CE00000020093000300900003008D0002008BBF
:100CF00000030088000200860002008400030081D7
:100D00000002007F0002007D0002007B00020079EB
:100D100000020077000100760002007400020072F9
:100D2000000100710002006F0002006D0001006C04
:100D30000002006A0001006900020067000100660D
:100D40000001006500010064000200620001006112
:100D5000000100600001005F0002005D0001005C16
:100D60000001005B0001005A000100590001005819
:100D70000001005700010056000100550001005419
:100D80000001005300000053000100520001005117
:100D9000000100500001004F0001004E0000004E15
:100DA0000001004D0001004C0001004B0000004B11
:100DB0000001004A0001004900010048000000480D
:100DC0000001004700010046000000460001004508
:100DD0000000004500010044000100430000004302
:100DE00000010042000000420001004100000041FB
:100DF000000100400001003F0000003F0001003EF4
:100E00000000003E0001003D0000003D0001003CEC
:100E10000000003C0000003C0001003B0000003BE3
:100E20000001003A0000003A0001003900000039DA
:100E300000010038000000380000003800010037D1
:100E400000000037000100360000003600000036C8
:100E500000010035000000350000003500010034BD
:100E600000000034000000340001003300000033B3
:100E700000000033000100320000003200000032A8
:100E8000000100310000003100000031000100309D
:100E900000000030000000300001002F0000002F93
:100EA0000000002F0000002F0001002E0000002E87
:100EB0000000002E0001002D0000002D0000002D7C
:100EC0000000002D0001002C0000002C0000002C70
:100ED0000000002C0001002B0000002B0000002B64
:100EE0000000002B0001002A0000002A0000002A58
:100EF0000000002A0001002900000029000000294C
:100F0000000000290000002900010028000000283E
:100F10000000002800000028000000280001002731
:100F20000000002700000027000000270000002725
:100F30000001002600000026000000260000002618
:100F4000000000260001002500000025000000250B
:100F500000000025000000250000002500010024FD
:100F600000000024000000240000002400000024F1
:100F700000010023000000230000002300000023E4
:100F800000000023000000230000002300010022D5
:100F900000000022000000220000002200000022C9
:100FA00000000022000100210000002100000021BB
:100FB00000000021000000210000002100000021AD
:100FC00000010020000000200000002000000020A0
:100FD0000000002000000020000000200000002091
:100FE0000001001F0000001F0000001F0000001F84
:100FF0000000001F0000001F0000001F0001001E75
:101000000000001E0000001E0000001E0000002066
:10101000496E76616C696420657874727564657276
:101020002000000080C000000000000070C100002F
:101030005C4300007D4300005243202F00204240CB
:101040003A0020403A0020573A00205A3A002059EE
:101050003A0020436F756E7420583A0020453A00DC
:10106000205A3A0020593A00583A0020633A0020AA
:10107000643A0020693A0020703A00526573656E48
:10108000643A20006F6B0020746F6F206C6F6E6786
:1010900020657874727573696F6E207072657665FD
:1010A0006E7465640A0020636F6C642065787472E6
:1010B0007573696F6E2070726576656E7465640A0B
:1010C00000656E7175657565696E672022004B4914
:1010D0004C4C45442E20005072696E74657220732A
:1010E000746F707065642064756520746F2065721C
:1010F000726F72732E20466978207468652065725D
:10110000726F7220616E6420757365204D393939B4
:1011100020746F20726573746172742E2028546578
:101120006D70657261747572652069732072657384
:1011300065742E205365742069742061667465722D
:101140002072657374617274696E67290A004E6F4C
:10115000204C696E65204E756D62657220776974EA
:101160006820636865636B73756D2C204C617374C4
:10117000204C696E653A20004E6F20436865636BB2
:1011800073756D2077697468206C696E65206E7563
:101190006D6265722C204C617374204C696E653AE7
:1011A0002000636865636B73756D206D69736D6195
:1011B0007463682C204C617374204C696E653A200E
:1011C000004C696E65204E756D62657220697320F2
:1011D0006E6F74204C617374204C696E65204E757F
:1011E0006D6265722B312C204C617374204C696EDA
:1011F000653A20004D3131300020746F6F206C6FE4
:101200006E6720657874727573696F6E2070726591
:1012100076656E7465640A0020636F6C642065787F
:1012200074727573696F6E2070726576656E746521
:10123000640A004B64200023646566696E652020A3
:1012400044454641554C545F004B6920002364657A
:1012500066696E65202044454641554C545F004BFD
:1012600070200023646566696E6520204445464110
:10127000554C545F00504944204175746F74756E2D
:10128000652066696E6973686564212050757420F5
:10129000746865206C617374204B702C204B69203E
:1012A000616E64204B6420636F6E7374616E74733F
:1012B0002066726F6D2062656C6F7720696E746F47
:1012C00020436F6E66696775726174696F6E2E6810
:1012D0000A00504944204175746F74756E6520662C
:1012E00061696C6564212074696D656F75740A00AD
:1012F000504944204175746F74756E65206661694C
:101300006C6564212054656D7065726174757265D9
:1013100020746F6F20686967680A00204B643A2068
:1013200000204B693A2000204B703A20000A2043ED
:101330006C617373696320504944200A002054751E
:101340003A2000204B753A2000206D61783A200049
:10135000206D696E3A200020643A200020626961A5
:10136000733A20000606FFFFFF00000202026265DA
:10137000640A002C2073797374656D2073746F7028
:1013800070656421204865617465725F49443A2044
:101390000048656174696E67206661696C65640008
:1013A00048656174696E67206661696C65640048B0
:1013B000656174696E67206661696C656400486583
:1013C0006174696E67206661696C656400290A0052
:1013D0002062797465733B206372632000536574E7
:1013E00074696E67732053746F72656420280020DF
:1013F0002863616C63756C6174656429210A00203F
:10140000213D2000454550524F4D20435243206D11
:1014100069736D61746368202D202873746F726521
:1014200064292000290A002062797465733B2063D7
:10143000726320002073746F726564207365747426
:10144000696E6773207265747269657665642028B9
:1014500000204D61726C696E3D563339290A0028AF
:10146000454550524F4D3D00454550524F4D207619
:10147000657273696F6E206D69736D617463682046
:101480000048617264636F646564204465666175D9
:101490006C742053657474696E6773204C6F61645B
:1014A00065640A00B0040000B00400000A000000F7
:1014B000D007000000009643000096430000A041C2
:1014C0000000F0413333A0423333A042CDEC7B44E3
:1014D00000C0EB4320520020204D393030204B001B
:1014E0004C696E65617220416476616E63653A0A8B
:1014F0000020440020490020204D3330342050008B
:10150000204C0020430020440020490020204D337F
:1015100030312050005049442073657474696E67FF
:10152000733A0A00205A0020590020204D323036EC
:10153000205800486F6D65206F66667365743A0ABF
:1015400000204500205A0020590020580020420069
:1015500020540020204D3230352053004164766104
:101560006E6365643A20533C6D696E5F66656564C1
:10157000726174653E20543C6D696E5F7472617671
:10158000656C5F66656564726174653E20423C6DA2
:10159000696E5F7365676D656E745F74696D655FB5
:1015A0006D733E20583C6D61785F78795F6A657233
:1015B0006B3E205A3C6D61785F7A5F6A65726B3E64
:1015C00020453C6D61785F655F6A65726B3E0A001D
:1015D00020540020520020204D3230342050004151
:1015E0006363656C65726174696F6E2028756E69DE
:1015F00074732F7332293A20503C7072696E745F95
:10160000616363656C3E20523C7265747261637401
:101610005F616363656C3E20543C74726176656CF7
:101620005F616363656C3E0A00204500205A00201C
:10163000590020204D3230312058004D6178696DBD
:10164000756D20416363656C65726174696F6E20AE
:1016500028756E6974732F7332293A0A0020450089
:10166000205A0020590020204D3230332058004DA0
:101670006178696D756D2066656564726174657306
:101680002028756E6974732F73293A0A002045006B
:10169000205A0020590020204D3932205800537420
:1016A0006570732070657220756E69743A0A002047
:1016B000204D3230302044300A0020204D3230306E
:1016C0002044002044697361626C65640A004669C5
:1016D0006C616D656E742073657474696E67733ABE
:1016E000002020473231202020203B20556E697495
:1016F0007320696E206D6D0A0070012C0190012726
:1017000001B0012201C0011D01F0011801100213F6
:101710000130020E016002090190020401C002FFC3
:10172000000003FA004003F5008003F000D003EB53
:10173000002004E6007004E100E004DC004005D76E
:1017400000C005D2004006CD00D006C8008007C307
:10175000003008BE00F008B900C009B400B00AAFFC
:1017600000B00BAA00D00CA500000EA000500F9BEB
:1017700000C01096005012910000148C00C0158714
:1017800000B0178200B0197D00D01B7800001E73D6
:101790000040206E0090226900F024640040275F22
:1017A0000090295A00E02B5500102E500020304B9D
:1017B0000010324600E033410090353C00103737CE
:1017C0000070383200A0392D00B03A2800A03B2329
:1017D00000603C1E00103D1900903D1400103E0FAB
:1017E00000703E0A00C03E0500003F0000403FFB85
:1017F000FF803FF6FFC03FF1FF4572723A204D492E
:101800004E54454D5020424544004572723A204D99
:10181000494E54454D50004D494E54454D5020744D
:101820007269676765726564004572723A204D415E
:101830005854454D5020424544004572723A204D5F
:10184000415854454D50004D415854454D50207419
:1018500072696767657265640000002100240027D3
:10186000002A002D003000330001010000040107B0
:10187000010A0100002200250028002B002E003163
:1018800000340002010000050108010B01000020E6
:10189000002300260029002C002F00320000010048
:1018A00000030106010901050505050705080808EB
:1018B00008020202020A0A080804040404010101E1
:1018C00001010101010303030303030303040707E9
:1018D000070C0C0C0C0C0C0C0C0202020206060687
:1018E00006060606060B0B0B0B0B0B0B0B0102106F
:1018F000202008081020401020408002010201082A
:1019000004020101020408102040808040201008D9
:101910000402018004020180402010080402010832
:101920000402010102040810204080010204081092
:1019300020408000000A0B02090C0D0E080703046A
:101940000100000000000000000000000000000096
:101950000000000000000000000000000000001275
:101960001110000000000000000000000000000056
:101970000000000000000000000245323A2000454F
:10198000313A200045303A20005A3A2000593A2096
:1019900000583A20004D53312C4D53322050696E7F
:1019A000730A00544845524D414C2052554E415700
:1019B000415900546865726D616C2052756E617793
:1019C00061790000167A11241FBECFEFD1E2DEBF8D
:1019D000CDBF00E00CBF13E0A0E0B2E0E4E8FBE024
:1019E00001E00BBF02C007900D92A235B107D9F7F5
:1019F0002EE0A2E5B3E001C01D92AA38B207E1F7DC
:101A00001CE0C3EEDCE000E006C021970109802F56
:101A1000FE010E948985C23ED10780E00807A9F730
:101A20000E9417650C94C0850C940000AF92BF9281
:101A3000CF92DF92EF92FF920F931F93CF93DF939A
:101A40001F92CDB7DEB77C016B018A0159018091ED
:101A5000B70D811118C0F701808191810E94218208
:101A60008983F60181936F01BE016F5F7F4FC501CE
:101A70000E949D61F701808191810196918380830D
:101A80000150110941F70F90DF91CF911F910F91F4
:101A9000FF90EF90DF90CF90BF90AF9008957F922E
:101AA0008F929F92AF92BF92CF92DF92EF92FF926E
:101AB0000F931F93CF93DF931F92CDB7DEB7E091C3
:101AC000B70DE11149C059017C018B016B01C40EB6
:101AD000D51E0C151D0509F43FC0F70180809180CB
:101AE000F80171908F017982C4010E9421827816D9
:101AF00031F1672DC4010E942982C4010E94218214
:101B000099818917E1F0EDE0F6E084918F010F5F94
:101B10001F4F882321F00E94CC2BF801F6CFE5EF70
:101B2000F7E084918F010F5F1F4F882321F00E94FF
:101B3000CC2BF801F6CF81E08093B70D0DC0BE012C
:101B40006F5F7F4FC5010E949D61F7018081918188
:101B5000019691838083BDCF0F90DF91CF911F912C
:101B60000F91FF90EF90DF90CF90BF90AF909F903C
:101B70008F907F9008950E94771F0E94D21F10922D
:101B80001E0410921F0410922004109221040E943F
:101B9000022080E090E00E94632381E090E00E94B8
:101BA000632382E090E00C946323CF92DF92EF9264
:101BB000FF92CF93DF93EC01C0902302D0902402D8
:101BC000E0902502F0902602A701960168817981B4
:101BD0008A819B810E94587E87FF04C0C882D98277
:101BE000EA82FB82C0902702D0902802E09029026E
:101BF000F0902A02A70196016C817D818E819F81E0
:101C00000E94587E87FF04C0CC82DD82EE82FF8274
:101C1000C0902B02D0902C02E0902D02F0902E026A
:101C2000A7019601688579858A859B850E94587EE3
:101C300087FF04C0C886D986EA86FB86C090170253
:101C4000D0901802E0901902F0901A02A7019601B4
:101C5000688179818A819B810E94A884181624F466
:101C6000C882D982EA82FB82C0901B02D0901C02FB
:101C7000E0901D02F0901E02A70196016C817D810B
:101C80008E819F810E94A884181624F4CC82DD8264
:101C9000EE82FF82C0901F02D0902002E0902102CD
:101CA000F0902202A7019601688579858A859B8537
:101CB0000E94A884181624F4C886D986EA86FB8672
:101CC000DF91CF91FF90EF90DF90CF9008954F92EA
:101CD0005F926F927F928F929F92AF92BF92EF929C
:101CE000FF920F931F93CF93DF937C01FC01EE5083
:101CF000F84F6491EC01CC0FDD1FCC0FDD1FFE010E
:101D0000EA51F84F4590559065907490062E000C5E
:101D1000770B880B990B0E945E7E4B015C0120E0E3
:101D200030E040EC5FE3C301B2010E94BD7EA5013B
:101D300094010E94BD7EAB01BC0100E010E098015F
:101D4000C7010E940F22FE01E652F84F25913591FE
:101D500045915491C501B4010E94BD7E4B015C01C7
:101D600020E030E0A9010E94587E882309F44BC08E
:101D700000E010E09801B501A4017058C7010E946D
:101D80000F22F701E952F84F649161111BC0EDE099
:101D9000F6E084913F019FEF691A790A882321F0C8
:101DA0000E94CC2BF301F5CFE5EBF7E084913F01E6
:101DB0009FEF691A790A882321F00E94CC2BF30146
:101DC000F5CF6AE0FE01EB55F84F459055906590D0
:101DD000749070E080E090E00E945E7E9B01AC0118
:101DE000C301B2010E945E832B013C01A501940155
:101DF000C501B4010E948282AB01BC019301820142
:101E0000C7010E940F22F701E05DFB4F81E0808354
:101E1000FE01EC57FC4F1082118212821382C7011F
:101E20000E946323FE01E958FA4F259135914591AF
:101E300054918E01065F114FFE01EC5DFB4F6081F6
:101E40007181828193810E948282F8016083718313
:101E5000828393830E94162BC750D24FF801808152
:101E60009181A281B38188839983AA83BB83DF9107
:101E7000CF911F910F91FF90EF90BF90AF909F90E7
:101E80008F907F906F905F904F900895CF92DF92E8
:101E9000EF92FF920F931F93CF93DF9300D01F9287
:101EA000CDB7DEB79D9AA59882E08093C0001092CE
:101EB000C50080E18093C4008091C100806180935F
:101EC000C1008091C10088608093C1008091C100F1
:101ED00080688093C100EEE9F7E084918F010F5F85
:101EE0001F4F882321F00E94CC2BF801F6CFEDE0A4
:101EF000F6E084918F010F5F1F4F882321F00E942D
:101F0000CC2BF801F6CF14B710FF0DC0E5E9F7E0D0
:101F100084917F012FEFE21AF20A882321F00E94B8
:101F2000CC2BF701F5CF11FF0DC0E4E8F7E0849169
:101F30007F013FEFE31AF30A882321F00E94CC2BA4
:101F4000F701F5CF12FF0DC0E2E7F7E084917F01C2
:101F50009FEFE91AF90A882321F00E94CC2BF701A0
:101F6000F5CF13FF0DC0E1E6F7E084917F012FEF7D
:101F7000E21AF20A882321F00E94CC2BF701F5CF58
:101F800015FF0CC0E0E5F7E084918F010F5F1F4F54
:101F9000882321F00E94CC2BF801F6CF14BEE9E48F
:101FA000F7E084918F010F5F1F4F882321F00E947B
:101FB000CC2BF801F6CF80E20E94CC2BEEE3F7E0C9
:101FC00084918F010F5F1F4F882321F00E94CC2B3B
:101FD000F801F6CF8AE00E94CC2BEDE0F6E0849188
:101FE0008F010F5F1F4F882321F00E94CC2BF80137
:101FF000F6CFEEE2F7E084918F010F5F1F4F882349
:1020000021F00E94CC2BF801F6CFEDE1F7E08491AE
:102010008F010F5F1F4F882321F00E94CC2BF80106
:10202000F6CFE4EFF6E084918F010F5F1F4F882316
:1020300021F00E94CC2BF801F6CFEDEDF6E0849173
:102040008F010F5F1F4F882321F00E94CC2BF801D6
:10205000F6CFEDE0F6E084918F010F5F1F4F8823EC
:1020600021F00E94CC2BF801F6CF8091840E909144
:10207000850E8E010F5F1F4F009721F4C8018A580B
:102080009E4004C0F801E81BF90BCF019A838983B5
:1020900069817A818EEC96E00E94831E60E675E08D
:1020A00087EB96E00E94831E8AE00E94CC2B81E0A1
:1020B0008093EB058093EC058093ED058093EE050E
:1020C0000E94F0488CE0E8EBFDE0AAE0BEE0019061
:1020D0000D928A95E1F70E94162B10921E04109221
:1020E0001F04109220041092210480910101806449
:1020F00080930101809101018061809301016D9ABB
:10210000809101018062809301016C9A87ED809338
:102110007A0010927E0010927D0080917E00816096
:1021200080937E0080917E00846080937E00809109
:10213000010188608093010180E888BD80916E0074
:10214000846080936E006AEF70E080E090E00E940F
:10215000ED5A85E090E09093AE0C8093AD0C60E07A
:1021600080916402909165020E947B5B20E030E0E8
:1021700040EA50E40E94587E87FF0AC080916402C2
:102180009091650240979093650280936402E7CF37
:1021900081E391E0909361028093600260E080911E
:1021A000CB0D9091CC0D0E947B5B20E030E848E99C
:1021B00053E40E94A884181654F48091CB0D90919A
:1021C000CC0D40969093CC0D8093CB0DE7CF8091B2
:1021D0006202909163020E948B3F20E030E040EA6F
:1021E00050E40E94587E87FF0AC08091620290915D
:1021F000630240979093630280936202E8CF8091DC
:10220000C70D9091C80D0E948B3F20E030E046E161
:1022100053E40E94A884181654F48091C70D90913D
:10222000C80D40969093C80D8093C70DE8CF98E2F3
:1022300088E10FB6F894A895809360000FBE909344
:102240006000FFB6F89480910306811127C0ECED81
:10225000F8E18491E2E2F9E19491E82FF0E0EE0FE9
:10226000FF1FE75AF74EA591B491EC91E92321F4B1
:1022700061E085E30E941E5961E085E30E94EA590E
:102280008CB580618CBD8CB580648CBD61E084E3CD
:102290000E94EA5961E083E30E94EA5980910306B3
:1022A0008F5F80930306FFBE579A26E7C22E22E077
:1022B000D22EF12CF60161916F0170E08F2D0E94FA
:1022C0007E5FF394F5E0FF12F5CF999A989A80918A
:1022D00007018068809307019A9A809107018064C2
:1022E00080930701809107018062809307018091AC
:1022F00007018860809307018091070180618093C6
:102300000701809107018260809307018091070196
:102310008460809307013D9A80910A0180628093D6
:102320000A019BE7C92E92E0D92EF12CF6016191AA
:102330006F018F2D0E94585FF394F5E0FF12F6CFE6
:1023400080910A01826080930A0180910A01816074
:1023500080930A0180910A01846080930A01809130
:102360000A01806480930A0180910A018068809349
:102370000A01099A0F9A179A0E9A169A0D9A159AA7
:102380000C9A149A0B9A139A089A109A26982E9AD5
:1023900025982D9A3F98479A389A4098179A399AD3
:1023A0004198169A3A9A4298159A3B9A4398149AE9
:1023B0003C9A44983E9A4698809180008C7F809306
:1023C000800080918100877E886080938100809169
:1023D00080008F738093800080918100887F82606D
:1023E0008093810080E090E490938900809388003E
:1023F000109285001092840080916F00826080931B
:102400006F0010926E0B10926D0B1092690B109270
:10241000680B81E080930202789450D383E992E0C4
:102420009C838B8388ECE82EF12CFA82E982BE0132
:102430006D5F7F4FC8010E9469618AEB92E09C83C7
:102440008B83FA82E982BE016D5F7F4FC8010E94D3
:1024500069610F900F900F900F90DF91CF911F91B6
:102460000F91FF90EF90DF90CF900895E6ECF5E0AC
:102470008491EF012196882321F00E94CC2BFE014C
:10248000F7CFE7E9F6E08491EF012196882321F068
:102490000E94CC2BFE01F7CF0E948F5D0E94FD1F92
:1024A0002FEF8BE49DE1215080409040E1F700C088
:1024B0000000F8942FEF84E39CE02150804090408E
:1024C000E1F700C000000E948F5D9D98A895FECFA7
:1024D0004F925F926F927F928F929F92AF92BF9234
:1024E000CF92DF92EF92FF920F931F93CF93DF93E0
:1024F0000E94255B6B017C0180910002882309F416
:1025000065C080913E0490913F04009709F45EC03D
:102510004091EF055091F0056091F1057091F20541
:1025200097018601041B150B260B370B37FD61C085
:102530008330910509F130F4019708F447C0EDE0CC
:10254000F6E006C0049709F041C0EDE0F6E02AC0CD
:102550008491EF012196882321F00E94CC2BFE016B
:10256000F7CFE2E4F6E08491EF012196882371F140
:102570000E94CC2BFE01F7CFEDE0F6E08491EF0155
:102580002196882321F00E94CC2BFE01F7CFEBE2AD
:10259000F6E08491EF0121968823C1F00E94CC2BB4
:1025A000FE01F7CF8491EF012196882321F00E944C
:1025B000CC2BFE01F7CFE3E1F6E08491EF01219609
:1025C000882321F00E94CC2BFE01F7CF209100023E
:1025D00030E0A8EEB3E00E947282C60ED71EE81E5D
:1025E000F91EC092EF05D092F005E092F105F0924D
:1025F000F20580919A03882391F00E94255B009157
:102600009603109197032091980330919903DC0170
:10261000CB01801B910BA20BB30BB7FF2DC2809196
:10262000DF05843030F40E94D32B811102C00E9458
:10263000FF2C0E94255BC090AE03D090AF03E090CA
:10264000B003F090B103C114D104E104F10469F1C5
:102650000091700310917103209172033091730304
:102660000C0D1D1D2E1D3F1D6B017C01C01AD10AD2
:10267000E20AF30AF7FC19C0E6ECF5E08491EF01F9
:102680002196882321F00E94CC2BFE01F7CF609188
:102690003704709138048DE596E00E949C1E8AE014
:1026A0000E94CC2B84E596E0E1DEC090AA03D09096
:1026B000AB03E090AC03F090AD03C114D104E1048E
:1026C000F104D9F00091700310917103209172030D
:1026D000309173030C0D1D1D2E1D3F1DDC01CB0120
:1026E000801B910BA20BB30BB7FD07C090914E0E50
:1026F00080914F0E981709F4DCC1D091A103C091CD
:10270000A50390914E0E80914F0E9817E1F0E09145
:102710004F0E86E58E9FF0011124EC5AF94FD081BF
:1027200090914F0EE0914F0E8E9FF0011124E85AC8
:10273000F94FC08180914F0E90914E0E981719F06D
:102740008F5F8F70F9CFDD2331F10E94255B0091FF
:10275000F7051091F8052091F9053091FA05DC0193
:10276000CB01011511052105310569F48C599F4FE5
:10277000AF4FBF4F8093F7059093F805A093F905ED
:10278000B093FA0506C0801B910BA20BB30BB7FFE9
:102790000AC0DFEF08C01092F7051092F8051092FA
:1027A000F9051092FA05CC2331F10E94255B0091C6
:1027B000FF05109100062091010630910206DC0110
:1027C000CB01011511052105310569F48C599F4F85
:1027D000AF4FBF4F8093FF0590930006A093010673
:1027E000B093020606C0801B910BA20BB30BB7FF80
:1027F0000AC0CFEF08C01092FF0510920006109299
:10280000010610920206DD2359F00BE9D09FC001AA
:1028100011246FEF70E00E945A856C597F4F02C0FF
:1028200060E070E088E00E94265ACC2359F01BE952
:10283000C19FC00111246FEF70E00E945A856C594E
:102840007F4F02C060E070E082E00E94265A8091D3
:10285000C60D882309F4F6C00091390210913A029E
:10286000D0913B02C0913C02609190037091910322
:102870006E5F7F4F072E000C880B990B0E945E7EC7
:1028800098014D2F5C2F0E94587E87FDDBC0F09091
:102890004F0E912CA12CB12CE12C86E5882E809135
:1028A0004E0E8F1509F45AC08F2D90E0889EF001CE
:1028B000899EF00D1124E85FF94F428153816481B4
:1028C0007581452B462B472B81F4468157816085C6
:1028D0007185452B462B472B41F4428553856485F2
:1028E0007585452B462B472BA1F1889E9001899E2B
:1028F000300D1124C901885F994F6C01FC01668578
:102900007785808991890E945E7E2B013C01F601CA
:1029100062897389848995890E945C7E9B01AC01E0
:10292000C301B2010E945E83F60120A531A542A534
:1029300053A50E94BD7E3B016C01292D3A2D4B2DE4
:102940005E2D0E94A884181624F4962CA72CBC2C6B
:10295000ED2C81E08F0D8F70F82EA1CF20913D02DC
:1029600030913E0240913F0250914002692D7A2DF4
:102970008B2D9E2D0E94BD7E98014D2F5C2F0E94B5
:1029800082826B017C019B01AC01B8018D2F9C2FD1
:102990000E94A8841816A4F0009135021091360206
:1029A000D0913702C091380298014D2F5C2FB601AB
:1029B000C7010E94A88418161CF08601DE2DCF2DB9
:1029C000C090F305D090F405E090F505F090F60581
:1029D00098014D2F5C2FC701B6010E94A8841816DC
:1029E000D4F420E037ED43EA5CE3B8018D2F9C2F4F
:1029F0000E94BD7E4B015C0128E431EE4AE75FE3B3
:102A0000C701B6010E94BD7EA50194010E94828289
:102A10008B01D82FC92FC801AD2FBC2F8093F30590
:102A20009093F405A093F505B093F605B8018D2FAA
:102A30009C2F0E94C683709391036093900380E063
:102A40000E943F3F0E94A64080E59EE00E946A27C8
:102A500080E59EE0DF91CF911F910F91FF90EF9065
:102A6000DF90CF90BF90AF909F908F907F906F90AE
:102A70005F904F900C946A270E94255B6B017C014C
:102A800020919A0330E0A8EEB3E00E947282C60E55
:102A9000D71EE81EF91EC0929603D0929703E092CB
:102AA0009803F09299030E941E258AE00E94CC2B85
:102AB000B6CD179A169A159A149A1FCE80916A0B62
:102AC0009FB780FF09C0F89480910B018D7F8093A0
:102AD0000B019FBF8FEF08C0F89480910B018260BB
:102AE00080930B019FBF81E08093410280916A0B2C
:102AF0009FB781FF09C0F89480910B01816080939A
:102B00000B019FBF8FEF08C0F89480910B018E7F5F
:102B100080930B019FBF81E08093420280916A0BFA
:102B20009FB782FF09C0F89480910B018460809365
:102B30000B019FBF8FEF08C0F89480910B018B7F32
:102B400080930B019FBF81E0809343020895909191
:102B50004E0E80914F0E981731F080914F0E8F5F7F
:102B60008F7080934F0E08951F920F920FB60F92A1
:102B700011240BB60F928F929F92AF92BF92CF9279
:102B8000DF92EF92FF920F931F932F933F934F93F8
:102B90005F936F937F938F939F93AF93BF93EF93C5
:102BA000FF93CF93DF9300D000D0CDB7DEB78091F5
:102BB0006E008B7F80936E0080916F008D7F80937D
:102BC0006F0078948091950B9091960B892B09F06A
:102BD00080C7C090900BD090910BE090920BF0903A
:102BE000930BC114D104E104F10409F442C08091B3
:102BF00002028823F1F10E94095309EBC0160BE091
:102C0000D006E104F10488F018EBC11A1BE0D10AE8
:102C1000E108F108C092900BD092910BE092920BD8
:102C2000F092930B88EB9BE009C0C6011092900BC9
:102C30001092910B1092920B1092930B9093960B13
:102C40008093950B209188003091890080918400B9
:102C50009091850040962817390708F010C280919E
:102C6000840090918500409690938900809388001D
:102C700006C280916B0B90916C0B009769F00197E5
:102C800090936C0B80936B0B1092F80D1092F70DD4
:102C90005EDF88EC90E0EFC1E091F70DF091F80D68
:102CA000309709F000C290914E0E80914F0E981708
:102CB00059F0E0914F0E26E5E29FF0011124E85F04
:102CC000F94F808188608083F093F80DE093F70DD1
:102CD000309709F4CEC152A180916A0B41815813FB
:102CE0000AC0242F30E080914502082E000C990B79
:102CF0002817390729F050936A0B40934502DEDE0E
:102D000010928C0B10928D0B10928E0B10928F0BD9
:102D1000E091F70DF091F80D84AD95AD81343CE96B
:102D2000930728F481324EE4940748F002C080E40F
:102D30009CE9969587959695879524E007C0813103
:102D400057E2950730F09695879522E02093940BF3
:102D500008C021E02093940B8032910510F480E2AA
:102D600090E08C01005211091A830983011528E0B3
:102D70001207E8F0E12FFF27EE0FFF1FEE0FFF1FF6
:102D8000CF01815F934FFC01329645915491AA2760
:102D9000059F9001049F210D3A1F06942A1F3A1F98
:102DA0001124FC0185919491821B930B22C089818F
:102DB0009A81969587958C7F815F974FFC0125912D
:102DC0003491FC0132964591549169817A81677002
:102DD0007727649FC001659F900D749F900D11240B
:102DE00003E0969587950A95E1F7A901481B590BD1
:102DF000CA018436910580F40BEE12E0D8018D9162
:102E00008D01882319F00E94CC2BF8CF89819A81FB
:102E10000E94FA5F84E690E090938B0B80938A0B7C
:102E20008091940B8093890BE091F70DF091F80D50
:102E3000E05CFF4FC080D180E280F380DA82C982FB
:102E4000D092880BC092870B01E4C0160CE9D00623
:102E500030F411E2C1161EE4D10678F004C020E47B
:102E60003CE93A83298349815A815695479556957D
:102E700047955A83498384E00BC089819A818131C7
:102E8000974248F0F601F695E795FA83E98382E0E8
:102E90008093940B0CC081E08093940B09811A817C
:102EA0000032110520F420E230E03A8329830981C1
:102EB0001A81005211091A830983011528E01207AB
:102EC000E8F0E12FFF27EE0FFF1FEE0FFF1FCF01EE
:102ED000815F934FFC01329645915491AA27059F3B
:102EE0009001049F210D3A1F06942A1F3A1F1124B6
:102EF000FC0185919491821B930B22C089819A8158
:102F0000969587958C7F815F974FFC012591349131
:102F1000FC0132964591549169817A8167707727D7
:102F2000649FC001659F900D749F900D112453E024
:102F3000969587955A95E1F7A901481B590BCA0147
:102F40008436910580F40BEE12E0D8018D918D014D
:102F5000882319F00E94CC2BF8CF89819A810E9496
:102F6000FA5F84E690E0AC0160E070E04093830B90
:102F70005093840B6093850B7093860B9093960B04
:102F80008093950BE091F70DF091F80DFA83E983AA
:102F900083A18823A1F184A095A0A6A0B7A0E18178
:102FA000F0E0EE0FFF1FEF57F44FA7019601442703
:102FB0005527C501B4010E943782DC01CB0121E114
:102FC000B695A795979587952A95D1F79183808394
:102FD000E981FA8164AD75AD86AD97ADA501940127
:102FE0000E943782DC01CB0131E1B695A795979518
:102FF00087953A95D1F79093800B80937F0BE98169
:10300000FA8182899389A489B589B695A795979500
:103010008795B095A095909581959F4FAF4FBF4FE5
:1030200080937B0B90937C0BA0937D0BB0937E0BD6
:103030008093770B9093780BA093790BB0937A0BD6
:103040008093730B9093740BA093750BB093760BD6
:1030500080936F0B9093700BA093710BB093720BD6
:103060001092F30D1092F40D1092F50D1092F60DD2
:103070001AC080ED97E09093960B8093950BF8948F
:103080008091D20D882321F080916E008B7F03C048
:1030900080916E00846080936E0080916F008260EA
:1030A00080936F0016C58091020281110E9409531E
:1030B0002091940B222309F4A6C10091F70D1091E1
:1030C000F80D1A830983D8011E964D915D916D917B
:1030D0007C91519780917B0B90917C0BA0917D0B03
:1030E000B0917E0B840F951FA61FB71F80937B0B9B
:1030F00090937C0BA0937D0BB0937E0B1816190652
:103100001A061B060CF03FC0F801428953896489F6
:103110007589841B950BA60BB70B80937B0B909343
:103120007C0BA0937D0BB0937E0B80914402409169
:103130008003509181036091820370918303082E74
:10314000000C990BAA0BBB0B840F951FA61FB71F72
:103150008093800390938103A0938203B0938303B1
:1031600080916A0BE181F0E0EE0FFF1FE359F44F0D
:1031700083FF04C080819181019703C08081918188
:10318000019691838083E981FA8142815381648130
:10319000758180916F0B9091700BA091710BB09124
:1031A000720B840F951FA61FB71F80936F0B909310
:1031B000700BA093710BB093720B181619061A06B8
:1031C0001B060CF4409AE091F70DF091F80D468142
:1031D0005781608571858091730B9091740BA091DC
:1031E000750BB091760B840F951FA61FB71F8093A8
:1031F000730B9093740BA093750BB093760B18160A
:1032000019061A061B060CF4419AE091F70DF0918D
:10321000F80D42855385648575858091770B909173
:10322000780BA091790BB0917A0B840F951FA61F94
:10323000B71F8093770B9093780BA093790BB09383
:103240007A0B181619061A061B060CF4429A80917E
:103250006F0B9091700BA091710BB091720B1816BF
:1032600019061A061B0684F5E091F70DF091F80D8A
:103270004289538964897589841B950BA60BB70B0A
:1032800080936F0B9093700BA093710BB093720BA4
:1032900080914102409174035091750360917603CF
:1032A00070917703082E000C990BAA0BBB0B840FAF
:1032B000951FA61FB71F8093740390937503A09367
:1032C0007603B093770340988091730B9091740BC1
:1032D000A091750BB091760B181619061A061B06ED
:1032E00084F5E091F70DF091F80D428953896489D6
:1032F0007589841B950BA60BB70B8093730B90936A
:10330000740BA093750BB093760B809142024091A1
:1033100078035091790360917A0370917B03082EB2
:10332000000C990BAA0BBB0B840F951FA61FB71F90
:103330008093780390937903A0937A03B0937B03EF
:1033400041988091770B9091780BA091790BB09177
:103350007A0B181619061A061B0684F5E091F70D6C
:10336000F091F80D4289538964897589841B950B06
:10337000A60BB70B8093770B9093780BA093790BE8
:10338000B0937A0B8091430240917C0350917D036E
:1033900060917E0370917F03082E000C990BAA0B9D
:1033A000BB0B840F951FA61FB71F80937C039093C0
:1033B0007D03A0937E03B0937F0342988091F30D29
:1033C0009091F40DA091F50DB091F60D0196A11D0F
:1033D000B11D8093F30D9093F40DA093F50DB09370
:1033E000F60D2150E091F70DF091F80D42895389C7
:1033F0006489758984179507A607B70708F45ACE1C
:10340000FF24F39401C0F12CE091F70DF091F80D39
:1034100023A12223F9F0818190E0880F991FDC011C
:10342000AF57B44F4D915C91DC01A859B44F6D91E9
:103430007C9111978A01061B170B4D935C93DC015D
:10344000A359B44F8D919C911197800F911F1196A4
:103450009C938E93818190E0880F991FDC01A35982
:10346000B44F4D915C91452B21F01092490210927E
:1034700048024091F30D5091F40D6091F50D70915B
:10348000F60D86889788A08CB18C84169506A606C2
:10349000B70608F445C14091830B5091840B6091AD
:1034A000850B7091860B068D178D20A131A1AA275F
:1034B000419FB12D529FC001629F900D619F800D71
:1034C000911D429FB00D811D9A1F519FB00D811D0E
:1034D0009A1F609FB00D811D9A1F509FB10D8A1FCA
:1034E0009A1FB6958A1F9A1F349F800D911D359F94
:1034F000900D1124DF01A05CBF4F2D913C91820FF4
:10350000931F9093880B8093870B44AD55AD66ADA8
:1035100077ADA0E0B0E0481759076A077B0720F4B1
:103520005093880B4093870B0091870B1091880B69
:1035300001342CE9120738F401323EE4130788F015
:103540001A83098304C040E45CE95A834983898172
:103550009A8196958795969587959A83898384E035
:103560000AC0013197E2190748F0D801B695A7952E
:10357000BA83A98382E08093940B0DC081E080938D
:10358000940B0032110518F01A83098304C0E0E29D
:10359000F0E0FA83E98329813A81205231093A83A4
:1035A0002983211548E03407F8F0E32FFF27EE0FB9
:1035B000FF1FEE0FFF1FCF01815F934FFC0132967B
:1035C000459154916981AA27659F9001649F210DBF
:1035D0003A1F06942A1F3A1F1124FC0185919491E9
:1035E000FC01E21BF30B21C089819A819695879596
:1035F0008C7F815F974FFC0125913491FC013296BD
:103600004591549169817A8167707727649FC001E1
:10361000659F900D749F900D112443E096958795BA
:103620004A95E1F7F901E81BF90BE436F10590F44E
:103630008BEEC82E82E0D82ED6018D916D018823A5
:1036400019F00E94CC2BF8CF89819A810E94FA5FF1
:10365000E4E6F0E080910202882301F1CF01E93B2A
:10366000BBE0FB07E0F068EB7BE00E944685883E0C
:1036700023E0920718F48854944F02C088EB9BE033
:10368000AF01481B590B60E070E04093900B5093E2
:10369000910B6093920B7093930B01C0CF019093A9
:1036A000960B8093950B8091830B9091840BA09146
:1036B000850BB091860B8E0F9F1FA11DB11D8093AE
:1036C000830B9093840BA093850BB093860BC090D3
:1036D000F70DD090F80DD60193968C91939788238F
:1036E00009F466C11196BC912B2F30E0220F331FD5
:1036F0002F57344F5901D60194962D913D914D91FC
:103700005C919797D8010E946882AB01BC01B1E13E
:103710007695679557954795BA95D1F7D50146C1E6
:103720004091F30D5091F40D6091F50D7091F60DEF
:10373000828C938CA48CB58C84169506A606B7064D
:1037400008F062C100918C0B10918D0B20918E0BB3
:1037500030918F0B09831A832B833C83468D578DC1
:1037600060A171A1AA27059FB12D169FC001269FB8
:10377000900D259F800D911D069FB00D811D9A1FF4
:10378000159FB00D811D9A1F249FB00D811D9A1F9A
:10379000149FB10D8A1F9A1FB6958A1F9A1F709F9A
:1037A000800D911D719F900D11242091870B3091F8
:1037B000880B3E832D83EC5BFF4F8217930798F4B1
:1037C000281B390B3E832D8380819181A281B38197
:1037D000A90160E070E0481759076A077B0738F4D1
:1037E0009E838D8304C0008111811E830D830D8112
:1037F0001E8101342CE9120728F401323EE413073C
:1038000048F002C000E41CE9169507951695079547
:1038100084E009C00D811E81013127E2120730F0DA
:103820001695079582E08093940B0AC081E08093FF
:10383000940B0D811E810032110510F400E210E09E
:1038400000521109011528E01207F0F0E12FFF27BF
:10385000EE0FFF1FEE0FFF1FCF01815F934FFC01A3
:10386000329645915491AA27059F9001049F210DFE
:103870003A1F06942A1F3A1F1124FC018591949146
:10388000FC01E21BF30B1FC0C801969587958C7F46
:10389000815F974FFC0125913491FC01329645914F
:1038A0005491B80167707727649FC001659F900DA0
:1038B000749F900D112453E0969587955A95E1F7E2
:1038C000F901E81BF90BE436F10588F43BEEC32E51
:1038D00032E0D32ED6018D916D01882319F00E941C
:1038E000CC2BF8CFC8010E94FA5FE4E6F0E08091AB
:1038F0000202882301F1CF01E93BBBE0FB07E0F0C6
:1039000068EB7BE00E944685883E03E0900718F450
:103910008854944F02C088EB9BE0AF01481B590BC1
:1039200060E070E04093900B5093910B6093920B8A
:103930007093930B01C0CF019093960B8093950BDE
:1039400089819A81AB81BC818E0F9F1FA11DB11D02
:1039500080938C0B90938D0BA0938E0BB0938F0B59
:10396000C090F70DD090F80DD60193968C91939757
:103970008823F1F011960C91119710E0000F111FA0
:103980000F57144F94962D913D914D915C919797BF
:10399000AD81BE810E946882AB01BC0121E17695B8
:1039A0006795579547952A95D1F7D8014D935C9324
:1039B0002091940BD60111968C91A82FB0E0AA0FFC
:1039C000BB1FA359B44F6D917C916115710591F0A6
:1039D0002E9FC0012F9F900D112477FF03C071957A
:1039E000619571090E9446856115710531F0962F28
:1039F000872F05C09FEF8FEF02C091E080E090938A
:103A00004602809347025EC0222349F020917F0B3B
:103A10003091800BFC01EF57F44F31832083E0910C
:103A2000890B20918A0B30918B0BDC01A359B44F89
:103A30006D917C916115710591F0E29FC001E39F4A
:103A4000900D112477FF03C07195619571090E9453
:103A500046856115710531F0962F872F05C09FEFC0
:103A60008FEF02C091E080E090934602809347027E
:103A700080910202882301F1293BBBE03B07E0F083
:103A8000C90168EB7BE00E944685883EF3E09F0712
:103A900018F48854944F02C088EB9BE0A901481B9E
:103AA000590B60E070E04093900B5093910B609342
:103AB000920B7093930B9C013093960B2093950B74
:103AC000E093940BFF2029F01092F80D1092F70D5F
:103AD0003ED88091480290914902892B09F04CC050
:103AE0008091460290914702909349028093480248
:103AF00080916D0B90916E0B892BA1F080916D0BD5
:103B000090916E0B97FD06C09FB7F89480910B01C2
:103B1000806405C09FB7F89480910B018F7B8093E0
:103B20000B019FBF8091940B815030F120916D0B60
:103B300030916E0B232B09F0439A20916D0B30913D
:103B40006E0B232B89F320916D0B30916E0B37FF99
:103B500007C020916D0B30916E0B2F5F3F4F06C059
:103B600020916D0B30916E0B2150310930936E0B0B
:103B700020936D0B4398D8CF209148023091490291
:103B80008091950B9091960B82179307C8F0309314
:103B90008900209388008091950B9091960B009757
:103BA00051F02091480230914902821B930B90936F
:103BB000960B8093950B10924902109248021CC0FC
:103BC00090938900809388008091480290914902E7
:103BD0009C01215031092E3F3F4F50F42091950B0D
:103BE0003091960B821B930B90934902809348026D
:103BF0001092960B1092950B2091880030918900BD
:103C0000809184009091850040962817390748F4E8
:103C100080918400909185004096909389008093D4
:103C20008800F8948091D20D882321F080916E0055
:103C30008B7F03C080916E00846080936E008091C2
:103C40006F00826080936F0026960FB6F894DEBFF7
:103C50000FBECDBFDF91CF91FF91EF91BF91AF919B
:103C60009F918F917F916F915F914F913F912F9194
:103C70001F910F91FF90EF90DF90CF90BF90AF908A
:103C80009F908F900F900BBE0F900FBE0F901F90C4
:103C90001895CF92DF92EF92FF92CF93DF936A0154
:103CA0007B01FC018491EF012196882321F00E9481
:103CB000CC2BFE01F7CF4AE0C701B601DF91CF91CF
:103CC000FF90EF90DF90CF900C94462CCF92DF9234
:103CD000EF92FF92CF93DF936A017B01FC01849105
:103CE000EF012196882321F00E94CC2BFE01F7CF13
:103CF00042E0C701B601DF91CF91FF90EF90DF90D6
:103D0000CF900C943F2E0F931F93CF93DF938B0193
:103D1000FC018491EF012196882321F00E94CC2B95
:103D2000FE01F7CFB801110F880B990BDF91CF91EE
:103D30001F910F910C94B12C0F931F93CF93DF938E
:103D40008B01FC018491EF012196882321F00E94D0
:103D5000CC2BFE01F7CFE8018991882319F00E944E
:103D6000CC2BFACFDF91CF911F910F9108954F92F5
:103D70005F926F927F92AF92BF92CF92DF92EF925B
:103D8000FF920F931F93CF93DF938C01EB01FC0104
:103D900044A455A466A477A4ACA4BDA4CEA4DFA477
:103DA0009501A601C301B2010E94587E87FF40C061
:103DB000A3019201C301B2010E94BD7E2B013C010F
:103DC000F80180AD91ADA2ADB3ADBC01CD0190586D
:103DD0009B01AC010E948282F80124A935A946A961
:103DE00057A90E94BD7E9B01AC01C301B2010E9494
:103DF00081820E94ED847B018C019B01AC01B501A5
:103E0000C6010E94587E87FF02C075018601970196
:103E1000A801B501C6010E94587E882349F0C70158
:103E2000D8018CA79DA7AEA7BFA788818160888392
:103E3000DF91CF911F910F91FF90EF90DF90CF9086
:103E4000BF90AF907F906F905F904F90089580915A
:103E5000220481111AC06091150270911602072E7A
:103E6000000C880B990B0E945E7E9B01AC01609157
:103E7000AF0C7091B00C8091B10C9091B20C0E947B
:103E8000587E881F8827881F089580E0089586E45B
:103E90000E94862B8093C60D882351F00E944F2BE1
:103EA00060933D0270933E0280933F0290934002E4
:103EB00083E50E94862B882351F00E944F2B60934C
:103EC000390270933A0280933B0290933C0282E461
:103ED0000E94862B882351F00E944F2B609335025D
:103EE00070933602809337029093380208954F9270
:103EF0005F926F927F928F929F92AF92BF92EF925A
:103F0000FF920F931F93CF93DF93C4EDD3E082EC26
:103F1000E82E83E0F82E02EB13E0412C512C320105
:103F200043946991799189919991F7018190919048
:103F3000A190B1907F010E945C7EA50194010E9436
:103F4000BD7E0E94CB83F80161937193819391931D
:103F50008F01461657066806790610F42B013C01BE
:103F6000F3E0C43EDF07E9F66FEF7FEFCB01A3017B
:103F700092010E94468220930406309305064093E6
:103F8000060650930706DF91CF911F910F91FF9086
:103F9000EF90BF90AF909F908F907F906F905F90C9
:103FA0004F9008950F931F93CF93DF93C2ECD3E00C
:103FB00001EC15E0299139914991599160E070E047
:103FC00080E89FE30E945E83F8016193719381937F
:103FD00091938F01F3E0C23DDF0761F726E13EE0F8
:103FE00042E15EE06EE07EE08AE09EE00E94DE2E2E
:103FF000DF91CF911F910F917ACF179A169A159A48
:10400000149A0895CF92DF92EF92FF92C09003022C
:10401000D0900402E0900502F09006028091D30354
:10402000882321F120E030E0A901C701B6010E94F8
:10403000587E8823D9F020E030E040E05FE3C701FC
:10404000B6010E94BD7E9B01AC010E94BD7E2BED9E
:104050003FE049E450E40E94BD7E9B01AC0160E07A
:1040600070E080E89FE30E945E8304C060E070E03F
:1040700080E89FE360934A0270934B0280934C0266
:1040800090934D02FF90EF90DF90CF900895CF93E3
:10409000DF930E94C12BE091DE05F0E0E551FA4F7D
:1040A0008081882381F0E4E8F0E18491EF0121969A
:1040B000882321F00E94CC2BFE01F7CF8AE0DF910C
:1040C000CF910C94CC2BDF91CF910895CF93DF93B8
:1040D0008FB7F8949091180C9093170C8FBFEBE763
:1040E000F0E18491EF012196882321F00E94CC2BEE
:1040F000FE01F7CF8091920390919303A0919403D6
:10410000B0919503BC01CD016F5F7F4F8F4F9F4FE3
:104110000E94B12C8AE00E94CC2BDF91CF91B7CFC7
:1041200088E893E190936C0B80936B0B80916F0008
:104130008D7F80936F0090914E0E80914F0E981757
:1041400019F00E94A715F7CF1092F80D1092F70DF5
:1041500080916F00826080936F000E94F05F80E02A
:1041600090E00E94D15F6093190C70931A0C8093B9
:104170001B0C90931C0C81E090E00E94D15F609337
:104180001D0C70931E0C80931F0C9093200C82E0EA
:1041900090E00E94D15F6093210C7093220C809379
:1041A000230C9093240C8CE0E9E1FCE0AAE0BEE053
:1041B00001900D928A95E1F70C94162B4F925F9225
:1041C0006F927F928F929F92AF92BF92CF92DF9227
:1041D000EF92FF92CF93DF93E8E6F0E18491EF0155
:1041E0002196882321F00E94CC2BFE01F7CF60910D
:1041F0000A0E70910B0E80910C0E90910D0E42E004
:104200000E943F2EE4E6F0E18491EF01219688239D
:1042100021F00E94CC2BFE01F7CF60910E0E709121
:104220000F0E8091100E9091110E42E00E943F2ED1
:10423000E0E6F0E18491EF012196882321F00E94CD
:10424000CC2BFE01F7CF6091120E7091130E80916E
:10425000140E9091150E42E00E943F2EECE5F0E125
:104260008491EF012196882321F00E94CC2BFE013E
:10427000F7CF6091160E7091170E8091180E9091E5
:10428000190E42E00E943F2E8FB7F89440907403BD
:104290005090750360907603709077038090780358
:1042A00090907903A0907A03B0907B03C0907C0338
:1042B000D0907D03E0907E03F0907F038FBFE2E516
:1042C000F0E18491EF012196882321F00E94CC2B0C
:1042D000FE01F7CFC301B2010E94B12CEEE4F0E180
:1042E0008491EF012196882321F00E94CC2BFE01BE
:1042F000F7CFC501B4010E94B12CEAE4F0E184914A
:10430000EF012196882321F00E94CC2BFE01F7CFEC
:10431000C701B6010E94B12C8AE0DF91CF91FF90D6
:10432000EF90DF90CF90BF90AF909F908F907F9055
:104330006F905F904F900C94CC2BCF92DF92EF92C6
:10434000FF920F931F93CF93DF9382E7E82E82E0D3
:10435000F82E09EF1DE0CAE0DEE099E3C92E94E0F3
:10436000D92EF70181917F010E94862B8823E1F0ED
:104370000E944F2B9B01AC01F6018081811104C08A
:1043800080913D04882329F0688179818A819B810D
:1043900003C060E070E0CB010E948282F80160837C
:1043A00071838283938309C088819981AA81BB81AB
:1043B000F80180839183A283B3830C5F1F4F2496FF
:1043C000FFEFCF1ADF0A86E7E81682E0F80649F623
:1043D00086E40E94B52B8823C9F00E944F2B20E071
:1043E00030E0A9010E94A884181684F40E944F2B83
:1043F00020E030E040E752E40E945E8360936C026C
:1044000070936D0280936E0290936F02DF91CF9153
:104410001F910F91FF90EF90DF90CF9008958F92B2
:104420009F92AF92BF92CF92DF92EF92FF920F9343
:104430001F93CF93DF934A015B017901EC01CC0F0D
:10444000DD1FCC0FDD1FCE01865F914F6C01FC019B
:1044500010821182128213820E94162BF601808232
:104460009182A282B382C090090E20E030E0A901BF
:10447000B801C7010E94587E81110CC0FE01EB55A6
:10448000F84F4591559165917491342F252F962FB2
:10449000872F04C0302F212F9E2D8F2DE32EF22E3B
:1044A000092F182F26E13EE042E15EE06EE07EE05B
:1044B0008AE09EE00E94DA2F0E94F05F1092DD05F4
:1044C000DF91CF911F910F91FF90EF90DF90CF90F0
:1044D000BF90AF909F908F90089580E1E9EFFDE04D
:1044E000AAE0BEE001900D928A95E1F70895CF927F
:1044F000DF92EF92FF920F931F93CF93DF93809100
:104500006B02882321F089EF9DE00E94D50D0E9467
:10451000C12B8091400483FD72C0C090050ED090E5
:10452000060EE090070EF090080E2091160E3091C6
:10453000170E4091180E5091190EC701B6010E9436
:10454000587E882309F45BC082DC8823F1F0C09296
:10455000160ED092170EE092180EF092190EEDE0A2
:10456000F6E08491EF012196882321F00E94CC2B64
:10457000FE01F7CFE6EAF0E18491EF01219688236E
:1045800021F00E94CC2BFE01F7CFC090050ED090F9
:10459000060EE090070EF090080E2091160E309156
:1045A000170E4091180E5091190EC701B6010E94C6
:1045B000818220E030E44AE754E40E94A88418167F
:1045C000F4F4C092160ED092170EE092180EF092EC
:1045D000190EEDE0F6E08491EF012196882321F099
:1045E0000E94CC2BFE01F7CFE7E8F0E18491EF01C8
:1045F0002196882321F00E94CC2BFE01F7CF209139
:10460000F90D3091FA0D4091FB0D5091FC0D609128
:104610000A0E70910B0E80910C0E90910D0E0E945F
:10462000587E81111FC02091FD0D3091FE0D4091EB
:10463000FF0D5091000E60910E0E70910F0E809143
:10464000100E9091110E0E94587E81110BC0E090C7
:104650006C02F0906D0200916E0210916F02C0909A
:10466000090E1EC06091700270917102072E000C3D
:10467000880B990B0E945E7E20916C0230916D0236
:1046800040916E0250916F020E94BD7E2AE037ED8C
:1046900043E25CE30E94BD7EC090090E7B018C0169
:1046A00025E03EE041E05EE06DEF7DE089EF9DE0DA
:1046B0000E94DA2FDF91CF911F910F91FF90EF9021
:1046C000DF90CF900ACFCF92DF92EF92FF920F93BD
:1046D0001F93CF93DF93EC01CC0FDD1FCC0FDD1FB9
:1046E000FE01E854F24F20E030E0A90160817181C1
:1046F000828193810E948282FE01EC57FC4F2081CF
:104700003181428153810E9482826B017C01FE01D2
:10471000EC5DFB4F6083718382839383FE01EE5DCA
:10472000FF4E25913591459154918E010D5D1D4FA0
:104730000E948282F8016083718382839383FE01E9
:10474000E25DFF4E2591359145915491C95EDD4F53
:10475000C701B6010E948282688379838A839B8322
:10476000DF91CF911F910F91FF90EF90DF90CF904D
:1047700008958F929F92AF92BF92EF92FF920F9304
:104780001F93CF93DF938C014A015B01EC01CC0FA7
:10479000DD1FCC0FDD1FCE01865F914F7C01C85419
:1047A000D24F288139814A815B81C501B4010E94C1
:1047B0008182F70120813181428153810E9482826E
:1047C000F701608371838283938388829982AA82AE
:1047D000BB82C801DF91CF911F910F91FF90EF90A5
:1047E000BF90AF909F908F906ECFEF92FF920F93FC
:1047F0001F93CF93DF937C0184E5B7D7D82F88230D
:1048000021F12DD7C82F1816E4F4EDE0F6E08491DD
:104810008F010F5F1F4F882319F0BED7F801F7CF24
:104820008DE4BAD7B70180E090E04AE00E94462CC0
:104830006C2FCC0F770B8FE090E165DA8AE0ACD774
:1048400008C080932304D0E004C08091090E8093B7
:1048500023048D2FDF91CF911F910F91FF90EF9047
:104860000895CF93DF9385E480D781110EC080E552
:104870004DD7882381F013D7609358027093590263
:1048800080935A0290935B0206C0E9D6882379F39D
:10489000E6ECF5E099C089E439D7882379F0FFD6B2
:1048A0002CEA35EC47E25EE30E94BD7E6093540241
:1048B00070935502809356029093570284E426D752
:1048C000882379F0ECD62CEA35EC47E25EE30E94CF
:1048D0005E8360935C0270935D0280935E029093AE
:1048E0005F0283E413D7882349F0D9D660934E0240
:1048F00070934F0280935002909351028CE406D73C
:10490000882339F0CCD60E94C683709353026093FB
:1049100052028091520290915302C39734F082E385
:1049200090E0909353028093520210921E041092D2
:104930001F041092200410922104EDE0F6E084910F
:10494000EF012196882319F027D7FE01F8CF409177
:1049500058025091590260915A0270915B0287E7A8
:1049600090E1B4D92CEA35EC47E25EE36091540261
:104970007091550280915602909157020E945E8379
:10498000AB01BC0183E790E1A1D92CEA35EC47E209
:104990005EE360915C0270915D0280915E02909195
:1049A0005F020E94BD7EAB01BC018FE690E18ED913
:1049B00040914E0250914F0260915002709151020D
:1049C0008BE690E183D90FC08491EF012196882373
:1049D00019F0E2D6FE01F8CFCAEDD2E08991882322
:1049E00011F0DAD6FBCF8AE0DF91CF91D5C6FF92E6
:1049F0000F931F93CF93DF938C01EB01F42E80E292
:104A0000CBD68FEFF81611F084E501C082E4C4D64E
:104A10008AE3C2D6F801608171818281938142E08C
:104A20000E943F2E488159816A817B818AE390E10F
:104A3000DF91CF911F910F91FF9048C90F931F9362
:104A4000CF93DF93CDB7DEB728970FB6F894DEBFCC
:104A50000FBECDBF6091900370919103072E000CA3
:104A6000880B990B0E945E7E6D837E838F8398876F
:104A70008091AF0C9091B00CA091B10CB091B20CA0
:104A800089839A83AB83BC834EEFBE016B5F7F4FFC
:104A9000CE010196ACDF60919F037091A003072EB9
:104AA000000C880B990B0E945E7E6D837E838F8342
:104AB000988780919B0390919C03A0919D03B09156
:104AC0009E0389839A83AB83BC834FEFBE016B5FE8
:104AD0007F4FCE0101968BDFE2E4F0E184918F01FC
:104AE0000F5F1F4F882319F057D6F801F7CFE091D9
:104AF0002304F0E0EF52F24F608170E080E090E03C
:104B000030D7EDE3F0E184918F010F5F1F4F8823D1
:104B100019F042D6F801F7CF6091D00D70E080E037
:104B200090E01FD728960FB6F894DEBF0FBECDBF1A
:104B3000DF91CF911F910F9108952F923F924F9245
:104B40005F926F927F928F929F92AF92BF92CF921D
:104B5000DF92EF92FF920F931F93CF93DF93CDB726
:104B6000DEB72F970FB6F894DEBF0FBECDBF8DE630
:104B700090E03BDE81114AC18091400483FD46C133
:104B800083E5F3D58887811105C082E5EED58823BA
:104B900009F43CC184D50E94C6837093910360934D
:104BA000900380E00E943F3F7AD520E030E04AEA5F
:104BB00052E40E94587E18161CF00E94066002C043
:104BC0000E94FF6064D981E08093340210923F0418
:104BD00010923E04412C512C32011C821D821E82F7
:104BE0001F821B8219862CE32A873CE13B8746E41F
:104BF0004C8710E000E050E859838FEB8A83812CCA
:104C0000912C54016091900370919103072E000C38
:104C1000880B990B0E945E7E7B018F879D879B018D
:104C2000AC01612F702F89819A810E94587E882360
:104C300081F12091AF0C3091B00C4091B10C5091AA
:104C4000B20C9885B7018F8591110EC09D850E9489
:104C5000587E881F8827881F8B831E2D0F2DAF85B8
:104C6000A983BD85BA8315C09D850E94587E87FFA4
:104C700009C08091340281E090E090933F048093DA
:104C80003E04C4C01E2D0F2D2F8529833D853A83F8
:104C90001B820E94255B6B017C01DC01CB012C8116
:104CA0003D814E815F81821B930BA40BB50BB7FD39
:104CB00037C0D701C60188519C4FAF4FBF4F8C837F
:104CC0009D83AE83BF83BADEE6E4F0E18491DF0129
:104CD0001196BE87AD87882321F05ED5ED85FE85D0
:104CE000F5CF81149104A104B104B1F0D501C40140
:104CF0008053984FAF4FBF4FBC01CD016C197D0958
:104D00008E099F0928EE33E040E050E00E94468281
:104D1000CA01B90126D602C08FE33ED58AE03CD550
:104D20000E9468122ED52090AF0C3090B00CB0913C
:104D3000B10CBF872091B20C2D8791014B2F5D855F
:104D4000612F702F89819A810E9481829F778114BF
:104D50009104A104B10449F420E030E040E850E4BB
:104D60000E94587E87FF0BC008C020E030E040E47E
:104D700050E40E94A884181614F4460157013B81A0
:104D8000332361F1411451046104710441F0D701EE
:104D9000C60184199509A609B709B7FD1FC091017D
:104DA0004F855D8569857A858B859C850E9481828A
:104DB00020E030E040EC5FE30E94587E87FD59CF51
:104DC0002601370140E6440E4AEE541E611C711C58
:104DD00029863A865F855B878D858C878091340232
:104DE000882309F446CF81149104A104B10409F485
:104DF00009CF90EDC91A97E0D90AE108F108C8185F
:104E0000D908EA08FB08F7FE34CFFCCE2F960FB680
:104E1000F894DEBF0FBECDBFDF91CF911F910F91F0
:104E2000FF90EF90DF90CF90BF90AF909F908F90CA
:104E30007F906F905F904F903F902F9008958FB725
:104E4000F8949091180C2091170C921759F0E92FB3
:104E5000F0E0E956F44F208130E09F5F9F77909318
:104E6000180C02C02FEF3FEF8FBFC9010895FF92CA
:104E70000F931F93CF93DF93FC0120812B3319F104
:104E8000D091DF05D430F8F4F62EBC01C091400C6F
:104E90000C2F10E0F0E6CF9FC00111248F5B9B4FD9
:104EA0000E94AB85F801E551FA4FF082CF5FC43024
:104EB00018F4C093400C02C01092400CDF5FD093F6
:104EC000DF0581E001C080E0DF91CF911F910F915C
:104ED000FF9008952F923F924F925F926F927F9230
:104EE0008F929F92AF92BF92CF92DF92EF92FF92FA
:104EF0000F931F93CF93DF9300D000D0CDB7DEB7D1
:104F00009A8389830E94255BE981FA81C680D780D4
:104F1000E084F184C114D104E104F10409F0ACC2CD
:104F20002485222309F469C332852150248721E096
:104F3000230F22874585241301C01286E981FA8157
:104F400024E0329FE00DF11D1124C684D784E0884F
:104F5000F188E981FA81C282D382E482F582DC01A0
:104F6000CB018C0D9D1DA11DB11D86839783A0874C
:104F7000B18784819581892B09F43FC3FFB7FD83F5
:104F8000F894E981FA81228033802101612C712C0F
:104F90000481158180916A02833121F08F3F09F0ED
:104FA00068C205C0E9E7F9E124912E83DAC083E104
:104FB00080936A02E9E7F9E184918E838F3F09F4D7
:104FC00058C2823009F469C030F5882309F44CC016
:104FD000813009F0C6C0109280001092810080914B
:104FE000810088608093810080918100816080933E
:104FF0008100EAEBF8E1E491F0E0EE0FFF1FED58DD
:10500000F74E85919491E0E0F9E1E491E093280C6A
:10501000E1E0EE8330C19E81943009F482C008F44F
:1050200060C0953009F09DC01092200110922101BE
:10503000809121018860809321018091210181600C
:1050400080932101EAEBF8E1E491F0E0EE0FFF1F1D
:10505000ED58F74E85919491E0E0F9E1E491E09309
:10506000250C95E09E8307C114BC15BC84B58260F5
:1050700084BD85B5816085BDEAEBF8E1E491F0E09F
:10508000EE0FFF1FED58F74E85919491E0E0F9E1A6
:10509000E491E093290C1E82ABC21092B0001092F2
:1050A000B1008091B00082608093B0008091B10027
:1050B00081608093B100EAEBF8E1E491F0E0EE0F5B
:1050C000FF1FED58F74E859194919093D40D8093E6
:1050D000D30DE0E0F9E1E491E093D50DF2E0FE8339
:1050E00087C2109290001092910080919100886088
:1050F0008093910080919100816080939100EAEB10
:10510000F8E1E491F0E0EE0FFF1FED58F74E8591C6
:105110009491E0E0F9E1E491E093270C23E02E8301
:10512000AAC01092A0001092A1008091A1008860F6
:105130008093A1008091A10081608093A100EAEB9F
:10514000F8E1E491F0E0EE0FFF1FED58F74E859186
:105150009491E0E0F9E1E491E093260C84E08E8301
:105160008AC0EE81E7FD85C161E083E10E94EA59D2
:105170008E818D7F09F083C04801A12CB12C60E0A5
:1051800072E18AE790E0A50194010E946D85298370
:105190003A834B835C8369017A01F1E0CF1AD1082D
:1051A000E108F1082FEFC216D104E104F10409F07F
:1051B00008F44EC060E472E48FE090E0A501940131
:1051C0000E946D8569017A0181E0C81AD108E10861
:1051D000F1089E81923009F5EFEFCE16D104E1047B
:1051E000F10409F008F4CBC160E970ED83E090E0D0
:1051F000A50194010E946D8569017A01F1E0CF1A41
:10520000D108E108F1082FEFC216D104E104F1043E
:1052100011F008F041C183E027C08FEFC816D10418
:10522000E104F104B9F0B0F068E478EE81E090E0D8
:10523000A50194010E946D8569017A0191E0C91A66
:10524000D108E108F108EE81EE2309F49AC163C1A7
:1052500081E001C082E09E81911106C095B5987FE2
:10526000892B85BD7AC085E09091B100987F892B0C
:105270008093B10072C061E083E10E94EA59480165
:10528000A12CB12C60E072E18AE790E0A5019401C5
:105290000E946D8569017A01E1E0CE1AD108E1082A
:1052A000F108C114D104F1E0EF06F10488F068E4DC
:1052B00078EE81E090E0A50194010E946D8569017E
:1052C0007A0181E0C81AD108E108F10883E001C041
:1052D00081E09E81913071F490918100987F892BBB
:1052E00080938100452846284728D9F52FEF3FEFC6
:1052F000A90168C0EE81E33071F490919100987F2C
:10530000892B8093910045284628472851F52FEF97
:105310003FEFA90179C0FE81F43071F49091A100B2
:10532000987F892B8093A100452846284728C9F4F7
:105330002FEF3FEFA9017AC02E81253071F49091B3
:105340002101987F892B80932101452846284728F1
:1053500041F42FEF3FEFA9017BC04528462847289D
:1053600069F0D801AA0FBB1F91010E94728228EE3A
:1053700033E040E050E00E94468203C02FEF3FEF51
:10538000A9018E81823081F12CF4882361F0813073
:10539000C9F06FC09E81943009F448C0ACF19530DB
:1053A00009F456C066C0C7BC20933A0C30933B0C3E
:1053B00040933C0C50933D0C80916E008260809332
:1053C0006E0057C0D0928900C09288002093360C9E
:1053D0003093370C4093380C5093390C80916F0008
:1053E000826080936F0045C0C092B3002093D60DB9
:1053F0003093D70D4093D80D5093D90D8091700004
:1054000082608093700035C0D0929900C09298005D
:105410002093320C3093330C4093340C5093350C62
:105420008091710082608093710023C0D092A900A6
:10543000C092A80020932E0C30932F0C4093300C78
:105440005093310C8091720082608093720011C081
:10545000D0922901C092280120932A0C30932B0C62
:1054600040932C0C50932D0C80917300826080939C
:105470007300ED81EFBFC1C0DC01CB018C199D0928
:10548000AE09BF09B7FDB9C05A98E981FA81168201
:10549000178210861186B1C068E478EE81E090E052
:1054A000A50194010E946D8569017A01F1E0CF1A8E
:1054B000D108E108F1082FEFC216D104E104F1048C
:1054C00041F138F164E274EF80E090E0A5019401CD
:1054D0000E946D8569017A01F1E0CF1AD108E108D7
:1054E000F1082FEFC216D104E104F10409F008F429
:1054F000BACE62E17AE780E090E0A50194010E94D3
:105500006D8569017A0181E0C81AD108E108F108C6
:1055100019C084E0A9CE2FEFC216D104E104F10432
:1055200009F008F463C062E17AE780E090E0A50149
:1055300094010E946D8569017A01F1E0CF1AD108CA
:10554000E108F1082FEFC216D104E104F104A9F03B
:10555000A0F089819A81AB81BC812AE0B595A7959D
:10556000979587952A95D1F76C017D01F1E0CF1AC7
:10557000D108E108F10887E077CE86E075CE82E0B9
:1055800073CEEFEFCE16D104E104F10469F160F1BE
:1055900062E17AE780E090E0A50194010E946D85C8
:1055A00069017A0181E0C81AD108E108F1089FEF8A
:1055B000C916D104E104F104A9F0A0F089819A810F
:1055C000AB81BC813AE0B595A795979587953A95BB
:1055D000D1F76C017D01E1E0CE1AD108E108F108B4
:1055E00085E03CCE84E03ACE83E038CE84E033CE12
:1055F00061E083E10E94EA59BFCD26960FB6F89488
:10560000DEBF0FBECDBFDF91CF911F910F91FF90F5
:10561000EF90DF90CF90BF90AF909F908F907F9052
:105620006F905F904F903F902F90089526E13EE05D
:1056300042E15EE06EE07EE08AE09EE0BFC38091E2
:10564000000490910104009731F04AE050E060E0DE
:1056500070E00C94AC7B60E070E0CB010895EFDF6C
:1056600097FD0AC0ECDF6F3F71058105910509F0D8
:105670002CF4E5DF862F089580E008958FEF0895DC
:105680008091000490910104892B31F0E8DF91E0D2
:10569000811103C090E001C091E0892F08950F931C
:1056A0001F93CF938091000490910104009711F112
:1056B000FC018F01C1912C2F2F7DA9F0C53411F071
:1056C000C536B9F7F801108260E070E080910004FF
:1056D000909101040E94597AF801C083562F472FF8
:1056E000382F292F0BC060E070E0CF911F910F91F0
:1056F0000C94597A50E040E030E020E0652F742FA0
:10570000832F922FCF911F910F91089581548A3149
:1057100050F5482F50E0FA0193E0F595E7959A95FA
:10572000E1F7E459FC4F208130E0877002C03595E5
:1057300027958A95E2F7822F817020FF15C0FA0124
:10574000EE5AFC4F9081992339F020913704309123
:105750003804290F311D02C020E030E030930104ED
:1057600020930004089580E00895D0DF882341F05D
:1057700081E02091000430910104232B09F480E0A2
:1057800008950E94255B609370037093710380936A
:1057900072039093730308959091C00095FFFCCF1E
:1057A0008093C6000895BF92CF92DF92EF92FF924E
:1057B0000F931F93CF93DF93CDB7DEB76E970FB6DE
:1057C000F894DEBF0FBECDBF60913E0C70913F0CD0
:1057D0006115710551F14DE150E0CE0101967C015A
:1057E0000E94017E1E8EF7018F010E191F09B190D4
:1057F000BB2021F19AE0B912F7CF20C0B70181ECAC
:1058000090E10E949C1E82E2C7DF8AE0C5DFBB20D8
:1058100051F10F5F1F4F80913E0C90913F0C080F8C
:10582000191F10933F0C00933E0C81E020913E0C19
:1058300030913F0C232BD1F480E018C0F701E00F2A
:10584000F11F108260E0C70112DB882371F3EDE0E5
:10585000F6E084916F019FEFC91AD90A882371F28B
:105860009BDFF601F6CF00E010E0DBCF6E960FB6BF
:10587000F894DEBF0FBECDBFDF91CF911F910F9186
:10588000FF90EF90DF90CF90BF9008958F929F92FE
:10589000AF92BF92EF92FF920F931F93CF93DF933C
:1058A000CDB7DEB7A0970FB6F894DEBF0FBECDBF61
:1058B000611571058105910589F100E0842E912C17
:1058C000A12CB12C102FEE24E394F12CEC0EFD1E34
:1058D000E00EF11C07FDFA94A50194010E94468296
:1058E000F7016083B901CA010F5F61157105810578
:1058F000910541F71F3F21F1E1E0F0E0EC0FFD1FC2
:10590000E10FF11D17FDFA9580818A3010F097E3C1
:1059100001C090E3890F40DF1150ECCF80E3A096E7
:105920000FB6F894DEBF0FBECDBFDF91CF911F91B0
:105930000F91FF90EF90BF90AF909F908F902CCFE2
:10594000A0960FB6F894DEBF0FBECDBFDF91CF910A
:105950001F910F91FF90EF90BF90AF909F908F900D
:105960000895CF92DF92EF92FF926B017C0197FF37
:105970000AC08DE211DFF094E094D094C094C11C71
:10598000D11CE11CF11C4AE0C701B601FF90EF9069
:10599000DF90CF907BCFFF920F931F93CF93DF9336
:1059A000F82E092F162FE6ECF5E08491EF012196F1
:1059B000882319F0F1DEFE01F8CFEF2DF02F84914E
:1059C000EF012196882319F0E7DEFE01F8CF609100
:1059D0009203709193038091940390919503C1DF9A
:1059E0008AE0DADE11110E9466201092A60C109255
:1059F000A50CDF91CF911F910F91FF900895CF9249
:105A0000DF92EF92FF920F931F93CF93DF938091DA
:105A1000DF05843008F02AC12FB7F8948091170C65
:105A20009091180C2FBF891B8F7709F41FC107DADB
:105A30002091A50C3091A60C8A3019F08D3009F018
:105A4000E5C01092A70C2115310509F3F901EB5BB4
:105A5000F34F10821092A60C1092A50C25E43CE0A6
:105A6000E90188812F5F3F4F8032D1F38E3411F4EA
:105A70008E0102C000E010E06AE270E0CE010E94F8
:105A800097857C010115110509F470C064EF71E17F
:105A9000CE010E94107E6C01892B49F06EE470E00B
:105AA000CE0104960E949785009709F08C014AE088
:105AB00050E060E070E0C80101960E94AC7B60930A
:105AC000410C7093420C8093430C9093440C0091D2
:105AD00092031091930320919403309195030F5FEB
