:100000000C94A2140C94D3140C94D3140C94D31405
:100010000C94D3140C94D3140C94D3140C94D314C4
:100020000C94D3140C94D3140C94D3140C94D314B4
:100030000C94D3140C94F4580C94D3140C94D3143F
:100040000C94D3140C94861F0C94D3140C94D314D6
:100050000C94D3140C94D3140C94415C0C943B5B1F
:100060000C94D3140C94281E0C94D3140C94D31415
:100070000C94D3140C94D3140C94D3140C94D31464
:100080000C94F5270C94D3140C94D3140C94D3141F
:100090000C94D3140C94D3140C94D3140C94D31444
:1000A0000C94D3140C94D3140C94C7270C94D3142D
:1000B0000C94D3140C94D3140C94D3140C9499274B
:1000C0000C94D3140C94D3140C94D3140C94D31414
:1000D0000C94D3140C94D3140C94D3140C94D31404
:1000E0000C94D3143E584158305834583A587858E4
:1000F000455849584F58535857585D586158655896
:1001000078586B586F587358F559FA59FF59095A6E
:10011000135A8C5A1D5A255A2D5A375A415A4B5A3E
:100120005A5A645A8C5A6E5A785A825A084AD73B9D
:100130003BCE016E84BCBFFDC12F3D6C74319ABDB6
:1001400056833DDA3D00C77F11BED9E4BB4C3E91DA
:100150006BAAAABE000000803F05A84CCDB2D44EC9
:10016000B93836A9020C50B9918688083CA6AAAACB
:100170002ABE000000803F004E414E494E4954596E
:10018000494E46CDCCCC3D0AD7233C17B7D1387762
:10019000CC2B329595E6241FB14F0A000020410078
:1001A00000C84200401C4620BCBE4CCA1B0E5AAEC2
:1001B000C59D744C4556454C494E4700434F4D4DE7
:1001C000554E49434154494F4E0044525952554EA1
:1001D000004552524F525300494E464F0045434846
:1001E0004F0047322F473320626164207061726193
:1001F0006D65746572730A00205A3A200020593ADE
:10020000200042656420583A2000205B3031355D83
:100210002D5B31315D4D65736820706F696E7420A0
:1002200063616E6E6F74206265207265736F6C76A9
:1002300065640A002569730025696D2025697300CE
:100240002569682025696D2025697300256964206A
:100250002569682025696D20256973002569792045
:10026000256964202569682025696D20256973004A
:100270005072696E742074696D653A200050726F17
:100280007465637465642050696E0A00DD01D801ED
:10029000D101CA01BC01B3016F66660044454255F5
:1002A000473A004B494C4C45442E20004D313133E8
:1002B0002053006F6B0050533A300A0050533A31CC
:1002C0000A004361703A454D455247454E43595FD8
:1002D0005041525345523A300A004361703A43410B
:1002E00053455F4C494748545F4252494748544E32
:1002F0004553533A300A004361703A544F47474CD4
:10030000455F4C49474854533A300A004361703ABC
:10031000534F4654574152455F504F5745523A311B
:100320000A004361703A4C4556454C494E475F447C
:100330004154413A310A004361703A5A5F50524F7A
:1003400042453A310A004361703A4155544F4C4599
:1003500056454C3A310A004361703A5052494E5466
:100360005F4A4F423A310A004361703A50524F4758
:10037000524553533A300A004361703A4155544F45
:100380005245504F52545F54454D503A310A004344
:1003900061703A454550524F4D3A310A0046495234
:1003A0004D574152455F4E414D453A4D61726C6922
:1003B0006E20312E312E362E312E31202847697491
:1003C0006875622920534F555243455F434F44455A
:1003D0005F55524C3A68747470733A2F2F67697482
:1003E0006875622E636F6D2F4D616B657247656135
:1003F000722F6D336669726D776172652050524F4E
:10040000544F434F4C5F56455253494F4E3A312E4D
:1004100030204D414348494E455F545950453A4D6F
:10042000332053696E676C65204578747275646516
:10043000722052657620315F30303020455854525A
:10044000554445525F434F554E543A312055554916
:10045000443A63656465326132662D343161322D10
:10046000343734382D396231322D633535633632C5
:100470006633363766660A002F2F20005365747482
:10048000696E672054726176656C20416363656CA8
:1004900065726174696F6E3A200053657474696E99
:1004A00067205265747261637420416363656C6593
:1004B000726174696F6E3A200053657474696E6777
:1004C000205072696E7420416363656C657261745B
:1004D000696F6E3A200053657474696E67205072BC
:1004E000696E7420616E642054726176656C20417F
:1004F0006363656C65726174696F6E3A2000205A9F
:1005000000205900580020204D61783A2000205AE0
:1005100000205900580020204D696E3A20004F6E8F
:1005200020004F666600536F667420656E647374B6
:100530006F70733A2000000125301D0CFF24311C20
:100540000BFF232F1B051EFF0403080602FF222BAF
:100550001A41420338090636282945274443206FAB
:100560007574206F662072616E67650A005365724C
:10057000766F20003A200020536572766F200020AD
:10058000643A0020693A0020703A0043290A006169
:10059000626C656420286D696E2074656D70200042
:1005A000436F6C6420657874727564657320617242
:1005B000652000205B3031355D2D5B31315D4D654F
:1005C000736820706F696E742063616E6E6F742043
:1005D0006265207265736F6C7665640A004D343213
:1005E0003120696E636F727265637420706172612D
:1005F0006D657465722075736167650A00F628A6DB
:10060000C1000078C100000000546F6F2066617265
:100610002066726F6D207265666572656E63652017
:10062000706F696E740A003A20005761726E696ECD
:10063000673A205B3030335D2D5B31315D20507285
:100640006F6265204F6666736574284D38353129B1
:10065000206F7574206F662072616E6765202E0AA8
:10066000007A5F6D696E3A20202D33207A5F6D61CC
:10067000783A2020300A005A204F6666736574204D
:10068000004E6F2063617365206C696768740A00AF
:100690003C3C3C2067636F64655F540A00203A204D
:1006A00041465445520A00202063757272656E748B
:1006B0005F706F736974696F6E3D00437572726528
:1006C0006E7420546F6F6C2000203A204245464FD4
:1006D00052450A00202063757272656E745F706FF8
:1006E000736974696F6E3D003E3E3E2067636F64C0
:1006F000655F542800556E6B6E6F776E20636F6D6B
:100700006D616E643A202200205A3A0020593A0066
:1007100020583A00656E6473746F70732068697452
:100720003A20002C20002C2000203A2073796E63A0
:100730005F706C616E5F706F736974696F6E0A00D1
:10074000202063757272656E745F706F736974696F
:100750006F6E3D00656E7175657565696E67202207
:10076000004B494C4C45442E20004572726F723A42
:10077000205B3031345D2D5B31315D5072696E74B8
:1007800065722073746F7070656420647565207481
:100790006F206572726F72732E20466978207468BC
:1007A00065206572726F7220616E642075736520BA
:1007B0004D39393920746F20726573746172742EEB
:1007C000202854656D706572617475726520697357
:1007D0002072657365742E205365742069742061DE
:1007E000667465722072657374617274696E6729CC
:1007F0000A004E6F204C696E65204E756D62657201
:10080000207769746820636865636B73756D2C204D
:100810004C617374204C696E653A20004E6F204322
:100820006865636B73756D2077697468206C696E99
:1008300065206E756D6265722C204C617374204C5E
:10084000696E653A2000636865636B73756D206D32
:1008500069736D617463682C204C617374204C69FA
:100860006E653A20004C696E65204E756D6265724A
:10087000206973206E6F74204C617374204C696E14
:1008800065204E756D6265722B312C204C6173743E
:10089000204C696E653A20004D3131300020205BDC
:1008A0003031325D2D5B31315D496E76616C69644A
:1008B0002065787472756465722000F628A6C10000
:1008C0000078C100000000000053430000684300AE
:1008D0000054430A20736F66745F656E6473746FAF
:1008E000705F6D6178203D20000A20736F66745F31
:1008F000656E6473746F705F6D696E203D20000AD1
:1009000020706F736974696F6E5F736869667420B5
:100910003D200020617869733A0A20686F6D655F39
:100920006F6666736574203D2000466F7220002458
:10093000F4D43050C38E20C2A24017828B701112A3
:100940007A910D816CD90AA861E108C758660761E0
:100950005143061E4B5D05C145A7041A4111040908
:100960003D9803713931034036DB0265339102D47F
:10097000305402802E1D02632CEE01752AC501B091
:1009800028A001102781018F2564012B244B01E051
:10099000223401AC211F018D200D01801FFC008439
:1009A0001EED00971DDF00B81CD200E61BC600201C
:1009B0001BBC00641AB200B219A8000A19A0006A90
:1009C000189900D117910040178B00B5168400319B
:1009D000167E00B31579003A157300C7146F0058DE
:1009E000146A00EE1366008813630025135E00C7C7
:1009F000125B006C12570015125400C111510070A7
:100A0000114F0021114B00D61049008D10470046B0
:100A100010440002104200C00F4000800F3E004210
:100A20000F3C00060F3B00CB0E3800930E37005CE6
:100A30000E3500270E3400F30D3200C10D31009049
:100A40000D3000600D2E00320D2D00050D2C00D94B
:100A50000C2B00AE0C2900850C29005C0C270035FE
:100A60000C27000E0C2600E80B2400C40B2400A069
:100A70000B23007D0B23005A0B2100390B2100189A
:100A80000B2000F80A1F00D90A1E00BB0A1E009D99
:100A90000A1D00800A1D00630A1C00470A1B002C67
:100AA0000A1B00110A1A00F7091A00DD091900C40F
:100AB000091900AB091900920917007B0918006396
:100AC0000917004C09160036091600200916000AFD
:100AD000091500F5081500E0081400CC081400B84A
:100AE000081400A4081400900813007D0812006B7D
:100AF0000813005808120046081200340811002399
:100B00000811001208110001081100F0071000E0A0
:100B1000071000D0071000C0071000B0070F00A199
:100B200007100091070E0083070F0074070F006580
:100B3000070E0057070E0049070E003B070D002E59
:100B4000070E0020070D0013070D0006070D00F922
:100B5000060C00ED060D00E0060C00D4060C00C8E3
:100B6000060C00BC060C00B0060C00A4060B009995
:100B7000060C008D060B0082060B0077060B006C3E
:100B8000060B0061060A0057060B004C060A0042DD
:100B9000060A0038060A002E060A0024060A001A71
:100BA000060A001006090007060A00FD050900F400
:100BB000050900EB050900E2050900D9050900D087
:100BC000050900C7050900BE050900B5050800AD07
:100BD000050800A50509009C050800940508008C7F
:100BE000050800840508007C050800740508006CF1
:100BF000050700650508005D050700560508004E5D
:100C000005070047050700400508003805070031C3
:100C10000507002A050700230507001C0506001626
:100C20000507000F0507000805060002050700FB81
:100C3000040600F5040700EE040600E8040600E2DE
:100C4000040700DB040600D5040600CF040600C933
:100C5000040600C3040600BD040600B7040600B184
:100C6000040500AC040600A6040600A00405009BD1
:100C700004060095040500900406008A040500851A
:100C8000040500800406007A040500750405007060
:100C90000405006B04050066040500610405005CA2
:100CA00004050057040500520405004D04050048E2
:100CB000040500430405003E0404003A0405003521
:100CC000040500300404002C04050027040400235C
:100CD0000405001E0404001A040400160405001193
:100CE0000404000D040400090405000404040000C9
:100CF000040400FC030400F8030400F4030400F0FF
:100D0000030400EC030400E8030400E4030400E02F
:100D1000030400DC030400D8030400D4030400D05F
:100D2000030400CC030400C8030300C5030300242C
:100D3000F404D9201BC40C5C0E9804C4095F02653E
:100D4000077101F405F900FB04B30048048700C1F2
:100D50000369005803550003034500BE023A0084AE
:100D600002310053022A002902250004022000E477
:100D7000011C00C8011900AF01170098011400847C
:100D8000011300710110006101100051010E0043B8
:100D9000010D0036010B002B010B0020010B00158B
:100DA0000109000C01090003010800FB000800F321
:100DB000000800EB000700E4000600DE000600D893
:100DC000000600D2000600CC000500C7000500C2E6
:100DD000000500BD000400B9000400B5000400B126
:100DE000000400AD000400A9000400A5000300A257
:100DF0000003009F0004009B00030098000300957F
:100E000000020093000300900003008D0002008B9D
:100E100000030088000200860002008400030081B5
:100E20000002007F0002007D0002007B00020079CA
:100E300000020077000100760002007400020072D8
:100E4000000100710002006F0002006D0001006CE3
:100E50000002006A000100690002006700010066EC
:100E600000010065000100640002006200010061F1
:100E7000000100600001005F0002005D0001005CF5
:100E80000001005B0001005A0001005900010058F8
:100E900000010057000100560001005500010054F8
:100EA00000010053000000530001005200010051F6
:100EB000000100500001004F0001004E0000004EF4
:100EC0000001004D0001004C0001004B0000004BF0
:100ED0000001004A000100490001004800000048EC
:100EE00000010047000100460000004600010045E7
:100EF00000000045000100440001004300000043E1
:100F000000010042000000420001004100000041D9
:100F1000000100400001003F0000003F0001003ED2
:100F20000000003E0001003D0000003D0001003CCB
:100F30000000003C0000003C0001003B0000003BC2
:100F40000001003A0000003A0001003900000039B9
:100F500000010038000000380000003800010037B0
:100F600000000037000100360000003600000036A7
:100F7000000100350000003500000035000100349C
:100F80000000003400000034000100330000003392
:100F90000000003300010032000000320000003287
:100FA000000100310000003100000031000100307C
:100FB00000000030000000300001002F0000002F72
:100FC0000000002F0000002F0001002E0000002E66
:100FD0000000002E0001002D0000002D0000002D5B
:100FE0000000002D0001002C0000002C0000002C4F
:100FF0000000002C0001002B0000002B0000002B43
:101000000000002B0001002A0000002A0000002A36
:101010000000002A0001002900000029000000292A
:10102000000000290000002900010028000000281D
:101030000000002800000028000000280001002710
:101040000000002700000027000000270000002704
:1010500000010026000000260000002600000026F7
:1010600000000026000100250000002500000025EA
:1010700000000025000000250000002500010024DC
:1010800000000024000000240000002400000024D0
:1010900000010023000000230000002300000023C3
:1010A00000000023000000230000002300010022B4
:1010B00000000022000000220000002200000022A8
:1010C000000000220001002100000021000000219A
:1010D000000000210000002100000021000000218C
:1010E000000100200000002000000020000000207F
:1010F0000000002000000020000000200000002070
:101100000001001F0000001F0000001F0000001F62
:101110000000001F0000001F0000001F0001001E53
:101120000000001E0000001E0000001E0000006203
:101130007573793A2070617573656420666F7220EB
:10114000696E7075740A00627573793A2070617502
:1011500073656420666F7220757365720A0062752C
:1011600073793A2070726F63657373696E670A00F2
:101170004B494C4C45442E2000205B3031395D4BAF
:10118000494C4C2063617573656420627920746FEB
:101190006F206D75636820696E6163746976652080
:1011A00074696D65202D2063757272656E7420639D
:1011B0006F6D6D616E643A20004572726F723A20F5
:1011C0005B3031335D2D5B31315D5072696E74651A
:1011D000722068616C7465642E206B696C6C2829C0
:1011E0002063616C6C6564212054686520707269AD
:1011F0006E746572206973206E6F77206F66666CFF
:10120000696E6520616E642077696C6C206E6F7406
:1012100020726573706F6E6420756E74696C2072D5
:1012200065737461727465642E200A002020506C0E
:10123000616E6E6572427566666572427974657339
:101240003A20002046726565204D656D6F72793ACF
:101250002000436F6D70696C65643A204A756C209C
:10126000203120323032320A00207C2041757468EF
:101270006F723A204D47207C4A6F73682C204B795F
:101280006C652C2044617669642C2053616D0A00E2
:10129000323031372D31302D31302031323A30304B
:1012A00000204C61737420557064617465643A2049
:1012B00000312E312E362E312E310A004D61726CE6
:1012C000696E00205B3031315D2D5B315D20536FE5
:1012D0006674776172652052657365740A00205BDD
:1012E0003031305D2D5B31315D205761746368644E
:1012F0006F672052657365740A00205B3030395D7A
:101300002D5B31315D2042726F776E206F757420D6
:1013100052657365740A00205B3030385D2D5B3197
:10132000315D2045787465726E616C20526573651D
:10133000740A00506F77657255700A007374617299
:10134000740A003C3C3C205A5F534146455F484F7D
:101350004D494E470A005A2070726F6265206F75C2
:10136000742E206265640A00203A20626C6F636B01
:10137000206D6F766520616674657220756E706190
:10138000726B0A00202064657374696E6174696F02
:101390006E3D00203A205A5F534146455F484F4D0D
:1013A000494E473A0A00202064657374696E61747F
:1013B000696F6E3D00486F6D696E6720776974686C
:1013C000205A2070726F62652C20636865636B2001
:1013D000616E64206D6F766520746F6F6C310A00EA
:1013E0005A5F534146455F484F4D494E47203E3E68
:1013F0003E0A005761726E696E673A205B30303684
:101400005D2D5B31315D2043616E6E6F7420486FDE
:101410006D65205A207769746820756E6B6F6E77E2
:101420006E20582F592E20506C6561736520686FAF
:101430006D6520582F592066697273742E0A004713
:101440003238205A20466F7262696464656E0A0001
:10145000466F7263652054300A003C3C3C20676351
:101460006F64655F4732380A0047323920503300D5
:10147000543000203A203E2028686F6D655F616C13
:101480006C207C7C20686F6D655A29203E2066693F
:101490006E616C0A00202063757272656E745F70F5
:1014A0006F736974696F6E3D00203A203E20686F4B
:1014B0006D65590A00202063757272656E745F70E5
:1014C0006F736974696F6E3D00203A203E20686F2B
:1014D0006D65580A00202063757272656E745F70C6
:1014E0006F736974696F6E3D005261697365205A4C
:1014F00020286265666F726520686F6D696E672966
:1015000020746F20005261697365205A202862653B
:10151000666F726520686F6D696E672920746F2031
:101520000063757272656E745F706F736974696F52
:101530006E5B5A5F415849535D200064657374695E
:101540006E6174696F6E20003E20656E6473746F07
:1015500070732E656E61626C652874727565290AF8
:10156000003E3E3E2067636F64655F4732380A0085
:101570002044697363726570616E63793A00326EFC
:10158000642050726F6265205A3A00203A203C3C39
:101590003C2072756E5F7A5F70726F62650A002020
:1015A0002063757272656E745F706F736974696FB2
:1015B0006E3D003173742050726F6265205A3A009C
:1015C000203A203E3E3E2072756E5F7A5F70726FE9
:1015D00062650A00202063757272656E745F706FB9
:1015E000736974696F6E3D005761726E696E673A18
:1015F000205B3030375D2D5B31315D2050726F6282
:1016000065204661696C757265200A0050726F62D0
:10161000696E67206661696C65640A004572726F65
:10162000723A003C3C3C2070726F62655F70740AD5
:1016300000205A3A200020593A2000426564205880
:101640003A2000203A200A00202063757272656EED
:10165000745F706F736974696F6E3D0073746F7738
:10166000290A002C20002C20003E3E3E2070726F84
:1016700062655F7074280020746F6F206C6F6E67F6
:1016800020657874727573696F6E20707265766507
:101690006E7465640A0020636F6C642065787472F0
:1016A0007573696F6E2070726576656E7465640A15
:1016B00000205A3A0020593A0020436F756E74207A
:1016C000583A0020453A00205A3A0020593A00582A
:1016D0003A0020633A0020643A0020693A00207002
:1016E0003A004F66660A004661646520486569678E
:1016F00068742000426564204C6576656C696E678D
:1017000020004661696C656420746F20656E6162BB
:101710006C6520426564204C6576656C696E670A6D
:1017200000526573656E643A20006F6B00576172FA
:101730006E696E673A205B3030355D2D5B32325D0D
:101740002043616E6E6F74204578747275646520F5
:101750006E6F7265207468616E206D6D00576172E6
:101760006E696E673A205B3030355D2D5B31325DDE
:10177000204C656E6774687920457874727573695A
:101780006F6E2050726576656E7465640A00207411
:101790006F6F206C6F6E6720657874727573696FF8
:1017A0006E2070726576656E7465640A00576172AA
:1017B0006E696E673A205B3030345D2D5B33335D8C
:1017C0002048656174207570206578747275646551
:1017D00072206F7220757365204D3330320A0057C6
:1017E00061726E696E673A205B3030345D2D5B321A
:1017F000335D2043616E6E6F74204578747275643A
:101800006520756E6465722043005761726E696E63
:10181000673A205B3030345D2D5B31335D20436FA0
:101820006C6420457874727573696F6E20507265B0
:1018300076656E7465640A0020636F6C6420657859
:1018400074727573696F6E2070726576656E7465FB
:10185000640A003C3C3C20646F5F626C6F636B69A0
:101860006E675F6D6F76655F746F0A003E3E3E2067
:10187000646F5F626C6F636B696E675F6D6F7665D7
:101880005F746F00203A2073657475705F666F72C5
:101890005F656E6473746F705F6F725F70726F629A
:1018A000655F6D6F76650A00202063757272656EE4
:1018B000745F706F736974696F6E3D00203A2063C6
:1018C0006C65616E5F75705F61667465725F656E91
:1018D0006473746F705F6F725F70726F62655F6D5B
:1018E0006F76650A00202063757272656E745F7092
:1018F0006F736974696F6E3D007365745F626C74B9
:101900006F7563685F6465706C6F79656428004B00
:10191000494C4C45442E20004572726F723A205B50
:101920003030325D2D5B31315D2050726F62652049
:101930004465706C6F796D656E74204572726F725C
:101940003A20506C656173652072657374617274BE
:1019500020796F7572207072696E7465722E0A003C
:101960006572726F72206465746563746564206269
:101970006C20746F756368207365745F626C746F3C
:101980007563685F6465706C6F79656400205B30B7
:1019900031375D53544F502063616C6C6564206235
:1019A000656361757365206F6620424C546F756383
:1019B00068206572726F72202D2072657374617277
:1019C000742077697468204D3939390A004572727C
:1019D0006F72204465746563746564206F6E204285
:1019E0004C20546F7563682C20726574657374693C
:1019F0006E672070726F6265004572726F7220446C
:101A000065746563746564206F6E20424C20546F6A
:101A10007563682C20726574657374696E672070D5
:101A2000726F626500646F5F70726F62655F726192
:101A300069736528006465706C6F793A2000203AFC
:101A4000207365745F70726F62655F6465706C6F40
:101A50007965640A00202063757272656E745F7028
:101A60006F736974696F6E3D00203A203C3C3C20E6
:101A7000646F5F70726F62655F6D6F76650A0020DC
:101A80002063757272656E745F706F736974696FCD
:101A90006E3D00203A203E3E3E20646F5F70726FC4
:101AA00062655F6D6F76650A0020206375727265EE
:101AB0006E745F706F736974696F6E3D00726573E9
:101AC00065745F6265645F6C6576656C0A002028EA
:101AD000646F6E65290A004578747261706F6C617D
:101AE0007465205B004E414E005D5D3B004E414EF3
:101AF000005D20202C5B004E414E005D20202C5BC1
:101B000000203D205B5B0042696C696E656172205C
:101B10004C6576656C696E6720477269643A0A00A5
:101B200070012C0190012701B0012201C0011D01AB
:101B3000F00118011002130130020E0160020901C8
:101B400090020401C002FF000003FA004003F50008
:101B50008003F000D003EB002004E6007004E100F5
:101B6000E004DC004005D700C005D2004006CD00EF
:101B7000D006C8008007C3003008BE00F008B900D6
:101B8000C009B400B00AAF00B00BAA00D00CA50089
:101B9000000EA000500F9B00C01096005012910044
:101BA00000148C00C0158700B0178200B0197D00AA
:101BB000D01B7800001E730040206E009022690048
:101BC000F024640040275F0090295A00E02B550064
:101BD000102E500020304B0010324600E033410000
:101BE00090353C001037370070383200A0392D0096
:101BF000B03A2800A03B2300603C1E00103D1900B5
:101C0000903D1400103E0F00703E0A00C03E0500DB
:101C1000003F0000403FFBFF803FF6FFC03FF1FF69
:101C20004572723A204D494E54454D50204245442C
:101C3000004572723A204D494E54454D5000205B8C
:101C40003032345D2D5B31315D204D494E54454D70
:101C50005020747269676765726564004572723AF4
:101C6000204D415854454D50204245440045727224
:101C70003A204D415854454D5000205B3032335D81
:101C80002D5B31315D204D415854454D50207472CB
:101C90006967676572656400000021002400270001
:101CA0002A002D003000330001010000040107016B
:101CB0000A0100002200250028002B002E00310020
:101CC000340002010000050108010B0100002000A2
:101CD0002300260029002C002F0032000001000004
:101CE000030106010901050505050705080808089F
:101CF000020202020A0A08080404040401010101A4
:101D0000010101010303030303030303040707079E
:101D10000C0C0C0C0C0C0C0C020202020606060643
:101D2000060606060B0B0B0B0B0B0B0B0102102010
:101D30002008081020401020408002010201080401
:101D40000201010204081020408080402010080495
:101D500002018004020180402010080402010804EE
:101D60000201010204081020408001020408102032
:101D7000408000000A0B02090C0D0E080703040145
:101D80000000000000000000000000000000000053
:101D90000000000000000000000000000000121120
:101DA0001000000000000000000000000000000023
:101DB0000000000000000000023C3C3C20646F5F1B
:101DC000686F6D696E675F6D6F766528002C200007
:101DD0002C20003E3E3E20646F5F686F6D696E6729
:101DE0005F6D6F7665280041424C2041646A7573CF
:101DF000746D656E74205A002028656E61626C6592
:101E000064290A00202864697361626C6564290A88
:101E10000042494C494E454152004175746F204281
:101E20006564204C6576656C696E673A2000204ECB
:101E30006F7A7A6C65290A0020262041626F7665E8
:101E40000020262053616D65205A206173002026F2
:101E50002042656C6F77002D43656E7465720020BB
:101E600028526967687400205A3A0020593A005095
:101E7000726F6265204F666673657420583A00423F
:101E80004C544F5543480A0050726F62653A200027
:101E900043617274657369616E0A004D61636869BC
:101EA0006E6520547970653A200020706F736974F4
:101EB000696F6E206F7574206F662072616E676542
:101EC0002E0A003F50726F626520003C3C3C206748
:101ED000636F64655F4732390A0020636F72726511
:101EE00063746564205A3A0047323920756E636F17
:101EF00072726563746564205A3A00203A203E206D
:101F000070726F62696E6720636F6D706C65746567
:101F10000A00202063757272656E745F706F73695A
:101F200074696F6E3D0052756E6E696E6720696EE2
:101F3000204452592D52554E206D6F64650A00475A
:101F40003239204175746F20426564204C65766596
:101F50006C696E670A0028422961636B0028462974
:101F6000726F6E74002852296967687400284C29C2
:101F7000656674003F2856296572626F7365206C30
:101F80006576656C20697320696D706C6175736925
:101F9000626C652028302D34292E0A0042616420AD
:101FA0005A2076616C75650A004E6F2062696C6913
:101FB0006E65617220677269640A00203A203E3EB5
:101FC0003E2067636F64655F4732390A00202063F3
:101FD000757272656E745F706F736974696F6E3D50
:101FE00000290A002062797465733B2063726320C4
:101FF0000053657474696E67732053746F726564FF
:10200000202800202863616C63756C617465642905
:10201000210A0020213D2000454550524F4D2043CC
:102020005243206D69736D61746368202D2028739D
:10203000746F726564292000290A00206279746532
:10204000733B2063726320002073746F7265642099
:1020500073657474696E67732072657472696576EE
:102060006564202800204D61726C696E3D563431E4
:10207000290A0028454550524F4D3D0045455052D4
:102080004F4D2076657273696F6E206D69736D6157
:1020900074636820005374616E64617264204465E7
:1020A00076696174696F6E3A20002052616E6765CF
:1020B0003A2000204D61783A2000204D696E3A2088
:1020C000004D65616E3A200046696E69736865640B
:1020D000210A002072616E67653A2000206D6178E8
:1020E0003A2000206D696E3A2000207369676D61A7
:1020F0003A2000206D65616E3A20003A207A3A203D
:1021000000206F662000205A002059002058004708
:102110006F696E6720746F3A00436C6F636B776909
:1021200073650A00436F756E7465722D00204469F3
:1021300072656374696F6E3A2000202020616E67BB
:102140006C653A20005374617274696E6720726125
:10215000646975733A2000506F736974696F6E69B2
:102160006E67207468652070726F62652E2E2E0A6D
:10217000003F4E756D626572206F66206C656773F7
:1021800020696E206D6F76656D656E74206E6F745C
:1021900020706C61757369626C652028302D313553
:1021A000292E0A00590058003F53616D706C65205C
:1021B00073697A65206E6F7420706C6175736962E3
:1021C0006C652028342D3530292E0A004D343820F6
:1021D0005A2D50726F62652052657065617461623C
:1021E000696C69747920546573740A003F28562914
:1021F0006572626F7365206C6576656C206973200B
:10220000696D706C61757369626C652028302D345E
:10221000292E0A0048617264636F64656420446516
:102220006661756C742053657474696E6773204CB5
:102230006F616465640A00B0040000B00400000A25
:10224000000000D007000000009643000096430005
:1022500000A0410000F0413333A0423333A042CD0F
:10226000EC7B4400C0EB4320204D383531205A0030
:102270005A2D50726F6265204F6666736574202810
:102280006D6D293A0A0020440020490020204D337A
:102290003034205000204C002043002044002049CE
:1022A0000020204D333031205000504944207365C8
:1022B0007474696E67733A0A00205A0020204D3406
:1022C00032302053004175746F20426564204C65A4
:1022D00076656C696E673A0A00205A002059002022
:1022E000204D323036205800486F6D65206F66668D
:1022F0007365743A0A00204500205A0020590020D6
:10230000580020420020540020204D323035205308
:1023100000416476616E6365643A20533C6D696E7A
:102320005F66656564726174653E20543C6D696EDC
:102330005F74726176656C5F666565647261746511
:102340003E20423C6D696E5F7365676D656E745FBC
:1023500074696D655F6D733E20583C6D61785F7880
:10236000795F6A65726B3E205A3C6D61785F7A5F77
:102370006A65726B3E20453C6D61785F655F6A659A
:10238000726B3E0A0020540020520020204D323053
:1023900034205000416363656C65726174696F6ECF
:1023A0002028756E6974732F7332293A20503C705F
:1023B00072696E745F616363656C3E20523C726546
:1023C00074726163745F616363656C3E20543C7436
:1023D000726176656C5F616363656C3E0A002045DF
:1023E00000205A0020590020204D32303120580062
:1023F0004D6178696D756D20416363656C657261CF
:1024000074696F6E2028756E6974732F7332293A60
:102410000A00204500205A0020590020204D32306B
:10242000332058004D6178696D756D20666565646F
:1024300072617465732028756E6974732F73293AFD
:102440000A00204500205A0020590020204D393232
:1024500020580053746570732070657220756E6922
:10246000743A0A0020204D3230302044300A0020D7
:10247000204D3230302044002044697361626C6525
:10248000640A0046696C616D656E742073657474CE
:10249000696E67733A002020473231202020203BAC
:1024A00020556E69747320696E206D6D0A004B644F
:1024B000200023646566696E6520204445464155C9
:1024C0004C545F004B69200023646566696E65208B
:1024D0002044454641554C545F004B702000236416
:1024E0006566696E65202044454641554C545F0041
:1024F000504944204175746F74756E652066696E2D
:102500006973686564212050757420746865206C57
:10251000617374204B702C204B6920616E64204BDA
:102520006420636F6E7374616E74732066726F6D76
:102530002062656C6F7720696E746F20436F6E66E2
:10254000696775726174696F6E2E680A005049443C
:10255000204175746F74756E65206661696C656481
:10256000212074696D656F75740A005049442041DB
:1025700075746F74756E65206661696C6564212081
:1025800054656D706572617475726520746F6F202B
:10259000686967680A00204B643A2000204B693A5A
:1025A0002000204B703A20000A20436C617373694D
:1025B0006320504944200A002054753A2000204BE3
:1025C000753A2000206D61783A2000206D696E3ADE
:1025D000200020643A200020626961733A200006DE
:1025E00006FFFFFF00000202026265640A002C2061
:1025F00073797374656D2073746F707065642120D6
:102600004865617465725F49443A200048656174A9
:10261000696E67206661696C656400205B303231E9
:102620005D2D5B31315D2048656174696E672066A0
:1026300061696C6564202D20706C65617365206331
:102640006F6E7461637420737570706F727400487C
:10265000656174696E67206661696C656400205B02
:102660003032315D2D5B31315D2048656174696EBA
:1026700067206661696C6564202D20706C656173EC
:102680006520636F6E7461637420737570706F7210
:10269000740045323A200045313A200045303A2056
:1026A000005A3A2000593A2000583A20004D533140
:1026B0002C4D53322050696E730A005761726E6957
:1026C0006E673A205B3031325D2D5B31315D2049E0
:1026D0006E76616C69642045787472756465720AFF
:1026E000004163746976652045787472756465721B
:1026F0003A20002066697273740A005A0059005823
:1027000000486F6D6520006563686F3A0054484566
:10271000524D414C2052554E4157415900205B309B
:1027200032325D2D5B31315D20546865726D616CB4
:102730002052756E61776179202D20706C65617310
:102740006520636F6E7461637420737570706F724F
:1027500074003C3C3C207365745F617869735F6909
:10276000735F61745F686F6D652800203A200A000E
:10277000202063757272656E745F706F736974691F
:102780006F6E3D005D203D20003E20686F6D655FEF
:102790006F66667365745B003E207A70726F626567
:1027A0005F7A6F6666736574203D20002A2A2A20AE
:1027B0005A20484F4D454420574954482050524FC5
:1027C000424520285A5F4D494E5F50524F42455F67
:1027D000555345535F5A5F4D494E5F454E445354E0
:1027E0004F505F50494E29202A2A2A0A003E3E3E79
:1027F000207365745F617869735F69735F61745F8B
:10280000686F6D65280000004842000048420000E3
:102810008041000000005761726E696E673A20487F
:102820006F6D696E672042756D70204469766973BB
:102830006F72203C20310A00040406000040400072
:10284000004040000000401FC56743008077430000
:102850000054433C3C3C20686F6D65617869732887
:1028600000203A203E204146544552207365745F53
:10287000617869735F69735F61745F686F6D650A22
:1028800000202063757272656E745F706F73697477
:10289000696F6E3D00486F6D65203220536C6F7715
:1028A0003A0A004D6F766520417761793A0A00480F
:1028B0006F6D65203120466173743A0A00FFFFFF97
:1028C0003E3E3E20686F6D65617869732800205B2D
:1028D0003031365D2D5B31315D4572726F7220771C
:1028E000726974696E6720746F20454550524F4D70
:1028F000210A007A5F6D61783A20007A5F6D696E17
:102900003A2000795F6D696E3A2000785F6D696EDC
:102910003A20005265706F7274696E6720656E644C
:1029200073746F70207374617475730A00202F00C4
:102930002042403A0020403A0020573A0020573ABF
:10294000000053AD11241FBECFEFD1E2DEBFCDBFDB
:1029500000E00CBF13E0A0E0B2E0E8ECF3E701E038
:102960000BBF02C007900D92A037B107D9F72FE037
:10297000A0E7B3E001C01D92AD3BB207E1F714E15F
:10298000C2EAD4E100E006C021970109802FFE01D0
:102990000E94ABB9C13AD10780E00807A9F70E94AD
:1029A00061960C94E2B90C9400008FB7F894909162
:1029B000C40C2091C30C921759F0E92FF0E0ED5BA5
:1029C000F34F208130E09F5F9F779093C40C02C04B
:1029D0002FEF3FEF8FBFC9010895FF920F931F9311
:1029E000CF93DF93FC0120812B3319F1D0910C069A
:1029F000D430F8F4F62EBC01C0912B060C2F10E059
:102A0000F0E6CF9FC001112482599B4F0E94CDB99F
:102A1000F801E453F44FF082CF5FC43018F4C09350
:102A20002B0602C010922B06DF5FD0930C0681E0CC
:102A300001C080E0DF91CF911F910F91FF90089529
:102A40002F923F924F925F926F927F928F929F92BE
:102A5000AF92BF92CF92DF92EF92FF920F931F93AC
:102A6000CF93DF9300D000D0CDB7DEB79A838983B0
:102A70000E942F5BE981FA81C680D780E084F184CF
:102A8000C114D104E104F10409F0ACC2248522236D
:102A900009F469C332852150248721E0230F22875E
:102AA0004585241301C01286E981FA8124E0329F12
:102AB000E00DF11D1124C684D784E088F188E981F6
:102AC000FA81C282D382E482F582DC01CB018C0DD3
:102AD0009D1DA11DB11D86839783A087B187848129
:102AE0009581892B09F43FC3FFB7FD83F894E981F1
:102AF000FA81228033802101612C712C048115819F
:102B000080914202833121F08F3F09F068C205C0F5
:102B1000E8EBFDE124912E83DAC083E18093420249
:102B2000E8EBFDE184918E838F3F09F458C2823037
:102B300009F469C030F5882309F44CC0813009F0EC
:102B4000C6C0109280001092810080918100886040
:102B50008093810080918100816080938100E9EF02
:102B6000FCE1E491F0E0EE0FFF1FEE54F34E85918F
:102B70009491EFE3FDE1E491E0931506E1E0EE834B
:102B800030C19E81943009F482C008F460C0953051
:102B900009F09DC010922001109221018091210125
:102BA00088608093210180912101816080932101BF
:102BB000E9EFFCE1E491F0E0EE0FFF1FEE54F34E7D
:102BC00085919491EFE3FDE1E491E093120695E0A5
:102BD0009E8307C114BC15BC84B5826084BD85B5D5
:102BE000816085BDE9EFFCE1E491F0E0EE0FFF1FAD
:102BF000EE54F34E85919491EFE3FDE1E491E0937F
:102C000016061E82ABC21092B0001092B1008091E5
:102C1000B00082608093B0008091B10081608093A9
:102C2000B100E9EFFCE1E491F0E0EE0FFF1FEE549C
:102C3000F34E8591949190932A0D8093290DEFE3A3
:102C4000FDE1E491E0932B0DF2E0FE8387C2109248
:102C50009000109291008091910088608093910083
:102C600080919100816080939100E9EFFCE1E49113
:102C7000F0E0EE0FFF1FEE54F34E85919491EFE3D9
:102C8000FDE1E491E093140623E02E83AAC01092A4
:102C9000A0001092A1008091A10088608093A10003
:102CA0008091A10081608093A100E9EFFCE1E491B3
:102CB000F0E0EE0FFF1FEE54F34E85919491EFE399
:102CC000FDE1E491E093130684E08E838AC0EE81F7
:102CD000E7FD85C161E083E10E9492598E818D7F7D
:102CE00009F083C04801A12CB12C60E072E18AE7B1
:102CF00090E0A50194010E9474B629833A834B8326
:102D00005C8369017A01F1E0CF1AD108E108F1088A
:102D10002FEFC216D104E104F10409F008F44EC00B
:102D200060E472E48FE090E0A50194010E9474B623
:102D300069017A0181E0C81AD108E108F1089E8191
:102D4000923009F5EFEFCE16D104E104F10409F059
:102D500008F4CBC160E970ED83E090E0A501940137
:102D60000E9474B669017A01F1E0CF1AD108E10836
:102D7000F1082FEFC216D104E104F10411F008F0BC
:102D800041C183E027C08FEFC816D104E104F104EC
:102D9000B9F0B0F068E478EE81E090E0A50194012C
:102DA0000E9474B669017A0191E0C91AD108E1085C
:102DB000F108EE81EE2309F49AC163C181E001C0FC
:102DC00082E09E81911106C095B5987F892B85BDC3
:102DD0007AC085E09091B100987F892B8093B100F3
:102DE00072C061E083E10E9492594801A12CB12C8C
:102DF00060E072E18AE790E0A50194010E9474B658
:102E000069017A01E1E0CE1AD108E108F108C114A4
:102E1000D104F1E0EF06F10488F068E478EE81E097
:102E200090E0A50194010E9474B669017A0181E0E5
:102E3000C81AD108E108F10883E001C081E09E8151
:102E4000913071F490918100987F892B809381005B
:102E5000452846284728D9F52FEF3FEFA90168C03C
:102E6000EE81E33071F490919100987F892B8093EB
:102E7000910045284628472851F52FEF3FEFA9013B
:102E800079C0FE81F43071F49091A100987F892B74
:102E90008093A100452846284728C9F42FEF3FEF2B
:102EA000A9017AC02E81253071F490912101987F7B
:102EB000892B8093210145284628472841F42FEF8C
:102EC0003FEFA9017BC045284628472869F0D80173
:102ED000AA0FBB1F91010E94A0B628EE33E040E08C
:102EE00050E00E9452B603C02FEF3FEFA9018E8140
:102EF000823081F12CF4882361F08130C9F06FC0F9
:102F00009E81943009F448C0ACF1953009F456C064
:102F100066C0C7BC20932706309328064093290635
:102F200050932A0680916E00826080936E0057C095
:102F3000D0928900C0928800209323063093240603
:102F4000409325065093260680916F0082608093FF
:102F50006F0045C0C092B30020932C0D30932D0D0F
:102F600040932E0D50932F0D8091700082608093BE
:102F7000700035C0D0929900C092980020931F062F
:102F800030932006409321065093220680917100D1
:102F900082608093710023C0D092A900C092A800E3
:102FA00020931B0630931C0640931D0650931E066B
:102FB0008091720082608093720011C0D0922901CA
:102FC000C0922801209317063093180640931906E3
:102FD00050931A0680917300826080937300ED8194
:102FE000EFBFC1C0DC01CB018C199D09AE09BF093F
:102FF000B7FDB9C05A98E981FA8116821782108606
:103000001186B1C068E478EE81E090E0A5019401FA
:103010000E9474B669017A01F1E0CF1AD108E10883
:10302000F1082FEFC216D104E104F10441F138F1A7
:1030300064E274EF80E090E0A50194010E9474B610
:1030400069017A01F1E0CF1AD108E108F1082FEF08
:10305000C216D104E104F10409F008F4BACE62E129
:103060007AE780E090E0A50194010E9474B66901BE
:103070007A0181E0C81AD108E108F10819C084E09A
:10308000A9CE2FEFC216D104E104F10409F008F42F
:1030900063C062E17AE780E090E0A50194010E94BC
:1030A00074B669017A01F1E0CF1AD108E108F1089C
:1030B0002FEFC216D104E104F104A9F0A0F0898138
:1030C0009A81AB81BC812AE0B595A79597958795A4
:1030D0002A95D1F76C017D01F1E0CF1AD108E10802
:1030E000F10887E077CE86E075CE82E073CEEFEF11
:1030F000CE16D104E104F10469F160F162E17AE7EE
:1031000080E090E0A50194010E9474B669017A0103
:1031100081E0C81AD108E108F1089FEFC916D1046F
:10312000E104F104A9F0A0F089819A81AB81BC810E
:103130003AE0B595A795979587953A95D1F76C01A3
:103140007D01E1E0CE1AD108E108F10885E03CCE2E
:1031500084E03ACE83E038CE84E033CE61E083E190
:103160000E949259BFCD26960FB6F894DEBF0FBECF
:10317000CDBFDF91CF911F910F91FF90EF90DF9026
:10318000CF90BF90AF909F908F907F906F905F9007
:103190004F903F902F9008958091290490912A0498
:1031A000009731F04AE050E060E070E00C94B8AF76
:1031B00060E070E0CB010895EFDF97FD0AC0ECDF1F
:1031C0006F3F71058105910509F02CF4E5DF862F2D
:1031D000089580E008958FEF0895809129049091DB
:1031E0002A04892B31F0E8DF91E0811103C090E0DF
:1031F00001C091E0892F08950F931F93CF93809181
:10320000290490912A04009711F1FC018F01C191CA
:103210002C2F2F7DA9F0C53411F0C536B9F7F80170
:10322000108260E070E08091290490912A040E944D
:1032300065AEF801C083562F472F382F292F0BC0BA
:1032400060E070E0CF911F910F910C9465AE50E05B
:1032500040E030E020E0652F742F832F922FCF9134
:103260001F910F91089581548A3150F5482F50E0F5
:10327000FA0193E0F595E7959A95E1F7E657FC4F4B
:10328000208130E0877002C0359527958A95E2F756
:10329000822F817020FF15C0FA01E059FC4F908108
:1032A000992339F02091650430916604290F311D6E
:1032B00002C020E030E030932A04209329040895CE
:1032C00080E00895D0DF882341F081E02091290437
:1032D00030912A04232B09F480E008950E942F5B8B
:1032E00060938E0370938F03809390039093910368
:1032F00008959091C00095FFFCCF8093C60008957B
:103300004F925F926F927F92AF92BF92CF92DF9275
:10331000EF92FF920F931F93CF93DF938C01EC01F9
:10332000CC0FDD1FCC0FDD1F9E012A56324F5901F5
:1033300020E030E0A901F5016081718182819381F3
:103340000E94B0B69E012E553C4F6901F9012081C3
:103350003181428153810E94B0B62B013C01FE01B4
:10336000E450F44F6083718382839383FE01E554BC
:10337000F74F2591359145915491CE01875A9B4F36
:103380007C01C301B2010E94B0B6F7016083718372
:1033900082839383FE01E953F74F2591359145913F
:1033A0005491CA5FDD4FC301B2010E94B0B6688379
:1033B00079838A839B838091B20E85FF3BC0F8019D
:1033C000E95AFD4F60818AE299E00E947628F50172
:1033D000408151816281738183E199E00E9440289C
:1033E000F60140815181628173818FEF98E00E94E4
:1033F0004028F701408151816281738189EE98E014
:103400000E944028488159816A817B8183ED98E040
:103410000E9440288AE0DF91CF911F910F91FF9089
:10342000EF90DF90CF90BF90AF907F906F905F90C4
:103430004F905FCFDF91CF911F910F91FF90EF9051
:10344000DF90CF90BF90AF907F906F905F904F9044
:103450000895BF92CF92DF92EF92FF920F931F9346
:10346000CF93DF93CDB7DEB76E970FB6F894DEBF7C
:103470000FBECDBF6091E90B7091EA0B611571052C
:1034800051F14DE150E0CE0101967C010E940DB258
:103490001E8EF7018F010E191F09B190BB2021F17B
:1034A0009AE0B912F7CF20C0B70184E597E00E94F7
:1034B000A43982E21EDF8AE01CDFBB2051F10F5FDE
:1034C0001F4F8091E90B9091EA0B080F191F109381
:1034D000EA0B0093E90B81E02091E90B3091EA0BB4
:1034E000232BD1F480E018C0F701E00FF11F108208
:1034F00060E0C70172DA882371F3E7E0F7E28491B4
:103500006F019FEFC91AD90A882371F2F2DEF60122
:10351000F6CF00E010E0DBCF6E960FB6F894DEBF7A
:103520000FBECDBFDF91CF911F910F91FF90EF9014
:10353000DF90CF90BF9008958F929F92AF92BF92ED
:10354000EF92FF920F931F93CF93DF93CDB7DEB728
:10355000A0970FB6F894DEBF0FBECDBF6115710501
:103560008105910589F100E0842E912CA12CB12CCC
:10357000102FEE24E394F12CEC0EFD1EE00EF11C56
:1035800007FDFA94A50194010E9452B6F7016083E9
:10359000B901CA010F5F611571058105910541F7F8
:1035A0001F3F21F1E1E0F0E0EC0FFD1FE10FF11D05
:1035B00017FDFA9580818A3010F097E301C090E3FF
:1035C000890F97DE1150ECCF80E3A0960FB6F894E8
:1035D000DEBF0FBECDBFDF91CF911F910F91FF9046
:1035E000EF90BF90AF909F908F9083CEA0960FB634
:1035F000F894DEBF0FBECDBFDF91CF911F910F9129
:10360000FF90EF90BF90AF909F908F900895EF92B2
:10361000FF920F931F93CF93DF937C0184E552DEDB
:10362000D82F882321F1C8DDC82F1816E4F4E7E06D
:10363000F7E284918F010F5F1F4F882319F059DE45
:10364000F801F7CF8DE455DEB70180E090E04AE065
:1036500073DF6C2FCC0F770B8DE998E00E945D280B
:103660008AE047DE08C080935804D0E004C080910F
:10367000B30E809358048D2FDF91CF911F910F913E
:10368000FF90EF900895CF92DF92EF92FF926B013F
:103690007C0197FF0AC08DE22CDEF094E094D09478
:1036A000C094C11CD11CE11CF11C4AE0C701B60149
:1036B000FF90EF90DF90CF903FCFFF920F931F933B
:1036C000CF93DF93F82E092F162FECE1F6E18491CA
:1036D000EF012196882319F00CDEFE01F8CFEF2DC3
:1036E000F02F8491EF012196882319F002DEFE016C
:1036F000F8CF6091B8037091B9038091BA039091AB
:10370000BB03C1DF8AE0F5DD11110E94F84E109273
:10371000910610929006DF91CF911F910F91FF902B
:103720000895CF92DF92EF92FF920F931F93CF9362
:10373000DF9380910C06843008F01CC136D99C01BF
:1037400097FD18C1982FC0919006D09191068A30AC
:1037500019F09D3009F0E3C010929206209749F3CA
:10376000C05DD94F1882109291061092900620E306
:1037700036E0E90188812F5F3F4F8032D1F38E34EC
:1037800011F48E0102C000E010E06AE270E0CE01A8
:103790000E94B9B97C010115110509F470C068E9EE
:1037A00078E0CE010E941CB26C01892B49F06EE4D6
:1037B00070E0CE0104960E94B9B9009709F08C011F
:1037C0004AE050E060E070E0C80101960E94B8AFA6
:1037D00060932C0670932D0680932E0690932F06EF
:1037E0000091B8031091B9032091BA033091BB0343
:1037F0000F5F1F4F2F4F3F4F6017710782079307CF
:1038000031F0CD2821F461E085E698E03DC0E11477
:10381000F10401F180E010E0FE01E80FF11D90815C
:103820009A3219F08F5F1927F7CF4AE050E060E035
:1038300070E0C70101960E94B8AF012F10E020E0B0
:1038400030E0601771078207930741F061E086E47A
:1038500098E01AC061E08CE198E016C080912C06D7
:1038600090912D06A0912E06B0912F068093B8035B
:103870009093B903A093BA03B093BB030EC0892BF6
:1038800061F060E082EF97E0DF91CF911F910F919F
:10389000FF90EF90DF90CF9010CF809112028111B6
:1038A0001CC067E470E0CE010E94B9B90097A9F08E
:1038B0004AE050E060E070E001960E94B8AF6430EA
:1038C000710558F4EAE6F7E084918F010F5F1F4F0E
:1038D000882319F00EDDF801F7CF62EC72E0CE011B
:1038E0000E94C4B9892B11F41092130267EC72E0A4
:1038F000CE010E94C4B9892B21F481E697E00E9491
:10390000D82B6CEC72E0CE010E94C4B9892B11F463
:103910000E94C94F61E080E396E05FD80ACFCF35BF
:10392000D1050CF006CF9C3591F43FD897FD01CF1F
:10393000209192062111FDCE9E012F5F3F4F3093C3
:10394000910620939006C05DD94F8883F2CE9B33B9
:1039500019F481E080939206809192068111E9CE5C
:10396000CE0101969093910680939006C05DD94F49
:103970002883DFCEDF91CF911F910F91FF90EF90C1
:10398000DF90CF9008958F929F92AF92BF92CF9287
:10399000DF92EF92FF92CF936B017C01B42E20E077
:1039A00030E0A9010E9464B287FF06C08DE2A1DC6D
:1039B000F7FAF094F7F8F094C0E060E070E080E08F
:1039C0009FE3CB1541F02DEC3CEC4CEC5DE30E9409
:1039D000C9B2CF5FF6CF9B01AC01C701B6010E940F
:1039E000B0B66B017C010E94F9B74B015C014AE063
:1039F000A3DDCC2379F1C501B4010E9468B29B011B
:103A0000AC01C701B6010E94AFB66B017C018EE22A
:103A100070DC20E030E040E251E4C701B6010E94D2
:103A2000C9B24B015C010E94F4B76B01770FEE083D
:103A3000FF08C701B60127DEC701B6010E946AB2BE
:103A40009B01AC01C501B4010E94AFB66B017C01C2
:103A5000C150F9F6CF91FF90EF90DF90CF90BF90DB
:103A6000AF909F908F9008954F925F926F927F9248
:103A70008F929F92AF92BF92CF92DF92EF92FF927E
:103A80000F931F93CF93DF9300D000D0CDB7DEB755
:103A90004B0129013A01E982FA820B831C83FC0164
:103AA00084919F012F5F3F4F3E832D83882321F018
:103AB00020DCED81FE81F4CF88E21BDC42E0C30113
:103AC000B20161DF49815A816B817C8186E297E096
:103AD0000E944028B601A50183E297E00E94402899
:103AE00089E207DC8114910449F0F40184913FEFED
:103AF000831A930A8823D1F0FCDBF7CF8AE026965D
:103B00000FB6F894DEBF0FBECDBFDF91CF911F91EE
:103B10000F91FF90EF90DF90CF90BF90AF909F906C
:103B20008F907F906F905F904F90E3CB26960FB66B
:103B3000F894DEBF0FBECDBFDF91CF911F910F91E3
:103B4000FF90EF90DF90CF90BF90AF909F908F90BD
:103B50007F906F905F904F900895AF92BF92CF92F9
:103B6000DF92EF92FF920F931F93FA01A084B1842A
:103B7000C284D384E480F58006811781208131815D
:103B80004281538171DF1F910F91FF90EF90DF9081
:103B9000CF90BF90AF9008950F931F93CF93DF9373
:103BA000CDB7DEB72C970FB6F894DEBF0FBECDBFF2
:103BB0008091B20E85FF07C048E05CE069E277E0E3
:103BC00080E497E0CADF8091100C9091110CA091D5
:103BD000120CB091130C40910C0C50910D0C609193
:103BE0000E0C70910F0C0091080C1091090C209193
:103BF0000A0C30910B0C09831A832B833C834D8371
:103C00005E836F83788789879A87AB87BC87AE018D
:103C1000475F5F4FBE016B5F7F4FCE0101960E94F1
:103C2000E08E24E13CE0AE01475F5F4FBE016B5F79
:103C30007F4FCE0101960E946A3A2C960FB6F894F7
:103C4000DEBF0FBECDBFDF91CF911F910F910895C1
:103C50001F920F920FB60F9211240BB60F922F9353
:103C60008F939F93EF93FF93E091C30C81E08E0FAE
:103C70008F779091C6002091C40C821731F0F0E04C
:103C8000ED5BF34F90838093C30CFF91EF919F9175
:103C90008F912F910F900BBE0F900FBE0F901F9022
:103CA0001895CF92DF92EF92FF920F931F93CF93CD
:103CB000DF936C018B017A01EC01C955D44F8881E7
:103CC00087FF04C0FB011182108224C02CE02C9DD0
:103CD000C0012D9D900D11242881AC01420F511D72
:103CE00027FD5A952091730F30E04217530794F443
:103CF0002881AC01420F511D27FD5A959A01FA0106
:103D0000EE0FFF1F2E0F3F1FF901E95FF04F2081DB
:103D100026FD19C088818F5F88832CE02C9DC0010F
:103D20002D9D900D11242881AC01420F511D27FDBE
:103D30005A952091730F30E042175307BCF4288145
:103D40002C3044F113C02881820F911D27FD9A95D4
:103D5000FC01EE0FFF1F8E0F9F1FFC01E95FF04F6C
:103D6000808160E08F730E94C658D4CFF8018081B3
:103D70009181049680349C4918F480E49CE904C045
:103D8000F801808191810496F701918380838FEF00
:103D9000888345C0F801408151812881BC01620FB0
:103DA000711D27FD7A959B01FB01EE0FFF1F2E0F62
:103DB0003F1FF901E95FF04F21813281240F351F48
:103DC000F701318320832881AC01420F511D27FD6B
:103DD0005A959A01FA01EE0FFF1F2E0F3F1FF901AE
:103DE000E95FF04F208126FF1AC02881820F911DC4
:103DF00027FD9A95FC01EE0FFF1F8E0F9F1FFC0100
:103E0000E95FF04F808161E08F73DF91CF911F9167
:103E10000F91FF90EF90DF90CF900C94C658DF91F8
:103E2000CF911F910F91FF90EF90DF90CF90089569
:103E30008091A30B9FB780FF09C0F89480910B017C
:103E40008D7F80930B019FBF8FEF08C0F894809106
:103E50000B01826080930B019FBF81E0809314026D
:103E60008091A30B9FB781FF09C0F89480910B014B
:103E7000816080930B019FBF8FEF08C0F894809101
:103E80000B018E7F80930B019FBF81E08093150211
:103E90008091A30B9FB782FF09C0F89480910B011A
:103EA000846080930B019FBF8FEF08C0F8948091CE
:103EB0000B018B7F80930B019FBF81E080931602E3
:103EC0008091A30B9FB783FF09C0F89480910B01E9
:103ED0008F7B80930B019FBF8FEF08C0F894809178
:103EE0000B01806480930B019FBF81E080931702D8
:103EF00008959091050F8091060F981731F08091E9
:103F0000060F8F5F8F708093060F08951F920F9298
:103F10000FB60F9211240BB60F92BF92CF92DF9281
:103F2000EF92FF920F931F932F933F934F935F93C3
:103F30006F937F938F939F93AF93BF93EF93FF9371
:103F4000CF93DF9300D000D0CDB7DEB780916E0065
:103F50008B7F80936E0080916F008D7F80936F00C8
:103F60007894C090C80BD090C90BE090CA0BF09029
:103F7000CB0BC114D104E104F10409F442C08091D7
:103F8000FB0B811104C08091A60B8823D1F10E9404
:103F90008491F9EBCF16FBE0DF06E104F10488F031
:103FA00008EBC01A0BE0D00AE108F108C092C80B78
:103FB000D092C90BE092CA0BF092CB0B88EB9BE03E
:103FC00009C0C6011092C80B1092C90B1092CA0BFF
:103FD0001092CB0B909389008093880020918800E9
:103FE0003091890080918400909185004096281737
:103FF000390708F063C08091840090918500409655
:1040000013C08091A40B9091A50B009709F48BC06D
:1040100001979093A50B8093A40B1092B10E109270
:10402000B00E67DF88EC90E0909389008093880061
:1040300045C089819A810E949F8824E630E0809162
:10404000FB0B882309F4A4C4C901293BBBE03B074F
:1040500008F0DCC590938900809388008091BA0BAA
:104060009091BB0BA091BC0BB091BD0B820F931F25
:10407000A11DB11D8093BA0B9093BB0BA093BC0BF9
:10408000B093BD0B2091880030918900809184000D
:104090009091850040962817390748F48091840054
:1040A0009091850040969093890080938800BB2072
:1040B00029F01092B10E1092B00E1BDFF89480918F
:1040C000280D882321F080916E008B7F03C08091A2
:1040D0006E00846080936E0080916F008260809398
:1040E0006F0026960FB6F894DEBF0FBECDBFDF91EE
:1040F000CF91FF91EF91BF91AF919F918F917F9160
:104100006F915F914F913F912F911F910F91FF9070
:10411000EF90DF90CF90BF900F900BBE0F900FBE2F
:104120000F901F901895E091B00EF091B10E30975E
:1041300009F096C19091050F8091060F981759F0DC
:10414000E091060F11E5E19FF0011124ED56F94FC2
:10415000808188608083F093B10EE093B00E309739
:1041600009F47BC152A18091A30B418158130AC06D
:10417000242F30E080911802082E000C990B28178C
:10418000390729F05093A30B4093180251DE109287
:10419000C40B1092C50B1092C60B1092C70BE09186
:1041A000B00EF091B10E87A990AD81342CE9920741
:1041B00028F481323EE4930748F002C080E49CE991
:1041C000969587959695879524E007C0813147E2BB
:1041D000940730F09695879522E02093C30B08C092
:1041E00021E02093C30B8032910510F480E290E02F
:1041F0008C01005211091A830983011528E0120766
:10420000E8F0E12FFF27EE0FFF1FEE0FFF1FCF019A
:10421000815D924FFC01329645915491AA27059FEA
:104220009001049F210D3A1F06942A1F3A1F112462
:10423000FC0185919491821B930B22C089819A8104
:10424000969587958C7F815D964FFC0125913491E1
:10425000FC0132964591549169817A816770772784
:10426000649FC001659F900D749F900D112443E0E1
:10427000969587954A95E1F7A901481B590BCA0104
:104280008436910578F401ED12E0D8018D918D010D
:10429000882311F02ED8F9CF89819A810E949F88B6
:1042A00084E690E09093C20B8093C10B8091C30B86
:1042B0008093C00BE091B00EF091B10E83AD94AD40
:1042C0009093BF0B8093BE0B8134BCE99B0728F40D
:1042D0008132EEE49E0748F002C080E49CE99695A6
:1042E00087959695879524E007C08131F7E29F076F
:1042F00030F09695879522E02093C30B08C021E00B
:104300002093C30B8032910510F480E290E08C0181
:10431000005211091A830983011528E01207E8F0F9
:10432000E12FFF27EE0FFF1FEE0FFF1FCF01815D73
:10433000924FFC01329645915491AA27059F900116
:10434000049F210D3A1F06942A1F3A1F1124FC01D5
:1043500085919491821B930B22C089819A819695B5
:1043600087958C7F815D964FFC0125913491FC01EE
:1043700032964591549169817A8167707727649F5D
:10438000C001659F900D749F900D112463E0969578
:1043900087956A95E1F7A901481B590BCA01843634
:1043A000910580F401ED12E0D8018D918D018823F3
:1043B00019F00E947919F8CF89819A810E949F880B
:1043C00084E690E0AC0160E070E04093BA0B50935B
:1043D000BB0B6093BC0B7093BD0B909389008093D3
:1043E0008800E091B00EF091B10E82899389A48982
:1043F000B589B695A79597958795B095A095909511
:1044000081959F4FAF4FBF4F8093B60B9093B70BE3
:10441000A093B80BB093B90B8093B20B9093B30BEE
:10442000A093B40BB093B50B8093AE0B9093AF0BEE
:10443000A093B00BB093B10B8093AA0B9093AB0BEE
:10444000A093AC0BB093AD0B1092AC0E1092AD0ECE
:104450001092AE0E1092AF0E03C080ED97E0E4CD47
:104460008091FB0B8111CFC38091A60B8111CBC32F
:104470002091C30B222309F4A1C1E091B00EF09169
:10448000B10E42815381648175818091AA0B909114
:10449000AB0BA091AC0BB091AD0B840F951FA61F79
:1044A000B71F8093AA0B9093AB0BA093AC0BB09368
:1044B000AD0B181619061A061B060CF4409AE0916B
:1044C000B00EF091B10E4681578160857185809163
:1044D000AE0B9091AF0BA091B00BB091B10B840FCC
:1044E000951FA61FB71F8093AE0B9093AF0BA093A1
:1044F000B00BB093B10B181619061A061B060CF474
:10450000419AE091B00EF091B10E428553856485D9
:1045100075858091B20B9091B30BA091B40BB091C3
:10452000B50B840F951FA61FB71F8093B20B9093F6
:10453000B30BA093B40BB093B50B181619061A065B
:104540001B060CF4429AE091B00EF091B10E468534
:104550005785608971898091B60B9091B70BA091B6
:10456000B80BB091B90B840F951FA61FB71F80938E
:10457000B60B9093B70BA093B80BB093B90B18166A
:1045800019061A061B060CF4439A8091AA0B909107
:10459000AB0BA091AC0BB091AD0B181619061A0617
:1045A0001B0684F5E091B00EF091B10E428953895B
:1045B00064897589841B950BA60BB70B8093AA0B96
:1045C0009093AB0BA093AC0BB093AD0B8091140206
:1045D00040919203509193036091940370919503DD
:1045E000082E000C990BAA0BBB0B840F951FA61F5E
:1045F000B71F8093920390939303A0939403B09377
:10460000950340988091AE0B9091AF0BA091B00BA9
:10461000B091B10B181619061A061B0684F5E09125
:10462000B00EF091B10E4289538964897589841B5B
:10463000950BA60BB70B8093AE0B9093AF0BA0938B
:10464000B00BB093B10B809115024091960350913D
:1046500097036091980370919903082E000C990BB1
:10466000AA0BBB0B840F951FA61FB71F8093960341
:1046700090939703A0939803B093990341988091E6
:10468000B20B9091B30BA091B40BB091B50B18166F
:1046900019061A061B0684F5E091B00EF091B10ED2
:1046A0004289538964897589841B950BA60BB70BC6
:1046B0008093B20B9093B30BA093B40BB093B50B54
:1046C0008091160240919A0350919B0360919C0344
:1046D00070919D03082E000C990BAA0BBB0B840F45
:1046E000951FA61FB71F80939A0390939B03A093D7
:1046F0009C03B0939D0342988091B60B9091B70BA9
:10470000A091B80BB091B90B181619061A061B0622
:1047100084F5E091B00EF091B10E4289538964891D
:104720007589841B950BA60BB70B8093B60B9093E2
:10473000B70BA093B80BB093B90B809117024091BF
:104740009E0350919F036091A0037091A103082ED6
:10475000000C990BAA0BBB0B840F951FA61FB71F4C
:1047600080939E0390939F03A093A003B093A10313
:1047700043988091AC0E9091AD0EA091AE0EB09189
:10478000AF0E0196A11DB11D8093AC0E9093AD0E9E
:10479000A093AE0EB093AF0E2150E091B00EF09109
:1047A000B10E428953896489758984179507A607D4
:1047B000B70708F45FCEBB24B39401C0B12CE091DD
:1047C000B00EF091B10E8091AC0E9091AD0EA09113
:1047D000AE0EB091AF0E46895789608D718D481726
:1047E00059076A077B0708F4D9C04091BA0B50916A
:1047F000BB0B6091BC0B7091BD0B068D178D20A17A
:1048000031A1AA27419FB12D529FC001629F900DF7
:10481000619F800D911D429FB00D811D9A1F519F78
:10482000B00D811D9A1F609FB00D811D9A1F509F72
:10483000B10D8A1F9A1FB6958A1F9A1F349F800D4B
:10484000911D359F900D112423AD34AD820F931F20
:104850009093BF0B8093BE0B47A950AD61AD72AD75
:10486000A0E0B0E0481759076A077B0720F450938F
:10487000BF0B4093BE0BE091BE0BF091BF0BFA83D0
:10488000E983E1340CE9F00720F4E132FE4478F0EA
:1048900004C020E43CE93A83298349815A81569532
:1048A0004795569547955A83498384E00BC0898183
:1048B0009A818131A7E29A0740F0969587959A836D
:1048C000898382E08093C30B0BC081E08093C30B8C
:1048D000E981FA81B09720F400E210E01A8309839D
:1048E00009811A81005211091A830983011528E0F0
:1048F0001207E8F0E12FFF27EE0FFF1FEE0FFF1F5B
:10490000CF01815D924FFC01329625913491AA2707
:10491000039FA001029F410D5A1F06944A1F5A1F70
:104920001124FC0125913491241B350B20C0898171
:104930009A81969587958C7F815D964FFC01259194
:104940003491FC0132964591549169817A81677066
:104950007727649FC001659F900D749F900D11246F
:10496000B3E096958795BA95E1F7281B390B243665
:10497000310508F064CBF1EDEF2EF2E0FF2ED70108
:104980008D917D01882309F454CB0E947919F7CFCA
:104990008091A60B811158CBC9015CCB8091AC0EE4
:1049A0009091AD0EA091AE0EB091AF0E428D538D91
:1049B000648D758D481759076A077B0708F0F0C0AA
:1049C0000091C40B1091C50B2091C60B3091C70B01
:1049D00009831A832B833C83468D578D60A171A177
:1049E000AA27059FB12D169F7001269FF00C259FC9
:1049F000E00CF11C069FB00DE11CFA1E159FB00DD6
:104A0000E11CFA1E249FB00DE11CFA1E149FB10D8B
:104A1000EA1EFA1EB695EA1EFA1E709FE00CF11C03
:104A2000719FF00C11248091BE0B9091BF0BFF96EB
:104A3000E816F90680F48E199F0940815181628140
:104A400073816C01E12CF12CC416D506E606F7063D
:104A500020F4CA0102C08081918181341CE9910750
:104A600028F481322EE4920748F002C080E49CE9E9
:104A7000969587959695879524E007C0813137E212
:104A8000930730F09695879522E02093C30B08C0DA
:104A900021E02093C30B8032910510F480E290E076
:104AA0008C01005211091E830D83011528E01207A5
:104AB000E8F0E12FFF27EE0FFF1FEE0FFF1FCF01E2
:104AC000815D924FFC01329625913491AA27039F74
:104AD000A001029F410D5A1F06944A1F5A1F11241C
:104AE000FC0125913491241B350B20C08D819E81C2
:104AF000969587958C7F815D964FFC012591349129
:104B0000FC013296459154916D817E8167707727C3
:104B1000649FC001659F900D749F900D112443E028
:104B2000969587954A95E1F7281B390B2436310570
:104B300090F481EDE82E82E0F82ED7018D917D0171
:104B4000882319F00E947919F8CF8D819E810E94E7
:104B50009F8824E630E08091FB0B811104C0809196
:104B6000A60B882339F0C901293BBBE03B0708F0BD
:104B700068C001C0C9019093890080938800898131
:104B80009A81AB81BC81820F931FA11DB11D8093BF
:104B9000C40B9093C50BA093C60BB093C70B72CAFE
:104BA0002091C10B3091C20B8091FB0B811104C08D
:104BB0008091A60B8823F1F0293BEBE03E07D0F073
:104BC000C90168EB7BE00E9484B9883E43E094070A
:104BD00008F052C08854944FA901481B590B60E05B
:104BE00070E04093C80B5093C90B6093CA0B70934D
:104BF000CB0B9C0130938900209388008091C00BDF
:104C00008093C30B3FCA0E94849132CC68EB7BE057
:104C10000E9484B9883E03E0900780F48854944F42
:104C2000A901481B590B60E070E04093C80B5093FA
:104C3000C90B6093CA0B7093CB0B0CCA88EB9BE03B
:104C4000EFCF68EB7BE00E9484B9883E13E09107C8
:104C500080F48854944FA901481B590B60E070E020
:104C60004093C80B5093C90B6093CA0B7093CB0B46
:104C700082CF88EB9BE0EFCF88EB9BE0ADCFCF936B
:104C8000DF93EC012881243208F05BC030E0161677
:104C9000170664F4F901EE0FFF1FE20FF31FE95F3F
:104CA000F04F6F739081907C692B6083F901EE0F58
:104CB000FF1F2E0F3F1FF901E95FF04F808161E078
:104CC0008F730E94925919821A8288816CE00E9427
:104CD00078B99CE0899FB001112440E050E09B012D
:104CE000240F351FF901EE0FFF1F2E0F3F1FF90193
:104CF000E95FF04F908196FD16C04F5F5F4F4C30DB
:104D0000510569F781111FC01092900082E08093D5
:104D100091001092950010929400C19A80917100B8
:104D20008260809371008881E82FF0E09F01220F5C
:104D3000331FE20FF31FE95FF04F9081906490837F
:104D40001FC08FEF1DC0813069F41092A00082E077
:104D50008093A1001092A5001092A40089BB8093BB
:104D60007200E1CF8230F9F6109220018093210188
:104D700010922501109224018ABB80937300D3CF37
:104D8000DF91CF9108954F925F926F927F928F92B1
:104D90009F92AF92BF92EF92FF920F931F93CF9388
:104DA000DF9300D000D0CDB7DEB78C017B0186E069
:104DB000EBE5F2E0DE01119601900D928A95E1F7A4
:104DC00060E070E0C8015BDF87FD9EC080E2E8160E
:104DD00082E0F8060CF043C0F801828128E532E059
:104DE000281B310987FD3395220F331F220F331FF4
:104DF0002901330F66087708818128E830E04901EE
:104E0000881A910887FD9394880C991C880C991C2A
:104E1000092C000CAA08BB08F7FC0BC0B701653BC6
:104E2000710514F064EB70E0072E000C880B990BF1
:104E300003C060E070E0CB01A30192012819390999
:104E40004A095B090E9443B624EB30E040E050E0A1
:104E50000E9474B6820E931EA41EB51E7401F80142
:104E60002081243278F5318188E890E0831B910914
:104E700037FD9395880F991F880F991FE816F9063B
:104E800084F0F801328188E592E0831B910937FDB7
:104E90009395880F991F880F991FE816F9060CF44F
:104EA000C70102974FB7F89430E0F901EE0FFF1FEA
:104EB0002E0F3F1FF901E95FF04F880F991F928372
:104EC00081834FBFF8018081FE013196E80FF11D0B
:104ED000E80FF11D6081718180E090E026960FB6A9
:104EE000F894DEBF0FBECDBFDF91CF911F910F9120
:104EF000FF90EF90BF90AF909F908F907F906F90BA
:104F00005F904F900C94F75A26960FB6F894DEBF38
:104F10000FBECDBFDF91CF911F910F91FF90EF900A
:104F2000BF90AF909F908F907F906F905F904F90C9
:104F300008951F920F920FB60F9211240BB60F9285
:104F40002F933F934F935F936F937F938F939F9391
:104F5000AF93BF93EF93FF9348E251E064E271E0B7
:104F600082E090E00E94511EFF91EF91BF91AF91BE
:104F70009F918F917F916F915F914F913F912F9171
:104F80000F900BBE0F900FBE0F901F9018951F92A1
:104F90000F920FB60F9211240BB60F922F933F93DF
:104FA0004F935F936F937F938F939F93AF93BF9331
:104FB000EF93FF9348EA50E064EA70E081E090E00C
:104FC0000E94511EFF91EF91BF91AF919F918F91E0
:104FD0007F916F915F914F913F912F910F900BBEF9
:104FE0000F900FBE0F901F9018951F920F920FB643
:104FF0000F9211240BB60F922F933F934F935F9311
:105000006F937F938F939F93AF93BF93EF93FF9390
:1050100048E950E064E970E080E090E00E94511EB1
:10502000FF91EF91BF91AF919F918F917F916F9180
:105030005F914F913F912F910F900BBE0F900FBE3C
:105040000F901F901895CF92DF92EF92FF92CF931F
:10505000DF936A017B01FC018491EF012196882393
:1050600021F00E947919FE01F7CF4AE0C701B6018D
:10507000DF91CF91FF90EF90DF90CF900C949C1A2E
:10508000CF92DF92EF92FF92CF93DF936A017B0181
:10509000FC018491EF012196882321F00E94791967
:1050A000FE01F7CF42E0C701B601DF91CF91FF903B
:1050B000EF90DF90CF900C94C31C0F931F93CF936E
:1050C000DF938B01FC018491EF012196882321F06D
:1050D0000E947919FE01F7CFB801110F880B990BC7
:1050E000DF91CF911F910F910C94431B1F93CF938E
:1050F000DF93162FFC018491EF012196882321F084
:105100000E947919FE01F7CF812FDF91CF911F9176
:105110000C947919CF92DF92EF92FF920F931F9325
:10512000CF93DF9300D01F92CDB7DEB79D9AA5989D
:1051300082E08093C0001092C50080E18093C4009B
:105140008091C10080618093C1008091C10088601E
:105150008093C1008091C10080688093C100ECE31E
:10516000F3E184918F010F5F1F4F882321F00E948C
:105170007919F801F6CFE7E0F7E284918F010F5F2C
:105180001F4F882321F00E947919F801F6CF14B738
:1051900010FF0DC0E3E3F3E184917F012FEFE21AEA
:1051A000F20A882321F00E947919F701F5CF11FF47
:1051B0000DC0E7E1F3E184917F013FEFE31AF30AC9
:1051C000882321F00E947919F701F5CF12FF0DC055
:1051D000EAEFF2E184917F019FEFE91AF90A88234F
:1051E00021F00E947919F701F5CF13FF0DC0EEED04
:1051F000F2E184917F012FEFE21AF20A882321F075
:105200000E947919F701F5CF15FF0CC0E3ECF2E12C
:1052100084918F010F5F1F4F882321F00E9479191D
:10522000F801F6CF14BEECEBF2E184918F010F5F31
:105230001F4F882321F00E947919F801F6CF80E2F0
:105240000E947919E1EBF2E184918F010F5F1F4F0A
:10525000882321F00E947919F801F6CF8AE00E9494
:105260007919E7E0F7E284918F010F5F1F4F8823E0
:1052700021F00E947919F801F6CFE1EAF2E1849178
:105280008F010F5F1F4F882321F00E947919F801C9
:10529000F6CFE0E9F2E184918F010F5F1F4F882381
:1052A00021F00E947919F801F6CFE9E6F2E1849144
:1052B0008F010F5F1F4F882321F00E947919F80199
:1052C000F6CFE7E0F7E284918F010F5F1F4F88234D
:1052D00021F00E947919F801F6CFE2E5F2E184911C
:1052E0008F010F5F1F4F882321F00E947919F80169
:1052F000F6CFE7E0F7E284918F010F5F1F4F88231D
:1053000021F00E947919F801F6CF8091B70F9091A2
:10531000B80F8E010F5F1F4F009721F4C8018D5BFE
:105320009F4004C0F801E81BF90BCF019A838983E1
:1053300069817A8183E492E1C0DE60E175E08CE20C
:1053400092E1BBDE8AE00E94791981E08093CC0B68
:105350008093CD0B8093CE0B8093CF0B0E948368FC
:105360008CE0E6E9FDE0A8E0BCE001900D928A95B2
:10537000E1F70E94CC1D109247041092480410924D
:10538000490410924A0480910101806480930101D4
:10539000809101018061809301016D9A80910101EA
:1053A0008062809301016C9A87ED80937A0010925D
:1053B0007E0010927D0080917E00816080937E004F
:1053C00080917E00846080937E00809101018860DE
:1053D0008093010180E888BD80916E008460809395
:1053E0006E006AEF70E080E090E00E94F75A85E07E
:1053F00090E09093B30D8093B20D60E080913C02F9
:1054000090913D020E94A75B20E030E040EA50E42A
:105410000E9464B287FF0AC080913C0290913D02D5
:10542000409790933D0280933C02E7CF81E391E067
:10543000909346028093450260E08091230D909105
:10544000240D0E94A75B20E030E848E953E40E9465
:10545000D6B8181654F48091230D9091240D4096DF
:105460009093240D8093230DE7CF80913A02909181
:105470003B020E94AF5E20E030E040EA50E40E9430
:1054800064B287FF0AC080913A0290913B02409734
:1054900090933B0280933A02E8CF8091210D909146
:1054A000220D0E94AF5E20E030E046E153E40E940E
:1054B000D6B8181654F48091210D9091220D409683
:1054C0009093220D8093210DE8CF1092200D98E249
:1054D00088E10FB6F894A895809360000FBE909372
:1054E0006000FFB6F8948091E40B811127C0EBE1D6
:1054F000FDE18491E1E6FDE19491E82FF0E0EE0F0B
:10550000FF1FE856F34EA591B491EC91E92321F4E5
:1055100061E085E30E94C65861E085E30E949259EC
:105520008CB580618CBD8CB580648CBD61E084E3FA
:105530000E94925961E083E30E9492598091E40BAA
:105540008F5F8093E40BFFBE579A71E6C72E72E01F
:10555000D72EF12CF60161916F0170E08F2D0E9422
:105560002288F394F5E0FF12F5CF999A989A8091EA
:1055700007018068809307019A9A809107018064EF
:1055800080930701809107018062809307018091D9
:1055900007018860809307018091070180618093F3
:1055A00007018091070182608093070180910701C4
:1055B0008460809307013D9A80910A018062809304
:1055C0000A0166E6C62E62E0D62EF12CF601619144
:1055D0006F018F2D0E94FC87F394F5E0FF12F6CF48
:1055E00080910A01826080930A0180910A018160A2
:1055F00080930A0180910A01846080930A0180915E
:105600000A01806480930A0180910A018068809376
:105610000A01099A0F9A179A0E9A169A0D9A159AD4
:105620000C9A149A0B9A139A089A109A26982E9A02
:1056300025982D9A6B98739A3F98479A389A409874
:10564000179A1092E60B399A4198169A1092E70B26
:105650003A9A4298159A1092E80B3B9A4398149AFA
:105660003C9A44983E9A4698809180008C7F809323
:10567000800080918100877E886080938100809186
:1056800080008F738093800080918100887F82608A
:105690008093810080E090E490938900809388005B
:1056A000109285001092840080916F008260809338
:1056B0006F0081E08093FB0B78940E94181F66E1D5
:1056C00070E084E79FE0DBDAE091740FF0E0CF0157
:1056D000880F991FE80FF91FE95FF04F80818F7BDA
:1056E000808364E070E087E79FE0C9DAE091770F9C
:1056F000F0E0CF01880F991FE80FF91FE95FF04F25
:1057000080818F7B808368E170E08AE79FE0B7DA71
:10571000E0917A0FF0E0CF01880F991FE80FF91F91
:10572000E95FF04F80818F7B80836AE570E087E7D7
:105730009FE029DB1092A60B80EA90E00E94E153E3
:1057400081E00E94EB5380E00E94EB5383E992E0FA
:105750009C838B8358ECE52EF12CFA82E982BE0102
:105760006D5F7F4FC8010E9426358AEB92E09C83D3
:105770008B83FA82E982BE016D5F7F4FC8010E9470
:1057800026350F900F900F900F90DF91CF911F91C2
:105790000F91FF90EF90DF90CF900895179AE6EE6B
:1057A000FBE01082169A1182159A1282149A0895BB
:1057B000ECE1F6E18491EF012196882321F00E942B
:1057C0007919FE01F7CFE9EBF1E18491EF01219620
:1057D000882321F00E947919FE01F7CF0E94865E8E
:1057E000DDDF2FEF8BE49DE1215080409040E1F719
:1057F00000C00000F8942FEF84E39CE0215080402B
:105800009040E1F700C000000E94865E9D98A89538
:10581000FECF4F925F926F927F928F929F92AF9244
:10582000BF92CF92DF92EF92FF920F931F93CF938D
:10583000DF930E942F5B6B017C0180910002882323
:1058400009F465C080916C0490916D04009709F48F
:105850005EC04091D00B5091D10B6091D20B7091F2
:10586000D30B97018601041B150B260B370B37FD55
:1058700061C08330910509F130F4019708F447C005
:10588000E7E0F7E206C0049709F041C0E7E0F7E27D
:105890002AC08491EF012196882321F00E94791972
:1058A000FE01F7CFEEE5F1E18491EF012196882327
:1058B00071F10E947919FE01F7CFE7E0F7E28491D8
:1058C000EF012196882321F00E947919FE01F7CF7C
:1058D000E7E4F1E18491EF0121968823C1F00E9471
:1058E0007919FE01F7CF8491EF012196882321F0E9
:1058F0000E947919FE01F7CFEFE2F1E18491EF0107
:105900002196882321F00E947919FE01F7CF20917A
:10591000000230E0A8EEB3E00E94A0B6C60ED71E8B
:10592000E81EF91EC092D00BD092D10BE092D20BA0
:10593000F092D30B8091C203882391F00E942F5BD9
:105940000091BE031091BF032091C0033091C103A9
:10595000DC01CB01801B910BA20BB30BB7FF2DC257
:1059600080910C06843030F40E94291A811102C003
:105970000E94911B0E942F5BC090D403D090D5034E
:10598000E090D603F090D703C114D104E104F104F0
:1059900069F100918E0310918F0320919003309153
:1059A00091030C0D1D1D2E1D3F1D6B017C01C01AA6
:1059B000D10AE20AF30AF7FC19C0ECE1F6E184919E
:1059C000EF012196882321F00E947919FE01F7CF7B
:1059D000609165047091660489E791E10E94A439A1
:1059E0008AE00E94791980E791E1E2DEC090D0035D
:1059F000D090D103E090D203F090D303C114D1042E
:105A0000E104F104D9F000918E0310918F032091ED
:105A10009003309191030C0D1D1D2E1D3F1DDC01C7
:105A2000CB01801B910BA20BB30BB7FD07C090916C
:105A3000050F8091060F981709F4DCC1D091CA03B5
:105A4000C091CE039091050F8091060F9817E1F059
:105A5000E091060F81E58E9FF0011124E652F94F87
:105A6000D0819091060FE091060F8E9FF0011124D6
:105A7000E252F94FC0818091060F9091050F98175F
:105A800019F08F5F8F70F9CFDD2331F10E942F5B0A
:105A90000091D80B1091D90B2091DA0B3091DB0BD0
:105AA000DC01CB01011511052105310569F48C5983
:105AB0009F4FAF4FBF4F8093D80B9093D90BA093BC
:105AC000DA0BB093DB0B06C0801B910BA20BB30B60
:105AD000B7FF0AC0DFEF08C01092D80B1092D90BA5
