:100000000C942B170C945C170C945C170C945C17D5
:100010000C945C170C945C170C945C170C945C1794
:100020000C945C170C945C170C945C170C945C1784
:100030000C945C170C9479430C945C170C945C172B
:100040000C945C170C94CA300C945C170C945C17DD
:100050000C945C170C945C170C947F470C9475A956
:100060000C945C170C94C3220C945C170C945C17D2
:100070000C945C170C945C170C945C170C945C1734
:100080000C946A390C945C170C945C170C945C17F4
:100090000C945C170C945C170C945C170C945C1714
:1000A0000C945C170C945C170C943C390C945C1702
:1000B0000C945C170C945C170C945C170C940E3920
:1000C0000C945C170C945C170C945C170C945C17E4
:1000D0000C945C170C945C170C945C170C945C17D4
:1000E0000C945C17B339B639A539A939AF39ED3954
:1000F000BA39BE39C439C839CC39D239D639DA39E6
:10010000ED39E039E439E839314835485E4862482C
:1001100044484F481B482DA832A837A841A84BA8EF
:10012000C4A855A85DA865A86FA879A883A892A8B7
:100130009CA8C4A8A6A8B0A8BAA8084AD73B3BCE9A
:10014000016E84BCBFFDC12F3D6C74319ABD5683D6
:100150003DDA3D00C77F11BED9E4BB4C3E916BAA8E
:10016000AABE000000803F05A84CCDB2D44EB938DD
:1001700036A9020C50B9918688083CA6AAAA2ABEC4
:10018000000000803F000C9479A80C94BA390C94BC
:1001900031480C94E0390C942BC10C94C4A80C94F5
:1001A000ED390C944BA80C94A6A80C94A9390C9486
:1001B000C4390C942DA80C94CC390C94DA390C94D5
:1001C000B0A80C94BAA80C94B6390C9441A80C941D
:1001D000E4390C9465A80C944F480C94AF390C94F6
:1001E00037A80C945E480C94BE390C9444480C9487
:1001F00032A80C94A5390C94B3390C94D6390C94CC
:10020000D2390C9483A80C941B480C94A9170C9415
:100210005DA80C949CA80C9435480C9455A80C949B
:100220006FA80C94C8390C9492A80C94E8390C94DB
:1002300062484E414E494E495459494E46CDCCCC68
:100240003D0AD7233C17B7D13877CC2B329595E6AA
:10025000241FB14F0A000020410000C84200401C8A
:100260004620BCBE4CCA1B0E5AAEC59D744C4556AA
:10027000454C494E4700434F4D4D554E494341541F
:10028000494F4E0044525952554E004552524F521A
:100290005300494E464F004543484F0047322F47D1
:1002A000332062616420706172616D657465727380
:1002B0000A00205A3A200020593A20004265642062
:1002C000583A2000205B3031355D2D5B31315D4D7A
:1002D00065736820706F696E742063616E6E6F74F1
:1002E000206265207265736F6C7665640A0025690B
:1002F000730025696D2025697300256968202569CB
:100300006D202569730025696420256968202569A9
:100310006D20256973002569792025696420256988
:10032000682025696D20256973005072696E7420FC
:1003300074696D653A200050726F7465637465640A
:100340002050696E0A00970292028B0284027602A4
:100350006D026F66660044454255473A004B494C72
:100360004C45442E20004D3131332053006F6B003B
:1003700050533A300A0050533A310A004361703A00
:10038000454D455247454E43595F504152534552A2
:100390003A300A004361703A434153455F4C494744
:1003A00048545F4252494748544E4553533A300AE5
:1003B000004361703A544F47474C455F4C494748AA
:1003C00054533A300A004361703A534F46545741F0
:1003D00052455F504F5745523A310A004361703AD7
:1003E0004C4556454C494E475F444154413A310AC9
:1003F000004361703A5A5F50524F42453A310A0009
:100400004361703A4155544F4C4556454C3A310A78
:10041000004361703A5052494E545F4A4F423A315C
:100420000A004361703A50524F47524553533A3095
:100430000A004361703A4155544F5245504F52544F
:100440005F54454D503A310A004361703A4545507A
:10045000524F4D3A310A004649524D574152455F7D
:100460004E414D453A4D61726C696E20312E312EF0
:10047000362E312E31202847697468756229205341
:100480004F555243455F434F44455F55524C3A6880
:10049000747470733A2F2F6769746875622E636F76
:1004A0006D2F4D616B6572476561722F6D336669A3
:1004B000726D776172652050524F544F434F4C5FBD
:1004C00056455253494F4E3A312E30204D41434804
:1004D000494E455F545950453A4D33204475616C3F
:1004E0002045787472756465722052657620315F9C
:1004F0003030302045585452554445525F434F5593
:100500004E543A3220555549443A63656465326128
:1005100032662D343161322D343734382D39623121
:10052000322D6335356336326633363766660A00F8
:100530002F2F200053657474696E672054726176A2
:10054000656C20416363656C65726174696F6E3AB6
:10055000200053657474696E67205265747261631C
:100560007420416363656C65726174696F6E3A20D3
:100570000053657474696E67205072696E7420410F
:100580006363656C65726174696F6E3A20005365D0
:100590007474696E67205072696E7420616E642095
:1005A00054726176656C20416363656C6572617439
:1005B000696F6E3A2000205A002059005800202010
:1005C0004D61783A2000205A002059005800202020
:1005D0004D696E3A20004F666600536F6674206561
:1005E0006E6473746F70733A2000000125301D0C27
:1005F0001824311C0BFF232F1B051EFF04030806C4
:1006000002FF222B1A4142212A193F4003380906D2
:10061000360706371F1716282945274443206F75CC
:1006200074206F662072616E67650A00536572768A
:100630006F20003A200020536572766F20002064FE
:100640003A0020693A0020703A0043290A006162AA
:100650006C656420286D696E2074656D70200043A0
:100660006F6C64206578747275646573206172655F
:100670002000205B3031355D2D5B31315D4D657380
:100680006820706F696E742063616E6E6F74206293
:1006900065207265736F6C7665640A004D34323183
:1006A00020696E636F727265637420706172616D30
:1006B000657465722075736167650A00F628A6C1C6
:1006C0000000D0C000000000546F6F2066617220EF
:1006D00066726F6D207265666572656E6365207007
:1006E0006F696E740A003A20005761726E696E6716
:1006F0003A205B3030335D2D5B31315D2050726FBD
:100700006265204F6666736574284D38353129203F
:100710006F7574206F662072616E6765202E0A0007
:100720007A5F6D696E3A20202D33207A5F6D617893
:100730003A2020300A005A204F6666736574200004
:100740004E6F2063617365206C696768740A003CB2
:100750003C3C2067636F64655F540A00203A204187
:10076000465445520A00202063757272656E745FAC
:10077000706F736974696F6E3D0043757272656E58
:100780007420546F6F6C2000203A204245464F522F
:10079000450A00202063757272656E745F706F7316
:1007A0006974696F6E3D003E3E3E2067636F64650D
:1007B0005F542800556E6B6E6F776E20636F6D6DA2
:1007C000616E643A202200205A3A0020593A0020F3
:1007D000583A00656E6473746F7073206869743A78
:1007E00020002C20002C2000203A2073796E635FBB
:1007F000706C616E5F706F736974696F6E0A002050
:100800002063757272656E745F706F736974696F5F
:100810006E3D00656E7175657565696E67202200B5
:100820004B494C4C45442E20004572726F723A2061
:100830005B3031345D2D5B31315D5072696E7465B2
:10084000722073746F707065642064756520746FB6
:10085000206572726F72732E204669782074686505
:10086000206572726F7220616E6420757365204D11
:1008700039393920746F20726573746172742E2057
:100880002854656D70657261747572652069732096
:1008900072657365742E20536574206974206166D7
:1008A0007465722072657374617274696E67290A67
:1008B000004E6F204C696E65204E756D626572202A
:1008C0007769746820636865636B73756D2C204C61
:1008D000617374204C696E653A20004E6F20436846
:1008E00065636B73756D2077697468206C696E65DC
:1008F000206E756D6265722C204C617374204C699A
:100900006E653A2000636865636B73756D206D6971
:10091000736D617463682C204C617374204C696E34
:10092000653A20004C696E65204E756D62657220D7
:100930006973206E6F74204C617374204C696E650E
:10094000204E756D6265722B312C204C61737420C2
:100950004C696E653A20004D3131300020205B300B
:1009600031325D2D5B31315D496E76616C69642099
:1009700065787472756465722000F628A6C100005F
:10098000D0C00000000000004D4300007C43000088
:1009900054430A20736F66745F656E6473746F707E
:1009A0005F6D6178203D20000A20736F66745F657B
:1009B0006E6473746F705F6D696E203D20000A2055
:1009C000706F736974696F6E5F7368696674203DD8
:1009D000200020617869733A0A20686F6D655F6F47
:1009E0006666736574203D2000466F7220003C3CB3
:1009F0003C207365745F617869735F69735F6174CC
:100A00005F686F6D652800203A200A00202063751A
:100A10007272656E745F706F736974696F6E3D009A
:100A20005D203D20003E20686F6D655F6F666673D8
:100A300065745B003E207A70726F62655F7A6F66E4
:100A400066736574203D20002A2A2A205A20484FC8
:100A50004D454420574954482050524F4245202884
:100A60005A5F4D494E5F50524F42455F5553455373
:100A70005F5A5F4D494E5F454E4453544F505F504F
:100A8000494E29202A2A2A0A003E3E3E20736574D8
:100A90005F617869735F69735F61745F686F6D65CB
:100AA000280045323A200045313A200045303A20AE
:100AB000005A3A2000593A2000583A20004D53314C
:100AC0002C4D53322050696E730A004B6420002372
:100AD000646566696E65202044454641554C545F07
:100AE000004B69200023646566696E6520204445DB
:100AF0004641554C545F004B702000236465666985
:100B00006E65202044454641554C545F0050494491
:100B1000204175746F74756E652066696E697368BF
:100B20006564212050757420746865206C6173744D
:100B3000204B702C204B6920616E64204B64206335
:100B40006F6E7374616E74732066726F6D20626570
:100B50006C6F7720696E746F20436F6E666967757E
:100B6000726174696F6E2E680A00504944204175A5
:100B7000746F74756E65206661696C65642120749C
:100B8000696D656F75740A00504944204175746F32
:100B900074756E65206661696C6564212054656DAD
:100BA000706572617475726520746F6F2068696713
:100BB000680A00204B643A2000204B693A2000204C
:100BC0004B703A20000A20436C61737369632050B4
:100BD0004944200A002054753A2000204B753A20E1
:100BE00000206D61783A2000206D696E3A20002067
:100BF000643A200020626961733A20004572726F86
:100C0000723A205B3031335D2D5B31315D5072695A
:100C10006E7465722068616C7465642E206B696CFB
:100C20006C28292063616C6C656421205468652000
:100C30007072696E746572206973206E6F77206FB1
:100C400066666C696E6520616E642077696C6C20E5
:100C50006E6F7420726573706F6E6420756E746948
:100C60006C207265737461727465642E200A0020B2
:100C700020506C616E6E657242756666657242796F
:100C80007465733A20002046726565204D656D6F6E
:100C900072793A2000436F6D70696C65643A204E3A
:100CA0006F7620333020323032320A00207C2041EF
:100CB0007574686F723A204D47207C4A6F73682CB8
:100CC000204B796C652C2044617669642C2053613B
:100CD0006D0A00323031372D31302D313020313234
:100CE0003A303000204C6173742055706461746533
:100CF000643A2000312E312E362E312E310A004D2D
:100D000061726C696E00205B3031315D2D5B315D4D
:100D100020536F6674776172652052657365740A3B
:100D200000205B3031305D2D5B31315D20576174C7
:100D30006368646F672052657365740A00205B30D6
:100D400030395D2D5B31315D2042726F776E206FDF
:100D500075742052657365740A00205B3030385D0D
:100D60002D5B31315D2045787465726E616C205267
:100D7000657365740A00506F77657255700A007369
:100D8000746172740A00000048420000484200008A
:100D90008041000000005761726E696E673A20481A
:100DA0006F6D696E672042756D7020446976697356
:100DB0006F72203C20310A0004040600004040000D
:100DC000004040000000401FC561430040814300D7
:100DD0000054433C3C3C20686F6D65617869732822
:100DE00000203A203E204146544552207365745FEE
:100DF000617869735F69735F61745F686F6D650ABD
:100E000000202063757272656E745F706F73697411
:100E1000696F6E3D00486F6D65203220536C6F77AF
:100E20003A0A004D6F766520417761793A0A0048A9
:100E30006F6D65203120466173743A0A00FFFFFF31
:100E40003E3E3E20686F6D65617869732800205BC7
:100E50003031365D2D5B31315D4572726F722077B6
:100E6000726974696E6720746F20454550524F4D0A
:100E7000210A0024F4D43050C38E20C2A24017822D
:100E80008B7011127A910D816CD90AA861E108C7A3
:100E9000586607615143061E4B5D05C145A7041AFC
:100EA000411104093D9803713931034036DB026575
:100EB000339102D4305402802E1D02632CEE017552
:100EC0002AC501B028A001102781018F2564012BBC
:100ED000244B01E0223401AC211F018D200D018043
:100EE0001FFC00841EED00971DDF00B81CD200E639
:100EF0001BC600201BBC00641AB200B219A8000A6D
:100F000019A0006A189900D117910040178B00B5FD
:100F100016840031167E00B31579003A157300C7A8
:100F2000146F0058146A00EE1366008813630025DE
:100F3000135E00C7125B006C12570015125400C1FB
:100F400011510070114F0021114B00D61049008D36
:100F50001047004610440002104200C00F400080BD
:100F60000F3E00420F3C00060F3B00CB0E380093B3
:100F70000E37005C0E3500270E3400F30D3200C131
:100F80000D3100900D3000600D2E00320D2D00054A
:100F90000D2C00D90C2B00AE0C2900850C29005C0F
:100FA0000C2700350C27000E0C2600E80B2400C48B
:100FB0000B2400A00B23007D0B23005A0B210039CA
:100FC0000B2100180B2000F80A1F00D90A1E00BBD5
:100FD0000A1E009D0A1D00800A1D00630A1C0047AE
:100FE0000A1B002C0A1B00110A1A00F7091A00DD5F
:100FF000091900C4091900AB091900920917007BEF
:10100000091800630917004C09160036091600205C
:101010000916000A091500F5081500E0081400CCAF
:10102000081400B8081400A4081400900813007DE8
:101030000812006B0813005808120046081200340A
:10104000081100230811001208110001081100F016
:10105000071000E0071000D0071000C0071000B014
:10106000070F00A107100091070E0083070F0074FF
:10107000070F0065070E0057070E0049070E003BDB
:10108000070D002E070E0020070D0013070D0006A8
:10109000070D00F9060C00ED060D00E0060C00D46B
:1010A000060C00C8060C00BC060C00B0060C00A420
:1010B000060B0099060C008D060B0082060B0077CC
:1010C000060B006C060B0061060A0057060B004C6D
:1010D000060A0042060A0038060A002E060A002404
:1010E000060A001A060A001006090007060A00FD93
:1010F000050900F4050900EB050900E2050900D91E
:10110000050900D0050900C7050900BE050900B59D
:10111000050800AD050800A50509009C0508009418
:101120000508008C050800840508007C050800748B
:101130000508006C050700650508005D05070056F9
:101140000508004E05070047050700400508003860
:10115000050700310507002A050700230507001CC5
:10116000050600160507000F050700080506000222
:10117000050700FB040600F5040700EE040600E87E
:10118000040600E2040700DB040600D5040600CFD5
:10119000040600C9040600C3040600BD040600B727
:1011A000040600B1040500AC040600A6040600A075
:1011B0000405009B04060095040500900406008ABF
:1011C00004050085040500800406007A0405007506
:1011D000040500700405006B040500660405006149
:1011E0000405005C04050057040500520405004D89
:1011F00004050048040500430405003E0404003AC9
:1012000004050035040500300404002C0405002703
:10121000040400230405001E0404001A040400163C
:10122000040500110404000D040400090405000471
:1012300004040000040400FC030400F8030400F4A8
:10124000030400F0030400EC030400E8030400E4DA
:10125000030400E0030400DC030400D8030400D40A
:10126000030400D0030400CC030400C8030300C53A
:1012700003030024F404D9201BC40C5C0E9804C49E
:10128000095F0265077101F405F900FB04B300482A
:10129000048700C10369005803550003034500BEDD
:1012A000023A008402310053022A00290225000478
:1012B000022000E4011C00C8011900AF01170098CA
:1012C000011400840113007101100061011000512C
:1012D000010E0043010D0036010B002B010B002015
:1012E000010B00150109000C01090003010800FBB6
:1012F000000800F3000800EB000700E4000600DE31
:10130000000600D8000600D2000600CC000500C789
:10131000000500C2000500BD000400B9000400B5CE
:10132000000400B1000400AD000400A9000400A501
:10133000000300A20003009F0004009B000300982C
:101340000003009500020093000300900003008D4D
:101350000002008B00030088000200860002008467
:10136000000300810002007F0002007D0002007B7C
:10137000000200790002007700010076000200748C
:1013800000020072000100710002006F0002006D97
:101390000001006C0002006A0001006900020067A1
:1013A00000010066000100650001006400020062A7
:1013B00000010061000100600001005F0002005DAB
:1013C0000001005C0001005B0001005A00010059AF
:1013D00000010058000100570001005600010055AF
:1013E00000010054000100530000005300010052AE
:1013F00000010051000100500001004F0001004EAB
:101400000000004E0001004D0001004C0001004BA7
:101410000000004B0001004A0001004900010048A3
:10142000000000480001004700010046000000469F
:101430000001004500000045000100440001004398
:101440000000004300010042000000420001004192
:1014500000000041000100400001003F0000003F8B
:101460000001003E0000003E0001003D0000003D84
:101470000001003C0000003C0000003C0001003B7B
:101480000000003B0001003A0000003A0001003972
:10149000000000390001003800000038000000386A
:1014A0000001003700000037000100360000003660
:1014B0000000003600010035000000350000003556
:1014C000000100340000003400000034000100334B
:1014D0000000003300000033000100320000003241
:1014E0000000003200010031000000310000003136
:1014F0000001003000000030000000300001002F2B
:101500000000002F0000002F0000002F0001002E1F
:101510000000002E0000002E0001002D0000002D14
:101520000000002D0000002D0001002C0000002C08
:101530000000002C0000002C0001002B0000002BFC
:101540000000002B0000002B0001002A0000002AF0
:101550000000002A0000002A0001002900000029E4
:1015600000000029000000290000002900010028D7
:1015700000000028000000280000002800000028CB
:1015800000010027000000270000002700000027BE
:1015900000000027000100260000002600000026B1
:1015A00000000026000000260001002500000025A4
:1015B0000000002500000025000000250000002597
:1015C000000100240000002400000024000000248A
:1015D000000000240001002300000023000000237D
:1015E000000000230000002300000023000000236F
:1015F0000001002200000022000000220000002262
:101600000000002200000022000100210000002153
:101610000000002100000021000000210000002146
:101620000000002100010020000000200000002038
:10163000000000200000002000000020000000202A
:10164000000000200001001F0000001F0000001F1C
:101650000000001F0000001F0000001F0000001F0E
:101660000001001E0000001E0000001E0000001E01
:1016700000000000002100240027002A002D003077
:1016800000330001010000040107010A01000022EB
:1016900000250028002B002E00310034000201003C
:1016A00000050108010B010000200023002600298D
:1016B000002C002F00320000010000030106010988
:1016C0000105050505070508080808020202020AC7
:1016D0000A080804040404010101010101010103D5
:1016E00003030303030303040707070C0C0C0C0C90
:1016F0000C0C0C0202020206060606060606060B83
:101700000B0B0B0B0B0B0B010210202008081020F9
:10171000401020408002010201080402010102047D
:10172000081020408080402010080402018004023C
:101730000180402010080402010804020101020493
:101740000810204080010204081020408000000A98
:101750000B02090C0D0E0807030401000000000035
:101760000000000000000000000000000000000079
:101770000000000000000000001211100000000036
:101780000000000000000000000000000000000059
:101790000000003C3C3C205A5F534146455F484FA7
:1017A0004D494E470A005A2070726F6265206F756E
:1017B000742E206265640A00203A20626C6F636BAD
:1017C000206D6F766520616674657220756E70613C
:1017D000726B0A00202064657374696E6174696FAE
:1017E0006E3D00203A205A5F534146455F484F4DB9
:1017F000494E473A0A00202064657374696E61742B
:10180000696F6E3D00486F6D696E67207769746817
:10181000205A2070726F62652C20636865636B20AC
:10182000616E64206D6F766520746F6F6C310A0095
:101830005A5F534146455F484F4D494E47203E3E13
:101840003E0A005761726E696E673A205B3030362F
:101850005D2D5B31315D2043616E6E6F7420486F8A
:101860006D65205A207769746820756E6B6F6E778E
:101870006E20582F592E20506C6561736520686F5B
:101880006D6520582F592066697273742E0A0047BF
:101890003238205A20466F7262696464656E0A00AD
:1018A000466F7263652054300A003C3C3C206763FD
:1018B0006F64655F4732380A004732392050330081
:1018C000543000203A203E2028686F6D655F616CBF
:1018D0006C207C7C20686F6D655A29203E206669EB
:1018E0006E616C0A00202063757272656E745F70A1
:1018F0006F736974696F6E3D00203A203E20686FF7
:101900006D65590A00202063757272656E745F7090
:101910006F736974696F6E3D00203A203E20686FD6
:101920006D65580A00202063757272656E745F7071
:101930006F736974696F6E3D006368616E67656996
:101940006E6720696E6163746976655F657874722D
:10195000756465725F785F706F7320696E20686F61
:101960006D696E67005261697365205A202862654F
:10197000666F726520686F6D696E672920746F20CD
:10198000005261697365205A20286265666F72652E
:1019900020686F6D696E672920746F20006375720F
:1019A00072656E745F706F736974696F6E5B5A5F96
:1019B000415849535D200064657374696E617469B0
:1019C0006F6E20003E20656E6473746F70732E65B9
:1019D0006E61626C652874727565290A003E3E3E30
:1019E0002067636F64655F4732380A000606FFFFB1
:1019F000FF00000202026265640A002C2073797302
:101A000074656D2073746F70706564212048656122
:101A10007465725F49443A200048656174696E6775
:101A2000206661696C656400205B3032315D2D5B3E
:101A300031315D2048656174696E67206661696C4B
:101A40006564202D20706C6561736520636F6E7412
:101A500061637420737570706F727400486561748F
:101A6000696E67206661696C656400205B303231A5
:101A70005D2D5B31315D2048656174696E6720665C
:101A800061696C6564202D20706C656173652063ED
:101A90006F6E7461637420737570706F7274007010
:101AA000012C0190012701B0012201C0011D01F0AC
:101AB0000118011002130130020E016002090190A9
:101AC000020401C002FF000003FA004003F5008099
:101AD00003F000D003EB002004E6007004E100E016
:101AE00004DC004005D700C005D2004006CD00D080
:101AF00006C8008007C3003008BE00F008B900C067
:101B000009B400B00AAF00B00BAA00D00CA50000C9
:101B10000EA000500F9B00C01096005012910000C4
:101B2000148C00C0158700B0178200B0197D00D05A
:101B30001B7800001E730040206E0090226900F0A8
:101B400024640040275F0090295A00E02B550010C4
:101B50002E500020304B0010324600E03341009000
:101B6000353C001037370070383200A0392D00B0F6
:101B70003A2800A03B2300603C1E00103D19009055
:101B80003D1400103E0F00703E0A00C03E050000EC
:101B90003F0000403FFBFF803FF6FFC03FF1FF45A5
:101BA00072723A204D494E54454D502042454400F2
:101BB0004572723A204D494E54454D5000205B30DD
:101BC00032345D2D5B31315D204D494E54454D50D1
:101BD00020747269676765726564004572723A20A5
:101BE0004D415854454D5020424544004572723A8B
:101BF000204D415854454D5000205B3032335D2D0F
:101C00005B31315D204D415854454D50207472690F
:101C1000676765726564000220573A0020573A00F2
:101C2000205A3A0020593A0020436F756E742058AC
:101C30003A0020453A00205A3A0020593A00583AD2
:101C400000486F74656E64206F6666736574733ADE
:101C50000020633A0020643A0020693A0020703A7C
:101C6000004F66660A0046616465204865696768DA
:101C7000742000426564204C6576656C696E67204F
:101C8000004661696C656420746F20656E61626CEA
:101C90006520426564204C6576656C696E670A0054
:101CA000486F74656E64206F6666736574733A007E
:101CB0005374616E6461726420446576696174690D
:101CC0006F6E3A20002052616E67653A2000204D09
:101CD00061783A2000204D696E3A20004D65616EB2
:101CE0003A200046696E6973686564210A002072B3
:101CF000616E67653A2000206D61783A2000206DA2
:101D0000696E3A2000207369676D613A2000206D8A
:101D100065616E3A20003A207A3A2000206F6620F2
:101D200000205A00205900205800476F696E672034
:101D3000746F3A00436C6F636B776973650A004395
:101D40006F756E7465722D002044697265637469E5
:101D50006F6E3A2000202020616E676C653A20008B
:101D60005374617274696E67207261646975733A45
:101D70002000506F736974696F6E696E67207468B4
:101D8000652070726F62652E2E2E0A003F4E756DB3
:101D9000626572206F66206C65677320696E206DC6
:101DA0006F76656D656E74206E6F7420706C6175F2
:101DB0007369626C652028302D3135292E0A00594F
:101DC0000058003F53616D706C652073697A65201F
:101DD0006E6F7420706C61757369626C6520283455
:101DE0002D3530292E0A004D3438205A2D50726F6F
:101DF0006265205265706561746162696C697479AD
:101E000020546573740A003F2856296572626F7307
:101E100065206C6576656C20697320696D706C61F6
:101E2000757369626C652028302D34292E0A0020D4
:101E30002F002040002042403A0020403A003C3C25
:101E40003C20646F5F626C6F636B696E675F6D6F80
:101E500076655F746F0A003E3E3E20646F5F626C81
:101E60006F636B696E675F6D6F76655F746F00207F
:101E70003A2073657475705F666F725F656E647328
:101E8000746F705F6F725F70726F62655F6D6F7697
:101E9000650A00202063757272656E745F706F73DF
:101EA0006974696F6E3D00203A20636C65616E5FF6
:101EB00075705F61667465725F656E6473746F7070
:101EC0005F6F725F70726F62655F6D6F76650A003B
:101ED000202063757272656E745F706F73697469C8
:101EE0006F6E3D007365745F626C746F7563685FDD
:101EF0006465706C6F79656428004B494C4C4544AF
:101F00002E20004572726F723A205B3030325D2DA8
:101F10005B31315D2050726F6265204465706C6F7B
:101F2000796D656E74204572726F723A20506C65DF
:101F3000617365207265737461727420796F757254
:101F4000207072696E7465722E0A006572726F720B
:101F500020646574656374656420626C20746F75B9
:101F60006368207365745F626C746F7563685F6427
:101F700065706C6F79656400205B3031375D535458
:101F80004F502063616C6C6564206265636175739A
:101F900065206F6620424C546F75636820657272CD
:101FA0006F72202D2072657374617274207769746A
:101FB00068204D3939390A004572726F72204465C4
:101FC000746563746564206F6E20424C20546F7595
:101FD00063682C20726574657374696E6720707213
:101FE0006F6265004572726F722044657465637438
:101FF0006564206F6E20424C20546F7563682C20FE
:10200000726574657374696E672070726F626500C3
:10201000646F5F70726F62655F72616973652800DB
:102020006465706C6F793A2000203A207365745FA4
:1020300070726F62655F6465706C6F7965640A00C9
:10204000202063757272656E745F706F7369746956
:102050006F6E3D00203A203C3C3C20646F5F707204
:102060006F62655F6D6F76650A002020637572721E
:10207000656E745F706F736974696F6E3D00203AAE
:10208000203E3E3E20646F5F70726F62655F6D6FD1
:1020900076650A00202063757272656E745F706FDA
:1020A000736974696F6E3D0072657365745F626514
:1020B000645F6C6576656C0A002028646F6E652924
:1020C0000A004578747261706F6C617465205B0002
:1020D0004E414E005D5D3B004E414E005D20202C88
:1020E0005B004E414E005D20202C5B00203D205BBC
:1020F0005B0042696C696E656172204C6576656C47
:10210000696E6720477269643A0A004163746976B0
:1021100065206578747275646572206E6F74203006
:102120000A005365742065787472756465725F6423
:1021300075706C69636174696F6E5F656E61626C06
:1021400065640A436C656172206163746976655FDA
:1021500065787472756465725F7061726B65640A2C
:1021600000202E2E2E204C696E6520746F205800A2
:1021700053657420706C616E6E6572205800436CFC
:10218000656172206163746976655F6578747275E4
:102190006465725F7061726B65640A005761726E8C
:1021A000696E673A205B3030355D2D5B32325D20E1
:1021B00043616E6E6F742045787472756465206E2D
:1021C0006F7265207468616E206D6D005761726E6C
:1021D000696E673A205B3030355D2D5B31325D20B2
:1021E0004C656E6774687920457874727573696F91
:1021F0006E2050726576656E7465640A0020746F97
:102200006F206C6F6E6720657874727573696F6E7E
:102210002070726576656E7465640A005761726E2F
:10222000696E673A205B3030345D2D5B33335D205F
:102230004865617420757020657874727564657284
:10224000206F7220757365204D3330320A0057615C
:10225000726E696E673A205B3030345D2D5B3233CD
:102260005D2043616E6E6F7420457874727564658D
:1022700020756E6465722043005761726E696E67E7
:102280003A205B3030345D2D5B31335D20436F6C21
:102290006420457874727573696F6E20507265762C
:1022A000656E7465640A0020636F6C6420657874E1
:1022B000727573696F6E2070726576656E74656491
:1022C0000A00627573793A207061757365642066DF
:1022D0006F7220696E7075740A00627573793A20A6
:1022E00070617573656420666F7220757365720A1C
:1022F00000627573793A2070726F63657373696EEB
:10230000670A004B494C4C45442E2000205B30317D
:10231000395D4B494C4C206361757365642062796B
:1023200020746F6F206D75636820696E61637469D6
:1023300076652074696D65202D2063757272656EF7
:102340007420636F6D6D616E643A20004861726441
:10235000636F6465642044656661756C74205365C1
:102360007474696E6773204C6F616465640A00B0B1
:10237000040000B00400000A000000D007000000C4
:10238000009643000096430000A0410000F0413356
:1023900033A0423333A042CDEC7B4400C0EB43205A
:1023A000204D383531205A005A2D50726F62652009
:1023B0004F666673657420286D6D293A0A002044C3
:1023C0000020490020204D333034205000204C00A4
:1023D00020430020440020490020204D333031208C
:1023E0005000204C00204300204400204900205091
:1023F0000020204D33303120450050494420736582
:102400007474696E67733A0A00205A0020204D34B4
:1024100032302053004175746F20426564204C6552
:1024200076656C696E673A0A00205A0020590020D0
:10243000580020204D323138205400486F74656EAA
:1024400064206F6666736574733A0A00205A002030
:10245000590020204D323036205800486F6D6520DD
:102460006F66667365743A0A00204500205A0020A2
:10247000590020580020420020540020204D3230C6
:1024800035205300416476616E6365643A20533CA5
:102490006D696E5F66656564726174653E20543C6B
:1024A0006D696E5F74726176656C5F666565647296
:1024B0006174653E20423C6D696E5F7365676D6552
:1024C0006E745F74696D655F6D733E20583C6D611D
:1024D000785F78795F6A65726B3E205A3C6D6178EF
:1024E0005F7A5F6A65726B3E20453C6D61785F651F
:1024F0005F6A65726B3E0A00205400205200202063
:102500004D323034205000416363656C65726174F4
:10251000696F6E2028756E6974732F7332293A20A3
:10252000503C7072696E745F616363656C3E2052EB
:102530003C726574726163745F616363656C3E20B5
:10254000543C74726176656C5F616363656C3E0ACE
:1025500000204500205A0020590020204D32303103
:102560002058004D6178696D756D20416363656C1D
:1025700065726174696F6E2028756E6974732F734C
:1025800032293A0A00204500205A00205900202014
:102590004D3230332058004D6178696D756D20667D
:1025A00065656472617465732028756E6974732F34
:1025B00073293A0A00204500205A002059002020A3
:1025C0004D39322058005374657073207065722045
:1025D000756E69743A0A0020204D32303020443044
:1025E0000A0020204D323030205431204400202079
:1025F0004D3230302044002044697361626C656460
:102600000A0046696C616D656E7420736574746947
:102610006E67733A002020473231202020203B2073
:10262000556E69747320696E206D6D0A003C3C3CE8
:1026300020646F5F686F6D696E675F6D6F76652888
:10264000002C20002C20003E3E3E20646F5F686F0F
:102650006D696E675F6D6F7665280041424C204161
:10266000646A7573746D656E74205A002028656EF7
:1026700061626C6564290A00202864697361626C78
:102680006564290A0042494C494E45415200417552
:10269000746F20426564204C6576656C696E673A9C
:1026A0002000204E6F7A7A6C65290A00202620418E
:1026B000626F76650020262053616D65205A206187
:1026C000730020262042656C6F77002D43656E7481
:1026D0006572002028526967687400205A3A002009
:1026E000593A0050726F6265204F666673657420B8
:1026F000583A00424C544F5543480A0050726F629A
:10270000653A200043617274657369616E0A004D19
:10271000616368696E6520547970653A20002070A5
:102720006F736974696F6E206F7574206F662072A5
:10273000616E67652E0A003F50726F626520003C33
:102740003C3C2067636F64655F4732390A00206351
:102750006F72726563746564205A3A00473239209B
:10276000756E636F72726563746564205A3A0020F7
:102770003A203E2070726F62696E6720636F6D70E1
:102780006C6574650A00202063757272656E745FF3
:10279000706F736974696F6E3D0052756E6E696E0D
:1027A0006720696E204452592D52554E206D6F643A
:1027B000650A00473239204175746F2042656420F4
:1027C0004C6576656C696E670A0028422961636B07
:1027D00000284629726F6E74002852296967687450
:1027E00000284C29656674003F2856296572626F7F
:1027F0007365206C6576656C20697320696D706CFB
:1028000061757369626C652028302D34292E0A00A9
:10281000426164205A2076616C75650A004E6F2013
:1028200062696C696E65617220677269640A002072
:102830003A203E3E3E2067636F64655F4732390A47
:1028400000202063757272656E745F706F736974B7
:10285000696F6E3D005761726E696E673A205B303A
:1028600031325D2D5B31315D20496E76616C69647A
:102870002045787472756465720A004163746976E4
:10288000652045787472756465723A2000203A209C
:102890004D6F7665206261636B0A0020206465736A
:1028A00074696E6174696F6E3D00203A2053796ED1
:1028B0006320416674657220546F6F6C6368616E4B
:1028C00067650A00202063757272656E745F706FB1
:1028D000736974696F6E3D00203A204E65772065FC
:1028E0007874727564657220287061726B656429F2
:1028F0000A00202063757272656E745F706F736971
:1029000074696F6E3D004163746976652065787403
:102910007275646572207061726B65643A20004361
:102920006C6561722065787472756465725F647538
:10293000706C69636174696F6E5F656E61626C650E
:10294000640A0053657420696E6163746976655F1B
:1029500065787472756465725F785F706F733D003F
:10296000203A2073776974636820782063617272FB
:10297000696167650A00202063757272656E745F15
:10298000706F736974696F6E3D006465737420784D
:102990002072617720006465737420782000696E6E
:1029A0006163746976652078206C6F676963616C18
:1029B0002000696E61637469766520782000416348
:1029C00074697665206578747275646572207061CB
:1029D000726B65643A20004D6F64652000203A20D8
:1029E0004E65772045787472756465720A00202000
:1029F00063757272656E745F706F736974696F6E00
:102A00003D006465737420782072617720006465EE
:102A1000737420782000696E61637469766520782C
:102A2000206C6F676963616C2000696E6163746913
:102A30007665207820004163746976652065787436
:102A40007275646572207061726B65643A20006211
:102A5000696C696E206F74686572200062696C69C8
:102A60006E2063757272656E742000203A20637563
:102A70007272656E740A00202063757272656E74DE
:102A80005F706F736974696F6E3D004C6F7765722C
:102A900020746F20004D6F76655820746F200052AF
:102AA0006169736520746F20004458435F46554C3C
:102AB0004C5F434F4E54524F4C5F4D4F44450A00BC
:102AC0004458435F4155544F5F5041524B5F4D4F07
:102AD00044450A004458435F4455504C49434154CF
:102AE000494F4E5F4D4F44450A004475616C205874
:102AF000204361727269616765204D6F64652000D3
:102B00004475616C20582043617272696167652069
:102B100020656E61626C65640A004E6F206D6F7691
:102B200065206F6E20746F6F6C6368616E67650AF5
:102B300000696E6163746976652065787472756486
:102B4000657220782069733A20202000203A2061A5
:102B5000637469766520657874756465722069733D
:102B6000206174200A00202063757272656E745FA4
:102B7000706F736974696F6E3D0061637469766527
:102B8000206578747275646572206265666F72651F
:102B90002069733A20202000706572666F726D2084
:102BA000746F6F6C206368616E676520746F20209E
:102BB00000526573656E643A20006F6B00290A004D
:102BC0002062797465733B206372632000536574DF
:102BD00074696E67732053746F72656420280020D7
:102BE0002863616C63756C6174656429210A002037
:102BF000213D2000454550524F4D20435243206D0A
:102C000069736D61746368202D202873746F726519
:102C100064292000290A002062797465733B2063CF
:102C2000726320002073746F72656420736574741E
:102C3000696E6773207265747269657665642028B1
:102C400000204D61726C696E3D563431290A0028AE
:102C5000454550524F4D3D00454550524F4D207611
:102C6000657273696F6E206D69736D61746368203E
:102C70000020746F6F206C6F6E67206578747275BA
:102C800073696F6E2070726576656E7465640A0094
:102C900020636F6C6420657874727573696F6E2041
:102CA00070726576656E7465640A002044697363AA
:102CB000726570616E63793A00326E642050726F93
:102CC0006265205A3A00203A203C3C3C2072756EE6
:102CD0005F7A5F70726F62650A002020637572729E
:102CE000656E745F706F736974696F6E3D003173E8
:102CF000742050726F6265205A3A00203A203E3E9E
:102D00003E2072756E5F7A5F70726F62650A002096
:102D10002063757272656E745F706F736974696F2A
:102D20006E3D005761726E696E673A205B303037D6
:102D30005D2D5B31315D2050726F626520466169A7
:102D40006C757265200A0050726F62696E6720664A
:102D500061696C65640A004572726F723A003C3CAE
:102D60003C2070726F62655F70740A00205A3A20CE
:102D70000020593A200042656420583A2000203A49
:102D8000200A00202063757272656E745F706F7325
:102D90006974696F6E3D0073746F77290A002C2087
:102DA000002C20003E3E3E2070726F62655F7074A2
:102DB00028002066697273740A005A00590058008E
:102DC000486F6D6520006563686F3A00544845524E
:102DD0004D414C2052554E4157415900205B3032F5
:102DE000325D2D5B31315D20546865726D616C2000
:102DF00052756E61776179202D20706C6561736505
:102E000020636F6E7461637420737570706F727479
:102E1000007A5F6D61783A20007A5F6D696E3A20C2
:102E200000795F6D696E3A2000785F6D61783A20B5
:102E300000785F6D696E3A20005265706F72746938
:102E40006E6720656E6473746F702073746174753F
:102E5000730A00002BC111241FBECFEFD1E2DEBFE9
:102E6000CDBF00E00CBF13E0A0E0B2E0E0E7FCE97A
:102E700001E00BBF02C007900D92AE3DB107D9F73C
:102E800020E1AEEDB3E001C01D92A13BB207E1F736
:102E900017E1CBE2D7E100E006C021970109802FBE
:102EA000FE010E94EBCACA32D10780E00807A9F7E9
:102EB0000E94BFA90C9436CE0C9400008FB7F894F2
:102EC00090912D0F20912C0F921759F0E92FF0E0DF
:102ED000E455F14F208130E09F5F9F7790932D0F55
:102EE00002C02FEF3FEF8FBFC9010895FF920F93EC
:102EF0001F93CF93DF93FC0120812B3319F1D091E5
:102F00008406D430F8F4F62EBC01C091A3060C2F31
:102F100010E0F0E6CF9FC00111248A519B4F0E9420
:102F200021CEF801EF5EF84FF082CF5FC43018F485
:102F3000C093A30602C01092A306DF5FD09384065D
:102F400081E001C080E0DF91CF911F910F91FF9050
:102F500008952F923F924F925F926F927F928F923D
:102F60009F92AF92BF92CF92DF92EF92FF920F9318
:102F70001F93CF93DF9300D000D0CDB7DEB79A83F5
:102F800089830E9469A9E981FA81C680D780E0849B
:102F9000F184C114D104E104F10409F0ACC2248528
:102FA000222309F469C332852150248721E0230FAD
:102FB00022874585241301C01286E981FA8124E025
:102FC000329FE00DF11D1124C684D784E088F1887A
:102FD000E981FA81C282D382E482F582DC01CB01ED
:102FE0008C0D9D1DA11DB11D86839783A087B18780
:102FF00084819581892B09F43FC3FFB7FD83F89441
:10300000E981FA81228033802101612C712C0481B5
:10301000158180913102833121F08F3F09F068C220
:1030200005C0E7E1FCE124912E83DAC083E18093BF
:103030003102E7E1FCE184918E838F3F09F458C2AD
:10304000823009F469C030F5882309F44CC081301E
:1030500009F0C6C01092800010928100809181001A
:1030600088608093810080918100816080938100DD
:10307000E4EDF6E1E491F0E0EE0FFF1FE357F94EC7
:1030800085919491EAE1F7E1E491E0938D06E1E026
:10309000EE8330C19E81943009F482C008F460C090
:1030A000953009F09DC0109220011092210180916D
:1030B00021018860809321018091210181608093AA
:1030C0002101E4EDF6E1E491F0E0EE0FFF1FE3579C
:1030D000F94E85919491EAE1F7E1E491E0938A0653
:1030E00095E09E8307C114BC15BC84B5826084BD85
:1030F00085B5816085BDE4EDF6E1E491F0E0EE0F89
:10310000FF1FE357F94E85919491EAE1F7E1E491CD
:10311000E0938E061E82ABC21092B0001092B100F6
:103120008091B00082608093B0008091B100816096
:103130008093B100E4EDF6E1E491F0E0EE0FFF1FC3
:10314000E357F94E859194919093CC0C8093CB0CDE
:10315000EAE1F7E1E491E093CD0CF2E0FE8387C26F
:10316000109290001092910080919100886080935D
:10317000910080919100816080939100E4EDF6E1EF
:10318000E491F0E0EE0FFF1FE357F94E8591949123
:10319000EAE1F7E1E491E0938C0623E02E83AAC0F4
:1031A0001092A0001092A1008091A10088608093ED
:1031B000A1008091A10081608093A100E4EDF6E17F
:1031C000E491F0E0EE0FFF1FE357F94E85919491E3
:1031D000EAE1F7E1E491E0938B0684E08E838AC014
:1031E000EE81E7FD85C161E083E10E943D438E8170
:1031F0008D7F09F083C04801A12CB12C60E072E101
:103200008AE790E0A50194010E9476CA29833A8357
:103210004B835C8369017A01F1E0CF1AD108E108A0
:10322000F1082FEFC216D104E104F10409F008F40B
:103230004EC060E472E48FE090E0A50194010E942A
:1032400076CA69017A0181E0C81AD108E108F1085B
:103250009E81923009F5EFEFCE16D104E104F1041E
:1032600009F008F4CBC160E970ED83E090E0A501BE
:1032700094010E9476CA69017A01F1E0CF1AD1085F
:10328000E108F1082FEFC216D104E104F10411F0B6
:1032900008F041C183E027C08FEFC816D104E104D4
:1032A000F104B9F0B0F068E478EE81E090E0A501B7
:1032B00094010E9476CA69017A0191E0C91AD10885
:1032C000E108F108EE81EE2309F49AC163C181E0BF
:1032D00001C082E09E81911106C095B5987F892B2F
:1032E00085BD7AC085E09091B100987F892B80934D
:1032F000B10072C061E083E10E943D434801A12C0E
:10330000B12C60E072E18AE790E0A50194010E948F
:1033100076CA69017A01E1E0CE1AD108E108F10824
:10332000C114D104F1E0EF06F10488F068E478EE0E
:1033300081E090E0A50194010E9476CA69017A01BA
:1033400081E0C81AD108E108F10883E001C081E0FA
:103350009E81913071F490918100987F892B8093A8
:103360008100452846284728D9F52FEF3FEFA901CE
:1033700068C0EE81E33071F490919100987F892BC1
:103380008093910045284628472851F52FEF3FEFBD
:10339000A90179C0FE81F43071F49091A100987F69
:1033A000892B8093A100452846284728C9F42FEF90
:1033B0003FEFA9017AC02E81253071F4909121014F
:1033C000987F892B8093210145284628472841F47E
:1033D0002FEF3FEFA9017BC045284628472869F019
:1033E000D801AA0FBB1F91010E94A8CA28EE33E0A2
:1033F00040E050E00E9454CA03C02FEF3FEFA90104
:103400008E81823081F12CF4882361F08130C9F003
:103410006FC09E81943009F448C0ACF1953009F436
:1034200056C066C0C7BC20939F063093A006409349
:10343000A1065093A20680916E00826080936E0078
:1034400057C0D0928900C092880020939B06309389
:103450009C0640939D0650939E0680916F0082606B
:1034600080936F0045C0C092B3002093CE0C309380
:10347000CF0C4093D00C5093D10C8091700082609F
:103480008093700035C0D0929900C092980020932C
:103490009706309398064093990650939A06809128
:1034A000710082608093710023C0D092A900C09205
:1034B000A80020939306309394064093950650936A
:1034C00096068091720082608093720011C0D09243
:1034D0002901C092280120938F06309390064093D3
:1034E00091065093920680917300826080937300DE
:1034F000ED81EFBFC1C0DC01CB018C199D09AE0984
:10350000BF09B7FDB9C05A98E981FA8116821782BE
:1035100010861186B1C068E478EE81E090E0A501E4
:1035200094010E9476CA69017A01F1E0CF1AD108AC
:10353000E108F1082FEFC216D104E104F10441F1D2
:1035400038F164E274EF80E090E0A50194010E94FC
:1035500076CA69017A01F1E0CF1AD108E108F108D1
:103560002FEFC216D104E104F10409F008F4BACE39
:1035700062E17AE780E090E0A50194010E9476CABA
:1035800069017A0181E0C81AD108E108F10819C07F
:1035900084E0A9CE2FEFC216D104E104F10409F0B2
:1035A00008F463C062E17AE780E090E0A50194014D
:1035B0000E9476CA69017A01F1E0CF1AD108E108C8
:1035C000F1082FEFC216D104E104F104A9F0A0F034
:1035D00089819A81AB81BC812AE0B595A7959795A1
:1035E00087952A95D1F76C017D01F1E0CF1AD108BA
:1035F000E108F10887E077CE86E075CE82E073CEF1
:10360000EFEFCE16D104E104F10469F160F162E15B
:103610007AE780E090E0A50194010E9476CA6901F2
:103620007A0181E0C81AD108E108F1089FEFC916B4
:10363000D104E104F104A9F0A0F089819A81AB8161
:10364000BC813AE0B595A795979587953A95D1F7BE
:103650006C017D01E1E0CE1AD108E108F10885E0B6
:103660003CCE84E03ACE83E038CE84E033CE61E0D5
:1036700083E10E943D43BFCD26960FB6F894DEBF8E
:103680000FBECDBFDF91CF911F910F91FF90EF90B3
:10369000DF90CF90BF90AF909F908F907F906F9072
:1036A0005F904F903F902F900895CF92DF92EF92CE
:1036B000FF92892B31F4FF90EF90DF90CF900C9424
:1036C000DA2BC090440ED090450EE090460EF0905C
:1036D000470E20E030E0A901C701B6010E945BCD92
:1036E000181634F0C12CD12C8CE7E82E83E4F82E88
:1036F00020917A0F30917B0F40917C0F50917D0F7C
:10370000C701B6010E94FBCAFF90EF90DF90CF90F7
:1037100008958091A1049091A204009731F04AE0AD
:1037200050E060E070E00C9499C360E070E0CB0181
:1037300008950E94891B97FD0CC00E94891B6F3F52
:1037400071058105910509F034F40E94891B862FCB
:10375000089580E008958FEF08958091A1049091DD
:10376000A204892B39F00E94991B91E0811103C0BA
:1037700090E001C091E0892F08950F931F93CF939C
:103780008091A1049091A204009711F1FC018F0196
:10379000C1912C2F2F7DA9F0C53411F0C536B9F792
:1037A000F801108260E070E08091A1049091A20481
:1037B0000E943DC2F801C083562F472F382F292F72
:1037C0000BC060E070E0CF911F910F910C943DC24F
:1037D00050E040E030E020E0652F742F832F922FDF
:1037E000CF911F910F91089581548A3150F5482F40
:1037F00050E0FA0193E0F595E7959A95E1F7E850E6
:10380000FC4F208130E0877002C0359527958A955E
:10381000E2F7822F817020FF15C0FA01E252FC4FBF
:103820009081992339F02091DD043091DE04290F35
:10383000311D02C020E030E03093A2042093A104A7
:10384000089580E008950E94F41B882341F081E0F0
:103850002091A1043091A204232B09F480E0089563
:103860000E9469A96093FC037093FD038093FE039B
:103870009093FF0308959091C00095FFFCCF809333
:10388000C60008952F923F924F925F926F927F925F
:103890008F929F92AF92BF92CF92DF92EF92FF9260
:1038A0000F931F93CF93DF938C01EC01CC0FDD1F9F
:1038B000CC0FDD1FFE01E85AF14F20E030E0A901F6
:1038C00060817181828193810E94FBCAFE01E05F69
:1038D000FB4F20813181428153810E94FBCA6B01E1
:1038E0007C01FE01E658F04F6083718382839383ED
:1038F0000115110509F095C08090440E9090450E79
:10390000A090460EB090470E20E030E04CE753E424
:10391000C501B4010E945BCD181634F0812C912CA6
:103920009CE7A92E93E4B92E8091790C8823A9F005
:1039300020E030E048EB51E4C701B6010E94FBCA29
:103940006093D1047093D2048093D3049093D404F1
:10395000A7019601C501B4015AC080912604909137
:103960002704EAE7F9E0029709F039C0259135917B
:1039700045915491C701B6010E94FBCA6093D104DE
:103980007093D2048093D3049093D40486E8282EB5
:1039900089E0382EF1014590559065907490209102
:1039A0003202309133024091340250913502C50108
:1039B000B4010E94FACA4B015C01A30192010E946A
:1039C0005BCD18163CF4F10185919591A591B491C8
:1039D0004C015D01A7019601B401C50118C02591F4
:1039E000359145915491C701B6010E94FBCA60937D
:1039F000D1047093D2048093D3049093D404E6E866
:103A0000F9E02591359145915491C701B6010E9485
:103A1000FBCA609308027093090280930A02909394
:103A20000B028091960F85FF48C0F801EC59FD4FBD
:103A3000608189EE99E00E947FA5FE01E85AF14F6E
:103A4000408151816281738182ED99E00E9449A594
:103A5000FE01E05FFB4F40815181628173818EEBFB
:103A600099E00E9449A5FE01EF52FB4F4081518130
:103A70006281738188EA99E00E9449A5C85FDD4FA1
:103A8000488159816A817B8182E999E00E9449A538
:103A90008AE0DF91CF911F910F91FF90EF90DF901F
:103AA000CF90BF90AF909F908F907F906F905F90DE
:103AB0004F903F902F900C943B1CDF91CF911F9122
:103AC0000F91FF90EF90DF90CF90BF90AF909F90BD
:103AD0008F907F906F905F904F903F902F900895C0
:103AE0008F929F92AF92BF92EF92FF920F931F938C
:103AF000CF93DF938C014A015B01EC01CC0FDD1FFA
:103B0000CC0FDD1FCE018A57904F7C01C85AD14F90
:103B1000288139814A815B81C501B4010E94FACABA
:103B2000F70120813181428153810E94FBCAF70154
:103B3000608371838283938388829982AA82BB8205
:103B4000C801DF91CF911F910F91FF90EF90BF902F
:103B5000AF909F908F900C94421CBF92CF92DF92B7
:103B6000EF92FF920F931F93CF93DF93CDB7DEB702
:103B70006E970FB6F894DEBF0FBECDBF6091500CAC
:103B80007091510C6115710561F14DE150E0CE016C
:103B900001967C010E94F5C51E8EF7018F010E195A
:103BA0001F09B190BB2031F19AE0B912F7CF22C0C2
:103BB000B70183E198E00E9493A582E20E943B1C3A
:103BC0008AE00E943B1CBB2061F10F5F1F4F809178
:103BD000500C9091510C080F191F1093510C009329
:103BE000500C81E02091500C3091510C232BE1F4CA
:103BF00080E01AC0F701E00FF11F108260E0C701FA
:103C00000E947617882369F3E6ECFDE284916F0148
:103C10009FEFC91AD90A882359F20E943B1CF6016A
:103C2000F5CF00E010E0D9CF6E960FB6F894DEBF66
:103C30000FBECDBFDF91CF911F910F91FF90EF90FD
:103C4000DF90CF90BF9008958F929F92AF92BF92D6
:103C5000EF92FF920F931F93CF93DF93CDB7DEB711
:103C6000A0970FB6F894DEBF0FBECDBF61157105EA
:103C70008105910591F100E0842E912CA12CB12CAD
:103C8000102FEE24E394F12CEC0EFD1EE00EF11C3F
:103C900007FDFA94A50194010E9454CAF7016083BC
:103CA000B901CA010F5F611571058105910541F7E1
:103CB0001F3F31F1E1E0F0E0EC0FFD1FE10FF11DDE
:103CC00017FDFA9580818A3010F097E301C090E3E8
:103CD000890F0E943B1C1150EBCF80E3A0960FB6DA
:103CE000F894DEBF0FBECDBFDF91CF911F910F9132
:103CF000FF90EF90BF90AF909F908F900C943B1CE3
:103D0000A0960FB6F894DEBF0FBECDBFDF91CF9166
:103D10001F910F91FF90EF90BF90AF909F908F9069
:103D20000895EF92FF920F931F93CF93DF937C013F
:103D300084E50E94231CD82F882349F10E94991BF7
:103D4000C82F823004F1E6ECFDE284918F010F5F11
:103D50001F4F882321F00E943B1CF801F6CF8DE411
:103D60000E943B1CB70180E090E04AE00E94241EC4
:103D70006C2FCC0F770B8CE599E00E9466A58AE04A
:103D80000E943B1C08C08093D004D0E004C0809106
:103D9000790C8093D0048D2FDF91CF911F910F91DB
:103DA000FF90EF900895CF92DF92EF92FF926B0118
:103DB0007C0197FF0BC08DE20E943B1CF094E094C5
:103DC000D094C094C11CD11CE11CF11C4AE0C70175
:103DD000B601FF90EF90DF90CF900C94241EFF92DD
:103DE0000F931F93CF93DF93F82E092F162FE7E53C
:103DF000FDE28491EF012196882321F00E943B1C73
:103E0000FE01F7CFEF2DF02F8491EF01219688234B
:103E100021F00E943B1CFE01F7CF60912C047091B1
:103E20002D0480912E0490912F040E94D31E8AE0CD
:103E30000E943B1C11110E94E07E10920907109213
:103E40000807DF91CF911F910F91FF900895CF92B6
:103E5000DF92EF92FF920F931F93CF93DF938091A6
:103E60008406843008F021C10E945E179C0197FDF2
:103E70001CC1982FC0910807D09109078A3019F00A
:103E80009D3009F0E6C010920A07209741F3C8550B
:103E9000D94F1882109209071092080728EA36E0D5
:103EA000E90188812F5F3F4F8032D1F38E3411F4C6
:103EB0008E0102C000E010E06AE270E0CE010E94D4
:103EC0000DCE7C010115110509F470C067E579E09C
:103ED000CE010E9404C66C01892B49F06EE470E0AB
:103EE000CE0104960E940DCE009709F08C014AE0A5
:103EF00050E060E070E0C80101960E9499C36093B1
:103F0000A4067093A5068093A6069093A706009139
:103F10002C0410912D0420912E0430912F040F5F5A
:103F20001F4F2F4F3F4F601771078207930731F0E4
:103F3000CD2821F461E084E299E03DC0E114F10470
:103F400001F180E010E0FE01E80FF11D90819A324E
:103F500019F08F5F1927F7CF4AE050E060E070E07A
:103F6000C70101960E9499C3012F10E020E030E0C4
:103F7000601771078207930741F061E085E099E0DF
:103F80001AC061E08BED98E016C08091A406909174
:103F9000A506A091A606B091A70680932C04909345
:103FA0002D04A0932E04B0932F040FC0892B69F029
:103FB00060E081EB98E0DF91CF911F910F91FF902E
:103FC000EF90DF90CF900C94EF1E8091140281113E
:103FD0001DC067E470E0CE010E940DCE0097B1F0E5
:103FE0004AE050E060E070E001960E9499C36430BE
:103FF000710560F4E9E2F8E084918F010F5F1F4FD3
:10400000882321F00E943B1CF801F6CF69ED72E095
:10401000CE010E9418CE892B11F4109215026EED7C
:1040200072E0CE010E9418CE892B21F480E298E044
:104030000E94CC2F63EE72E0CE010E9418CE892B35
:1040400011F40E94AB5061E088EA96E00E94761776
:1040500006CFCF35D1050CF002CF9C3599F40E94E4
:104060005E1797FDFCCE20910A072111F8CE9E0124
:104070002F5F3F4F3093090720930807C855D94F4A
:104080008883EDCE9B3319F481E080930A078091F9
:104090000A078111E4CECE0101969093090780931F
:1040A0000807C855D94F2883DACEDF91CF911F91E9
:1040B0000F91FF90EF90DF90CF9008958F929F9295
:1040C000AF92BF92CF92DF92EF92FF92CF936B01AC
:1040D0007C01B42E20E030E0A9010E944DC687FF8C
:1040E00007C08DE20E943B1CF7FAF094F7F8F094B9
:1040F000C0E060E070E080E09FE3CB1541F02DEC84
:104100003CEC4CEC5DE30E94B3C6CF5FF6CF9B0165
:10411000AC01C701B6010E94FBCA6B017C010E9481
:104120006ECC4B015C014AE00E94241ECC2389F135
:10413000C501B4010E9452C69B01AC01C701B60182
:104140000E94FACA6B017C018EE20E943B1C20E0B7
:1041500030E040E251E4C701B6010E94B3C64B0112
:104160005C010E9467CC6B01770FEE08FF08C70166
:10417000B6010E94D31EC701B6010E9454C69B011E
:10418000AC01C501B4010E94FACA6B017C01C150A7
:10419000F1F6CF91FF90EF90DF90CF90BF90AF906E
:1041A0009F908F9008954F925F926F927F928F921F
:1041B0009F92AF92BF92CF92DF92EF92FF920F93B6
:1041C0001F93CF93DF9300D000D0CDB7DEB74B0164
:1041D00029013A01E982FA820B831C83FC01849154
:1041E0009F012F5F3F4F3E832D83882329F00E943C
:1041F0003B1CED81FE81F3CF88E20E943B1C42E034
:10420000C301B2010E945E2049815A816B817C8189
:1042100085EE97E00E9449A5B601A50182EE97E0E0
:104220000E9449A589E20E943B1C8114910451F02F
:10423000F40184913FEF831A930A8823E1F00E94EE
:104240003B1CF6CF8AE026960FB6F894DEBF0FBE71
:10425000CDBFDF91CF911F910F91FF90EF90DF9035
:10426000CF90BF90AF909F908F907F906F905F9016
:104270004F900C943B1C26960FB6F894DEBF0FBEF1
:10428000CDBFDF91CF911F910F91FF90EF90DF9005
:10429000CF90BF90AF909F908F907F906F905F90E6
:1042A0004F900895AF92BF92CF92DF92EF92FF921C
:1042B0000F931F93FA01A084B184C284D384E48055
:1042C000F5800681178120813181428153810E94CE
:1042D000D3201F910F91FF90EF90DF90CF90BF9070
:1042E000AF900895CF92DF92EF92FF920F931F93BA
:1042F000CF93DF93EC018091960F85FF0EC0FE01F6
:10430000EC59FD4F608189E89AE00E947FA589E21F
:104310000E943B1C8AE00E943B1C81E0FE01E154AC
:10432000F04F8083FE01E35BF34F80838E01000F2B
:10433000111F000F111FF801E05FFB4F1082118267
:1043400012821382CE010E94421CF090960F209799
:1043500059F58091790C813031F08091260490914B
:104360002704029709F5F5FE11C0C8EED2E0899145
:10437000882319F00E943B1CFACF8AE00E943B1C64
:1043800089E20E943B1C8AE00E943B1C8091790CD0
:1043900090E00E94551B6093860F7093870F809367
:1043A000880F9093890F89C0F801E454F94F259143
:1043B000359145915491C8018A57904F6C01F8018D
:1043C000E658F04F60817181828193810E94FBCA1F
:1043D000F6016083718382839383C230D105C1F576
:1043E0002091BB0F3091BC0F4091BD0F5091BE0F7B
:1043F00060918E0F70918F0F8091900F9091910F1F
:104400000E94FACA60938E0F70938F0F8093900F63
:104410009093910FF5FE51C0E8E4FAE084917F019A
:104420009FEFE91AF90A882321F00E943B1CF7014B
:10443000F5CF4091BB0F5091BC0F6091BD0F7091B3
:10444000BE0F84E39AE00E9449A58AE00E943B1CCB
:104450008091960F85FF31C0CC59DD4FC8816C2FFC
:1044600085E29AE00E947FA5F801E85AF14F408169
:1044700051816281738180E29AE00E9449A58AE0BD
:104480000E943B1C46E85FE067E07AE08CE09AE03F
:104490000E9452216C2F8EEE99E00E947FA589E246
:1044A0000E943B1C8AE0DF91CF911F910F91FF90FA
:1044B000EF90DF90CF900C943B1CDF91CF911F9138
:1044C0000F91FF90EF90DF90CF9008950F931F937F
:1044D000CF93DF93CDB7DEB72C970FB6F894DEBF3E
:1044E0000FBECDBF8091960F85FF08C046E85FE004
:1044F00068EE77E08FEF97E00E94522180918E0F57
:1045000090918F0FA091900FB091910F40918A0FD1
:1045100050918B0F60918C0F70918D0F0091860FD1
:104520001091870F2091880F3091890F09831A838A
:104530002B833C834D835E836F83788789879A873B
:10454000AB87BC87AE01475F5F4FBE016B5F7F4F9C
:10455000CE0101960E949E9B22E93FE0AE01475F9B
:104560005F4FBE016B5F7F4FCE0101960E94A9A6EF
:104570002C960FB6F894DEBF0FBECDBFDF91CF9162
:104580001F910F9108951F920F920FB60F92112451
:104590000BB60F922F938F939F93EF93FF93E0911E
:1045A0002C0F81E08E0F8F779091C60020912D0FF8
:1045B000821731F0F0E0E455F14F908380932C0F97
:1045C000FF91EF919F918F912F910F900BBE0F90C4
:1045D0000FBE0F901F9018952F923F924F925F92AF
:1045E0006F927F928F929F92AF92BF92CF92DF9203
:1045F000EF92FF920F931F93CF93DF93CDB7DEB768
:10460000E6970FB6F894DEBF0FBECDBF69A37AA3BD
:104610008BA39CA35E834D833AAB29AB0BAB0E946B
:1046200069A9698B7A8B8B8B9C8BDC01CB018C53BA
:10463000964FAF4FBF4F8093AA0C9093AB0CA093B3
:10464000AC0CB093AD0C8D819E810196039748F11F
:104650002AE133E03A832983A981BA818D91BA8313
:10466000A983882319F00E943B1CF6CF8AE0E696C6
:104670000FB6F894DEBF0FBECDBFDF91CF911F9173
:104680000F91FF90EF90DF90CF90BF90AF909F90F1
:104690008F907F906F905F904F903F902F900C94F1
:1046A0003B1CE3E4F3E0FA83E983A981BA818D91AD
:1046B000BA83A983882319F00E943B1CF6CF8AE0B5
:1046C0000E943B1C0E940146ED81FE818FE73196DE
:1046D00019F48093C70C05C0ED81FE81E853F34FB8
:1046E000808381E08093150289899A89AB89BC898E
:1046F0008B879C87AD87BE878FA398A7A9A7BAA7EA
:104700001D8E90E49E8FACE1AF8FB6E4B8A3198EF6
:104710001A8E1B8E1C8E812C912C54018D8A9E8AA0
:10472000AF8AB88E750164013FE7432E512C612C8E
:10473000712C2FE730E040E050E02F833887498725
:104740005A871BA61CA61DA61EA631E03CAB188AE4
:104750001F86212C312C00E010E04D815E814853F2
:10476000534F58AB4FA78D819E81880F991F880F9B
:10477000991FDC01AE54B34FBEA3ADA380911502C7
:10478000882309F4FEC10E9469A969837A838B8317
:104790009C838091C60C882309F4C6C00E94EC4615
:1047A000ED81FE81319661F0ADA1BEA12C901196F4
:1047B0003C90119712960C91129713961C9108C079
:1047C0002090BA0C3090BB0C0091BC0C1091BD0C29
:1047D0009101A801698D7A8D8B8D9C8D0E944DC6AB
:1047E00087FF04C0298E3A8E0B8F1C8F9101A80180
:1047F0006D8D7E8D8F8D98A10E945BCD181624F44F
:104800002D8E3E8E0F8F18A38091AA0C9091AB0C29
:10481000A091AC0CB091AD0C29813A814B815C81A7
:10482000281B390B4A0B5B0B57FD12C00E948E49A7
:1048300089819A81AB81BC818C53964FAF4FBF4F1A
:104840008093AA0C9093AB0CA093AC0CB093AD0CDE
:104850003CA929A1332309F44AC03AA14BA15CA188
:10486000B101C8010E945BCD18160CF05DC04981F2
:104870005A816B817C818B859C85AD85BE85481B6B
:10488000590B6A0B7B0BDB01CA0188589341A109C4
:10489000B109B7FD49C08F819885A985BA8584196A
:1048A0009509A609B709ED81FE81B595A79597955C
:1048B0008795319619F48093C70C03C0EFA5F8A92A
:1048C00080834BA75CA76DA77EA7F9A1F98F2AA1CA
:1048D0002A8F3BA13B8F4CA14C8F89819A81AB8160
:1048E000BC818FA398A7A9A7BAA71CAA1DC03AA1EB
:1048F0004BA15CA1B101C8010E944DC687FF14C045
:1049000089819A81AB81BC812FA138A549A55AA57F
:10491000821B930BA40BB50BAC01BD01485853414E
:104920006109710977FF4BC120E030E040EA51E4B2
:1049300069A17AA18BA19CA10E94FBCA9B01AC0139
:10494000B101C8010E945BCD181684F4E8E8FBE0D1
:104950008491AF014F5F5F4F5A834983882309F4E5
:104960008DC20E943B1CE981FA81F2CF80E398EF6F
:10497000AFEFBFEF29893A894B895C89821B930B82
:10498000A40BB50B29813A814B815C81820F931F67
:10499000A41FB51FB7FD0DC00E946A568AE00E9491
:1049A0003B1C89819A81AB81BC81898B9A8BAB8BB3
:1049B000BC8B89819A81AB81BC81880F991FAA1F0A
:1049C000BB1F2FA138A549A55AA5821B930BA40B89
:1049D000B50B2B853C854D855E85821B930BA40B07
:1049E000B50B81389F44A241B10580F0EAE6FBE0B7
:1049F0008491AF014F5F5F4F5A834983882309F445
:104A00003DC20E943B1CE981FA81F2CF8F859889D3
:104A1000A9A9BAA9A817B9070CF0B0CEEDE0FBE040
:104A200084919F012F5F3F4F3A832983882329F088
:104A30000E943B1CE981FA81F3CF4D815E814F3F9B
:104A40005F4F29F0A9E6B3E0BA83A98304C0E6E189
:104A5000F3E0FA83E98369817A818BEF9AE00E941F
:104A600093A5B701A60187EF9AE00E9449A58AE0C5
:104A70000E943B1C69817A8185EE9AE00E9493A591
:104A80004D895E896F89788D81EE9AE00E9449A5F3
:104A90008AE00E943B1C69817A818FEC9AE00E9437
:104AA00093A5B501A4018BEC9AE00E9449A58AE088
:104AB0000E943B1CFBA9FF2309F4E0C12D813E812C
:104AC0002F3F3F4F59F5C092CB04D092CC04E092D7
:104AD000CD04F092CE042CEA35EC47E25EE36D891A
:104AE0007E898F89988D0E94B3C66093C7047093A6
:104AF000C8048093C9049093CA042CEA35EC47E2B9
:104B00005EE3C501B4010E94F5CB6093C3047093CA
:104B1000C4048093C5049093C6042AC0C092A20C1A
:104B2000D092A30CE092A40CF092A50C2CEA35ECE8
:104B300047E25EE36D897E898F89988D0E94B3C6B6
:104B400060939E0C70939F0C8093A00C9093A10C8B
:104B50002CEA35EC47E25EE3C501B4010E94F5CBD7
:104B60006093A60C7093A70C8093A80C9093A90C4B
:104B70001092BF041092C0041092C1041092C2049B
:104B80007DC180911502811179C1E6960FB6F89426
:104B9000DEBF0FBECDBFDF91CF911F910F91FF9070
:104BA000EF90DF90CF90BF90AF909F908F907F90CD
:104BB0006F905F904F903F902F900C9401464F85DF
:104BC0005889141615060CF029C12BA53CA54DA536
:104BD0005EA5280F391F4A1F5B1F2B873C874D8717
:104BE0005E872BA53CA54DA55EA5281B390B4A0B5E
:104BF0005B0BC301B2010E9444CA2B853C854D85E5
:104C00005E850E9476CA4F80588469847A84420EF9
:104C1000531E641E751E34E1431651046104710471
:104C20000CF14CEE44165104610471043CF450E85C
:104C3000451651046104710434F422C05BEE452E24
:104C4000512C612C712C4F82588669867A868EEFA2
:104C500090E0A0E0B0E084199509A609B7092C01FD
:104C60003D0112C024E130E040E050E02F8338875E
:104C700049875A8744E1442E512C612C712C04C081
:104C80004F82588669867A86E4EFFBE08491AF0113
:104C90004F5F5F4F5EAB4DAB882329F00E943B1CFA
:104CA000EDA9FEA9F3CF6F81788589859A850E9449
:104CB000D31EEFEEFBE08491DF011196BEABADABEE
:104CC000882329F00E943B1CEDA9FEA9F4CFC30163
:104CD000B2010E94D31E4D8D5E8D6F8D78A188EE3E
:104CE0009BE00E9449A5498D5A8D6B8D7C8D81EE8C
:104CF0009BE00E9449A5EF85F88933970CF48EC09C
:104D0000C301B2010E9454C620E030E040E850E404
:104D10000E94B3C66B017C012D8D3E8D4F8D58A135
:104D2000698D7A8D8B8D9C8D0E94FACA2BED3FE0A8
:104D300049E450E40E94B3C620E030E040E05FE385
:104D40000E94B3C69B01AC01C701B6010E94F5CB1E
:104D50006B017C016B857C858D859E850E9454C688
:104D60002FE632E143E85AE30E94B3C64B015C01EF
:104D7000B701A6018BED9BE00E9449A5B501A401F6
:104D800085ED9BE00E9449A52AE939E949E15FE305
:104D9000C701B6010E94B3C66B017C019B01AC0147
:104DA0000E94FBCAA50194010E94F5CB6D8B7E8BFE
:104DB0008F8B988FA7019601C501B4010E94B3C6DD
:104DC00020E030E040E05EE30E94B3C64B015C01AE
:104DD000E5ECFBE084919F012F5F3F4F3C872B87E1
:104DE000882329F00E943B1CEB85FC85F3CFB7019B
:104DF000A6018FEB9BE00E9449A54D895E896F89D2
:104E0000788D89EB9BE00E9449A5B501A40183EB55
:104E10009BE00E9449A58AE00E943B1C8F819885F7
:104E2000A985BA85840D951DA61DB71D4D815E818E
:104E3000B595A795979587954F3F5F4F19F4809348
:104E4000C70C03C0EFA5F8A980832F8538892F5F91
:104E50003F4F388B2F8739A13D8F4AA14E8F5BA1E1
:104E60005F8F8CA188A329813A814B815C812B873C
:104E70003C874D875E8731E03CAB56CDE6960FB65A
:104E8000F894DEBF0FBECDBFDF91CF911F910F9180
:104E9000FF90EF90DF90CF90BF90AF909F908F905A
:104EA0007F906F905F904F903F902F900895CF9399
:104EB000DF93EDEBFAE08491EF012196882321F056
:104EC0000E943B1CFE01F7CFE9EBFAE08491EF0171
:104ED0002196882321F00E943B1CFE01F7CF62B38C
:104EE0006695617070E080E090E00E94D31E62B32E
:104EF000617070E080E090E00E94D31E8AE00E9422
:104F00003B1CE5EBFAE08491EF012196882321F028
:104F10000E943B1CFE01F7CF60910601862F660FB1
:104F2000990BAA0BBB0BBC01CD01662797FD6395BE
:104F30007727882799270E94D31E62B362FB6627D2
:104F400060F970E080E090E00E94D31E8AE00E9449
:104F50003B1CE1EBFAE08491EF012196882321F0DC
:104F60000E943B1CFE01F7CF6091060166FB66279D
:104F700060F970E080E090E00E94D31E609106012D
:104F800065FB662760F970E080E090E00E94D31E28
:104F90008AE00E943B1CECEAFAE08491EF01219642
:104FA000882321F00E943B1CFE01F7CF609106018F
:104FB00063FB662760F970E080E090E00E94D31EFA
:104FC000609106016295617070E080E090E00E945F
:104FD000D31E8AE00E943B1CE7EAFAE08491EF01CD
:104FE0002196882321F00E943B1CFE01F7CF60919F
:104FF00006016695617070E080E090E00E94D31E2B
:105000006091060162FB662760F970E080E090E045
:105010000E94D31E8AE00E943B1CE2EAFAE08491DF
:10502000EF012196882321F00E943B1CFE01F7CF5F
:1050300066B165FB662760F970E080E090E00E9451
:10504000D31E6091090165FB662760F970E080E07E
:1050500090E00E94D31E8AE0DF91CF910C943B1C1C
:1050600067FD66C0823041F128F4882359F0813011
:1050700089F05EC0843009F443C080F1853009F4C2
:1050800051C056C0662319F0A19A459A63C0A198F1
:10509000459860C09FB7662329F0F8948091080175
:1050A000806804C0F894809108018F77809308018C
:1050B0009FBF47FF60C09AC09FB7662329F0F8944E
:1050C00080910801806404C0F894809108018F7B6E
:1050D000809308019FBF47FF54C089C09FB76623D4
:1050E00029F0F89480910801886004C0F8948091B8
:1050F0000801877F809308019FBF47FF51C078C098
:105100009FB7662329F0F89480910801826004C05B
:10511000F894809108018D7F809308019FBF47FF1D
:105120004CC067C0662311F0459A5DC045985BC0CE
:1051300047FD60C0823029F130F4882369F0813066
:1051400009F058C018C08430C1F150F1853009F021
:1051500051C040C047FD4EC0442319F0A09A9FB7EC
:105160003DC0A0989FB7F89480910B018F7D8093EC
:105170000B019FBF0895442311F0A29A0895A298AD
:1051800008959FB7442329F0F89480910801806224
:1051900004C0F894809108018F7D80930801E9CFC5
:1051A0009FB7442329F0F894809108018061F5CFDE
:1051B000F894809108018F7EF0CF9FB7442329F0A7
:1051C000F894809108018460E8CFF89480910801F8
:1051D0008B7FE3CF9FB7442309F4C5CFF894809128
:1051E0000B018062C4CF47FFF5CF0895089508955D
:1051F000089508950895643079F028F4613041F0FD
:10520000623041F00895683051F0603141F0089506
:1052100040E003C040E004C041E060E002C041E083
:1052200061E00C9430285F988EBD00000DB407FE3D
:10523000FDCF8EB56EBD00000DB407FEFDCF8EB55F
:105240005F9A0895CF93DF9300D01F921F92CDB73E
:10525000DEB795E0E8E6F2E0DE01119601900D92EE
:105260009A95E1F7E1E0F0E0EC0FFD1FE80FF11D8A
:10527000808190E00E941329EAE0F1E08081806162
:1052800080836AE570E08DE20E9404A8E1E2F1E02B
:105290008081887F816080830F900F900F900F90A6
:1052A0000F90DF91CF910895880F991F880F991F54
:1052B000FC01E050FC4F4081518162817381FC010F
:1052C000EA58F94F4083518362837383E0910F075B
:1052D000F091100782899389A489B58980930B077F
:1052E00090930C07A0930D07B0930E070895CF93EA
:1052F000DF932FB7F894AC01440F551F440F551F8F
:10530000FA01E050FC4F60817181828193812FBF4F
:10531000EA01CA59D94F0E9454C6288139814A816D
:105320005B810E94B3C6DF91CF9108959091E90F00
:105330008091EA0F981719F00E94EB69F7CF089552
:10534000AF92BF92CF92DF92EF92FF920F931F9393
:10535000CF93DF931F92CDB7DEB77C016B018A013B
:1053600059018091620F811118C0F70180819181EC
:105370000E942ECA8983F60181936F01BE016F5F7F
:105380007F4FC5010E94123FF701808191810196F4
:10539000918380830150110941F70F90DF91CF91E4
:1053A0001F910F91FF90EF90DF90CF90BF90AF9043
:1053B00008957F928F929F92AF92BF92CF92DF9289
:1053C000EF92FF920F931F93CF93DF931F92CDB76E
:1053D000DEB7E091620FE11149C059017C018B01F8
:1053E0006B01C40ED51E0C151D0509F43FC0F70155
:1053F00080809180F80171908F017982C4010E94B0
:105400002ECA781631F1672DC4010E9436CAC40134
:105410000E942ECA99818917E1F0E6ECFDE28491A1
:105420008F010F5F1F4F882321F00E943B1CF80162
:10543000F6CFEEE4FEE084918F010F5F1F4F8823CB
:1054400021F00E943B1CF801F6CF81E08093620FAF
:105450000DC0BE016F5F7F4FC5010E94123FF70173
:1054600080819181019691838083BDCF0F90DF91E0
:10547000CF911F910F91FF90EF90DF90CF90BF9051
:10548000AF909F908F907F9008950E944EA60E94AB
:105490006CA71092BF041092C0041092C104109225
:1054A000C2040E949C6680E090E00E94421C81E061
:1054B00090E00E94421C82E090E00E94421C6091B9
:1054C000670F7091680F8091690F90916A0F0E9429
:1054D000945E0E94889E0C9419764F925F926F9210
:1054E0007F928F929F92AF92BF92EF92FF920F9313
:1054F0001F93CF93DF93EC018091960F85FF0EC031
:10550000FE01EC59FD4F608180E49EE00E947FA582
:1055100089E20E943B1C8AE00E943B1C209739F4E0
:105520008091790C811113C00FEF1FEF12C0FE01A3
:10553000E35CF14F0491002E000C110BC230D10539
:1055400041F481E00E945262882319F024C101E0F5
:1055500010E08091960F85FF0DC0EFE2FEE0849190
:105560007F019FEFE91AF90A882321F00E943B1C72
:10557000F701F5CF7E01EE0CFF1CEE0CFF1CF701CE
:10558000E953F24F4590559065907490B801110F12
:10559000880B990B0E9454C64B015C0120E030E05F
:1055A00040EC5FE3C301B2010E94B3C6A5019401C0
:1055B0000E94B3C6AB01BC0100E010E09801CE012F
:1055C0000E941D75C230D10589F403EC1DE0F8017D
:1055D000659175918591949120E030E040EA50E426
:1055E0000E944DC687FD0EC0F80103C0F701E554C7
:1055F000F24F85919591A591B491E82F792F6A2F5B
:105600008B2F04C0E0E070E060EA80E42E2F372F9B
:10561000462F582FC501B4010E94B3C64B015C014F
:1056200020E030E0A9010E944DC6882309F469C03A
:105630008091960F85FF0CC0E3E2FEE084918F011C
:105640000F5F1F4F882321F00E943B1CF801F6CF0B
:1056500000E010E09801B501A4017058CE010E944D
:105660001D758091960F85FF0CC0E5E1FEE08491E9
:105670008F010F5F1F4F882321F00E943B1CF80110
:10568000F6CFFE01E854F24F6491611119C0E6ECC7
:10569000FDE284918F010F5F1F4F882321F00E944C
:1056A0003B1CF801F6CFE6E9FDE084918F010F5F26
:1056B0001F4F882321F00E943B1CF801F6CF6AE0BF
:1056C000F701EA57F24F459055906590749070E05D
:1056D00080E090E00E9454C69B01AC01C301B2017E
:1056E0000E94F5CB2B013C01A5019401C501B40139
:1056F0000E94FBCAAB01BC0193018201CE010E9452
:105700001D75CE010E9472210E946622D701A959FF
:10571000B34FF701EA57F04F4081518162817381A5
:105720004D935D936D937C9313978091960F85FFB6
:105730002FC046E85FE061EE7DE081E09EE00E94E0
:105740005221C230D10529F480E00E9452628111B9
:1057500022C08091960F85FF1EC0CC59DD4F688115
:1057600083ED9DE00E947FA589E20E943B1C8AE0B8
:10577000DF91CF911F910F91FF90EF90BF90AF906D
:105780009F908F907F906F905F904F900C943B1CF8
:10579000C230D105C9F2DF91CF911F910F91FF90D7
:1057A000EF90BF90AF909F908F907F906F905F90A1
:1057B0004F900895ECEBF6E0659175918591949189
:1057C00020917A0F30917B0F40917C0F50917D0F8B
:1057D0000E94FBCA0895CF92DF92EF92FF92CF937F
:1057E000DF936B017C01EA0122E03BE246EA51ECE7
:1057F0000E945BCD87FD23C022E430E04DE453E4FA
:10580000C701B6010E944DC61816CCF0C880D980D9
:10581000EA80FB8021E338E040ED50ECC701B6019F
:105820000E945BCD87FD0BC0C1E022E430E04CE775
:1058300053E4C701B6010E944DC618160CF4C0E02F
:105840008C2FDF91CF91FF90EF90DF90CF90089554
:10585000CF92DF92EF92FF920F931F93CF93DF933C
:1058600000D01F92CDB7DEB79D9AA59882E08093B5
:10587000C0001092C50080E18093C4008091C100F7
:1058800080618093C1008091C10088608093C100D5
:105890008091C10080688093C100EFE7FDE08491B2
:1058A0008F010F5F1F4F882321F00E943B1CF801DE
:1058B000F6CFE6ECFDE284918F010F5F1F4F882346
:1058C00021F00E943B1CF801F6CF14B710FF0DC069
:1058D000E6E7FDE084917F012FEFE21AF20A8823C8
:1058E00021F00E943B1CF701F5CF11FF0DC0EAE546
:1058F000FDE084917F013FEFE31AF30A882321F052
:105900000E943B1CF701F5CF12FF0DC0EDE3FDE057
:1059100084917F019FEFE91AF90A882321F00E9400
:105920003B1CF701F5CF13FF0DC0E1E2FDE08491D0
:105930007F012FEFE21AF20A882321F00E943B1C1C
:10594000F701F5CF15FF0CC0E6E0FDE084918F0173
:105950000F5F1F4F882321F00E943B1CF801F6CFF8
:1059600014BEEFEFFCE084918F010F5F1F4F88237F
:1059700021F00E943B1CF801F6CF80E20E943B1C04
:10598000E4EFFCE084918F010F5F1F4F882321F02B
:105990000E943B1CF801F6CF8AE00E943B1CE6EC1B
:1059A000FDE284918F010F5F1F4F882321F00E9439
:1059B0003B1CF801F6CFE4EEFCE084918F010F5F11
:1059C0001F4F882321F00E943B1CF801F6CFE3ED26
:1059D000FCE084918F010F5F1F4F882321F00E940C
:1059E0003B1CF801F6CFECEAFCE084918F010F5FDD
:1059F0001F4F882321F00E943B1CF801F6CFE6ECF4
:105A0000FDE284918F010F5F1F4F882321F00E94D8
:105A10003B1CF801F6CFE5E9FCE084918F010F5FB4
:105A20001F4F882321F00E943B1CF801F6CFE6ECC3
:105A3000FDE284918F010F5F1F4F882321F00E94A8
:105A40003B1CF801F6CF8091AB109091AC108E0109
:105A50000F5F1F4F009721F4C801815B904104C084
:105A6000F801E81BF90BCF019A83898369817A8158
:105A700086E89CE00E9466A560E175E08FE69CE008
:105A80000E9466A58AE00E943B1C81E0809311077A
:105A90008093120780931307809314070E948F84CA
:105AA0008CE0E8E5FEE0A6E8BFE001900D928A9563
:105AB000E1F70E9466228091230290912402909344
:105AC0002602809325021092BF041092C004109207
:105AD000C1041092C204809101018064809301018D
